:100000000C94AF070C94E0070C94E0070C94E00705
:100010000C94E0070C94E0070C94E0070C94E007C4
:100020000C94E0070C94E0070C94E0070C94E007B4
:100030000C949B820C94E0070C94E0070C94E0076E
:100040000C94E0070C94B52B0C94E0070C94E0079B
:100050000C94E0070C94E0070C94E0070C946637CE
:100060000C94E0070C9474190C944A190C94E00752
:100070000C94E0070C94E0070C94E0070C94E00764
:100080000C94872B0C94E0070C94E0070C94E00789
:100090000C9415190C94EB180C94E0070C9436345E
:1000A0000C94E0070C94E0070C94592B0C94E00797
:1000B0000C94E0070C94E0070C94E0070C942B2BB5
:1000C0000C94E0070C94E0070C94E0070C94E00714
:1000D0000C94E0070C94E0070C94E0070C94E00704
:1000E0000C94E0075B435B435B439043D545374645
:1000F0005B435B439043D5454A364D363C364036EC
:1001000044368436513655365B365F36633669364B
:100110006D367136843677367B367F36084AD73B64
:100120003BCE016E84BCBFFDC12F3D6C74319ABDC6
:1001300056833DDA3D00C77F11BED9E4BB4C3E91EA
:100140006BAAAABE000000803F000C9409140C9416
:10015000DA2E0C9451360C9452100C948D380C9469
:100160005F360C947B360C941C110C94C6100C94C6
:100170006B7A0C946A330C94F8120C9475330C94CB
:1001800071360C9463360C94BE790C94A9170C94B8
:1001900068330C9444110C94B8110C946D360C9483
:1001A00021170C9490430C9469360C94AC330C9446
:1001B00055360C944C170C94E32B0C94CF330C94C1
:1001C00044360C94AC010C946E330C945F170C9471
:1001D0005B360C944A360C94BF100C9494100C941B
:1001E00007340C940A2C0C9437460C94A0110C94F0
:1001F000372E0C9405200C94F0170C9477360C9441
:100200004D360C9484360C947F360C94052C0C944B
:100210006D170C94DB2D0C94D7330C94C5100C94F3
:100220003C360C9481180C94AB330C945B430C94C7
:100230006C330C9436840C9447180C9440360C9410
:10024000D5450C946B100C94BB330C94A5240C94E2
:10025000C21000002200250028002B002E003100D3
:10026000340002010000050108010B01000021001B
:10027000240027002A002D00300033000101000077
:10028000040107010A010505050507050808080816
:10029000020202020A0A080804040404010101011E
:1002A0000101010103030303030303030407070719
:1002B0000C0C0C0C0C0C0C0C0202020206060606BE
:1002C000060606060B0B0B0B0B0B0B0B010210208B
:1002D000200808102040102040800201020108047C
:1002E0000201010204081020408080402010080410
:1002F0000201800402018040201008040201080469
:1003000002010102040810204080010204081020AC
:10031000408000000A0B02090C0D0E0807030401BF
:1003200000000000000000000000000000000000CD
:10033000000000000000000000000000000012119A
:10034000100000000000000000000000000000009D
:10035000000000000000000089E0482EAA24AA94B2
:10036000BA2CEE24EA94FE2CCC24CA94DC2C55241E
:100370005394992493948091620E882309F4E3C5E1
:100380008091CA0D8F5F8093CA0DD091410E0FB638
:10039000F8940F928091CA0D81508093CA0D80917C
:1003A000CA0D8111DEC18091AB0D882309F4D9C13A
:1003B0002091C60D3091C70DE0E0F0E08091C10DB5
:1003C000882309F48FC0D9011696ED91FC911797F7
:1003D000048915894685578580899189DA011596A2
:1003E0009C938E93149780899189DC0113965C937A
:1003F0004E931297AF01445F5F4FD80111966D91F4
:100400007C9112976417750721F412969C938E9332
:100410001197158A148AD8018C9181508C93AF0161
:100420004E5F5F4F02851385648175818681978158
:10043000DB0115969C938E93149786819781DC013E
:1004400013967C936E931297D80111966D917C91BF
:1004500012976417750721F412969C938E93119747
:1004600013861286D8018C9181508C93A689809135
:10047000EF0D8A1710F4A093EF0D4A9ED0011124BE
:100480008D010553124FD80111968D919C911297B1
:1004900095838483DC0114966D917C911597778305
:1004A000668314966D917C911597DB0113965C938E
:1004B0004E931297DC0115965C934E931497138715
:1004C0000287D8018C918F5F8C93A091BF0DB09162
:1004D000C00D968956968C91981708F46FCF90921C
:1004E000BE0D6CCFEF2BE1F0E091B70DF091B80DA0
:1004F0008081811105C0D092B60DC092B50D10C09B
:10050000E091B70DF091B80D0580F681E02D0680E1
:10051000F781E02D828193819093B60D8093B50D84
:100520003091AA0D332309F417C18091CA0D8111AE
:1005300001C18091BB0D9091BC0D01969093BC0DB3
:100540008093BB0D009789F54091B70D5091B80D80
:100550006091B90D7091BA0D7093B80D6093B70D9D
:100560005093BA0D4093B90D2091BD0D2F5F20938C
:10057000BD0DE091B70DF091B80D2081211105C09E
:10058000D092B60DC092B50D10C0E091B70DF091AC
:10059000B80D0580F681E02D0680F781E02D4281BF
:1005A00053815093B60D4093B50D4091B50D5091C8
:1005B000B60D20E08417950708F4ADC0E091B70DA3
:1005C000F091B80D4081411105C0D092B60DC09296
:1005D000B50DA1C0E091B70DF091B80D0580F68181
:1005E000E02D0680F781E02D428153818417950725
:1005F00028F45093B60D4093B50D8DC0BF016E5FCA
:100600007F4F628473840481158146815781D801AC
:1006100015965C934E93149746815781DA01139691
:100620001C930E931297D30111960D911C91129762
:100630000617170721F412965C934E9311971386B1
:100640001286D3014C9141504C9324883588211453
:10065000310429F14685578500891189DA011596FB
:100660001C930E93149700891189D80113965C93FB
:100670004E931297D10111966D907C901297AF0115
:10068000445F5F4F6416750621F412961C930E9317
:100690001197158A148AD1014C9141504C93A68927
:1006A0004091EF0D4A1710F4A093EF0D4A9ED00130
:1006B0001124AD014553524F3A01DA0111964D9183
:1006C0005C91129755834483DA0114960D911C9125
:1006D00015971783068314960D911C911597D801D1
:1006E00013967C936E931297DA0115967C936E9312
:1006F000149773866286D3014C914F5F4C93A091FF
:10070000BF0DB091C00D568956964C91541708F400
:1007100055CF21E053CFE091BF0DF091C00DE68998
:100720004E9EF0011124E553F24F8081823040F05B
:1007300021E006C08091AA0D8F5F8093AA0D20E072
:100740008091BE0D811101C021119092BE0D3150DA
:1007500009F0EBCE1092AA0D8091BE0D81110E947E
:100760009E820F900FBEDD2309F405CE0FB6F894DC
:100770000F92E091460EF091470E06811781E80135
:10078000EA85FB858C819D812E813F81DC01159658
:100790003C932E9314970E80DF81C02D9B838A8318
:1007A000C8010296218132812817390711F4D283BA
:1007B000C183E8011B861A868081815080838091E5
:1007C000AB0D81508093AB0D8091620E8150809370
:1007D000620E0F900FBE2F89388D2115310509F457
:1007E000E4C19091CA0D9F5F9093CA0DC9010E9408
:1007F0009A8C0FB6F8940F928091CA0D8150809315
:10080000CA0D8091CA0D8111CEC18091AB0D882394
:1008100009F4C9C16091C60D7091C70DE0E0F0E028
:100820008091C10D882309F47FC0DB011696ED91FC
:10083000FC911797C489D589268537858089918948
:10084000D90115969C938E93149780899189DC0128
:1008500013963C932E9312979F01245F3F4F49813B
:100860005A814217530711F49A838983158A148A8F
:100870008881815088839F012E5F3F4FC285D38539
:100880004481558186819781DA0115969C938E93D8
:10089000149786819781DC0113965C934E9312978F
:1008A00049815A814217530711F49A838983138629
:1008B0001286888181508883A6898091EF0D8A17DE
:1008C00010F4A093EF0D4A9ED0011124ED01C55301
:1008D000D24F89819A8195838483DC0114964D914E
:1008E0005C9115975783468314964D915C911597AB
:1008F000DA0113963C932E931297DC0115963C93E4
:100900002E931497D387C28788818F5F8883A091A5
:10091000BF0DB091C00D968956968C91981708F42A
:100920007FCF9092BE0D7CCFEF2BE1F0E091B70D21
:10093000F091B80D8081811105C0F092B60DE09262
:10094000B50D10C0E091B70DF091B80D0580F6819E
:10095000E02D0680F781E02D828193819093B60D82
:100960008093B50D8090AA0D882009F417C180915D
:10097000CA0D811101C18091BB0D9091BC0D0196F2
:100980009093BC0D8093BB0D009789F52091B70D16
:100990003091B80D4091B90D5091BA0D5093B80DEA
:1009A0004093B70D3093BA0D2093B90D2091BD0D32
:1009B0002F5F2093BD0DE091B70DF091B80D208110
:1009C000211105C0F092B60DE092B50D10C0E09176
:1009D000B70DF091B80D0580F681E02D0680F78106
:1009E000E02D228133813093B60D2093B50D2091F7
:1009F000B50D3091B60DD0E08217930708F4ADC065
:100A0000E091B70DF091B80D2081211105C0F09251
:100A1000B60DE092B50DA1C0E091B70DF091B80D03
:100A20000580F681E02D0680F781E02D228133815B
:100A30008217930728F43093B60D2093B50D8DC01F
:100A4000AF014E5F5F4F628473842481358166817C
:100A50007781D90115967C936E931497668177817F
:100A6000DB0113963C932E931297D30111962D918F
:100A70003C9112972417350721F412967C936E93BC
:100A8000119713861286D3012C9121502C93248820
:100A900035882114310429F12685378560897189CB
:100AA000D90115967C936E93149760897189DB0147
:100AB00013963C932E931297D10111966D907C90D2
:100AC00012979F01245F3F4F6216730621F412961E
:100AD0007C936E931197158A148AD1012C91215021
:100AE0002C93A6892091EF0D2A1710F4A093EF0DF7
:100AF0004A9ED00111249D012553324F3901D9015D
:100B000011962D913C91129735832483D901149627
:100B10006D917C9115977783668314966D917C9186
:100B20001597DB0113965C934E931297D901159696
:100B30005C934E93149773866286D3012C912F5F3A
:100B40002C93A091BF0DB091C00D368956962C9173
:100B5000321708F455CFD1E053CFE091BF0DF0919B
:100B6000C00DE6894E9EF0011124E553F24F8081BD
:100B7000823040F0D1E006C08091AA0D8F5F809353
:100B8000AA0DD0E08091BE0D811101C0D1119092CB
:100B9000BE0D8A948110EBCE1092AA0D8091BE0DED
:100BA00081110E949E820F900FBE0115110509F45C
:100BB000E2CB8091CA0D8F5F8093CA0DC8010E945D
:100BC0009A8C0FB6F8940F928091CA0D8150809341
:100BD000CA0D8091CA0D8111B3C18091AB0D8823DC
:100BE00009F4AEC12091C60D3091C70DE0E0F0E0F0
:100BF0008091C10D882309F47DC0E901EE81FF8158
:100C0000C489D5894685578580899189DA011596E9
:100C10009C938E93149780899189DC0113965C9341
:100C20004E931297AF01445F5F4F69817A816417D9
:100C3000750711F49A838983158A148A88818150F3
:100C40008883AF014E5F5F4FC285D3856481758114
:100C500086819781DB0115969C938E9314978681EC
:100C60009781DC0113967C936E93129769817A8148
:100C70006417750711F49A83898313861286888115
:100C800081508883A6898091EF0D8A1710F4A09374
:100C9000EF0D4A9ED0011124ED01C553D24F898139
:100CA0009A8195838483DC0114966D917C911597CC
:100CB0007783668314966D917C911597DB0113966B
:100CC0005C934E931297DC0115965C934E931497A8
:100CD000D387C28788818F5F8883A091BF0DB09131
:100CE000C00D968956968C91981708F481CF509232
:100CF000BE0D7ECFEF2BE1F0E091B70DF091B80D76
:100D00008081811105C0B092B60DA092B50D10C0C2
:100D1000E091B70DF091B80D0580F681E02D0680C9
:100D2000F781E02D828193819093B60D8093B50D6C
:100D30003091AA0D332309F4FEC08091CA0D8111B0
:100D4000E8C08091BB0D9091BC0D01969093BC0DB5
:100D50008093BB0D009789F54091B70D5091B80D68
:100D60006091B90D7091BA0D7093B80D6093B70D85
:100D70005093BA0D4093B90D2091BD0D2F5F209374
:100D8000BD0DE091B70DF091B80D2081211105C086
:100D9000B092B60DA092B50D10C0E091B70DF091D4
:100DA000B80D0580F681E02D0680F781E02D4281A7
:100DB00053815093B60D4093B50D4091B50D5091B0
:100DC000B60D20E08417950708F494C0E091B70DA4
:100DD000F091B80D4081411105C0B092B60DA092BE
:100DE000B50D88C0E091B70DF091B80D0580F68182
:100DF000E02D0680F781E02D42815381841795070D
:100E000028F45093B60D4093B50D74C0BF016E5FCA
:100E10007F4FC285D3850481158146815781D801D2
:100E200015965C934E93149746815781DA01139679
:100E30001C930E93129709811A810617170711F454
:100E40005A83498313861286488141504883A48976
:100E5000B5891097F9F04685578500891189EA010F
:100E60001D830C8300891189E8015B834A831196F5
:100E70006D907C901297AF01445F5F4F64167506CA
:100E800021F412961C930E931197158A148A4C9193
:100E900041504C93A6894091EF0D4A1710F4A0934E
:100EA000EF0D4A9ED0011124A553B24F11964D91DA
:100EB0005C91129755834483EA010C811D8117834D
:100EC00006830C811D81E8017B836A83EA017D83AF
:100ED0006C83B387A2874C914F5F4C93A091BF0D59
:100EE000B091C00D568956964C91541708F46ECFA8
:100EF00021E06CCFE091BF0DF091C00DE6894E9ED0
:100F0000F0011124E553F24F8081823040F021E05E
:100F100006C08091AA0D8F5F8093AA0D20E080917A
:100F2000BE0D811101C021119092BE0D315009F00A
:100F300004CF1092AA0D8091BE0D81110E949E8255
:100F40000F900FBE18CA8091CB0D823010F00E9416
:100F50009E820E94551F0E94121809CA36841124CD
:100F60001FBECFEFD1E2DEBFCDBF00E00CBF1DE062
:100F7000A0E0B2E0E2E7F3E201E00BBF02C00790BD
:100F80000D92A837B107D9F728E1A8E7BDE001C065
:100F90001D92AB33B207E1F717E0CFEAD7E000E0EC
:100FA00006C021970109802FFE010E945C8ACE3A7B
:100FB000D10780E00807A9F70E94444E0C94B7912E
:100FC0000C9400002F923F924F925F926F927F920B
:100FD0008F929F92AF92BF92CF92DF92EF92FF9249
:100FE0000F931F93CF93DF93CDB7DEB7E1970FB683
:100FF000F894DEBF0FBECDBF64E670E080E090E005
:101000000E94BD360E94F7366DA77EA78FA798ABCA
:1010100003ED1EE084E090E09093D40E8093D30E15
:1010200080E090E1AEE0B0E08093D50E9093D60ED4
:10103000A093D70EB093D80E40E050E16EE070E080
:1010400086EB90E10E94973280E193E09F938F932B
:101050001F930F930E942D3881E393E09F938F930A
:101060001F930F930E94623889E693E09F938F93BA
:101070001F930F930E94033883EA93E09F938F930B
:101080001F930F930E9410328BED93E09F938F93E9
:101090001F930F930E94E63185E194E09F938F9315
:1010A00088E294E09F938F931F930F930E942D38B3
:1010B00089E594E09F938F931F930F930E942D389F
:1010C0000FB6F894DEBF0FBECDBF8091A41280335F
:1010D00008F042C089E00E94FE328091A412E82FFD
:1010E000F0E09F01220F331FE20FF31FED5EFD4E74
:1010F0009081907C996090831092A5121092A61214
:101100006CE00E943C8A3CE0839FB001112440E0E7
:1011100050E09A01260F371FF901EE0FFF1F2E0F27
:101120003F1FF901ED5EFD4E908196FD08C04F5FB7
:101130005F4F4C30510569F790E00E94E92AE09139
:10114000A412F0E0CF01880F991FE80FF91FED5EA0
:10115000FD4E8081806480838EE794E09F938F931F
:1011600003ED1EE01F930F930E942D388DE994E04C
:101170009F938F931F930F930E94033885EC94E005
:101180009F938F931F930F930E942D3884E30E94A7
:10119000FE3261E084E30E941B361092FC0E109236
:1011A000FB0E1092900E1092B20E10928E0E11E065
:1011B00010938D0E1092680E61E084E10E941B3640
:1011C00061E085E10E941B368091B9008E7F80939B
:1011D000B9008091B9008D7F8093B90088E4809335
:1011E000B80085E48093BC0041E050E0BE01605E41
:1011F0007F4F85E790E00E94761C41E050E0BE0101
:10120000605E7F4F8CE690E00E94761C1F8E1093EC
:101210008F0E88E68093B10E1092900E1092B20E4F
:101220006BE68DE49FE00E9407340FB6F894DEBFB2
:101230000FBECDBF019771F441E050E0BE01615E89
:101240007F4F8DE49FE00E94D733019719F481E02E
:101250000E943A328E010F5F1F4FC8010E940C1D81
:101260003AE0232E312C19A61AA61BA61CA61DA2F5
:101270001EA21FA218A619A21AA21BA21CA2C12C50
:10128000D12C7601460157012601370109AB012F08
:1012900089A9902F0E940C1D69817A81072E000C6C
:1012A000880B990B0E943F909B01AC01C301B201D6
:1012B0000E94658A2B013C016B817C81072E000C0A
:1012C000880B990B0E943F909B01AC01C501B401B2
:1012D0000E94658A4B015C016D817E81072E000CA6
:1012E000880B990B0E943F909B01AC01C701B6018E
:1012F0000E94658A6B017C0169857A85072E000C46
:10130000880B990B0E943F909B01AC0169A17AA1C7
:101310008BA19CA10E94658A69A37AA38BA39CA33D
:101320006B857C85072E000C880B990B0E943F90E3
:101330009B01AC016DA17EA18FA198A50E94658A39
:101340006DA37EA38FA398A76D857E85072E000CC5
:10135000880B990B0E943F909B01AC0169A57AA56F
:101360008BA59CA50E94658A69A77AA78BA79CA7D5
:1013700064E670E080E090E00E94BD3651E0251AFE
:10138000310809F085CF20E030E040E251E4C301AC
:10139000B2010E94008B6093880D7093890D809339
:1013A0008A0D90938B0D20E030E040E251E4C501BE
:1013B000B4010E94008B6093840D7093850D80931F
:1013C000860D9093870D20E030E040E251E4C701A4
:1013D000B6010E94008B6093800D7093810D809305
:1013E000820D9093830D20E030E040E251E469A14A
:1013F0007AA18BA19CA10E94008B6093140E709324
:10140000150E8093160E9093170E20E030E040E208
:1014100051E46DA17EA18FA198A50E94008B6093DD
:10142000100E7093110E8093120E9093130E20E005
:1014300030E040E251E469A57AA58BA59CA50E9405
:10144000008B60930C0E70930D0E80930E0E909394
:101450000F0E0E94F7366093080E7093090E80936A
:101460000A0E90930B0E1092040E1092050E10921D
:10147000060E1092070E1092000E1092010E10929E
:10148000020E1092030E1092FC0D1092FD0D1092A0
:10149000FE0D1092FF0D1092F80D1092F90D1092A2
:1014A000FA0D1092FB0D1092F40D1092F50D1092A2
:1014B000F60D1092F70D1092F00D1092F10D1092A2
:1014C000F20D1092F30D8AEE94E09F938F9303ED4B
:1014D0001EE01F930F930E942D3889E095E09F93A3
:1014E0008F931F930F930E942D3810928D0D1092A1
:1014F0008C0D0FB6F894DEBF0FBECDBF98E5292E38
:1015000092E0392E24EBC22ED12CE12CF12C00914B
:101510008C0D10918D0D043011050CF0C0C04801E8
:10152000880C991CF401E25CFD4F6080C401800FBF
:10153000911FDC01A955BD4E5D018C91803308F0EF
:101540004CC0862D0E94FE32F5018081282F30E0AC
:10155000A901440F551F240F351FF901ED5EFD4E03
:10156000962D9F732081207C622E692A6082D5018E
:1015700011961C92119712961C926CE00E943C8A64
:10158000BCE08B9FB001112420E030E0A901460FA0
:10159000571FFA01EE0FFF1FE40FF51FED5EFD4E22
:1015A000908196FD08C02F5F3F4F2C30310571F7B9
:1015B00090E00E94E92AF401E00FF11FE955FD4E89
:1015C000808190E09C01220F331F820F931FFC014A
:1015D000ED5EFD4E808180648083080D191DF80149
:1015E000E955FD4E928181819080EFE2E91508F482
:1015F0004CC05101A91AB10897FDB394AA0CBB1CA9
:10160000AA0CBB1C08E810E0081B110987FD139504
:10161000000F111F000F111F2801012E000C66087A
:101620007708C5010B2C000CAA0BBB0B9C01AD016C
:101630002419350946095709AAE5B0E00E947B91B3
:10164000A70196010E945C91DA01C901840D951DE4
:10165000A61DB71D801791072CF08C01A816B9069E
:101660000CF4850102501109000F111F2FB7F894D7
:10167000892D90E0FC01EE0FFF1F8E0F9F1FFC01D4
:10168000ED5EFD4E128301832FBF80918C0D9091F2
:101690008D0D019690938D0D80938C0D38CF82EE39
:1016A00096E10E941D33C0902202D0902302E09068
:1016B0002402F090250200911E0210911F02209139
:1016C00020023091210240911A0250911B02609138
:1016D0001C0270911D0282EE96E10E946835812CF9
:1016E000912CA12C90E4B92E8092B8149092B91448
:1016F000A092BA14B092BB14412C512C28E4622E53
:1017000022E4722E4092991650929A1660929B167D
:1017100070929C1620E530E03093CE142093CD14C7
:101720003AEF232E312C3092CC142092CB1489EA3C
:1017300096E10E941D33C0900A02D0900B02E09007
:101740000C02F0900D020091060210910702209108
:101750000802309109024091020250910302609107
:1017600004027091050289EA96E10E946835809230
:10177000BD129092BE12A092BF12B092C0124092BF
:101780009E1450929F146092A0147092A11440E590
:1017900050E05093D3124093D2123092D112209243
:1017A000D01281E395E09F938F9383ED9EE09F930A
:1017B0008F930E942D3864E670E080E090E00E94F4
:1017C000BD360F900F900F900F908091600E90910A
:1017D000610E892B09F0D5C38091CA0D8F5F80936C
:1017E000CA0D8FE190E00E94058C5C010FB6F89461
:1017F0000F928091CA0D81508093CA0D8091CA0DBD
:101800008111E5C18091AB0D882309F4E0C14091BD
:10181000C60D5091C70DE0E0F0E019E001E08091C5
:10182000C10D882309F490C0DA011696ED91FC9160
:101830001797E488F5882685378580899189D901AD
:1018400015969C938E93149780899189DC01139649
:101850003C932E9312979F01245F3F4FD70111961F
:101860006D917C9112976217730721F412969C93E5
:101870008E931197158A148AD7018C9181508C937D
:101880009F012E5F3F4FE284F384648175818681DE
:101890009781DB0115969C938E931497868197818F
:1018A000DC0113967C936E931297D70111966D917C
:1018B0007C9112976217730721F412969C938E9372
:1018C000119713861286D7018C9181508C93A6892B
:1018D0008091EF0D8A1710F4A093EF0D1A9FD0019D
:1018E0001124BD016553724F7B01DB0111968D916F
:1018F0009C91129795838483DC0114966D917C9161
:1019000015977783668314966D917C911597DB010B
:1019100013963C932E931297DC0115963C932E93CD
:101920001497F386E286D7018C918F5F8C93A091F8
:10193000BF0DB091C00D968956968C91981708F4FA
:101940006ECF0093BE0D6BCFEF2BD1F0E091B70DB2
:10195000F091B80D8081811103C08FEF9FEF0CC013
:10196000E091B70DF091B80D0580F681E02D06806D
:10197000F781E02D828193819093B60D8093B50D10
:101980003091AA0D332309F41DC189E0582E442457
:1019900043940FEF1FEF8091CA0D811101C1809117
:1019A000BB0D9091BC0D01969093BC0D8093BB0D27
:1019B000009789F54091B70D5091B80D6091B90D20
:1019C0007091BA0D7093B80D6093B70D5093BA0D26
:1019D0004093B90D2091BD0D2F5F2093BD0DE09177
:1019E000B70DF091B80D2081211105C01093B60DEF
:1019F0000093B50D10C0E091B70DF091B80D0580C2
:101A0000F681E02D0680F781E02D428153815093CD
:101A1000B60D4093B50D4091B50D5091B60D20E037
:101A20008417950708F4ADC0E091B70DF091B80D9B
:101A30004081411105C01093B60D0093B50DA1C0B2
:101A4000E091B70DF091B80D0580F681E02D06808C
:101A5000F781E02D428153818417950728F4509334
:101A6000B60D4093B50D8DC0AF014E5F5F4FE28460
:101A7000F3848480958066817781D40115967C9368
:101A80006E93149766817781DB0113969C928E92F8
:101A90001297D70111968D909C90129784169506F7
:101AA00021F412967C936E93119713861286D701B8
:101AB0006C9161506C93E488F588E114F10429F18C
:101AC0006685778580889188DB0115969C928E9239
:101AD000149780889188D40113967C936E93129703
:101AE000D70111966D907C901297BF01645F7F4F74
:101AF0006616770621F412969C928E921197158A9B
:101B0000148AD7016C9161506C93A6896091EF0D96
:101B10006A1710F4A093EF0D5A9ED0011124BD0155
:101B20006553724F7B01DB0111966D917C91129789
:101B300075836483DB0114968D909C901597978232
:101B4000868214968D909C901597D40113965C9381
:101B50004E931297DB0115965C934E931497F38680
:101B6000E286D7014C914F5F4C93A091BF0DB0918D
:101B7000C00D568956964C91541708F455CF21E064
:101B800053CFE091BF0DF091C00DE6895E9EF0014C
:101B90001124E553F24F8081823040F021E006C0ED
:101BA0008091AA0D8F5F8093AA0D20E08091BE0DD9
:101BB000811101C021114092BE0D315009F0EBCED0
:101BC0001092AA0D8091BE0D81110E949E820F90ED
:101BD0000FBEA114B10469F4279A2F9ABFEFE0E772
:101BE000F2E0B150E040F040E1F700C000001F9A81
:101BF000F5CFD5011196BC92AE9281E05B968C93A5
:101C00005B975C961C925C970FB6F8940F92F50167
:101C100020813181938D448D949FC0011124B9019D
:101C2000680F791F73836283128E35832483841B2C
:101C30009109820F931F978386838FEF858F868FFD
:101C4000C5010B96928781872FEF3FEF348723875B
:101C500096878587908B878710860996938B828BD2
:101C6000358B248B978B868B918F808F118A0F9069
:101C70000FBE13961C921E92129711961C921E92E2
:101C800016961C920FB6F8940F92928D838D98172A
:101C900008F06AC1128D448D41117EC0808191810E
:101CA000892B09F09DC00280F381E02D309711F45B
:101CB00080E06CC082A1815082A3268991A129175E
:101CC000B9F38111F5CF9F012E5F3F4F6285738578
:101CD0004481558186819781DA0115969C938E9374
:101CE000149786819781DC0113965C934E9312972B
:101CF000DB0111964D915C9112974217530721F425
:101D000012969C938E93119713861286DB018C9109
:101D100081508C9381A1868B682F70E044E050E065
:101D2000461B570B558744879091EF0D981710F479
:101D30008093EF0D89E0869FD001879FB00D11241D
:101D4000BD016553724FDB0111968D919C911297E5
:101D500095838483DC0114964D915C91159757838C
:101D6000468314964D915C911597DA0113963C9336
:101D70002E931297DC0115963C932E93149773873C
:101D80006287FB0180818F5F808381E0D50113969C
:101D90001C921E92129725C050E060E070E0F501A1
:101DA000848195810E94378DD5015C962C915C973A
:101DB00014968D919C911597820F911D15969C9369
:101DC0008E93149712962D913C9113978217930737
:101DD00038F08D919C91119715969C938E93149742
:101DE00080E01F5FF501128F9189992309F4B9C032
:101DF0000688F789E02D0680F781E02DCF010C964B
:101E0000648975894685578520893189DA01159657
:101E10003C932E93149720893189D90113965C93B2
:101E20004E931297DB0111964D915C9112974817D2
:101E3000590721F412963C932E931197158A148A10
:101E4000DB012C9121502C932091CA0D211158C0F7
:101E50009F012E5F3F4F6285738544815581868146
:101E60009781DA0115969C938E93149786819781BA
:101E7000DC0113965C934E931297DB0111964D9102
:101E80005C9112974217530721F412969C938E93FC
:101E9000119713861286DB018C9181508C93A68951
:101EA0008091EF0D8A1710F4A093EF0D49E0A49FE5
:101EB000D0011124BD016553724FDB0111968D9144
:101EC0009C91129795838483DC0114964D915C91CB
:101ED00015975783468314964D915C911597DA01B7
:101EE00013963C932E931297DC0115963C932E93F8
:101EF000149773876287DB018C918F5F8C9324C06A
:101F00004091C20D5091C30D57874687DA01149650
:101F10002D913C911597318B208B14962D913C91EE
:101F20001597D90113969C938E931297DA01159603
:101F30009C938E93149781EC9DE0958B848B80917C
:101F4000C10D8F5F8093C10DA091BF0DB091C00DE9
:101F5000968956968C91891738F481E08093BE0D4E
:101F600001C081110E949E820F900FBEB092610E3F
:101F7000A092600E40E050E060E070E0C5010E9479
:101F8000896BCE0101960E94351D8E859F85A8899B
:101F9000B9898093900D9093910DA093920DB09379
:101FA000930D00E010E021E040E055E063E575E0CE
:101FB00085E090E20E949E7AF82E0EE51EE021E078
:101FC00040E054E060E675E085EA94E20E949E7A83
:101FD000F8228FE00E94C88790938F0D80938E0D1A
:101FE0008FE00E94C88790935D0E80935C0EF11085
:101FF0000BC08DE695E09F938F9383ED9EE09F93BA
:102000008F930E9462380AC086E995E09F938F9370
:1020100083ED9EE09F938F930E942D380F900F9039
:102020000F900F9089EB95E09F938F9303ED1EE047
:102030001F930F930E942D380E94F736DC01CB01CD
:102040002DA53EA54FA558A9821B930BA40BB50B3C
:10205000BF93AF939F938F9385EE95E09F938F935C
:102060001F930F930E942D380FB6F894DEBF0FBE5A
:10207000CDBFE1960FB6F894DEBF0FBECDBFDF91A6
:10208000CF911F910F91FF90EF90DF90CF90BF9075
:10209000AF909F908F907F906F905F904F903F9008
:1020A0002F900895CF93DF93EC018C819D81DC010B
:1020B000ED91FC910480F581E02D6E81199581E010
:1020C0008E8F1E821F8E18A219A21AA21CA280E057
:1020D000DF91CF910895DC01FC01ED57FF4F808126
:1020E0008823D1F017968C911797861741F01A968E
:1020F0008C911A97861315C021E030E002C020E0D1
:1021000030E0F901EE0FFF1F2E0F3F1FFD01E20F20
:10211000F31F80859185089518968D919C9119974C
:10212000089580E090E00895DC0117968C91179750
:10213000811106C018968D919C911997892B71F089
:102140001A968C911A97811118C01B968D919C91AB
:102150001C97892B91F421E030E002C020E030E0B0
:10216000F901EE0FFF1F2E0F3F1FFD01E20FF31FBE
:1021700067835187408781E0089580E00895FC01DE
:1021800084A10895FC0186810895089580E0089552
:1021900080E0089580E090E008950895DF92EF9246
:1021A000FF920F931F93CF93DF93EC01E62EF12C58
:1021B00085E0689FB0011124FE01E60FF71F8085BE
:1021C000182F177086FF21C001E085E0D82E8FEF11
:1021D000800F8F3008F001E0FE01D09EE00DF11D70
:1021E000112480858695869586958770811305C014
:1021F000602FCE010E94CE10EACF0F5F003161F751
:102200008D81811302C011501D8385E08E9DF001E8
:102210008F9DF00D1124EC0FFD1F108681E081874A
:1022200012862296D783C683DF91CF911F910F919B
:10223000FF90EF90DF900895FC016134C1F43F9668
:102240009C01265A3F4F61E0AC014E5F5F4FDF01BA
:1022500012971C9211966C93108213974D935C9376
:102260003596E217F30799F7FC01158208953D961C
:1022700021E03081361303C0622F0C94CE102F5F03
:1022800035962031B1F70895CF93DF93FC01862F67
:10229000807809F051C0283008F04FC0442321F065
:1022A0009581973009F449C0EF012D96A0E0B0E088
:1022B00011969881911103C0662331F021C02596B3
:1022C000AF30B105A9F739C085E08A9FE0018B9F47
:1022D000D00D1124CE0FDF1F442331F081E4888715
:1022E00085818F5F858302C081E0888725E02A9FF2
:1022F000C0012B9F900D1124E80FF91F80851DC090
:102300006770660F660F660F442341F06064858135
:102310008F5F85838770687F682B03C02770687B19
:10232000622B25E02A9FC0012B9F900D1124E80FFE
:10233000F91F6087862F01C080E0DF91CF9108955B
:10234000611102C006960895FC013D9621E030819E
:10235000361307C035E0239F800D911D112406968A
:1023600008952F5F3596203191F780E090E0089531
:102370003F924F925F926F927F928F929F92AF9215
:10238000BF92CF92DF92EF92FF920F931F93CF9362
:10239000DF9300D01F92CDB7DEB76C017C836B83D7
:1023A0005A8349834C0180E1880E911C5601A7E0B5
:1023B000AA0EB11C11E084E0482E3601B2E16B0E8A
:1023C000711C93E0392E22E0522E8B819C81892B47
:1023D00009F4F8C0F60190A1923059F128F499233C
:1023E00041F0913071F0F1CF933039F19430C1F177
:1023F000ECCF54828581968190878783528651865F
:1024000010A3AE014D5F5F4FBE016F5F7F4FC501EF
:102410000E94F530882309F4D5C0D6011596ED91B8
:10242000FC911697808191968C93919781819296D9
:102430008C93F6017682658230A2D60192968C91B9
:102440009297843011F493961C92F60181A18250E8
:10245000848325813681308727838287818740A2C4
:10246000D60192968C918430B1F0853009F440C049
:10247000823009F068C0AE014D5F5F4FBE016F5FF3
:102480007F4FC5010E94F530882309F49BC0F601F7
:10249000858984A38FC0AE014D5F5F4FBE016F5F22
:1024A0007F4FC5010E94F530882309F48BC0D60107
:1024B00055968C915597833009F07CC098968C91F5
:1024C0009897811177C093961C93939752968C910D
:1024D000529796968C93969753968C91539797967E
:1024E0008C93979757968C91579795968C9362C03B
:1024F000AE014D5F5F4FBE016F5F7F4FC5010E9410
:10250000F530882309F45EC0F60183A1882309F41D
:1025100051C082819381009709F44CC0DC01ED9198
:10252000FC910190F081E02D7401D60195960C91FB
:10253000959797962C91979796964C9196979496F7
:102540006C91199537C0F60181A19585992319F0F1
:10255000913031F02AC090E00297978786871587DF
:102560002B813C8189819A81782F692FD6011E9613
:102570004D915C911F974115510539F49A838983D8
:102580003C832B831D961C9210C0019621153105AA
:1025900041F041505109F6015787468721503109D2
:1025A000E3CF79836A831C821B82F6018685978537
:1025B000892B41F4D60116969C928E92159790968F
:1025C0001C9203CF0F900F900F900F90DF91CF913F
:1025D0001F910F91FF90EF90DF90CF90BF90AF9041
:1025E0009F908F907F906F905F904F903F90089555
:1025F0002F923F924F925F926F927F928F929F9213
:10260000AF92BF92CF92DF92EF92FF920F931F9300
:10261000CF93DF93CDB7DEB7C454D1090FB6F8948A
:10262000DEBF0FBECDBFDC019496BC912496BFAF38
:102630002497BB2309F4D2C07C010E94F736F7012E
:10264000878C90A0A1A0B2A0DC01CB0188199909C8
:10265000AA09BB09B7FDC2C00E94F736D7019396FD
:102660002C91DC01CB01820F911DA11DB11DF70141
:10267000878F90A3A1A3B2A3312CCE0101966C0148
:10268000282E90E49C0D25969FAF259740E4442E7C
:10269000512C3701A5E26A0E711C5701B3E8AB0E4D
:1026A000B11CF701858D381608F098C0832D90E095
:1026B000FC01EE0FFF1F8E0F9F1F8E0D9F1DFC0153
:1026C000E458FF4F808190E0FC01EE0FFF1FDF0117
:1026D000A80FB91FAE0DBF1DAA59BF4F2C9130E0F6
:1026E00023963FAF2EAF23974601D6011D92259624
:1026F0002FAD25972A13FACF8E0F9F1F8E0D9F1D8A
:10270000FC01EB59FF4F86019E012F5B3F4F40813B
:10271000D70116966C91169714968D919C911597EA
:102720000E94352A81115BC023968EAD9FAD239701
:102730008134910520F023965FAE4EAE239722960A
:102740002FAD2297B301C301F6013E2F3219321784
:1027500040F44191DC013D91CD014317B1F380E09C
:1027600003C024968FAD2497982D9219921738F4B0
:10277000F40191914F01DB019D93BD01F5CF8111D2
:102780002DC0D701ED91FC91008CF18DE02D8601DB
:10279000D5014C91B701C7011995D701ED91FC9175
:1027A0000288F389E02DD5018C91882311F069818D
:1027B00001C060E0C7011995009771F0DC01ED914F
:1027C000FC910190F081E02D860122962FAD229799
:1027D000D5014C91B7011995339463CF80E0CC5B60
:1027E000DF4F0FB6F894DEBF0FBECDBFDF91CF91A4
:1027F0001F910F91FF90EF90DF90CF90BF90AF901F
:102800009F908F907F906F905F904F903F902F9010
:1028100008952F923F924F925F926F927F928F9284
:102820009F92AF92BF92CF92DF92EF92FF920F935F
:102830001F93CF93DF93CDB7DEB7C458D1090FB63E
:10284000F894DEBF0FBECDBFDC0114960D911C9134
:1028500015971696FC90F110D2C1B22E942EA62E8A
:102860003C01D801ED91FC910190F081E02D60E0F8
:10287000C80119952C01009719F476EDF72ECAC1FD
:10288000FC01C080D180C114D10409F4BBC1130183
:10289000F5E62F0E311CDC0111963C922E92149617
:1028A000BC929E0126593F4F48E050E060E0F301A2
:1028B000848195810E94BB29E82E811193C1AB963A
:1028C000EFACAB97D201CD92DC92D801ED91FC91A7
:1028D0000280F381E02D292D40E06A2DC801199571
:1028E000F3018683882309F490C1E2969FADE297B5
:1028F000EA59FF4F9083682FD30114968D919C91D4
:1029000015970E94052AD82ED801ED91FC91D2018D
:1029100014961C92882361F00480F581E02DD30188
:1029200016966C91C8011995F3011682FD2C72C19F
:102930000190F081E02DD30116966C91C801199594
:10294000009709F49ACF4E2D433108F042E1FC0183
:10295000B48241113BC0E4968EAD9FADE497F30184
:10296000EA57FF4F91838083E6968EAD9FADE69741
:10297000329791838083EC96FFADEC97C058DF4F80
:10298000F883C058D040910141E0D30116966C9174
:10299000169714968D919C9115970E941984E82E94
:1029A000811123C170E02E01B1E44B0E511CF301E3
:1029B0003296CF57DF4FF983E883C158D040C20128
:1029C0004096EE969FAF8EAFEE978EC050E09E0180
:1029D00026593F4FD30116966C91169714968D91F8
:1029E0009C9115970E94BB29E82E8111FEC0B3CFA0
:1029F0008AE492E0F20191838083CF57DF4FA88170
:102A0000B981C158D040B383A28315861786168634
:102A100010A211A212A210A6EE968EAD9FADEE9757
:102A20009683858390878783848182878187EE96CA
:102A3000AEADBFADEE97B487A387F3013681848135
:102A40009581C258DF4F99838883CE57D0408E013D
:102A50000F5F1F4F272F49E050E0632FCD57DF4F07
:102A60003883C358D040CC57DF4F7883C458D04008
:102A70000E94DF29CD57DF4F3881C358D040CC5753
:102A8000DF4F7881C458D040811127C0AB80BC8013
:102A90005F924F921F930F9350E4852E912CC12C7F
:102AA000D12C62E0E62E072F26E040E8632FC258C3
:102AB000DF4F88819981CE57D040CC57DF4F788344
:102AC000C458D0400E941B280F900F900F900F9079
:102AD000CC57DF4F7881C458D04081110DC0F3012D
:102AE000868D823058F47F5FC058DF4FF881C05820
:102AF000D0407F137DCF02C0E82E77C0D3015E9611
:102B00004C915E97423008F483C0910116966C9107
:102B1000169714968D919C9115970E9419841F9277
:102B20001F921F921F92812C912CA12CB12CC12C91
:102B3000D12CE12CF301048D29E040E066818481F1
:102B400095810E941B28E82E0F900F900F900F90F8
:102B500081114BC010E0F301858D1817B0F5812F5E
:102B600090E09C01220F331F820F931F860D971D4B
:102B7000FC01E458FF4F2081222329F13297808104
:102B80008770C82ED12C1F921F921F921F92812CEA
:102B9000912CA12CB12CE12C00E02AE041E2D301E0
:102BA00016966C91169714968D919C9115970E948C
:102BB0001B28E82E0F900F900F900F90882319F08C
:102BC000B5E08B1312C01F5FC6CF0190F081E02DDE
:102BD0000688F789E02DC301199581E0D301949609
:102BE0008C9318C0F201D182C082D301ED91FC9187
:102BF0000480F581E02DC3011995FE2C0BC039ED41
:102C0000F32E08C027EDF22E05C094EDF92E02C078
:102C100081EDF82E8F2DCC57DF4F0FB6F894DEBF25
:102C20000FBECDBFDF91CF911F910F91FF90EF901D
:102C3000DF90CF90BF90AF909F908F907F906F90DC
:102C40005F904F903F902F9008950F931F93CF93D5
:102C5000DF93C82FD62F8A0180E591E00E945F386C
:102C60002C988C2F82600E945838CD2FD0E020976E
:102C700021F0BE01C8010E94A919C00FD11F2C9AD2
:102C80000E945738CE01DF91CF911F910F91089587
:102C90001F93CF93DF9300D0CDB7DEB7182F80E519
:102CA00091E06B830E945F382C98126019836B81CE
:102CB0006A8362E070E0CE0101960E94A9192C9A05
:102CC0000E9457380F900F900F90DF91CF911F9176
:102CD00008951F93CF93DF931F92CDB7DEB7182FC0
:102CE00080E591E00E945F382C98812F0E9458382F
:102CF00080E00E9458382C9A89830E945738898135
:102D00000F90DF91CF911F9108959F92AF92BF9244
:102D1000CF92DF92EF92FF920F931F93CF93DF93A7
:102D20007C01C42F122F992493946C01C60ED11CE0
:102D3000C60ED11C86E5C80ED11CA42EB12CABE268
:102D4000AA0EB11CAA0CBB1CAE0CBF1CF6018081E4
:102D50009181DC01ED91FC910280F381E02D202F27
:102D6000412F6C2F1995803EC9F4C1110BC061E051
:102D700088EE0E94481666E670E080E090E00E94CF
:102D8000BD3616C0F50180819181DC01ED91FC9189
:102D90000284F385E02D612F19950AC08D3031F43E
:102DA0009FEF990D933008F040C016C081113DC0CF
:102DB000F60180819181DC01ED91FC910190F0811F
:102DC000E02D202F412F6C2F1995D82F8D3061F4D5
:102DD0008FEF890D833050F464E670E080E090E07E
:102DE0000E94BD369394B2CF8823F1F0C1110BC07D
:102DF00061E088EE0E94481666E670E080E090E0B0
:102E00000E94BD3611C0EC2FF0E0BB96EE0FFF1F05
:102E1000EE0DFF1D80819181DC01ED91FC9102841A
:102E2000F385E02D612F19958D2FDF91CF911F91A3
:102E30000F91FF90EF90DF90CF90BF90AF909F9059
:102E40000895CF92DF92EF92FF920F931F93CF934B
:102E5000DF936C017A018B01C0E0D0E0CE15DF0575
:102E600089F0D8016D918D01D601ED91FC91019011
:102E7000F081E02DC6011995892B11F47E0102C065
:102E80002196ECCFC701DF91CF911F910F91FF9059
:102E9000EF90DF90CF900895FC01918D828D98176F
:102EA00059F0828DDF01A80FB11D5D968C91928D36
:102EB0009F5F928F90E008958FEF9FEF0895FC0140
:102EC000918D828D981731F0828DE80FF11D858DDF
:102ED00090E008958FEF9FEF0895FC01918D828D12
:102EE000981B892F90E0089589E59FE00E946D1757
:102EF00021E0892B09F420E0822F089586EB90E1F0
:102F00000E946D1721E0892B09F420E0822F08959B
:102F1000FC01848DDF01A80FB11DA35EBE4F2C9173
:102F2000848D90E001968F739927848FA689B78945
:102F30002C93A089B1898C9180648C93938D848D1E
:102F4000981306C00288F389E02D80818F7D8083ED
:102F50000895EF92FF920F931F93CF93DF93EC01AD
:102F600081E0888F9B8D8C8D981305C0E889F98945
:102F7000808185FD24C0F62E0B8D10E00F5F1F4F62
:102F80000F731127E02E8C8DE8120CC00FB607FCD2
:102F9000FACFE889F989808185FFF5CFCE010E94BB
:102FA0008817F1CF8B8DFE01E80FF11DE35EFE4F18
:102FB000F0820B8FEA89FB898081806207C0EE89ED
:102FC000FF896083E889F98980818064808381E05A
:102FD00090E0DF91CF911F910F91FF90EF900895B6
:102FE000CF93DF93EC01888D8823C9F0EA89FB89B0
:102FF000808185FD05C0A889B9898C9186FD0FC0A7
:103000000FB607FCF5CF808185FFF2CFA889B9897B
:103010008C9185FFEDCFCE010E948817E7CFDF911D
:10302000CF91089580E090E0892B21F00E947E17D7
:10303000811121C080E090E0892B21F00E9474175B
:1030400081111CC080E090E0892B41F080E090E08D
:10305000892B21F00E940000811113C080E090E0D4
:10306000892BA1F080E090E0892B81F00E94000084
:1030700081110AC008950E940000DCCF0E94000068
:10308000E1CF0E940000EACF0C9400000895CF9297
:10309000DF92EF92FF920F931F93CF93DF9378010C
:1030A000EC0124966C012BE0C20ED11CDE01F8016C
:1030B00031912D91321304C0AC15BD05C9F716C06E
:1030C000DC0112968D919C911397009779F0B801CD
:1030D000DC01ED91FC910190F081E02D1995F70153
:1030E00081917F018993CC15DD05C9F7DF91CF91DF
:1030F0001F910F91FF90EF90DF90CF9008950E9465
:10310000328DDB013C9111968C911197482F4370C1
:10311000E8E1FEE0308341838695869512969C9186
:103120001297292F2295220F220F207C822B292FE4
:103130002695269523708283238315965C91159797
:10314000578313966C911397658392959F70948320
:1031500014967C91149776831696AC91A0871F9253
:103160005F932F938F934F933F931F929F931F9241
:10317000AF931F927F931F926F931F925F932F9332
:103180008F934F933F938EE196E09F938F9383EDC0
:103190009EE09F938F930E94E6318DB79EB748962D
:1031A0000FB6F8949EBF0FBE8DBF089561157105CF
:1031B00079F0FB0101900020E9F73197AF01461B40
:1031C000570BDC01ED91FC910280F381E02D199405
:1031D00080E090E008951F920F920FB60F92112495
:1031E0000BB60F922F933F934F935F936F937F9301
:1031F0008F939F93AF93BF93EF93FF9389E59FE0E6
:103200000E948817FF91EF91BF91AF919F918F918D
:103210007F916F915F914F913F912F910F900BBED6
:103220000F900FBE0F901F9018951F920F920FB620
:103230000F9211240BB60F922F938F939F93EF93BE
:10324000FF93E091690FF0916A0F8081E0916F0F19
:10325000F091700F82FD11C090818091720F8F5F8D
:103260002091730F821751F0E091720FF0E0E75A4E
:10327000F04F958F8093720F01C08081FF91EF9185
:103280009F918F912F910F900BBE0F900FBE0F90BB
:103290001F9018951F920F920FB60F9211240BB624
:1032A0000F922F933F934F935F936F937F938F93DF
:1032B0009F93AF93BF93EF93FF9386EB90E10E94B0
:1032C0008817FF91EF91BF91AF919F918F917F915F
:1032D0006F915F914F913F912F910F900BBE0F9087
:1032E0000FBE0F901F9018951F920F920FB60F925E
:1032F00011240BB60F922F938F939F93EF93FF930D
:10330000E091C610F091C7108081E091CC10F0914F
:10331000CD1082FD11C090818091CF108F5F2091E0
:10332000D010821751F0E091CF10F0E0EA54FF4E38
:10333000958F8093CF1001C08081FF91EF919F9175
:103340008F912F910F900BBE0F900FBE0F901F907B
:103350001895FC0120812EBDDC0131969C01260FC1
:10336000371FE217F30741F051910DB407FEFDCF6F
:103370004EB55EBD4D93F5CF61507109FC01E60F6E
:10338000F71F0DB407FEFDCF8EB580830895CF9251
:10339000DF92EF92FF920F931F93CF93DF930FB6BD
:1033A000F8940F92E091BB0DF091BC0D0F900FBE01
:1033B0002091CA0D2F5F2093CA0D2091BB0D309133
:1033C000BC0DAEE3A69FA001A79F500D1124CA011A
:1033D00068EE73E00E94488A6E0F7F1F2E173F072A
:1033E00028F46E177F0708F067C003C06E177F07C9
:1033F00020F02617370708F05FC04091BB0D5091B1
:10340000BC0DE091BF0DF091C00DA285B385848104
:10341000958106811781EC011D830C83C681D781BC
:103420009B838A83CF01029611960D911C9112976E
:103430000817190721F41296DC93CE93119713867F
:1034400012868C9181508C93CA01821B930B680F5A
:10345000791FE091BF0DF091C00D73836283C0911D
:10346000BF0DD091C00DCE0102966417750708F00C
:10347000F8C10091B90D1091BA0D2A813B812F3FFF
:103480004FEF340709F0E0C1D8011796ED91FC9198
:103490001897228133813D832C83D90115969C9303
:1034A0008E931497FF83EE83938382831B870A870F
:1034B000E80188818F5F88830FB6F8940F9280911E
:1034C000CA0D81508093CA0D8091CA0D882311F0D6
:1034D00080E0B3C18091AB0D8823D1F32091C60D5C
:1034E0003091C70DE0E0F0E069E071E08091C10D3E
:1034F000882309F477C0D9011696ED91FC911797AE
:10350000A489B5898685978540895189EC015D83B9
:103510004C83C089D1899B838A83CF010C961196F5
:103520004D915C9112974817590721F41296DC933C
:10353000CE931197158A148A8C9181508C93CF0168
:103540000296A285B3854481558106811781EA01DF
:103550001D830C83C681D7815B834A8311964D916D
:103560005C9112974817590721F41296DC93CE9379
:103570001197138612864C9141504C93A689409125
:10358000EF0D4A1710F4A093EF0D6A9FD00111249C
:103590008D010553124FD8011196CD91DC911297F0
:1035A000D583C4834C815D81578346834C815D8183
:1035B000DA0113969C938E9312979D838C831387C5
:1035C0000287E80188818F5F8883A091BF0DB09149
:1035D000C00D968956968C91981708F487CF7093F2
:1035E000BE0D84CFEF2BD1F0E091B70DF091B80D67
:1035F0008081811103C08FEF9FEF0CC0E091B70D68
:10360000F091B80D0580F681E02D0680F781E02D60
:10361000828193819093B60D8093B50D3091AA0D60
:10362000332309F402C119E001E04FEF5FEF80910D
:10363000CA0D8111E8C08091BB0D9091BC0D01961F
:103640009093BC0D8093BB0D009789F56091B70DE9
:103650007091B80DE091B90DF091BA0DF093B80DDD
:10366000E093B70D7093BA0D6093B90D2091BD0D25
:103670002F5F2093BD0DE091B70DF091B80D208123
:10368000211105C05093B60D4093B50D10C0E091C7
:10369000B70DF091B80D0580F681E02D0680F78119
:1036A000E02D628173817093B60D6093B50D6091CA
:1036B000B50D7091B60D20E08617970708F494C0F9
:1036C000E091B70DF091B80D6081611105C0509384
:1036D000B60D4093B50D88C0E091B70DF091B80DCF
:1036E0000580F681E02D0680F781E02D62817381EF
:1036F0008617970728F47093B60D6093B50D74C0C4
:10370000BF016E5F7F4FA285B385E480F580C680E0
:10371000D780E701DD82CC82C681D781FB82EA8235
:103720001196ED90FC901297E616F70621F412968A
:10373000DC93CE93119713861286CC91C150CC9313
:10374000A489B5891097F1F0C684D784E088F18800
:10375000E601FD82EC82E088F188E701DB82CA8223
:103760001196CD90DC901297EF012C96CC16DD06C9
:1037700021F41296FC92EE921197158A148ACC913C
:10378000C150CC93A689B091EF0DBA1710F4A09355
:10379000EF0D1A9FD0011124ED01C553D24F6E01D8
:1037A0000980DA81C02DD583C483EC80FD80F78247
:1037B000E682EC80FD80D70113967C936E9312977E
:1037C0007D836C83D386C286E60168816F5F6883E0
:1037D000A091BF0DB091C00D768956966C91761769
:1037E00008F46ECF21E06CCFE091BF0DF091C00DD9
:1037F000E6891E9FF0011124E553F24F808182304B
:1038000040F021E006C08091AA0D8F5F8093AA0D41
:1038100020E08091BE0D811101C021110093BE0DE9
:10382000315009F004CF1092AA0D8091BE0D88236B
:1038300009F44ECE0E949E8281E00F900FBE81114E
:103840004CC00E949E8249C0F80133964281538148
:10385000DA016D917C912617370708F41ACEFA0128
:10386000F5CFE090B70DF090B80D2A813B812F3F46
:10387000EFEF3E0731F4D7011796ED91FC911897C1
:103880000CC0F701339642815381DA010D911C91EE
:103890002017310710F0FA01F6CF228133813D83E2
:1038A0002C83D90115969C938E931497FF83EE83F6
:1038B00093838283FB86EA86E70188818F5F888312
:1038C0008091B50D9091B60D6817790708F0F4CD89
:1038D0007093B60D6093B50DEFCDDF91CF911F9131
:1038E0000F91FF90EF90DF90CF900895EF92FF92AD
:1038F0000F931F93CF93DF93D62FC72F7A0191E0B9
:1039000090938F0E98E69093B10E1092900E1092B5
:10391000B20E682F8DE49FE00E940734019709F0F2
:1039200068C080E00E943A32282F30E0211531052E
:1039300009F061C080918E0E8111FCCF8E2D8132F5
:1039400008F080E291E090938E0E90938D0E2FEF11
:1039500020938C0E10928B0E280F20938A0E90933A
:10396000690E9091690E906D9093690E9091680E1A
:10397000913061F41092680E9091690E9093BB00A3
:103980009091BC0093FDF8CF95EC01C095EE90931B
:10399000BC0090918E0E9130E1F390918B0E9817B0
:1039A00010F480918B0EAAE6BEE02BED3EE0F9010B
:1039B0009E2F921B981718F49D919193F9CF109216
:1039C000FC0E8093FB0E0D2F1C2FC0E0D0E09091D9
:1039D000FB0E8091FC0E981781F0CE15DF056CF47C
:1039E00021968DE49FE00E94BB33F80181938F0103
:1039F000EECF86EF06C0C90108C0CE15DF0519F06D
:103A000085EF9FEF02C080E090E0DF91CF911F91A2
:103A10000F91FF90EF900895CF93DF93EC014EE06C
:103A200050E0BC018BE390E00E94761C2881398134
:103A3000388329832A813B813A832B832C813D81E2
:103A40003C832D832E813F813E832F8328853985BA
:103A5000388729872A853B853A872B872C853D85A2
:103A60003C872D87DF91CF9108954F925F926F929F
:103A70007F928F929F92AF92BF92CF92DF92EF92FE
:103A8000FF920F931F93CF93DF93CDB7DEB7E697E7
:103A90000FB6F894DEBF0FBECDBF8C01CE010196EC
:103AA0000E940C1D0E94F7366F8B788F898F9A8F3A
:103AB00069817A81072E000C880B990B0E943F9038
:103AC0006F87788B898B9A8B6B817C81072E000C9A
:103AD000880B990B0E943F902B013C016D817E81E8
:103AE000072E000C880B990B0E943F906B8B7C8BF0
:103AF0008D8B9E8B9B01AC010E949E906B017C0183
:103B0000A3019201C301B2010E949E90A7019601F8
:103B10000E94658A0E94AC8B9B01AC016F857889FD
:103B200089899A8990580E94008B0E94D18A6BA340
:103B30007CA38DA39EA32F85388949895A89CA0100
:103B4000B9010E949E90A70196010E94658A0E9479
:103B5000AC8B9B01AC01C301B2010E94008B0E949F
:103B6000D18A6FA378A789A79AA78091080E909110
:103B7000090EA0910A0EB0910B0E2F89388D498D38
:103B80005A8D281B390B4A0B5B0BCA01B9010E94E5
:103B90003D9020E030E04AE754E40E94008B6B0146
:103BA0007C0169857A85072E000C880B990B0E9491
:103BB0003F902091140E3091150E4091160E5091A9
:103BC000170E0E94648A20E030E043E053E40E9434
:103BD000008BA70196010E949E906B8F7C8F8D8F2A
:103BE0009E8F6B857C85072E000C880B990B0E949D
:103BF0003F902091100E3091110E4091120E509175
:103C0000130E0E94648A20E030E043E053E40E94F7
:103C1000008BA70196010E949E904B015C016D856F
:103C20007E85072E000C880B990B0E943F902091F7
:103C30000C0E30910D0E40910E0E50910F0E0E9401
:103C4000648A20E030E043E053E40E94008BA70147
:103C500096010E949E906B017C012091FC0D309199
:103C6000FD0D4091FE0D5091FF0D0E94658A6F8FF2
:103C700078A389A39AA32091F80D3091F90D409172
:103C8000FA0D5091FB0D6B8D7C8D8D8D9E8D0E945C
:103C9000658A6BA77CA78DA79EA72091F40D309114
:103CA000F50D4091F60D5091F70DC501B4010E943C
:103CB000658A6FA778AB89AB9AAB2091F00D3091F4
:103CC000F10D4091F20D5091F30DC701B6010E9424
:103CD000658A6BAB7CAB8DAB9EAB2091040E3091B3
:103CE000050E4091060E5091070E6B8D7C8D8D8DCB
:103CF0009E8D0E94658A2FE832EC45E75FE30E94C3
:103D00009E906B017C012DEE3EE245E652E46FA1F0
:103D100078A589A59AA50E949E9020E137ED43E2FF
:103D20005DE30E949E909B01AC01C701B6010E9419
:103D3000658A6B017C012091000E3091010E40914B
:103D4000020E5091030EC501B4010E94658A2FE84E
:103D500032EC45E75FE30E949E904B015C012DEE43
:103D60003EE245E652E46BA17CA18DA19EA10E949A
:103D70009E9020E137ED43E25DE30E949E909B011F
:103D8000AC01C501B4010E94658A2F89388D498D27
:103D90005A8D2093080E3093090E40930A0E5093CB
:103DA0000B0EC092040ED092050EE092060EF09219
:103DB000070E6093000E7093010E8093020E909395
:103DC000030E2F8D38A149A15AA12093FC0D3093E9
:103DD000FD0D4093FE0D5093FF0D2BA53CA54DA569
:103DE0005EA52093F80D3093F90D4093FA0D509392
:103DF000FB0D2FA538A949A95AA92093F40D30939A
:103E0000F50D4093F60D5093F70D2BA93CA94DA944
:103E10005EA92093F00D3093F10D4093F20D509375
:103E2000F30DE1E2FEE0C582D682E782F08661878B
:103E30007287838794878F8D98A1A9A1BAA185875E
:103E40009687A787B08B2F85388949895A89218B16
:103E5000328B438B548B458A568A678A708E8B8946
:103E60009C89AD89BE89818F928FA38FB48F8EE19B
:103E7000D80101900D928A95E1F7C801E6960FB638
:103E8000F894DEBF0FBECDBFDF91CF911F910F9190
:103E9000FF90EF90DF90CF90BF90AF909F908F906A
:103EA0007F906F905F904F90089586EB90E10E9415
:103EB0006D17892B99F186EB90E10E944C17845481
:103EC000843158F4E82FF0E0E45BFD4F8081082E48
:103ED000000C990B97FF03C009C080E090E0382FD9
:103EE000292F8630910524F035E001C030E020E034
:103EF00043ED5EE03093D30E2093D40E9F938F93C7
:103F00008EEA96E09F938F935F934F930E942D3894
:103F10000F900F900F900F900F900F9008958F9229
:103F20009F92BF92CF92DF92EF92FF920F931F93D7
:103F3000CF93DF931F92CDB7DEB74C01B62E690148
:103F400049830E94A0117C014981009709F44BC06C
:103F5000DC01ED91FC911197309709F446C013965E
:103F60009C9180E0891731F02081241729F0339645
:103F70008F5FF8CFE0E0F0E0D601ED93FC9330974F
:103F8000B1F122812695269530E02031310514F0DB
:103F90002FE030E081E090E0A0E0B0E004C0880FC6
:103FA000991FAA1FBB1F2A95D2F70197F801918389
:103FB00080836B2D80EE0E94481688ED0E94691662
:103FC000682FD70114968C91882339F0F401EA58B0
:103FD000FF4F80818260682B01C0697F88ED0E945D
:103FE000481680E005C086ED03C087ED01C08BED6B
:103FF0000F90DF91CF911F910F91FF90EF90DF9085
:10400000CF90BF909F908F900895CF93DF93CDB7BF
:10401000DEB7AD970FB6F894DEBF0FBECDBF45E05B
:1040200050E060E070E08091600E9091610E0E941F
:10403000245D813009F0C0C384EC96E09F938F9398
:1040400083ED9EE09F938F930E942D388AE20E9419
:10405000FE3280E090E00E947F7A40E052EC61E026
:1040600070E089E59FE00E9497328FEF9FEF9A837F
:1040700089830E94757A8AEE96E00E94B5870F9038
:104080000F900F900F9089E59FE00E946D170497A5
:10409000D4F389E59FE00E946D17892BE9F189E54A
:1040A0009FE00E944C17BE016F5F7F4F0E946383A9
:1040B000019779F789819A8197FDEBCF61EF76E0DF
:1040C00083EB9EE00E94478D892B41F080E090E0D9
:1040D0000E947F7ACC24C394D12C21C080E090E050
:1040E0000E947F7A81E08F938EE88F9380E692E042
:1040F0009F938F9384EF96E09F938F9383ED9EE041
:104100009F938F930E9462380FB6F894DEBF0FBE64
:10411000CDBF8FEF9FEF89C0CC24CA94DC2C64E61E
:1041200070E080E090E00E94C7190E94757A80E2FA
:10413000E3EBFEE0DF011D928A95E9F789E59FE058
:104140000E946D170297D4F300E010E0E0E3AE2E7A
:10415000E7E0BE2EF3ED8F2EFEE09F2EA0E27A2E3A
:1041600089E59FE00E946D17892B09F450C089E50D
:104170009FE00E944C17BE016F5F7F4F0E946383D8
:10418000019771F7E980FA80F7FCEACF64E277E003
:1041900083EB9EE00E94478D892BF9F40F5F1F4F40
:1041A00073EBC72E7EE0D72EDF92CF92FF92EF9275
:1041B0001F930F93BF92AF929F928F920E94E6310E
:1041C000F601272D11922A95E9F70FB6F894DEBF74
:1041D0000FBECDBFC12CD12CC3CF83EB9EE09F93EC
:1041E0008F93FF92EF921F930F9388E597E09F9331
:1041F0008F9383ED9EE09F938F930E94E6310FB6DD
:10420000F894DEBF0FBECDBFCC24C394D12C80E088
:1042100090E00E947F7A81E090E0CA94CD2811F46A
:1042200080E090E0919581959109892B09F0A2C0D9
:1042300080E897E09F938F9383ED9EE09F938F9309
:104240000E942D388FEF9FEF9A83898380E2E3EB02
:10425000FEE0DF011D928A95E9F70E94757A85EAF2
:1042600097E00E94B5870F900F900F900F9089E50F
:104270009FE00E946D170497D4F389E59FE00E94A8
:104280006D17892BE1F189E59FE00E944C17BE0173
:104290006F5F7F4F0E946383019779F789819A81CD
:1042A00097FDEBCF61EF76E083EB9EE00E94478DB8
:1042B000892B39F080E090E00E947F7A01E010E0E5
:1042C00020C080E090E00E947F7A82E08F9380E9B6
:1042D0008F938BE692E09F938F9388EA97E09F936A
:1042E0008F9383ED9EE09F938F930E9462380FB669
:1042F000F894DEBF0FBECDBF0FEF1FEF0BC000E085
:1043000010E080E090E00E947F7AF1E00F271195A5
:10431000019511090115110509F065C18DE298E0BB
:104320009F938F9383ED9EE09F938F930E942D38F0
:104330008FEF9FEF9A83898353EBE52E5EE0F52E96
:1043400080E2D7011D928A95E9F70E94757A1F9243
:104350001F9283E598E09F938F93FF92EF920E94C4
:10436000618DC7010E94B5870FB6F894DEBF0FBEFE
:10437000CDBF0DC088ED97E09F938F9303ED1EE0B6
:104380001F930F930E9462388BEF97E0FBC189E582
:104390009FE00E946D170497D4F380E2E3EBFEE008
:1043A000DF011D928A95E9F789E59FE00E946D176C
:1043B000892BD1F189E59FE00E944C17BE016F5F08
:1043C0007F4F0E946383019779F789819A8197FDD6
:1043D000EBCF61EF76E083EB9EE00E94478D892B67
:1043E00029F080E090E00E947F7A1EC080E090E09B
:1043F0000E947F7A82E08F9381ED8F9386E792E02F
:104400009F938F938FE598E09F938F9383ED9EE02A
:104410009F938F930E9462380FB6F894DEBF0FBE51
:10442000CDBF0FEF1FEF8CC080E090E00E947F7A3D
:1044300080E2E3EBFEE0DF011D928A95E9F789E572
:104440009FE00E946D17892B31F189E59FE00E9462
:104450004C17BE016F5F7F4F0E946383019779F70E
:1044600083EB9EE09F938F9382E08F9380EE8F93F8
:1044700086E792E09F938F938FE898E09F938F93C6
:1044800083ED9EE09F938F930E94E6310FB6F894E0
:10449000DEBF0FBECDBF80E2E3EBFEE0DF011D9289
:1044A0008A95E9F789E59FE00E946D17892B31F124
:1044B00089E59FE00E944C17BE016F5F7F4F0E940D
:1044C0006383019779F783EB9EE09F938F9382E05C
:1044D0008F9381EF8F9386E792E09F938F938FEC7A
:1044E00098E09F938F9383ED9EE09F938F930E941C
:1044F000E6310FB6F894DEBF0FBECDBF80E2E3EB2E
:10450000FEE0DF011D928A95E9F789E59FE00E94B0
:104510006D1789E59FE00E944C17BE016F5F7F4FCA
:104520000E946383019789F76FE079E083EB9EE057
:104530000E94478D892B49F380E090E00E947F7AAA
:104540000115110509F0D1C08EE799E09F938F9373
:1045500023EDC22E2EE0D22EDF92CF920E942D3874
:104560008FEF9FEF9A8389830E94757A33EBE32E56
:104570003EE0F32E40E2B42ED701EB2D1D92EA95DA
:10458000E9F78EE48F93BF9281EB99E09F938F932D
:104590008FEB99E09F938F93FF92EF920E94618D32
:1045A000FF92EF9281E08F9386ED8F9384E892E003
:1045B0009F938F938EEC99E09F938F93DF92CF928E
:1045C0000E94E631C7010E94B587D7011D92BA94B7
:1045D000E9F780E090E00E947F7A0FB6F894DEBFA2
:1045E0000FBECDBF0DC085E199E09F938F9303ED82
:1045F0001EE01F930F930E9462388BE399E0C2C0C4
:1046000089E59FE00E946D170497D4F389E59FE048
:104610000E946D179F938F9381E09AE09F938F93F1
:1046200083ED9EE09F938F930E94E6310F900F9051
:104630000F900F900F900F90EE24EA94FE2C89E5D6
:104640009FE00E946D17892B09F442C089E59FE025
:104650000E944C17BE016F5F7F4F0E9463836C0105
:1046600061EF76E083EB9EE00E94478D21E0892B8D
:1046700009F420E0E22EF12CCA94CD2801F78981BB
:104680009A8197FDDCCF222301F183EB9EE09F937B
:104690008F9381E08F938FEE8F9384E892E09F93C6
:1046A0008F938EE29AE09F938F9383ED9EE09F938A
:1046B0008F930E94E63180E090E00E947F7A0FB6EF
:1046C000F894DEBF0FBECDBF0DC0E12CF12CB7CFEB
:1046D00001E010E0EA94EF2811F400E010E01195F9
:1046E00001951109012B71F041C081E69AE09F9379
:1046F0008F9303ED1EE01F930F930E94623881E8B1
:104700009AE040C084EC9AE09F938F9303ED1EE003
:104710001F930F930E942D3882EF9AE09F938F93FF
:104720001F930F930E942D3883E090E09093D40E56
:104730008093D30E1F928F938EEA96E09F938F9370
:104740001F930F930E942D388091600E9091610EFF
:104750000FB6F894DEBF0FBECDBF009769F140E001
:1047600050E060E070E00E94896B26C082E19BE02F
:104770009F938F9303ED1EE01F930F930E94623867
:104780008CE39BE09F938F931F930F930E942D3890
:104790000FB6F894DEBF0FBECDBF8FE99BE09F93AD
:1047A0008F9383ED9EE09F938F930E9462380F90CA
:1047B0000F900F900F90FFCFE0915E0EF0915F0E83
:1047C000309709F47CC08091BF0D9091C00DE8171F
:1047D000F90709F474C00FB6F8940F928285938597
:1047E0008C5A9D4009F069C0848995893DE0813CDF
:1047F000930709F462C0892B09F05FC09F012E5F07
:104800003F4F8481958146815781DC0115965C93E9
:104810004E931497A681B78113969C938E9312970B
:104820008091AD0D9091AE0D8217930721F4B09356
:10483000AE0DA093AD0D138612868091AC0D815004
:104840008093AC0DA6898091EF0D8A1710F4A09388
:10485000EF0D89E0A89FD0011124BD016553724F6F
:10486000DB0111968D919C91129795838483DC01D5
:1048700014964D915C9115975783468314964D91EC
:104880005C911597DA0113963C932E931297DC01F5
:1048900015963C932E93149773876287DB018C9156
:1048A0008F5F8C93A091BF0DB091C00D96895696E5
:1048B0008C91981710F00E949E820F900FBE45E0D9
:1048C00050E060E070E08091600E9091610E0E9477
:1048D000245D8130D1F48FE79BE09F938F9383ED2C
:1048E0009EE09F938F930E94E6318091600E90919D
:1048F000610E0F900F900F900F90009731F040E0F5
:1049000050E060E070E00E94896B8E01015E1F4FF5
:104910008FE0F82ECE0101960E94351DF8012F2D53
:1049200011922A95E9F780915C0E90915D0E0097A7
:1049300029F04AE050E0B8010E94245D64E170E093
:1049400080E090E00E94C719E5CFCF93DF93CDB709
:10495000DEB72F970FB6F894DEBF0FBECDBF45E090
:1049600050E060E070E08091600E9091610E0E94D6
:10497000245D8130D1F480EC9BE09F938F9383ED95
:104980009EE09F938F930E94E6318091600E9091FC
:10499000610E0F900F900F900F90009731F040E054
:1049A00050E060E070E00E94896B0FB6F8940F92BF
:1049B000E091BF0DF091C00DCF0102966285738525
:1049C0004481558126813781DA0115963C932E93D7
:1049D000149726813781D90113965C934E931297D1
:1049E000DB0111964D915C9112974817590721F4FC
:1049F00012963C932E93119713861286DB012C910D
:104A000021502C93048915890115110529F126855A
:104A1000378540895189D90115965C934E93149737
:104A200040895189DA0113963C932E931297D8014D
:104A300011966D917C9112979F01245F3F4F6217F1
:104A4000730721F412965C934E931197158A148A7A
:104A5000D8012C9121502C934091AD0D5091AE0D69
:104A600055834483DA0114962D913C911597378331
:104A7000268314962D913C911597D90113969C93FA
:104A80008E931297DA0115969C938E9314978CEA65
:104A90009DE0938782878091AC0D8F5F8093AC0DF2
:104AA0000F900FBE8091400E882319F10FB6F89435
:104AB0000F92A091B70DB091B80D8C91811103C0E8
:104AC0008FEF9FEF10C0A091B70DB091B80D159664
:104AD0000D90BC91A02D16960D90BC91A02D129614
:104AE0008D919C9113979093B60D8093B50D0F9077
:104AF0000FBE8091BF0D9091C00DE817F90709F026
:104B000078C08091400E882319F00E949E8271C067
:104B10008091AB0D9091AC0D981305C01092C00D13
:104B20001092BF0D66C08091CA0D882321F081E0EC
:104B30008093BE0D5EC01092BE0DA091BF0DB091CE
:104B4000C00DE091BF0DF091C00D2D913C91878972
:104B5000908D82179307A8F08091BF0D9091C00DA2
:104B60008091BF0D9091C00D279A2F9ABFEFE7EA71
:104B7000F1E6B150E040F040E1F700C000001F9ABC
:104B8000F5CF8091EF0D69E0482F50E0649F9001D0
:104B9000659F300D1124F901E553F24F9081911179
:104BA00002C08150F1CFA181B28112960D90BC91CB
:104BB000A02DB283A1832253324FA217B30731F441
:104BC00012962D913C9113973283218399E0949F03
:104BD000F001959FF00D1124E553F24F0180F28111
:104BE000E02D268137813093C00D2093BF0D809337
:104BF000EF0D45E050E060E070E08091600E909134
:104C0000610E0E94245D8130D1F481EE9BE09F9380
:104C10008F9383ED9EE09F938F930E94E631809166
:104C2000600E9091610E0F900F900F900F90009773
:104C300031F040E050E060E070E00E94896B03EDED
:104C40001EE097EA292E9CE0392ECE0101966C01D8
:104C500026E6422E2CE0522E80915C0E90915D0E45
:104C6000892B09F41CC189E59FE00E946D170F97FD
:104C7000D1F789E59FE00E946D177C018FE0A82E97
:104C8000E114F10409F401C1BB24B3949FE0E916D7
:104C9000F10409F0B12C45E050E060E070E0809153
:104CA000600E9091610E0E94245D813009F041C038
:104CB0001F92AF921F92BF92FF92EF92AFEFBBE0B5
:104CC000BF93AF931F930F930E94E6310FB6F894F2
:104CD000DEBF0FBECDBFB11014C01F92AF92FF92C6
:104CE000EF921F921F92A2E2BCE0BF93AF931F937B
:104CF0000F930E9403380FB6F894DEBF0FBECDBFEE
:104D00000CC0A7E4BCE0BF93AF931F930F930E9426
:104D100010320F900F900F900F908091600E909135
:104D2000610E009731F040E050E060E070E00E94DA
:104D3000896BBB2009F497C0C701FFE0EF16F104AF
:104D400010F08FE090E036015601A80EB91E460122
:104D50000E94F7366093610F7093620F8093630F28
:104D60009093640FE091590FF0915A0F0680F781EC
:104D7000E02D89E59FE0199597FD0AC0D4018D9338
:104D80004D01AA15BB0521F78981823039F51EC076
:104D90000E94F7362091610F3091620F4091630FAE
:104DA0005091640FDC01CB01821B930BA40BB50B5C
:104DB00020915D0F30915E0F40915F0F5091600F19
:104DC00082179307A407B50768F2DECF8A818F3F69
:104DD00029F4BB24B3948B818C3009F0B12C45E0CD
:104DE00050E060E070E08091600E9091610E0E9452
:104DF000245D8130F1F5812C912C8E149F04B4F444
:104E0000F30181913F011F928F939F928F925F9246
:104E10004F921F930F930E94E631FFEF8F1A9F0A64
:104E20000FB6F894DEBF0FBECDBFE7CFDF92CF92B3
:104E300084E89CE09F938F931F930F930E94E63129
:104E40008091600E9091610E0F900F900F900F90D7
:104E50000F900F90009769F040E050E060E070E044
:104E60000E94896B06C089E59FE00E946D177C0156
:104E700007CFBB2051F04AE050E0B60180915C0EB4
:104E800090915D0E0E94896B0AC03F922F921F93F2
:104E90000F930E9403380F900F900F900F9064E1D2
:104EA00070E080E090E00E94C719D6CE2F923F922A
:104EB0004F925F926F927F928F929F92AF92BF922A
:104EC000CF92DF92EF92FF920F931F93CF93DF93D6
:104ED00000D01F92CDB7DEB73C017C836B832A01E3
:104EE0007901F901A080B180FB01F181F983F90119
:104EF00011821082FB01828181FD02C060E101C04C
:104F000060E288EE0E944816AA829201EB81FC8141
:104F1000408160E0C3010E940337382EF6E08F1312
:104F200016C088EF0E9469168295817091E08927EA
:104F3000EB81FC81928180FB91F9928391FD02C00B
:104F400060E101C060E288EE0E944816DECF811168
:104F50005AC088EC0E94691682FF53C080E30E9409
:104F60006916282E90E0A816B90608F42A80F701E1
:104F700080819181822C912C9501281B390BC901CC
:104F800037FF02C080E090E06401881599050CF4B9
:104F90006C0180E591E00E945F382C9888E00E94C7
:104FA0005838A60160E070E0C8010E94408DC1142D
:104FB000D10421F0B601C8010E94A9190C0D1D1DD4
:104FC0002C9A0E94573864E088EC0E944816F7013A
:104FD00080819181880E991E91828082F9812F169D
:104FE00020F08A149B0408F490CF88EF0E94691681
:104FF00082958170EB81FC81928180FB91F9928393
:1050000002C080EF382E832D0F900F900F900F90DD
:10501000DF91CF911F910F91FF90EF90DF90CF9094
:10502000BF90AF909F908F907F906F905F904F90C8
:105030003F902F9008952F923F924F925F926F92E0
:105040007F928F929F92AF92BF92CF92DF92EF9218
:10505000FF920F931F93CF93DF93CDB7DEB7679780
:105060000FB6F894DEBF0FBECDBF3C01542E422ECA
:10507000302E2E2CEDA4FEA4188A1F861E861D86B7
:105080008E01035F1F4F9E01215F3F4F40E00E9452
:105090008F1F811157C159824A823B822C82DE8246
:1050A000CD82B886AF82AE014F5F5F4F68E080E28D
:1050B0000E9425162D853E8540E060E1C3010E94D7
:1050C0000337182F8111FAC0452C441C4424441C7A
:1050D000E114F10409F4E3C0CF84D888442009F432
:1050E00055C0D60112968C911297826012968C93BD
:1050F000650155245394C114D10409F443C09C861E
:105100008B864D855E856F85788987019E01255F39
:105110003F4FC3010E945627182F863079F42F8401
:10512000388888EF0E94691685FB882780F98525D5
:10513000F101928180FB91F99283DDCF8111BEC094
:105140002FA538A921153105A1F0D901ED91FC91C8
:1051500011970190F081E02DC5018C199D099A8766
:1051600089876B857C859E01275F3F4FA701CD0115
:1051700019958B859C85C81AD90A8815990508F058
:10518000BACF8DC0112309F48FC098C0F601828177
:10519000816082832D853E853A8B298B21808FEF1C
:1051A000820D803408F088C00E94F7369B01AC0164
:1051B00028573C4E4F4F5F4F2B8B3C8B4D8B5E8B5C
:1051C000D60112968C9180FD02C060E401C060E8B7
:1051D00088EE0E944816312C8114910409F44DC0C8
:1051E00054012814390408F45101AF8AA7016A2D2B
:1051F00080E10E9425166A2D88E30E944816F60178
:105200006081606280EF0E94481688EC0E946916F7
:1052100087FFFBCF60E888EC0E94481688EF0E9469
:105220006916182F1F70412C512C00E0112371F0CA
:105230000E94F736DC01CB012B893C894D895E89C0
:10524000821B930BA40BB50BB7FD05C08A189B08F6
:10525000EA0CFB1CC1CF163099F11E3009F46AC06C
:10526000143059F4FFEF4F1A5F0A29893A89211542
:105270003105F1F142165306D9F588EF0E946916FF
:1052800085FB882780F9D60112969C91129780FBA6
:1052900090F912969C93112309F450C00FC02D85EC
:1052A0003E85411003C04CC02D853E8560EA40E03C
:1052B000C3010E94033746C08AED44C0812F42C01B
:1052C00088EF0E94691685FB882780F931E08327E3
:1052D000D60112969C91129780FB90F912969C939E
:1052E00090FD02C060E401C060E888EE0E944816AC
:1052F00060E088E30E944816F701608180E10E9427
:1053000048166F8988E30E944816D6016C91606246
:1053100080EF0E94481688EC0E94691687FFFBCF39
:1053200060E888EC0E94481688EF0E946916182FE2
:105330001F707CCF0F5F0330D9F69FCF2D853E8540
:1053400060E8B5CF67960FB6F894DEBF0FBECDBF4D
:10535000DF91CF911F910F91FF90EF90DF90CF9051
:10536000BF90AF909F908F907F906F905F904F9085
:105370003F902F9008958F929F92AF92BF92CF92BD
:10538000DF92EF920F931F921F923F932F934A0148
:105390005A01C12CD12CEE24E39400E026E040E831
:1053A0000E941B280F900F900F900F900F91EF907D
:1053B000DF90CF90BF90AF909F908F9008958F9285
:1053C0009F92AF92BF92CF92DF92EF920F931F9373
:1053D0001F921F921F930F934A015A01C12CD12C87
:1053E00032E0E32E022F26E040E80E941B280F90B7
:1053F0000F900F900F901F910F91EF90DF90CF9033
:10540000BF90AF909F908F9008958F929F92AF9290
:10541000BF92CF92DF92EF920F93CF931F921F9282
:105420001F921F92812C912CA12CB12CC12CD12C1C
:10543000E12C062F25E040E060E00E941B28C82FE9
:105440006CE271E080E090E00E94BD360F900F901A
:105450000F900F908C2FCF910F91EF90DF90CF9006
:10546000BF90AF909F908F900895AF92BF92CF92D0
:10547000DF92EF92FF920F931F93CF93DF9300D0B1
:105480001F92CDB7DEB77C01690158011C821B82D7
:105490001A8219828E010F5F1F4F9E012D5F3F4FB1
:1054A0000E948F1F811109C049815A816B817C81C3
:1054B00085019601C7010E9456270F900F900F900B
:1054C0000F90DF91CF911F910F91FF90EF90DF90A0
:1054D000CF90BF90AF9008958F929F92AF92BF925E
:1054E000CF92DF92EF920F93C42ED12C1F921F9276
:1054F0001F921F92812C912CA12CB12CE12C062FF4
:1055000021E043E2FC016285828193810E941B2895
:105510000F900F900F900F900F91EF90DF90CF9022
:10552000BF90AF909F908F9008958F929F92AF926F
:10553000BF92CF92DF92EF920F93C62ED12C1F9283
:105540001F925F934F9324E0822E912C34E0A32E80
:10555000B12CE12C00E020E043EAFC01628582816D
:1055600093810E941B280F900F900F900F900F9126
:10557000EF90DF90CF90BF90AF909F908F90089565
:105580008F929F92AF92BF92CF92DF92EF920F9342
:10559000C42ED12C1F921F921F921F92812C912CEE
:1055A000A12CB12CE12C062F23E043E2FC01628503
:1055B000828193810E941B280F900F900F900F9073
:1055C0000F91EF90DF90CF90BF90AF909F908F9012
:1055D00008958130910581F41092800082E08093DB
:1055E00081001092850010928400B19A80916F0022
:1055F000826080936F0008958230910569F4109263
:10560000900082E080939100109295001092940097
:1056100088BB8093710008958330910569F41092DE
:10562000A00082E08093A1001092A5001092A40037
:1056300089BB809372000895892B61F41092200138
:1056400082E08093210110922501109224018ABBEF
:105650008093730008951F920F920FB60F9211243A
:105660000BB60F922F933F934F935F936F937F935C
:105670008F939F93AF93BF93EF93FF9348E251E0D3
:1056800064E271E080E090E00E942E30FF91EF91A3
:10569000BF91AF919F918F917F916F915F914F914A
:1056A0003F912F910F900BBE0F900FBE0F901F9048
:1056B00018951F920F920FB60F9211240BB60F92EE
:1056C0002F933F934F935F936F937F938F939F930A
:1056D000AF93BF93EF93FF9348EA50E064EA70E022
:1056E00083E090E00E942E30FF91EF91BF91AF9147
:1056F0009F918F917F916F915F914F913F912F91EA
:105700000F900BBE0F900FBE0F901F9018951F9219
:105710000F920FB60F9211240BB60F922F933F9357
:105720004F935F936F937F938F939F93AF93BF93A9
:10573000EF93FF9348E950E064E970E082E090E085
:105740000E942E30FF91EF91BF91AF919F918F9169
:105750007F916F915F914F913F912F910F900BBE71
:105760000F900FBE0F901F9018951F920F920FB6BB
:105770000F9211240BB60F922F933F934F935F9389
:105780006F937F938F939F93AF93BF93EF93FF9309
:1057900048E850E064E870E081E090E00E942E303C
:1057A000FF91EF91BF91AF919F918F917F916F91F9
:1057B0005F914F913F912F910F900BBE0F900FBEB5
:1057C0000F901F901895CF93DF93EC018A819B81F6
:1057D000DC01ED91FC910480F581E02D6A8519953D
:1057E0008A85813439F4EA81FB81EA58FF4F808150
:1057F000846080831A861B861C861D861E861F86F3
:10580000188A80E0DF91CF91089581E0693009F036
:1058100080E00895FC01828508952F923F924F9277
:105820005F926F927F928F929F92AF92BF92CF9230
:10583000DF92EF92FF920F931F93CF93DF93CDB739
:10584000DEB766970FB6F894DEBF0FBECDBF7C0102
:10585000162F6A01FA0180819181A281B381813082
:10586000F3E09F07F1E0AF07B105E1F060F48115C7
:10587000E1E09E07AE07B10569F181309140A1409A
:10588000B10581F067C1833021E0920720E1A207D2
:10589000B10509F46BC083309340A041B10509F410
:1058A00065C058C18091630E811154C1412F61E1DF
:1058B000C7010E946C2A412F60E1C7010E946C2A37
:1058C000412F64E0C7010E94C02A81E08093630EEB
:1058D00081EB58C1462F61E1C7010E946C2A412F1C
:1058E00060E1C7010E946C2A1092630ED7011A96DC
:1058F0008C911A9787701770880F880F880F182B54
:105900001296CD90DC901397112309F423C1560110
:10591000B6E5AB0EB11CE12CF12CF5018191919112
:105920005F010097D9F0DC01ED91FC910084F185D5
:10593000E02D1995811312C0BBE2EB0EF11CEE0CA9
:10594000FF1CF601EE0DFF1D80819181DC01ED91C0
:10595000FC910480F581E02D1995FCC0BFEFEB1A96
:10596000FB0AE0E1EE16F104C1F6F4C0412F64E158
:10597000C7010E946C2A412F60E1C7010E946C2A76
:1059800064E170E080E090E00E94BD36D7011A9695
:105990008C911A97F60151808770482E1296ED90DF
:1059A000FC9013971B8A88E08C8B8CE38D8BFAEF2D
:1059B000EF16FFEFFF0609F4CBC051FA552450F85B
:1059C000D7011696CD90DC901797CE014396179687
:1059D0009C938E9316971A965C929E012F5F3F4F71
:1059E00042E150E060E0C7010E94BB29F701D78285
:1059F000C6828111ADC089849A846B847C84FD81C8
:105A0000FE8B2E80670126E5C20ED11C5601312C7B
:105A1000D5018D919C91009789F1DC01ED91FC916C
:105A20000084F185E02D1995811128C0F501808150
:105A30009181DC01ED91FC910088F189E02D622DCE
:105A400019958823D9F0F50180819181DC01ED91D0
:105A5000FC910484F585E02DA301B4011995811111
:105A60007BC0F50180819181DC01ED91FC91068480
:105A7000F785E02D6E89199581116EC03394B2E0DF
:105A8000AB0EB11CE0E13E12C3CFB12CD6018D911B
:105A90009C91009791F1DC01ED91FC910084F185DE
:105AA000E02D1995811129C0F60180819181DC01D9
:105AB000ED91FC910088F189E02D622D19958823E4
:105AC00009F455C0F60180819181DC01ED91FC91D2
:105AD0000484F585E02DA301B401199581110DC051
