:100000000C94AF070C94E0070C94E0070C94E00705
:100010000C94E0070C94E0070C94E0070C94E007C4
:100020000C94E0070C94E0070C94E0070C94E007B4
:100030000C9497820C94E0070C94E0070C94E00772
:100040000C94E0070C94B12B0C94E0070C94E0079F
:100050000C94E0070C94E0070C94E0070C946237D2
:100060000C94E0070C9470190C9446190C94E0075A
:100070000C94E0070C94E0070C94E0070C94E00764
:100080000C94832B0C94E0070C94E0070C94E0078D
:100090000C9411190C94E7180C94E0070C9432346A
:1000A0000C94E0070C94E0070C94552B0C94E0079B
:1000B0000C94E0070C94E0070C94E0070C94272BB9
:1000C0000C94E0070C94E0070C94E0070C94E00714
:1000D0000C94E0070C94E0070C94E0070C94E00704
:1000E0000C94E0075743574357438C43D14533465D
:1000F000574357438C43D1454636493638363C360C
:10010000403680364D36513657365B365F3665366B
:1001100069366D368036733677367B36084AD73B7C
:100120003BCE016E84BCBFFDC12F3D6C74319ABDC6
:1001300056833DDA3D00C77F11BED9E4BB4C3E91EA
:100140006BAAAABE000000803F000C9405140C941A
:10015000D62E0C944D360C944E100C9489380C9479
:100160005B360C9477360C9418110C94C2100C94D6
:10017000677A0C9466330C94F4120C9471330C94DB
:100180006D360C945F360C94BA790C94A5170C94C8
:1001900064330C9440110C94B4110C9469360C9493
:1001A0001D170C948C430C9465360C94A8330C9456
:1001B00051360C9448170C94DF2B0C94CB330C94D1
:1001C00040360C94AC010C946A330C945B170C947D
:1001D00057360C9446360C94BB100C9490100C942B
:1001E00003340C94062C0C9433460C949C110C9400
:1001F000332E0C9401200C94EC170C9473360C9451
:1002000049360C9480360C947B360C94012C0C945B
:1002100069170C94D72D0C94D3330C94C1100C9403
:1002200038360C947D180C94A7330C9457430C94D7
:1002300068330C9432840C9443180C943C360C9420
:10024000D1450C9467100C94B7330C94A1240C94F2
:10025000BE1000002200250028002B002E003100D7
:10026000340002010000050108010B01000021001B
:10027000240027002A002D00300033000101000077
:10028000040107010A010505050507050808080816
:10029000020202020A0A080804040404010101011E
:1002A0000101010103030303030303030407070719
:1002B0000C0C0C0C0C0C0C0C0202020206060606BE
:1002C000060606060B0B0B0B0B0B0B0B010210208B
:1002D000200808102040102040800201020108047C
:1002E0000201010204081020408080402010080410
:1002F0000201800402018040201008040201080469
:1003000002010102040810204080010204081020AC
:10031000408000000A0B02090C0D0E0807030401BF
:1003200000000000000000000000000000000000CD
:10033000000000000000000000000000000012119A
:10034000100000000000000000000000000000009D
:10035000000000000000000089E0482EAA24AA94B2
:10036000BA2CEE24EA94FE2CCC24CA94DC2C55241E
:1003700053949924939480913E0E882309F4E3C505
:100380008091A60D8F5F8093A60DD0911D0E0FB6A4
:10039000F8940F928091A60D81508093A60D8091C4
:1003A000A60D8111DEC18091870D882309F4D9C182
:1003B0002091A20D3091A30DE0E0F0E080919D0D21
:1003C000882309F48FC0D9011696ED91FC911797F7
:1003D000048915894685578580899189DA011596A2
:1003E0009C938E93149780899189DC0113965C937A
:1003F0004E931297AF01445F5F4FD80111966D91F4
:100400007C9112976417750721F412969C938E9332
:100410001197158A148AD8018C9181508C93AF0161
:100420004E5F5F4F02851385648175818681978158
:10043000DB0115969C938E93149786819781DC013E
:1004400013967C936E931297D80111966D917C91BF
:1004500012976417750721F412969C938E93119747
:1004600013861286D8018C9181508C93A689809135
:10047000CB0D8A1710F4A093CB0D4A9ED001112406
:100480008D010955124FD80111968D919C911297AB
:1004900095838483DC0114966D917C911597778305
:1004A000668314966D917C911597DB0113965C938E
:1004B0004E931297DC0115965C934E931497138715
:1004C0000287D8018C918F5F8C93A0919B0DB09186
:1004D0009C0D968956968C91981708F46FCF909240
:1004E0009A0D6CCFEF2BE1F0E091930DF091940D0C
:1004F0008081811105C0D092920DC092910D10C0E3
:10050000E091930DF091940D0580F681E02D068029
:10051000F781E02D828193819093920D8093910DCC
:100520003091860D332309F417C18091A60D8111F6
:1005300001C18091970D9091980D01969093980D1F
:100540008093970D009789F54091930D5091940DEC
:100550006091950D7091960D7093940D6093930D2D
:100560005093960D4093950D2091990D2F5F2093F8
:10057000990DE091930DF091940D2081211105C00A
:10058000D092920DC092910D10C0E091930DF09118
:10059000940D0580F681E02D0680F781E02D4281E3
:1005A00053815093920D4093910D4091910D509134
:1005B000920D20E08417950708F4ADC0E091930DEB
:1005C000F091940D4081411105C0D092920DC092DE
:1005D000910DA1C0E091930DF091940D0580F681ED
:1005E000E02D0680F781E02D428153818417950725
:1005F00028F45093920D4093910D8DC0BF016E5F12
:100600007F4F628473840481158146815781D801AC
:1006100015965C934E93149746815781DA01139691
:100620001C930E931297D30111960D911C91129762
:100630000617170721F412965C934E9311971386B1
:100640001286D3014C9141504C9324883588211453
:10065000310429F14685578500891189DA011596FB
:100660001C930E93149700891189D80113965C93FB
:100670004E931297D10111966D907C901297AF0115
:10068000445F5F4F6416750621F412961C930E9317
:100690001197158A148AD1014C9141504C93A68927
:1006A0004091CB0D4A1710F4A093CB0D4A9ED00178
:1006B0001124AD014955524F3A01DA0111964D917D
:1006C0005C91129755834483DA0114960D911C9125
:1006D00015971783068314960D911C911597D801D1
:1006E00013967C936E931297DA0115967C936E9312
:1006F000149773866286D3014C914F5F4C93A091FF
:100700009B0DB0919C0D568956964C91541708F448
:1007100055CF21E053CFE0919B0DF0919C0DE689E0
:100720004E9EF0011124E955F24F8081823040F055
:1007300021E006C08091860D8F5F8093860D20E0BA
:1007400080919A0D811101C0211190929A0D315022
:1007500009F0EBCE1092860D80919A0D81110E94C6
:100760009A820F900FBEDD2309F405CE0FB6F894E0
:100770000F92E091220EF091230E06811781E8017D
:10078000EA85FB858C819D812E813F81DC01159658
:100790003C932E9314970E80DF81C02D9B838A8318
:1007A000C8010296218132812817390711F4D283BA
:1007B000C183E8011B861A868081815080838091E5
:1007C000870D81508093870D80913E0E81508093DC
:1007D0003E0E0F900FBE2F89388D2115310509F47B
:1007E000E4C19091A60D9F5F9093A60DC9010E9450
:1007F000968C0FB6F8940F928091A60D815080933D
:10080000A60D8091A60D8111CEC18091870D882300
:1008100009F4C9C16091A20D7091A30DE0E0F0E070
:1008200080919D0D882309F47FC0DB011696ED9120
:10083000FC911797C489D589268537858089918948
:10084000D90115969C938E93149780899189DC0128
:1008500013963C932E9312979F01245F3F4F49813B
:100860005A814217530711F49A838983158A148A8F
:100870008881815088839F012E5F3F4FC285D38539
:100880004481558186819781DA0115969C938E93D8
:10089000149786819781DC0113965C934E9312978F
:1008A00049815A814217530711F49A838983138629
:1008B0001286888181508883A6898091CB0D8A1702
:1008C00010F4A093CB0D4A9ED0011124ED01C9551F
:1008D000D24F89819A8195838483DC0114964D914E
:1008E0005C9115975783468314964D915C911597AB
:1008F000DA0113963C932E931297DC0115963C93E4
:100900002E931497D387C28788818F5F8883A091A5
:100910009B0DB0919C0D968956968C91981708F472
:100920007FCF90929A0D7CCFEF2BE1F0E091930D69
:10093000F091940D8081811105C0F092920DE092AA
:10094000910D10C0E091930DF091940D0580F6810A
:10095000E02D0680F781E02D828193819093920DA6
:100960008093910D8090860D882009F417C18091A5
:10097000A60D811101C18091970D9091980D01965E
:100980009093980D8093970D009789F52091930D82
:100990003091940D4091950D5091960D5093940D7A
:1009A0004093930D3093960D2093950D2091990DC2
:1009B0002F5F2093990DE091930DF091940D20817C
:1009C000211105C0F092920DE092910D10C0E091BE
:1009D000930DF091940D0580F681E02D0680F7814E
:1009E000E02D228133813093920D2093910D20913F
:1009F000910D3091920DD0E08217930708F4ADC0AD
:100A0000E091930DF091940D2081211105C0F09299
:100A1000920DE092910DA1C0E091930DF091940D93
:100A20000580F681E02D0680F781E02D228133815B
:100A30008217930728F43093920D2093910D8DC067
:100A4000AF014E5F5F4F628473842481358166817C
:100A50007781D90115967C936E931497668177817F
:100A6000DB0113963C932E931297D30111962D918F
:100A70003C9112972417350721F412967C936E93BC
:100A8000119713861286D3012C9121502C93248820
:100A900035882114310429F12685378560897189CB
:100AA000D90115967C936E93149760897189DB0147
:100AB00013963C932E931297D10111966D907C90D2
:100AC00012979F01245F3F4F6216730621F412961E
:100AD0007C936E931197158A148AD1012C91215021
:100AE0002C93A6892091CB0D2A1710F4A093CB0D3F
:100AF0004A9ED00111249D012955324F3901D90157
:100B000011962D913C91129735832483D901149627
:100B10006D917C9115977783668314966D917C9186
:100B20001597DB0113965C934E931297D901159696
:100B30005C934E93149773866286D3012C912F5F3A
:100B40002C93A0919B0DB0919C0D368956962C91BB
:100B5000321708F455CFD1E053CFE0919B0DF091BF
:100B60009C0DE6894E9EF0011124E955F24F8081DB
:100B7000823040F0D1E006C08091860D8F5F809377
:100B8000860DD0E080919A0D811101C0D111909213
:100B90009A0D8A948110EBCE1092860D80919A0D59
:100BA00081110E949A820F900FBE0115110509F460
:100BB000E2CB8091A60D8F5F8093A60DC8010E94A5
:100BC000968C0FB6F8940F928091A60D8150809369
:100BD000A60D8091A60D8111B3C18091870D882348
:100BE00009F4AEC12091A20D3091A30DE0E0F0E038
:100BF00080919D0D882309F47DC0E901EE81FF817C
:100C0000C489D5894685578580899189DA011596E9
:100C10009C938E93149780899189DC0113965C9341
:100C20004E931297AF01445F5F4F69817A816417D9
:100C3000750711F49A838983158A148A88818150F3
:100C40008883AF014E5F5F4FC285D3856481758114
:100C500086819781DB0115969C938E9314978681EC
:100C60009781DC0113967C936E93129769817A8148
:100C70006417750711F49A83898313861286888115
:100C800081508883A6898091CB0D8A1710F4A09398
:100C9000CB0D4A9ED0011124ED01C955D24F898157
:100CA0009A8195838483DC0114966D917C911597CC
:100CB0007783668314966D917C911597DB0113966B
:100CC0005C934E931297DC0115965C934E931497A8
:100CD000D387C28788818F5F8883A0919B0DB09155
:100CE0009C0D968956968C91981708F481CF509256
:100CF0009A0D7ECFEF2BE1F0E091930DF091940DE2
:100D00008081811105C0B092920DA092910D10C00A
:100D1000E091930DF091940D0580F681E02D068011
:100D2000F781E02D828193819093920D8093910DB4
:100D30003091860D332309F4FEC08091A60D8111F8
:100D4000E8C08091970D9091980D01969093980D21
:100D50008093970D009789F54091930D5091940DD4
:100D60006091950D7091960D7093940D6093930D15
:100D70005093960D4093950D2091990D2F5F2093E0
:100D8000990DE091930DF091940D2081211105C0F2
:100D9000B092920DA092910D10C0E091930DF09140
:100DA000940D0580F681E02D0680F781E02D4281CB
:100DB00053815093920D4093910D4091910D50911C
:100DC000920D20E08417950708F494C0E091930DEC
:100DD000F091940D4081411105C0B092920DA09206
:100DE000910D88C0E091930DF091940D0580F681EE
:100DF000E02D0680F781E02D42815381841795070D
:100E000028F45093920D4093910D74C0BF016E5F12
:100E10007F4FC285D3850481158146815781D801D2
:100E200015965C934E93149746815781DA01139679
:100E30001C930E93129709811A810617170711F454
:100E40005A83498313861286488141504883A48976
:100E5000B5891097F9F04685578500891189EA010F
:100E60001D830C8300891189E8015B834A831196F5
:100E70006D907C901297AF01445F5F4F64167506CA
:100E800021F412961C930E931197158A148A4C9193
:100E900041504C93A6894091CB0D4A1710F4A09372
:100EA000CB0D4A9ED0011124A955B24F11964D91F8
:100EB0005C91129755834483EA010C811D8117834D
:100EC00006830C811D81E8017B836A83EA017D83AF
:100ED0006C83B387A2874C914F5F4C93A0919B0D7D
:100EE000B0919C0D568956964C91541708F46ECFCC
:100EF00021E06CCFE0919B0DF0919C0DE6894E9E18
:100F0000F0011124E955F24F8081823040F021E058
:100F100006C08091860D8F5F8093860D20E08091C2
:100F20009A0D811101C0211190929A0D315009F052
:100F300004CF1092860D80919A0D81110E949A82A1
:100F40000F900FBE18CA8091A70D823010F00E943A
:100F50009A820E94511F0E940E1809CA32841124DD
:100F60001FBECFEFD1E2DEBFCDBF00E00CBF1DE062
:100F7000A0E0B2E0EAE6F3E201E00BBF02C00790B6
:100F80000D92A435B107D9F728E1A4E5BDE001C071
:100F90001D92A731B207E1F717E0CFEAD7E000E0F2
:100FA00006C021970109802FFE010E94588ACE3A7F
:100FB000D10780E00807A9F70E94404E0C94B39136
:100FC0000C9400002F923F924F925F926F927F920B
:100FD0008F929F92AF92BF92CF92DF92EF92FF9249
:100FE0000F931F93CF93DF93CDB7DEB7E1970FB683
:100FF000F894DEBF0FBECDBF64E670E080E090E005
:101000000E94B9360E94F3366DA77EA78FA798ABD2
:101010000FEA1EE084E090E09093B00E8093AF0E54
:1010200080E090E1AEE0B0E08093B10E9093B20E1C
:10103000A093B30EB093B40E40E050E16EE070E0C8
:1010400082E990E10E94933280E193E09F938F9335
:101050001F930F930E94293881E393E09F938F930E
:101060001F930F930E945E3889E693E09F938F93BE
:101070001F930F930E94FF3783EA93E09F938F9310
:101080001F930F930E940C328BED93E09F938F93ED
:101090001F930F930E94E23185E194E09F938F9319
:1010A0001F930F930E94293886E394E09F938F93B8
:1010B0001F930F930E9429380FB6F894DEBF0FBE1E
:1010C000CDBF80918012803308F042C089E00E9439
:1010D000FA3280918012E82FF0E09F01220F331F37
:1010E000E20FF31FE151FE4E9081907C9960908356
:1010F00010928112109282126CE00E94388A3CE0B9
:10110000839FB001112440E050E09A01260F371F61
:10111000F901EE0FFF1F2E0F3F1FF901E151FE4EA7
:10112000908196FD08C04F5F5F4F4C30510569F7C5
:1011300090E00E94E52AE0918012F0E0CF01880F54
:10114000991FE80FF91FE151FE4E80818064808372
:101150008BE594E09F938F930FEA1EE01F930F930C
:101160000E9429388AE794E09F938F931F930F93EF
:101170000E94FF3782EA94E09F938F931F930F930F
:101180000E94293884E30E94FA3261E084E30E94DD
:1011900017361092D80E1092D70E10926C0E109235
:1011A0008E0E10926A0E11E01093690E1092440E8A
:1011B00061E084E10E94173661E085E10E94173604
:1011C0008091B9008E7F8093B9008091B9008D7FA6
:1011D0008093B90088E48093B80085E48093BC00D4
:1011E00041E050E0BE01605E7F4F85E790E00E94E5
:1011F000721C41E050E0BE01605E7F4F8CE690E0E3
:101200000E94721C1F8E10936B0E88E680938D0EC9
:1012100010926C0E10928E0E6BE689E29FE00E9497
:1012200003340FB6F894DEBF0FBECDBF019771F443
:1012300041E050E0BE01615E7F4F89E29FE00E9485
:10124000D333019719F481E00E9436328E010F5F8B
:101250001F4FC8010E94081D3AE0232E312C19A609
:101260001AA61BA61CA61DA21EA21FA218A619A282
:101270001AA21BA21CA2C12CD12C76014601570137
:101280002601370109AB012F89A9902F0E94081D63
:1012900069817A81072E000C880B990B0E943B9084
:1012A0009B01AC01C301B2010E94618A2B013C0188
:1012B0006B817C81072E000C880B990B0E943B9060
:1012C0009B01AC01C501B4010E94618A4B015C0124
:1012D0006D817E81072E000C880B990B0E943B903C
:1012E0009B01AC01C701B6010E94618A6B017C01C0
:1012F00069857A85072E000C880B990B0E943B901C
:101300009B01AC0169A17AA18BA19CA10E94618A79
:1013100069A37AA38BA39CA36B857C85072E000C05
:10132000880B990B0E943B909B01AC016DA17EA1A3
:101330008FA198A50E94618A6DA37EA38FA398A711
:101340006D857E85072E000C880B990B0E943B90C3
:101350009B01AC0169A57AA58BA59CA50E94618A19
:1013600069A77AA78BA79CA764E670E080E090E06D
:101370000E94B93651E0251A310809F085CF20E0E6
:1013800030E040E251E4C301B2010E94FC8A609364
:10139000640D7093650D8093660D9093670D20E04A
:1013A00030E040E251E4C501B4010E94FC8A609340
:1013B000600D7093610D8093620D9093630D20E03A
:1013C00030E040E251E4C701B6010E94FC8A60931C
:1013D0005C0D70935D0D80935E0D90935F0D20E02A
:1013E00030E040E251E469A17AA18BA19CA10E9466
:1013F000FC8A6093F00D7093F10D8093F20D909341
:10140000F30D20E030E040E251E46DA17EA18FA118
:1014100098A50E94FC8A6093EC0D7093ED0D80936B
:10142000EE0D9093EF0D20E030E040E251E469A52D
:101430007AA58BA59CA50E94FC8A6093E80D709309
:10144000E90D8093EA0D9093EB0D0E94F3366093C3
:10145000E40D7093E50D8093E60D9093E70D1092E7
:10146000E00D1092E10D1092E20D1092E30D10923A
:10147000DC0D1092DD0D1092DE0D1092DF0D10923A
:10148000D80D1092D90D1092DA0D1092DB0D10923A
:10149000D40D1092D50D1092D60D1092D70D10923A
:1014A000D00D1092D10D1092D20D1092D30D10923A
:1014B000CC0D1092CD0D1092CE0D1092CF0D87EC69
:1014C00094E09F938F930FEA1EE01F930F930E9467
:1014D000293886EE94E09F938F931F930F930E9479
:1014E00029381092690D1092680D0FB6F894DEBF7E
:1014F0000FBECDBF98E5292E92E0392E24EBC22EE7
:10150000D12CE12CF12C0091680D1091690D043063
:1015100011050CF0C0C04801880C991CF401E25C74
:10152000FD4F6080C401800F911FDC01AD57BD4E9F
:101530005D018C91803308F04CC0862D0E94FA32F8
:10154000F5018081282F30E0A901440F551F240F99
:10155000351FF901E151FE4E962D9F732081207CAD
:10156000622E692A6082D50111961C9211971296FB
:101570001C926CE00E94388ABCE08B9FB001112461
:1015800020E030E0A901460F571FFA01EE0FFF1FC0
:10159000E40FF51FE151FE4E908196FD08C02F5FCC
:1015A0003F4F2C30310571F790E00E94E52AF4019D
:1015B000E00FF11FED57FD4E808190E09C01220F5E
:1015C000331F820F931FFC01E151FE4E8081806426
:1015D0008083080D191DF801ED57FD4E9281818120
:1015E0009080EFE2E91508F44CC05101A91AB10846
:1015F00097FDB394AA0CBB1CAA0CBB1C08E810E016
:10160000081B110987FD1395000F111F000F111FF3
:101610002801012E000C66087708C5010B2C000C70
:10162000AA0BBB0B9C01AD012419350946095709CA
:10163000AAE5B0E00E947791A70196010E94589117
:10164000DA01C901840D951DA61DB71D80179107EC
:101650002CF08C01A816B9060CF485010250110972
:10166000000F111F2FB7F894892D90E0FC01EE0FA9
:10167000FF1F8E0F9F1FFC01E151FE4E128301835D
:101680002FBF8091680D9091690D01969093690D1F
:101690008093680D38CF8EEB96E10E941933C0908D
:1016A0002202D0902302E0902402F09025020091C3
:1016B0001E0210911F0220912002309121024091C0
:1016C0001A0250911B0260911C0270911D028EEB58
:1016D00096E10E946435812C912CA12C90E4B92EC6
:1016E0008092941490929514A0929614B0929714AC
:1016F000412C512C28E4622E22E4722E4092751661
:1017000050927616609277167092781620E530E047
:101710003093AA142093A9143AEF232E312C30923F
:10172000A8142092A71485E896E10E941933C0906E
:101730000A02D0900B02E0900C02F0900D02009192
:10174000060210910702209108023091090240918F
:10175000020250910302609104027091050285E833
:1017600096E10E9464358092991290929A12A0920A
:101770009B12B0929C1240927A1450927B14609209
:101780007C1470927D1440E550E05093AF1240936A
:10179000AE123092AD122092AC128EE095E09F9383
:1017A0008F938FEA9EE09F938F930E94293864E67F
:1017B00070E080E090E00E94B9360F900F900F909B
:1017C0000F9080913C0E90913D0E892B09F0D5C36E
:1017D0008091A60D8F5F8093A60D8FE190E00E940F
:1017E000018C5C010FB6F8940F928091A60D815088
:1017F0008093A60D8091A60D8111E5C18091870D82
:10180000882309F4E0C14091A20D5091A30DE0E0BE
:10181000F0E019E001E080919D0D882309F490C06B
:10182000DA011696ED91FC911797E488F5882685E4
:10183000378580899189D90115969C938E93149749
:1018400080899189DC0113963C932E9312979F0116
:10185000245F3F4FD70111966D917C9112976217CB
:10186000730721F412969C938E931197158A148A0C
:10187000D7018C9181508C939F012E5F3F4FE28462
:10188000F3846481758186819781DB0115969C9331
:101890008E93149786819781DC0113967C936E93C7
:1018A0001297D70111966D917C9112976217730769
:1018B00021F412969C938E93119713861286D7016A
:1018C0008C9181508C93A6898091CB0D8A1710F44E
:1018D000A093CB0D1A9FD0011124BD016955724F01
:1018E0007B01DB0111968D919C91129795838483E6
:1018F000DC0114966D917C9115977783668314961D
:101900006D917C911597DB0113963C932E93129762
:10191000DC0115963C932E931497F386E286D7014B
:101920008C918F5F8C93A0919B0DB0919C0D9689AB
:1019300056968C91981708F46ECF00939A0D6BCF42
:10194000EF2BD1F0E091930DF091940D80818111F6
:1019500003C08FEF9FEF0CC0E091930DF091940DB9
:101960000580F681E02D0680F781E02D828193814C
:101970009093920D8093910D3091860D332309F44D
:101980001DC189E0582E442443940FEF1FEF80912E
:10199000A60D811101C18091970D9091980D01962E
:1019A0009093980D8093970D009789F54091930D32
:1019B0005091940D6091950D7091960D7093940DCA
:1019C0006093930D5093960D4093950D2091990D32
:1019D0002F5F2093990DE091930DF091940D20814C
:1019E000211105C01093920D0093910D10C0E0914C
:1019F000930DF091940D0580F681E02D0680F7811E
:101A0000E02D428153815093920D4093910D40916E
:101A1000910D5091920D20E08417950708F4ADC008
:101A2000E091930DF091940D4081411105C0109308
:101A3000920D0093910DA1C0E091930DF091940D42
:101A40000580F681E02D0680F781E02D42815381EB
:101A50008417950728F45093920D4093910D8DC0F3
:101A6000AF014E5F5F4FE284F3848480958066818E
:101A70007781D40115967C936E9314976681778154
:101A8000DB0113969C928E921297D70111968D903E
:101A90009C9012978416950621F412967C936E936F
:101AA000119713861286D7016C9161506C93E4886C
:101AB000F588E114F10429F166857785808891889D
:101AC000DB0115969C928E92149780889188D401A0
:101AD00013967C936E931297D70111966D907C901C
:101AE0001297BF01645F7F4F6616770621F4129646
:101AF0009C928E921197158A148AD7016C9161502D
:101B00006C93A6896091CB0D6A1710F4A093CB0D4E
:101B10005A9ED0011124BD016955724F7B01DB0132
:101B200011966D917C91129775836483DB011496F5
:101B30008D909C9015979782868214968D909C909C
:101B40001597D40113965C934E931297DB0115966B
:101B50005C934E931497F386E286D7014C914F5FC6
:101B60004C93A0919B0DB0919C0D568956964C912B
:101B7000541708F455CF21E053CFE0919B0DF0911D
:101B80009C0DE6895E9EF0011124E955F24F80819B
:101B9000823040F021E006C08091860D8F5F8093F7
:101BA000860D20E080919A0D811101C02111409293
:101BB0009A0D315009F0EBCE1092860D80919A0D5E
:101BC00081110E949A820F900FBEA114B10469F492
:101BD000279A2F9ABFEFE0E7F2E0B150E040F040E3
:101BE000E1F700C000001F9AF5CFD5011196BC9215
:101BF000AE9281E05B968C935B975C961C925C97AF
:101C00000FB6F8940F92F50120813181938D448DA8
:101C1000949FC0011124B901680F791F73836283F7
:101C2000128E35832483841B9109820F931F97831F
:101C300086838FEF858F868FC5010B96928781876C
:101C40002FEF3FEF3487238796878587908B878791
:101C500010860996938B828B358B248B978B868B82
:101C6000918F808F118A0F900FBE13961C921E9237
:101C7000129711961C921E9216961C920FB6F8940B
:101C80000F92928D838D981708F06AC1128D448D42
:101C900041117EC080819181892B09F09DC0028015
:101CA000F381E02D309711F480E06CC082A1815067
:101CB00082A3268991A12917B9F38111F5CF9F013C
:101CC0002E5F3F4F62857385448155818681978160
:101CD000DA0115969C938E93149786819781DC0187
:101CE00013965C934E931297DB0111964D915C9184
:101CF00012974217530721F412969C938E931197D3
:101D000013861286DB018C9181508C9381A1868B86
:101D1000682F70E044E050E0461B570B558744871E
:101D20009091CB0D981710F48093CB0D89E0869F8E
:101D3000D001879FB00D1124BD016955724FDB01A1
:101D400011968D919C91129795838483DC01149652
:101D50004D915C9115975783468314964D915C91F4
:101D60001597DA0113963C932E931297DC01159682
:101D70003C932E93149773876287FB0180818F5F5A
:101D8000808381E0D50113961C921E92129725C084
:101D900050E060E070E0F501848195810E94338D10
:101DA000D5015C962C915C9714968D919C9115971A
:101DB000820F911D15969C938E93149712962D91D8
:101DC0003C9113978217930738F08D919C9111974E
:101DD00015969C938E93149780E01F5FF501128FE8
:101DE0009189992309F4B9C00688F789E02D068006
:101DF000F781E02DCF010C9664897589468557855A
:101E000020893189DA0115963C932E931497208905
:101E10003189D90113965C934E931297DB01119689
:101E20004D915C9112974817590721F412963C93F3
:101E30002E931197158A148ADB012C9121502C9333
:101E40002091A60D211158C09F012E5F3F4F628542
:101E500073854481558186819781DA0115969C931B
:101E60008E93149786819781DC0113965C934E9331
:101E70001297DB0111964D915C911297421753070F
:101E800021F412969C938E93119713861286DB0190
:101E90008C9181508C93A6898091CB0D8A1710F478
:101EA000A093CB0D49E0A49FD0011124BD01695539
:101EB000724FDB0111968D919C91129795838483CB
:101EC000DC0114964D915C911597578346831496C7
:101ED0004D915C911597DA0113963C932E931297CE
:101EE000DC0115963C932E93149773876287DB0170
:101EF0008C918F5F8C9324C040919E0D50919F0DCB
:101F000057874687DA0114962D913C911597318BAE
:101F1000208B14962D913C911597D90113969C9383
:101F20008E931297DA0115969C938E9314978DE9F0
:101F30009DE0958B848B80919D0D8F5F80939D0D8F
:101F4000A0919B0DB0919C0D968956968C91891706
:101F500038F481E080939A0D01C081110E949A8229
:101F60000F900FBEB0923D0EA0923C0E40E050E0AC
:101F700060E070E0C5010E94856BCE0101960E9471
:101F8000311D8E859F85A889B98980936C0D9093AA
:101F90006D0DA0936E0DB0936F0D00E010E021E089
:101FA00040E055E060E375E081E090E20E949A7ABB
:101FB000F82E0AE31EE021E040E054E06DE375E016
:101FC00081EA94E20E949A7AF8228FE00E94C48704
:101FD00090936B0D80936A0D8FE00E94C48790935D
:101FE000390E8093380EF1100BC08AE495E09F9370
:101FF0008F938FEA9EE09F938F930E945E380AC072
:1020000083E795E09F938F938FEA9EE09F938F9352
:102010000E9429380F900F900F900F9086E995E05D
:102020009F938F930FEA1EE01F930F930E9429380E
:102030000E94F336DC01CB012DA53EA54FA558A982
:10204000821B930BA40BB50BBF93AF939F938F93FE
:1020500082EC95E09F938F931F930F930E942938F2
:102060000FB6F894DEBF0FBECDBFE1960FB6F89461
:10207000DEBF0FBECDBFDF91CF911F910F91FF90BB
:10208000EF90DF90CF90BF90AF909F908F907F9018
:102090006F905F904F903F902F900895CF93DF9374
:1020A000EC018C819D81DC01ED91FC910480F58136
:1020B000E02D6E81199581E08E8F1E821F8E18A2F1
:1020C00019A21AA21CA280E0DF91CF910895DC0131
:1020D000FC01ED57FF4F80818823D1F017968C913A
:1020E0001797861741F01A968C911A97861315C088
:1020F00021E030E002C020E030E0F901EE0FFF1FE8
:102100002E0F3F1FFD01E20FF31F8085918508957B
:1021100018968D919C911997089580E090E008950C
:10212000DC0117968C911797811106C018968D9136
:102130009C911997892B71F01A968C911A9781119D
:1021400018C01B968D919C911C97892B91F421E0CE
:1021500030E002C020E030E0F901EE0FFF1F2E0F4B
:102160003F1FFD01E20FF31F67835187408781E026
:10217000089580E00895FC0184A10895FC01868102
:102180000895089580E0089580E0089580E090E04B
:1021900008950895DF92EF92FF920F931F93CF93CC
:1021A000DF93EC01E62EF12C85E0689FB00111244D
:1021B000FE01E60FF71F8085182F177086FF21C0DC
:1021C00001E085E0D82E8FEF800F8F3008F001E01E
:1021D000FE01D09EE00DF11D112480858695869527
:1021E00086958770811305C0602FCE010E94CA10AA
:1021F000EACF0F5F003161F78D81811302C011506A
:102200001D8385E08E9DF0018F9DF00D1124EC0F54
:10221000FD1F108681E0818712862296D783C683B0
:10222000DF91CF911F910F91FF90EF90DF90089574
:10223000FC016134C1F43F969C01265A3F4F61E096
:10224000AC014E5F5F4FDF0112971C9211966C93A9
:10225000108213974D935C933596E217F30799F725
:10226000FC01158208953D9621E03081361303C0AC
:10227000622F0C94CA102F5F35962031B1F7089564
:10228000CF93DF93FC01862F807809F051C028306E
:1022900008F04FC0442321F09581973009F449C0DC
:1022A000EF012D96A0E0B0E011969881911103C046
:1022B000662331F021C02596AF30B105A9F739C0AA
:1022C00085E08A9FE0018B9FD00D1124CE0FDF1F88
:1022D000442331F081E4888785818F5F858302C044
:1022E00081E0888725E02A9FC0012B9F900D112453
:1022F000E80FF91F80851DC06770660F660F660FB7
:10230000442341F0606485818F5F85838770687F97
:10231000682B03C02770687B622B25E02A9FC001D1
:102320002B9F900D1124E80FF91F6087862F01C0A5
:1023300080E0DF91CF910895611102C00696089563
:10234000FC013D9621E03081361307C035E0239F24
:10235000800D911D1124069608952F5F359620312A
:1023600091F780E090E008953F924F925F926F92D4
:102370007F928F929F92AF92BF92CF92DF92EF9215
:10238000FF920F931F93CF93DF9300D01F92CDB78F
:10239000DEB76C017C836B835A8349834C0180E1F7
:1023A000880E911C5601A7E0AA0EB11C11E084E032
:1023B000482E3601B2E16B0E711C93E0392E22E0FB
:1023C000522E8B819C81892B09F4F8C0F60190A1D3
:1023D000923059F128F4992341F0913071F0F1CF06
:1023E000933039F19430C1F1ECCF548285819681DC
:1023F000908787835286518610A3AE014D5F5F4F51
:10240000BE016F5F7F4FC5010E94F130882309F440
:10241000D5C0D6011596ED91FC91169780819196C5
:102420008C939197818192968C93F6017682658246
:1024300030A2D60192968C919297843011F49396A3
:102440001C92F60181A182508483258136813087D8
:1024500027838287818740A2D60192968C9184300F
:10246000B1F0853009F440C0823009F068C0AE0197
:102470004D5F5F4FBE016F5F7F4FC5010E94F1301E
:10248000882309F49BC0F601858984A38FC0AE011F
:102490004D5F5F4FBE016F5F7F4FC5010E94F130FE
:1024A000882309F48BC0D60155968C9155978330BB
:1024B00009F07CC098968C919897811177C093967B
:1024C0001C93939752968C91529796968C939697CD
:1024D00053968C91539797968C93979757968C9188
:1024E000579795968C9362C0AE014D5F5F4FBE01CA
:1024F0006F5F7F4FC5010E94F130882309F45EC0F1
:10250000F60183A1882309F451C082819381009749
:1025100009F44CC0DC01ED91FC910190F081E02DBB
:102520007401D60195960C91959797962C91979753
:1025300096964C91969794966C91199537C0F601A2
:1025400081A19585992319F0913031F02AC090E04E
:1025500002979787868715872B813C8189819A818D
:10256000782F692FD6011E964D915C911F974115CA
:10257000510539F49A8389833C832B831D961C92E1
:1025800010C001962115310541F041505109F60165
:102590005787468721503109E3CF79836A831C82AC
:1025A0001B82F60186859785892B41F4D601169604
:1025B0009C928E92159790961C9203CF0F900F903D
:1025C0000F900F90DF91CF911F910F91FF90EF909F
:1025D000DF90CF90BF90AF909F908F907F906F9043
:1025E0005F904F903F9008952F923F924F925F924D
:1025F0006F927F928F929F92AF92BF92CF92DF9213
:10260000EF92FF920F931F93CF93DF93CDB7DEB777
:10261000C454D1090FB6F894DEBF0FBECDBFDC01A4
:102620009496BC912496BFAF2497BB2309F4D2C0E3
:102630007C010E94F336F701878C90A0A1A0B2A084
:10264000DC01CB0188199909AA09BB09B7FDC2C0F1
:102650000E94F336D70193962C91DC01CB01820FB7
:10266000911DA11DB11DF701878F90A3A1A3B2A356
:10267000312CCE0101966C01282E90E49C0D2596FC
:102680009FAF259740E4442E512C3701A5E26A0EF6
:10269000711C5701B3E8AB0EB11CF701858D3816DC
:1026A00008F098C0832D90E0FC01EE0FFF1F8E0F05
:1026B0009F1F8E0D9F1DFC01E458FF4F808190E00D
:1026C000FC01EE0FFF1FDF01A80FB91FAE0DBF1DEC
:1026D000AA59BF4F2C9130E023963FAF2EAF2397DE
:1026E0004601D6011D9225962FAD25972A13FACFC4
:1026F0008E0F9F1F8E0D9F1DFC01EB59FF4F860112
:102700009E012F5B3F4F4081D70116966C91169723
:1027100014968D919C9115970E94312A81115BC06E
:1027200023968EAD9FAD23978134910520F023969B
:102730005FAE4EAE239722962FAD2297B301C30111
:10274000F6013E2F3219321740F44191DC013D91E0
:10275000CD014317B1F380E003C024968FAD2497D9
:10276000982D9219921738F4F40191914F01DB01E1
:102770009D93BD01F5CF81112DC0D701ED91FC9145
:10278000008CF18DE02D8601D5014C91B701C70178
:102790001995D701ED91FC910288F389E02DD501BF
:1027A0008C91882311F0698101C060E0C7011995FF
:1027B000009771F0DC01ED91FC910190F081E02D2A
:1027C000860122962FAD2297D5014C91B70119951C
:1027D000339463CF80E0CC5BDF4F0FB6F894DEBF5D
:1027E0000FBECDBFDF91CF911F910F91FF90EF9062
:1027F000DF90CF90BF90AF909F908F907F906F9021
:102800005F904F903F902F9008952F923F924F925C
:102810005F926F927F928F929F92AF92BF92CF9270
:10282000DF92EF92FF920F931F93CF93DF93CDB779
:10283000DEB7C458D1090FB6F894DEBF0FBECDBFC6
:10284000DC0114960D911C9115971696FC90F110D1
:10285000D2C1B22E942EA62E3C01D801ED91FC914E
:102860000190F081E02D60E0C80119952C010097DE
:1028700019F476EDF72ECAC1FC01C080D180C114D5
:10288000D10409F4BBC11301F5E62F0E311CDC01A4
:1028900011963C922E921496BC929E0126593F4F5F
:1028A00048E050E060E0F301848195810E94B729FF
:1028B000E82E811193C1AB96EFACAB97D201CD92CC
:1028C000DC92D801ED91FC910280F381E02D292D5D
:1028D00040E06A2DC8011995F3018683882309F425
:1028E00090C1E2969FADE297EA59FF4F9083682F1F
:1028F000D30114968D919C9115970E94012AD82E90
:10290000D801ED91FC91D20114961C92882361F0BC
:102910000480F581E02DD30116966C91C8011995BC
:10292000F3011682FD2C72C10190F081E02DD301DC
:1029300016966C91C8011995009709F49ACF4E2DFF
:10294000433108F042E1FC01B48241113BC0E496FE
:102950008EAD9FADE497F301EA57FF4F91838083DB
:10296000E6968EAD9FADE697329791838083EC9685
:10297000FFADEC97C058DF4FF883C058D0409101AD
:1029800041E0D30116966C91169714968D919C9107
:1029900015970E941584E82E811123C170E02E0145
:1029A000B1E44B0E511CF3013296CF57DF4FF98340
:1029B000E883C158D040C2014096EE969FAF8EAFDB
:1029C000EE978EC050E09E0126593F4FD3011696D8
:1029D0006C91169714968D919C9115970E94B7292A
:1029E000E82E8111FEC0B3CF8AE492E0F201918318
:1029F0008083CF57DF4FA881B981C158D040B383BE
:102A0000A28315861786168610A211A212A210A6FE
:102A1000EE968EAD9FADEE979683858390878783E4
:102A2000848182878187EE96AEADBFADEE97B48785
:102A3000A387F301368184819581C258DF4F998342
:102A40008883CE57D0408E010F5F1F4F272F49E05C
:102A500050E0632FCD57DF4F3883C358D040CC5759
:102A6000DF4F7883C458D0400E94DB29CD57DF4F19
:102A70003881C358D040CC57DF4F7881C458D040FC
:102A8000811127C0AB80BC805F924F921F930F9340
:102A900050E4852E912CC12CD12C62E0E62E072F1C
:102AA00026E040E8632FC258DF4F88819981CE57D6
:102AB000D040CC57DF4F7883C458D0400E941728AD
:102AC0000F900F900F900F90CC57DF4F7881C45824
:102AD000D04081110DC0F301868D823058F47F5FA4
:102AE000C058DF4FF881C058D0407F137DCF02C05F
:102AF000E82E77C0D3015E964C915E97423008F481
:102B000083C0910116966C91169714968D919C91A5
:102B100015970E9415841F921F921F921F92812C5D
:102B2000912CA12CB12CC12CD12CE12CF301048DC2
:102B300029E040E06681848195810E941728E82E73
:102B40000F900F900F900F9081114BC010E0F30188
:102B5000858D1817B0F5812F90E09C01220F331F4F
:102B6000820F931F860D971DFC01E458FF4F2081B3
:102B7000222329F1329780818770C82ED12C1F9291
:102B80001F921F921F92812C912CA12CB12CE12C11
:102B900000E02AE041E2D30116966C911697149654
:102BA0008D919C9115970E941728E82E0F900F90F9
:102BB0000F900F90882319F0B5E08B1312C01F5FA0
:102BC000C6CF0190F081E02D0688F789E02DC30182
:102BD000199581E0D30194968C9318C0F201D182AB
:102BE000C082D301ED91FC910480F581E02DC301F9
:102BF0001995FE2C0BC039EDF32E08C027EDF22EEF
:102C000005C094EDF92E02C081EDF82E8F2DCC5722
:102C1000DF4F0FB6F894DEBF0FBECDBFDF91CF916F
:102C20001F910F91FF90EF90DF90CF90BF90AF90EA
:102C30009F908F907F906F905F904F903F902F90DC
:102C400008950F931F93CF93DF93C82FD62F8A0138
:102C500080E591E00E945B382C988C2F82600E9466
:102C60005438CD2FD0E0209721F0BE01C8010E943A
:102C7000A519C00FD11F2C9A0E945338CE01DF91A5
:102C8000CF911F910F9108951F93CF93DF9300D0A1
:102C9000CDB7DEB7182F80E591E06B830E945B38DB
:102CA0002C98126019836B816A8362E070E0CE0118
:102CB00001960E94A5192C9A0E9453380F900F90EC
:102CC0000F90DF91CF911F9108951F93CF93DF93C2
:102CD0001F92CDB7DEB7182F80E591E00E945B38D8
:102CE0002C98812F0E94543880E00E9454382C9AEE
:102CF00089830E94533889810F90DF91CF911F9172
:102D000008959F92AF92BF92CF92DF92EF92FF927F
:102D10000F931F93CF93DF937C01C42F122F99241D
:102D200093946C01C60ED11CC60ED11C86E5C80E4C
:102D3000D11CA42EB12CABE2AA0EB11CAA0CBB1C58
:102D4000AE0CBF1CF60180819181DC01ED91FC91FC
:102D50000280F381E02D202F412F6C2F1995803EAA
:102D6000C9F4C1110BC061E088EE0E94441666E60A
:102D700070E080E090E00E94B93616C0F5018081D5
:102D80009181DC01ED91FC910284F385E02D612FAE
:102D900019950AC08D3031F49FEF990D933008F0EA
:102DA00040C016C081113DC0F60180819181DC01D7
:102DB000ED91FC910190F081E02D202F412F6C2F9F
:102DC0001995D82F8D3061F48FEF890D833050F431
:102DD00064E670E080E090E00E94B9369394B2CF50
:102DE0008823F1F0C1110BC061E088EE0E94441607
:102DF00066E670E080E090E00E94B93611C0EC2FEA
:102E0000F0E0BB96EE0FFF1FEE0DFF1D808191815C
:102E1000DC01ED91FC910284F385E02D612F199581
:102E20008D2FDF91CF911F910F91FF90EF90DF9049
:102E3000CF90BF90AF909F900895CF92DF92EF9286
:102E4000FF920F931F93CF93DF936C017A018B0155
:102E5000C0E0D0E0CE15DF0589F0D8016D918D017D
:102E6000D601ED91FC910190F081E02DC6011995FC
:102E7000892B11F47E0102C02196ECCFC701DF91AE
:102E8000CF911F910F91FF90EF90DF90CF90089519
:102E9000FC01918D828D981759F0828DDF01A80F6A
:102EA000B11D5D968C91928D9F5F928F90E00895F9
:102EB0008FEF9FEF0895FC01918D828D981731F06F
:102EC000828DE80FF11D858D90E008958FEF9FEFC3
:102ED0000895FC01918D828D981B892F90E00895B3
:102EE00085E39FE00E94691721E0892B09F420E027
:102EF000822F089582E990E10E94691721E0892BD1
:102F000009F420E0822F0895FC01848DDF01A80FD1
:102F1000B11DA35EBE4F2C91848D90E001968F73FE
:102F20009927848FA689B7892C93A089B1898C9120
:102F300080648C93938D848D981306C00288F389E6
:102F4000E02D80818F7D80830895EF92FF920F9313
:102F50001F93CF93DF93EC0181E0888F9B8D8C8D45
:102F6000981305C0E889F989808185FD24C0F62E73
:102F70000B8D10E00F5F1F4F0F731127E02E8C8D0C
:102F8000E8120CC00FB607FCFACFE889F9898081F6
:102F900085FFF5CFCE010E948417F1CF8B8DFE0106
:102FA000E80FF11DE35EFE4FF0820B8FEA89FB898B
:102FB0008081806207C0EE89FF896083E889F98992
:102FC00080818064808381E090E0DF91CF911F91C8
:102FD0000F91FF90EF900895CF93DF93EC01888DD0
:102FE0008823C9F0EA89FB89808185FD05C0A8890D
:102FF000B9898C9186FD0FC00FB607FCF5CF808193
:1030000085FFF2CFA889B9898C9185FFEDCFCE01DC
:103010000E948417E7CFDF91CF91089580E090E080
:10302000892B21F00E947A17811121C080E090E065
:10303000892B21F00E94701781111CC080E090E064
:10304000892B41F080E090E0892B21F00E94000064
:10305000811113C080E090E0892BA1F080E090E026
:10306000892B81F00E94000081110AC008950E94FE
:103070000000DCCF0E940000E1CF0E940000EACFF8
:103080000C9400000895CF92DF92EF92FF920F937D
:103090001F93CF93DF937801EC0124966C012BE012
:1030A000C20ED11CDE01F80131912D91321304C002
:1030B000AC15BD05C9F716C0DC0112968D919C9127
:1030C0001397009779F0B801DC01ED91FC91019024
:1030D000F081E02D1995F70181917F018993CC153D
:1030E000DD05C9F7DF91CF911F910F91FF90EF9010
:1030F000DF90CF9008950E942E8DDB013C911196B8
:103100008C911197482F4370E4EFFDE030834183A9
:103110008695869512969C911297292F2295220FBB
:10312000220F207C822B292F2695269523708283BF
:10313000238315965C911597578313966C9113977B
:10314000658392959F70948314967C9114977683EF
:103150001696AC91A0871F925F932F938F934F93F6
:103160003F931F929F931F92AF931F927F931F9243
:103170006F931F925F932F938F934F933F938BEF98
:1031800095E09F938F938FEA9EE09F938F930E9489
:10319000E2318DB79EB748960FB6F8949EBF0FBE2A
:1031A0008DBF08956115710579F0FB010190002034
:1031B000E9F73197AF01461B570BDC01ED91FC910C
:1031C0000280F381E02D199480E090E008951F9231
:1031D0000F920FB60F9211240BB60F922F933F93BD
:1031E0004F935F936F937F938F939F93AF93BF930F
:1031F000EF93FF9385E39FE00E948417FF91EF9187
:10320000BF91AF919F918F917F916F915F914F91FE
:103210003F912F910F900BBE0F900FBE0F901F90FC
:1032200018951F920F920FB60F9211240BB60F92A2
:103230002F938F939F93EF93FF93E091450FF0911E
:10324000460F8081E0914B0FF0914C0F82FD11C031
:10325000908180914E0F8F5F20914F0F821751F018
:10326000E0914E0FF0E0EB5CF04F958F80934E0FA6
:1032700001C08081FF91EF919F918F912F910F90CD
:103280000BBE0F900FBE0F901F9018951F920F92BC
:103290000FB60F9211240BB60F922F933F934F93BB
:1032A0005F936F937F938F939F93AF93BF93EF93AE
:1032B000FF9382E990E10E948417FF91EF91BF9103
:1032C000AF919F918F917F916F915F914F913F91BE
:1032D0002F910F900BBE0F900FBE0F901F9018955F
:1032E0001F920F920FB60F9211240BB60F922F93CD
:1032F0008F939F93EF93FF93E091A210F091A3100F
:103300008081E091A810F091A91082FD11C09081F8
:103310008091AB108F5F2091AC10821751F0E0913B
:10332000AB10F0E0EE56FF4E958F8093AB1001C0CE
:103330008081FF91EF919F918F912F910F900BBE04
:103340000F900FBE0F901F901895FC0120812EBD8D
:10335000DC0131969C01260F371FE217F30741F07D
:1033600051910DB407FEFDCF4EB55EBD4D93F5CF27
:1033700061507109FC01E60FF71F0DB407FEFDCF88
:103380008EB580830895CF92DF92EF92FF920F93D4
:103390001F93CF93DF930FB6F8940F92E091970DA0
:1033A000F091980D0F900FBE2091A60D2F5F2093E6
:1033B000A60D2091970D3091980DAEE3A69FA00128
:1033C000A79F500D1124CA0168EE73E00E94448A41
:1033D0006E0F7F1F2E173F0728F46E177F0708F028
:1033E00067C003C06E177F0720F02617370708F065
:1033F0005FC04091970D5091980DE0919B0DF09119
:103400009C0DA285B3858481958106811781EC018D
:103410001D830C83C681D7819B838A83CF0102964B
:1034200011960D911C9112970817190721F4129605
:10343000DC93CE931197138612868C9181508C93D6
:10344000CA01821B930B680F791FE0919B0DF091CD
:103450009C0D73836283C0919B0DD0919C0DCE0116
:1034600002966417750708F0F8C10091950D109148
:10347000960D2A813B812F3F4FEF340709F0E0C1C1
:10348000D8011796ED91FC911897228133813D83E5
:103490002C83D90115969C938E931497FF83EE830A
:1034A000938382831B870A87E80188818F5F8883E3
:1034B0000FB6F8940F928091A60D81508093A60DBF
:1034C0008091A60D882311F080E0B3C18091870D13
:1034D0008823D1F32091A20D3091A30DE0E0F0E01C
:1034E00069E071E080919D0D882309F477C0D901CE
:1034F0001696ED91FC911797A489B58986859785D5
:1035000040895189EC015D834C83C089D1899B83BB
:103510008A83CF010C9611964D915C9112974817B2
:10352000590721F41296DC93CE931197158A148AC9
:103530008C9181508C93CF010296A285B3854481F2
:10354000558106811781EA011D830C83C681D781CD
:103550005B834A8311964D915C91129748175907E6
:1035600021F41296DC93CE931197138612864C9118
:1035700041504C93A6894091CB0D4A1710F4A0936B
:10358000CB0D6A9FD00111248D010955124FD8012E
:103590001196CD91DC911297D583C4834C815D81C6
:1035A000578346834C815D81DA0113969C938E93F9
:1035B00012979D838C8313870287E80188818F5F30
:1035C0008883A0919B0DB0919C0D968956968C9105
:1035D000981708F487CF70939A0D84CFEF2BD1F012
:1035E000E091930DF091940D8081811103C08FEFD4
:1035F0009FEF0CC0E091930DF091940D0580F68142
:10360000E02D0680F781E02D828193819093920DC9
:103610008093910D3091860D332309F402C119E096
:1036200001E04FEF5FEF8091A60D8111E8C080911E
:10363000970D9091980D01969093980D8093970D0A
:10364000009789F56091930D7091940DE091950D1F
:10365000F091960DF093940DE093930D7093960D69
:103660006093950D2091990D2F5F2093990DE09116
:10367000930DF091940D2081211105C05093920D6E
:103680004093910D10C0E091930DF091940D058041
:10369000F681E02D0680F781E02D628173817093C1
:1036A000920D6093910D6091910D7091920D20E0BB
:1036B0008617970708F494C0E091930DF091940D4C
:1036C0006081611105C05093920D4093910D88C0A7
:1036D000E091930DF091940D0580F681E02D068028
:1036E000F781E02D628173818617970728F4709324
:1036F000920D6093910D74C0BF016E5F7F4FA285E4
:10370000B385E480F580C680D780E701DD82CC8276
:10371000C681D781FB82EA821196ED90FC901297C8
:10372000E616F70621F41296DC93CE9311971386D2
:103730001286CC91C150CC93A489B5891097F1F031
:10374000C684D784E088F188E601FD82EC82E088B7
:10375000F188E701DB82CA821196CD90DC90129746
:10376000EF012C96CC16DD0621F41296FC92EE9217
:103770001197158A148ACC91C150CC93A689B09127
:10378000CB0DBA1710F4A093CB0D1A9FD0011124C2
:10379000ED01C955D24F6E010980DA81C02DD58364
:1037A000C483EC80FD80F782E682EC80FD80D70147
:1037B00013967C936E9312977D836C83D386C28617
:1037C000E60168816F5F6883A0919B0DB0919C0DAD
:1037D000768956966C91761708F46ECF21E06CCFFF
:1037E000E0919B0DF0919C0DE6891E9FF001112444
:1037F000E955F24F8081823040F021E006C080918F
:10380000860D8F5F8093860D20E080919A0D811147
:1038100001C0211100939A0D315009F004CF10928C
:10382000860D80919A0D882309F44ECE0E949A82CB
:1038300081E00F900FBE81114CC00E949A8249C056
:10384000F801339642815381DA016D917C912617FC
:10385000370708F41ACEFA01F5CFE090930DF090F7
:10386000940D2A813B812F3FEFEF3E0731F4D701C2
:103870001796ED91FC9118970CC0F7013396428191
:103880005381DA010D911C912017310710F0FA01D4
:10389000F6CF228133813D832C83D90115969C93E9
:1038A0008E931497FF83EE8393838283FB86EA864D
:1038B000E70188818F5F88838091910D9091920DAF
:1038C0006817790708F0F4CD7093920D6093910D0D
:1038D000EFCDDF91CF911F910F91FF90EF90DF908F
:1038E000CF900895EF92FF920F931F93CF93DF93A2
:1038F000D62FC72F7A0191E090936B0E98E69093A4
:103900008D0E10926C0E10928E0E682F89E29FE041
:103910000E940334019709F068C080E00E943632AB
:10392000282F30E02115310509F061C080916A0E21
:103930008111FCCF8E2D813208F080E291E09093CE
:103940006A0E9093690E2FEF2093680E1092670E07
:10395000280F2093660E9093450E9091450E906D22
:103960009093450E9091440E913061F41092440E64
:103970009091450E9093BB009091BC0093FDF8CFC1
:1039800095EC01C095EE9093BC0090916A0E913039
:10399000E1F39091670E981710F48091670EA6E4FA
:1039A000BEE027EB3EE0F9019E2F921B981718F41A
:1039B0009D919193F9CF1092D80E8093D70E0D2F31
:1039C0001C2FC0E0D0E09091D70E8091D80E9817B0
:1039D00081F0CE15DF056CF4219689E29FE00E940C
:1039E000B733F80181938F01EECF86EF06C0C9018E
:1039F00008C0CE15DF0519F085EF9FEF02C080E00B
:103A000090E0DF91CF911F910F91FF90EF9008957B
:103A1000CF93DF93EC014EE050E0BC018BE390E0EC
:103A20000E94721C28813981388329832A813B8135
:103A30003A832B832C813D813C832D832E813F81D2
:103A40003E832F8328853985388729872A853B85BA
:103A50003A872B872C853D853C872D87DF91CF9139
:103A600008954F925F926F927F928F929F92AF9242
:103A7000BF92CF92DF92EF92FF920F931F93CF935B
:103A8000DF93CDB7DEB7E6970FB6F894DEBF0FBE73
:103A9000CDBF8C01CE0101960E94081D0E94F33615
:103AA0006F8B788F898F9A8F69817A81072E000CAE
:103AB000880B990B0E943B906F87788B898B9A8B30
:103AC0006B817C81072E000C880B990B0E943B9028
:103AD0002B013C016D817E81072E000C880B990B18
:103AE0000E943B906B8B7C8B8D8B9E8B9B01AC01E2
:103AF0000E949A906B017C01A3019201C301B20163
:103B00000E949A90A70196010E94618A0E94A88B48
:103B10009B01AC016F85788989899A8990580E94A8
:103B2000FC8A0E94CD8A6BA37CA38DA39EA32F85C4
:103B3000388949895A89CA01B9010E949A90A70116
:103B400096010E94618A0E94A88B9B01AC01C3016F
:103B5000B2010E94FC8A0E94CD8A6FA378A789A730
:103B60009AA78091E40D9091E50DA091E60DB0919A
:103B7000E70D2F89388D498D5A8D281B390B4A0B3B
:103B80005B0BCA01B9010E94399020E030E04AE79E
:103B900054E40E94FC8A6B017C0169857A85072EBA
:103BA000000C880B990B0E943B902091F00D3091F6
:103BB000F10D4091F20D5091F30D0E94608A20E0CA
:103BC00030E043E053E40E94FC8AA70196010E9482
:103BD0009A906B8F7C8F8D8F9E8F6B857C85072E47
:103BE000000C880B990B0E943B902091EC0D3091BA
:103BF000ED0D4091EE0D5091EF0D0E94608A20E096
:103C000030E043E053E40E94FC8AA70196010E9441
:103C10009A904B015C016D857E85072E000C880B08
:103C2000990B0E943B902091E80D3091E90D409155
:103C3000EA0D5091EB0D0E94608A20E030E043E0F5
:103C400053E40E94FC8AA70196010E949A906B019E
:103C50007C012091D80D3091D90D4091DA0D509111
:103C6000DB0D0E94618A6F8F78A389A39AA32091AC
:103C7000D40D3091D50D4091D60D5091D70D6B8D4F
:103C80007C8D8D8D9E8D0E94618A6BA77CA78DA7F0
:103C90009EA72091D00D3091D10D4091D20D509121
:103CA000D30DC501B4010E94618A6FA778AB89ABBF
:103CB0009AAB2091CC0D3091CD0D4091CE0D50910D
:103CC000CF0DC701B6010E94618A6BAB7CAB8DAB97
:103CD0009EAB2091E00D3091E10D4091E20D5091AD
:103CE000E30D6B8D7C8D8D8D9E8D0E94618A2FE8FA
:103CF00032EC45E75FE30E949A906B017C012DEE68
:103D00003EE245E652E46FA178A589A59AA50E94F6
:103D10009A9020E137ED43E25DE30E949A909B0187
:103D2000AC01C701B6010E94618A6B017C01209140
:103D3000DC0D3091DD0D4091DE0D5091DF0DC501A0
:103D4000B4010E94618A2FE832EC45E75FE30E94EC
:103D50009A904B015C012DEE3EE245E652E46BA1E8
:103D60007CA18DA19EA10E949A9020E137ED43E2B3
:103D70005DE30E949A909B01AC01C501B4010E94D1
:103D8000618A2F89388D498D5A8D2093E40D3093A7
:103D9000E50D4093E60D5093E70DC092E00DD092F3
:103DA000E10DE092E20DF092E30D6093DC0D709373
:103DB000DD0D8093DE0D9093DF0D2F8D38A149A18D
:103DC0005AA12093D80D3093D90D4093DA0D50931A
:103DD000DB0D2BA53CA54DA55EA52093D40D3093FE
:103DE000D50D4093D60D5093D70D2FA538A949A9CD
:103DF0005AA92093D00D3093D10D4093D20D5093FA
:103E0000D30D2BA93CA94DA95EA92093CC0D3093CD
:103E1000CD0D4093CE0D5093CF0DEDEFFDE0C5825B
:103E2000D682E782F08661877287838794878F8D39
:103E300098A1A9A1BAA185879687A787B08B2F855E
:103E4000388949895A89218B328B438B548B458A17
:103E5000568A678A708E8B899C89AD89BE89818FCD
:103E6000928FA38FB48F8EE1D80101900D928A9525
:103E7000E1F7C801E6960FB6F894DEBF0FBECDBFDE
:103E8000DF91CF911F910F91FF90EF90DF90CF9036
:103E9000BF90AF909F908F907F906F905F904F906A
:103EA000089582E990E10E946917892B99F182E9CE
:103EB00090E10E9448178454843158F4E82FF0E0D0
:103EC000E45BFD4F8081082E000C990B97FF03C027
:103ED00009C080E090E0382F292F8630910524F02A
:103EE00035E001C030E020E04FEA5EE03093AF0EF5
:103EF0002093B00E9F938F938BE896E09F938F93C0
:103F00005F934F930E9429380F900F900F900F905E
:103F10000F900F9008958F929F92BF92CF92DF9251
:103F2000EF92FF920F931F93CF93DF931F92CDB722
:103F3000DEB74C01B62E690149830E949C117C01B9
:103F40004981009709F44BC0DC01ED91FC91119778
:103F5000309709F446C013969C9180E0891731F0A0
:103F60002081241729F033968F5FF8CFE0E0F0E04E
:103F7000D601ED93FC933097B1F1228126952695D9
:103F800030E02031310514F02FE030E081E090E0A6
:103F9000A0E0B0E004C0880F991FAA1FBB1F2A959C
:103FA000D2F70197F801918380836B2D80EE0E94F8
:103FB000441688ED0E946516682FD70114968C91DF
:103FC000882339F0F401EA58FF4F80818260682B22
:103FD00001C0697F88ED0E94441680E005C086ED2F
:103FE00003C087ED01C08BED0F90DF91CF911F9142
:103FF0000F91FF90EF90DF90CF90BF909F908F90A8
:104000000895CF93DF93CDB7DEB7AD970FB6F89491
:10401000DEBF0FBECDBF45E050E060E070E08091B4
:104020003C0E90913D0E0E94205D813009F0C0C38E
:1040300081EA96E09F938F938FEA9EE09F938F9300
:104040000E9429388AE20E94FA3280E090E00E94C1
:104050007B7A40E052EC61E070E085E39FE00E94F3
:1040600093328FEF9FEF9A8389830E94717A87EC56
:1040700096E00E94B1870F900F900F900F9085E30C
:104080009FE00E9469170497D4F385E39FE00E94A4
:104090006917892BE9F185E39FE00E944817BE016B
:1040A0006F5F7F4F0E945F83019779F789819A81C3
:1040B00097FDEBCF6EEC76E08FE89EE00E94438D9B
:1040C000892B41F080E090E00E947B7ACC24C3945D
:1040D000D12C21C080E090E00E947B7A81E08F9318
:1040E0008EE88F9380E692E09F938F9381ED96E028
:1040F0009F938F938FEA9EE09F938F930E945E38E9
:104100000FB6F894DEBF0FBECDBF8FEF9FEF89C013
:10411000CC24CA94DC2C64E670E080E090E00E943D
:10412000C3190E94717A80E2EFE8FEE0DF011D9280
:104130008A95E9F785E39FE00E9469170297D4F317
:1041400000E010E0EDE0AE2EE7E0BE2EFFEA8F2E9D
:10415000FEE09F2EA0E27A2E85E39FE00E94691781
:10416000892B09F450C085E39FE00E944817BE01E7
:104170006F5F7F4F0E945F83019771F7E980FA803C
:10418000F7FCEACF61E077E08FE89EE00E94438D84
:10419000892BF9F40F5F1F4F7FE8C72E7EE0D72EE3
:1041A000DF92CF92FF92EF921F930F93BF92AF9245
:1041B0009F928F920E94E231F601272D11922A954B
:1041C000E9F70FB6F894DEBF0FBECDBFC12CD12CDE
:1041D000C3CF8FE89EE09F938F93FF92EF921F9340
:1041E0000F9385E397E09F938F938FEA9EE09F93D1
:1041F0008F930E94E2310FB6F894DEBF0FBECDBFA1
:10420000CC24C394D12C80E090E00E947B7A81E0A2
:1042100090E0CA94CD2811F480E090E091958195CA
:104220009109892B09F0A2C08DE597E09F938F93A8
:104230008FEA9EE09F938F930E9429388FEF9FEF24
:104240009A83898380E2EFE8FEE0DF011D928A9580
:10425000E9F70E94717A82E897E00E94B1870F9097
:104260000F900F900F9085E39FE00E9469170497CD
:10427000D4F385E39FE00E946917892BE1F185E380
:104280009FE00E944817BE016F5F7F4F0E945F83CF
:10429000019779F789819A8197FDEBCF6EEC76E0F3
:1042A0008FE89EE00E94438D892B39F080E090E0FA
:1042B0000E947B7A01E010E020C080E090E00E9444
:1042C0007B7A82E08F9380E98F938BE692E09F93D5
:1042D0008F9385E897E09F938F938FEA9EE09F935B
:1042E0008F930E945E380FB6F894DEBF0FBECDBF2D
:1042F0000FEF1FEF0BC000E010E080E090E00E94A5
:104300007B7AF1E00F27119501951109011511052F
:1043100009F065C18AE098E09F938F938FEA9EE051
:104320009F938F930E9429388FEF9FEF9A83898301
:104330005FE8E52E5EE0F52E80E2D7011D928A95BA
:10434000E9F70E94717A1F921F9280E398E09F9391
:104350008F93FF92EF920E945D8DC7010E94B187FB
:104360000FB6F894DEBF0FBECDBF0DC085EB97E052
:104370009F938F930FEA1EE01F930F930E945E3866
:1043800088ED97E0FBC185E39FE00E9469170497E1
:10439000D4F380E2EFE8FEE0DF011D928A95E9F7B1
:1043A00085E39FE00E946917892BD1F185E39FE0A7
:1043B0000E944817BE016F5F7F4F0E945F83019785
:1043C00079F789819A8197FDEBCF6EEC76E08FE8E3
:1043D0009EE00E94438D892B29F080E090E00E94AE
:1043E0007B7A1EC080E090E00E947B7A82E08F930F
:1043F00081ED8F9386E792E09F938F938CE398E013
:104400009F938F938FEA9EE09F938F930E945E38D5
:104410000FB6F894DEBF0FBECDBF0FEF1FEF8CC0FD
:1044200080E090E00E947B7A80E2EFE8FEE0DF012E
:104430001D928A95E9F785E39FE00E946917892B11
:1044400031F185E39FE00E944817BE016F5F7F4F07
:104450000E945F83019779F78FE89EE09F938F9387
:1044600082E08F9380EE8F9386E792E09F938F9305
:104470008CE698E09F938F938FEA9EE09F938F93B3
:104480000E94E2310FB6F894DEBF0FBECDBF80E2CE
:10449000EFE8FEE0DF011D928A95E9F785E39FE0F2
:1044A0000E946917892B31F185E39FE00E9448172C
:1044B000BE016F5F7F4F0E945F83019779F78FE89E
:1044C0009EE09F938F9382E08F9381EF8F9386E797
:1044D00092E09F938F938CEA98E09F938F938FEA5B
:1044E0009EE09F938F930E94E2310FB6F894DEBF57
:1044F0000FBECDBF80E2EFE8FEE0DF011D928A959E
:10450000E9F785E39FE00E94691785E39FE00E9439
:104510004817BE016F5F7F4F0E945F83019789F745
:104520006CEE78E08FE89EE00E94438D892B49F382
:1045300080E090E00E947B7A0115110509F0D1C05E
:104540008BE599E09F938F932FEAC22E2EE0D22E17
:10455000DF92CF920E9429388FEF9FEF9A83898351
:104560000E94717A3FE8E32E3EE0F32E40E2B42E43
:10457000D701EB2D1D92EA95E9F78EE48F93BF9258
:104580008EE899E09F938F938CE999E09F938F93A6
:10459000FF92EF920E945D8DFF92EF9281E08F93E8
:1045A00086ED8F9384E892E09F938F938BEA99E056
:1045B0009F938F93DF92CF920E94E231C7010E94B6
:1045C000B187D7011D92BA94E9F780E090E00E948C
:1045D0007B7A0FB6F894DEBF0FBECDBF0DC082EF61
:1045E00098E09F938F930FEA1EE01F930F930E9412
:1045F0005E3888E199E0C2C085E39FE00E946917B8
:104600000497D4F385E39FE00E9469179F938F93EB
:104610008EED99E09F938F938FEA9EE09F938F9307
:104620000E94E2310F900F900F900F900F900F901B
:10463000EE24EA94FE2C85E39FE00E946917892B03
:1046400009F442C085E39FE00E944817BE016F5FF6
:104650007F4F0E945F836C016EEC76E08FE89EE0F6
:104660000E94438D21E0892B09F420E0E22EF12CF9
:10467000CA94CD2801F789819A8197FDDCCF222346
:1046800001F18FE89EE09F938F9381E08F938FEEEF
:104690008F9384E892E09F938F938BE09AE09F93AF
:1046A0008F938FEA9EE09F938F930E94E23180E088
:1046B00090E00E947B7A0FB6F894DEBF0FBECDBFAC
:1046C0000DC0E12CF12CB7CF01E010E0EA94EF2807
:1046D00011F400E010E0119501951109012B71F022
:1046E00041C08EE39AE09F938F930FEA1EE01F93E1
:1046F0000F930E945E388EE59AE040C081EA9AE00E
:104700009F938F930FEA1EE01F930F930E94293807
:104710008FEC9AE09F938F931F930F930E942938F9
:1047200083E090E09093B00E8093AF0E1F928F9332
:104730008BE896E09F938F931F930F930E942938E5
:1047400080913C0E90913D0E0FB6F894DEBF0FBEE7
:10475000CDBF009769F140E050E060E070E00E945A
:10476000856B26C08FEE9AE09F938F930FEA1EE031
:104770001F930F930E945E3889E19BE09F938F9374
:104780001F930F930E9429380FB6F894DEBF0FBE17
:10479000CDBF8CE79BE09F938F938FEA9EE09F9322
:1047A0008F930E945E380F900F900F900F90FFCF65
:1047B000E0913A0EF0913B0E309709F47CC0809165
:1047C0009B0D90919C0DE817F90709F474C00FB682
:1047D000F8940F928285938588589D4009F069C0AE
:1047E000848995893DE08D39930709F462C0892B4E
:1047F00009F05FC09F012E5F3F4F84819581468104
:104800005781DC0115965C934E931497A681B7816E
:1048100013969C938E9312978091890D90918A0D97
:104820008217930721F4B0938A0DA093890D138604
:1048300012868091880D81508093880DA689809181
:10484000CB0D8A1710F4A093CB0D89E0A89FD0015F
:104850001124BD016955724FDB0111968D919C9118
:10486000129795838483DC0114964D915C91159782
:104870005783468314964D915C911597DA011396F0
:104880003C932E931297DC0115963C932E9314972C
:1048900073876287DB018C918F5F8C93A0919B0D56
:1048A000B0919C0D968956968C91981710F00E94A5
:1048B0009A820F900FBE45E050E060E070E080917A
:1048C0003C0E90913D0E0E94205D8130D1F48CE52C
:1048D0009BE09F938F938FEA9EE09F938F930E941C
:1048E000E23180913C0E90913D0E0F900F900F9011
:1048F0000F90009731F040E050E060E070E00E94DF
:10490000856B8E01015E1F4F8FE0F82ECE01019660
:104910000E94311DF8012F2D11922A95E9F78091FF
:10492000380E9091390E009729F04AE050E0B80116
:104930000E94205D64E170E080E090E00E94C31975
:10494000E5CFCF93DF93CDB7DEB72F970FB6F894AF
:10495000DEBF0FBECDBF45E050E060E070E080916B
:104960003C0E90913D0E0E94205D8130D1F48DE986
:104970009BE09F938F938FEA9EE09F938F930E947B
:10498000E23180913C0E90913D0E0F900F900F9070
:104990000F90009731F040E050E060E070E00E943E
:1049A000856B0FB6F8940F92E0919B0DF0919C0DE2
:1049B000CF010296628573854481558126813781B6
:1049C000DA0115963C932E93149726813781D901ED
:1049D00013965C934E931297DB0111964D915C9167
:1049E00012974817590721F412963C932E9311976A
:1049F00013861286DB012C9121502C930489158992
:104A00000115110529F12685378540895189D9017C
:104A100015965C934E93149740895189DA01139649
:104A20003C932E931297D80111966D917C91129719
:104A30009F01245F3F4F6217730721F412965C9326
:104A40004E931197158A148AD8012C9121502C93DA
:104A50004091890D50918A0D55834483DA01149653
:104A60002D913C9115973783268314962D913C9177
:104A70001597D90113969C938E931297DA01159688
:104A80009C938E93149788E89DE09387828780910A
:104A9000880D8F5F8093880D0F900FBE80911C0E44
:104AA000882319F10FB6F8940F92A091930DB0914D
:104AB000940D8C91811103C08FEF9FEF10C0A091D6
:104AC000930DB091940D15960D90BC91A02D169656
:104AD0000D90BC91A02D12968D919C91139790935F
:104AE000920D8093910D0F900FBE80919B0D909130
:104AF0009C0DE817F90709F078C080911C0E8823F7
:104B000019F00E949A8271C08091870D9091880D52
:104B1000981305C010929C0D10929B0D66C0809159
:104B2000A60D882321F081E080939A0D5EC010923B
:104B30009A0DA0919B0DB0919C0DE0919B0DF09171
:104B40009C0D2D913C918789908D82179307A8F039
:104B500080919B0D90919C0D80919B0D90919C0D4F
:104B6000279A2F9ABFEFE7EAF1E6B150E040F04014
:104B7000E1F700C000001F9AF5CF8091CB0D69E0EE
:104B8000482F50E0649F9001659F300D1124F9017A
:104B9000E955F24F9081911102C08150F1CFA1816E
:104BA000B28112960D90BC91A02DB283A18326559F
:104BB000324FA217B30731F412962D913C911397FF
:104BC0003283218399E0949FF001959FF00D112489
:104BD000E955F24F0180F281E02D26813781309333
:104BE0009C0D20939B0D8093CB0D45E050E060E041
:104BF00070E080913C0E90913D0E0E94205D8130CE
:104C0000D1F48EEB9BE09F938F938FEA9EE09F936E
:104C10008F930E94E23180913C0E90913D0E0F9057
:104C20000F900F900F90009731F040E050E060E05F
:104C300070E00E94856B0FEA1EE094E8292E9CE04C
:104C4000392ECE0101966C0123E4422E2CE0522E27
:104C50008091380E9091390E892B09F41CC185E39F
:104C60009FE00E9469170F97D1F785E39FE00E94AC
:104C700069177C018FE0A82EE114F10409F401C149
:104C8000BB24B3949FE0E916F10409F0B12C45E090
:104C900050E060E070E080913C0E90913D0E0E94EB
:104CA000205D813009F041C01F92AF921F92BF92E8
:104CB000FF92EF92ACEDBBE0BF93AF931F930F93C6
:104CC0000E94E2310FB6F894DEBF0FBECDBFB11027
:104CD00014C01F92AF92FF92EF921F921F92AFEFFC
:104CE000BBE0BF93AF931F930F930E94FF370FB6A4
:104CF000F894DEBF0FBECDBF0CC0A4E2BCE0BF93F2
:104D0000AF931F930F930E940C320F900F900F9050
:104D10000F9080913C0E90913D0E009731F040E055
:104D200050E060E070E00E94856BBB2009F497C002
:104D3000C701FFE0EF16F10410F08FE090E03601BC
:104D40005601A80EB91E46010E94F33660933D0F2E
:104D500070933E0F80933F0F9093400FE091350F7B
:104D6000F091360F0680F781E02D85E39FE01995DD
:104D700097FD0AC0D4018D934D01AA15BB0521F7FB
:104D80008981823039F51EC00E94F33620913D0F93
:104D900030913E0F40913F0F5091400FDC01CB010D
:104DA000821B930BA40BB50B2091390F30913A0F56
:104DB00040913B0F50913C0F82179307A407B50712
:104DC00068F2DECF8A818F3F29F4BB24B3948B81B4
:104DD0008C3009F0B12C45E050E060E070E080914B
:104DE0003C0E90913D0E0E94205D8130F1F5812CAA
:104DF000912C8E149F04B4F4F30181913F011F9212
:104E00008F939F928F925F924F921F930F930E9466
:104E1000E231FFEF8F1A9F0A0FB6F894DEBF0FBE84
:104E2000CDBFE7CFDF92CF9281E69CE09F938F9337
:104E30001F930F930E94E23180913C0E90913D0EA2
:104E40000F900F900F900F900F900F90009769F0B8
:104E500040E050E060E070E00E94856B06C085E3B2
:104E60009FE00E9469177C0107CFBB2051F04AE008
:104E700050E0B6018091380E9091390E0E94856BFA
:104E80000AC03F922F921F930F930E94FF370F90FB
:104E90000F900F900F9064E170E080E090E00E942E
:104EA000C319D6CE2F923F924F925F926F927F920C
:104EB0008F929F92AF92BF92CF92DF92EF92FF922A
:104EC0000F931F93CF93DF9300D01F92CDB7DEB720
:104ED0003C017C836B832A017901F901A080B180B8
:104EE000FB01F181F983F90111821082FB018281BA
:104EF00081FD02C060E101C060E288EE0E944416BC
:104F0000AA829201EB81FC81408160E0C3010E9492
:104F1000FF36382EF6E08F1316C088EF0E94651614
:104F20008295817091E08927EB81FC81928180FBE1
:104F300091F9928391FD02C060E101C060E288EEC8
:104F40000E944416DECF81115AC088EC0E9465167B
:104F500082FF53C080E30E946516282E90E0A816B9
:104F6000B90608F42A80F70180819181822C912C66
:104F70009501281B390BC90137FF02C080E090E082
:104F80006401881599050CF46C0180E591E00E949C
:104F90005B382C9888E00E945438A60160E070E0ED
:104FA000C8010E943C8DC114D10421F0B601C80192
:104FB0000E94A5190C0D1D1D2C9A0E94533864E007
:104FC00088EC0E944416F70180819181880E991E19
:104FD00091828082F9812F1620F08A149B0408F4B4
:104FE00090CF88EF0E94651682958170EB81FC81DD
:104FF000928180FB91F9928302C080EF382E832D3D
:105000000F900F900F900F90DF91CF911F910F9104
:10501000FF90EF90DF90CF90BF90AF909F908F90D8
:105020007F906F905F904F903F902F9008952F92B8
:105030003F924F925F926F927F928F929F92AF9228
:10504000BF92CF92DF92EF92FF920F931F93CF9375
:10505000DF93CDB7DEB767970FB6F894DEBF0FBE0C
:10506000CDBF3C01542E422E302E2E2CEDA4FEA49A
:10507000188A1F861E861D868E01035F1F4F9E01A4
:10508000215F3F4F40E00E948B1F811157C1598221
:105090004A823B822C82DE82CD82B886AF82AE010C
:1050A0004F5F5F4F68E080E20E9421162D853E85AC
:1050B00040E060E1C3010E94FF36182F8111FAC061
:1050C000452C441C4424441CE114F10409F4E3C0BD
:1050D000CF84D888442009F455C0D60112968C910B
:1050E0001297826012968C93650155245394C114D3
:1050F000D10409F443C09C868B864D855E856F85FF
:10510000788987019E01255F3F4FC3010E94522786
:10511000182F863079F42F84388888EF0E9465161E
:1051200085FB882780F98525F101928180FB91F923
:105130009283DDCF8111BEC02FA538A9211531057D
:10514000A1F0D901ED91FC9111970190F081E02D32
:10515000C5018C199D099A8789876B857C859E017D
:10516000275F3F4FA701CD0119958B859C85C81AF4
:10517000D90A8815990508F0BACF8DC0112309F412
:105180008FC098C0F6018281816082832D853E8523
:105190003A8B298B21808FEF820D803408F088C0F4
:1051A0000E94F3369B01AC0128573C4E4F4F5F4F96
:1051B0002B8B3C8B4D8B5E8BD60112968C9180FD98
:1051C00002C060E401C060E888EE0E944416312C01
:1051D0008114910409F44DC054012814390408F4D1
:1051E0005101AF8AA7016A2D80E10E9421166A2D24
:1051F00088E30E944416F6016081606280EF0E949D
:10520000441688EC0E94651687FFFBCF60E888ECA7
:105210000E94441688EF0E946516182F1F70412CBB
:10522000512C00E0112371F00E94F336DC01CB0118
:105230002B893C894D895E89821B930BA40BB50B8E
:10524000B7FD05C08A189B08EA0CFB1CC1CF1630BD
:1052500099F11E3009F46AC0143059F4FFEF4F1A67
:105260005F0A29893A8921153105F1F14216530661
:10527000D9F588EF0E94651685FB882780F9D6014D
:1052800012969C91129780FB90F912969C93112391
:1052900009F450C00FC02D853E85411003C04CC09D
:1052A0002D853E8560EA40E0C3010E94FF3646C07E
:1052B0008AED44C0812F42C088EF0E94651685FBAD
:1052C000882780F931E08327D60112969C911297A6
:1052D00080FB90F912969C9390FD02C060E401C09F
:1052E00060E888EE0E94441660E088E30E9444165D
:1052F000F701608180E10E9444166F8988E30E9473
:105300004416D6016C91606280EF0E94441688ECCE
:105310000E94651687FFFBCF60E888EC0E94441668
:1053200088EF0E946516182F1F707CCF0F5F033027
:10533000D9F69FCF2D853E8560E8B5CF67960FB62D
:10534000F894DEBF0FBECDBFDF91CF911F910F91BB
:10535000FF90EF90DF90CF90BF90AF909F908F9095
:105360007F906F905F904F903F902F9008958F9215
:105370009F92AF92BF92CF92DF92EF920F931F92C4
:105380001F923F932F934A015A01C12CD12CEE2436
:10539000E39400E026E040E80E9417280F900F9069
:1053A0000F900F900F91EF90DF90CF90BF90AF9044
:1053B0009F908F9008958F929F92AF92BF92CF92BD
:1053C000DF92EF920F931F931F921F921F930F93E1
:1053D0004A015A01C12CD12C32E0E32E022F26E0E3
:1053E00040E80E9417280F900F900F900F901F9188
:1053F0000F91EF90DF90CF90BF90AF909F908F90E4
:1054000008958F929F92AF92BF92CF92DF92EF92C8
:105410000F93CF931F921F921F921F92812C912C5A
:10542000A12CB12CC12CD12CE12C062F25E040E081
:1054300060E00E941728C82F6CE271E080E090E0E5
:105440000E94B9360F900F900F900F908C2FCF9134
:105450000F91EF90DF90CF90BF90AF909F908F9083
:105460000895AF92BF92CF92DF92EF92FF920F9387
:105470001F93CF93DF9300D01F92CDB7DEB77C018F
:10548000690158011C821B821A8219828E010F5FEA
:105490001F4F9E012D5F3F4F0E948B1F811109C03E
:1054A00049815A816B817C8185019601C7010E94E7
:1054B00052270F900F900F900F90DF91CF911F9177
:1054C0000F91FF90EF90DF90CF90BF90AF90089535
:1054D0008F929F92AF92BF92CF92DF92EF920F93F3
:1054E000C42ED12C1F921F921F921F92812C912C9F
:1054F000A12CB12CE12C062F21E043E2FC016285B6
:10550000828193810E9417280F900F900F900F9027
:105510000F91EF90DF90CF90BF90AF909F908F90C2
:1055200008958F929F92AF92BF92CF92DF92EF92A7
:105530000F93C62ED12C1F921F925F934F9324E09E
:10554000822E912C34E0A32EB12CE12C00E020E03F
:1055500043EAFC016285828193810E9417280F90A3
:105560000F900F900F900F91EF90DF90CF90BF9022
:10557000AF909F908F9008958F929F92AF92BF921D
:10558000CF92DF92EF920F93C42ED12C1F921F92D5
:105590001F921F92812C912CA12CB12CE12C062F53
:1055A00023E043E2FC016285828193810E941728F7
:1055B0000F900F900F900F900F91EF90DF90CF9082
:1055C000BF90AF909F908F9008958130910581F4A6
:1055D0001092800082E080938100109285001092EA
:1055E0008400B19A80916F00826080936F0008956B
:1055F0008230910569F41092900082E080939100CE
:10560000109295001092940088BB809371000895C9
:105610008330910569F41092A00082E08093A1008C
:105620001092A5001092A40089BB80937200089587
:10563000892B61F41092200182E080932101109265
:105640002501109224018ABB8093730008951F9254
:105650000F920FB60F9211240BB60F922F933F9318
:105660004F935F936F937F938F939F93AF93BF936A
:10567000EF93FF9348E251E064E271E080E090E054
:105680000E942A30FF91EF91BF91AF919F918F912E
:105690007F916F915F914F913F912F910F900BBE32
:1056A0000F900FBE0F901F9018951F920F920FB67C
:1056B0000F9211240BB60F922F933F934F935F934A
:1056C0006F937F938F939F93AF93BF93EF93FF93CA
:1056D00048EA50E064EA70E083E090E00E942A30FB
:1056E000FF91EF91BF91AF919F918F917F916F91BA
:1056F0005F914F913F912F910F900BBE0F900FBE76
:105700000F901F9018951F920F920FB60F921124B1
:105710000BB60F922F933F934F935F936F937F93AB
:105720008F939F93AF93BF93EF93FF9348E950E01C
:1057300064E970E082E090E00E942A30FF91EF91EE
:10574000BF91AF919F918F917F916F915F914F9199
:105750003F912F910F900BBE0F900FBE0F901F9097
:1057600018951F920F920FB60F9211240BB60F923D
:105770002F933F934F935F936F937F938F939F9359
:10578000AF93BF93EF93FF9348E850E064E870E075
:1057900081E090E00E942A30FF91EF91BF91AF919C
:1057A0009F918F917F916F915F914F913F912F9139
:1057B0000F900BBE0F900FBE0F901F901895CF93B8
:1057C000DF93EC018A819B81DC01ED91FC910480E7
:1057D000F581E02D6A8519958A85813439F4EA814D
:1057E000FB81EA58FF4F8081846080831A861B8684
:1057F0001C861D861E861F86188A80E0DF91CF9149
:10580000089581E0693009F080E00895FC01828507
:1058100008952F923F924F925F926F927F928F9254
:105820009F92AF92BF92CF92DF92EF92FF920F932F
:105830001F93CF93DF93CDB7DEB766970FB6F8947B
:10584000DEBF0FBECDBF7C01162F6A01FA01808139
:105850009181A281B3818130F3E09F07F1E0AF072E
:10586000B105E1F060F48115E1E09E07AE07B105F6
:1058700069F181309140A140B10581F067C1833069
:1058800021E0920720E1A207B10509F46BC0833043
:105890009340A041B10509F465C058C180913F0E05
:1058A000811154C1412F61E1C7010E94682A412F33
:1058B00060E1C7010E94682A412F64E0C7010E948D
:1058C000BC2A81E080933F0E81EB58C1462F61E1F5
:1058D000C7010E94682A412F60E1C7010E94682A1F
:1058E00010923F0ED7011A968C911A9787701770F5
:1058F000880F880F880F182B1296CD90DC90139785
:10590000112309F423C15601B6E5AB0EB11CE12CFD
:10591000F12CF501819191915F010097D9F0DC01A3
:10592000ED91FC910084F185E02D1995811312C051
:10593000BBE2EB0EF11CEE0CFF1CF601EE0DFF1DA1
:1059400080819181DC01ED91FC910480F581E02D55
:105950001995FCC0BFEFEB1AFB0AE0E1EE16F1046B
:10596000C1F6F4C0412F64E1C7010E94682A412FAB
:1059700060E1C7010E94682A64E170E080E090E085
:105980000E94B936D7011A968C911A97F601518068
:105990008770482E1296ED90FC9013971B8A88E032
:1059A0008C8B8CE38D8BFAEFEF16FFEFFF0609F47B
:1059B000CBC051FA552450F8D7011696CD90DC9003
:1059C0001797CE01439617969C938E9316971A9627
:1059D0005C929E012F5F3F4F42E150E060E0C701C3
:1059E0000E94B729F701D782C6828111ADC0898490
:1059F0009A846B847C84FD81FE8B2E80670126E572
:105A0000C20ED11C5601312CD5018D919C9100976D
:105A100089F1DC01ED91FC910084F185E02D19956F
:105A2000811128C0F50180819181DC01ED91FC910B
:105A30000088F189E02D622D19958823D9F0F501B0
:105A400080819181DC01ED91FC910484F585E02D4C
:105A5000A301B401199581117BC0F5018081918169
:105A6000DC01ED91FC910684F785E02D6E89199596
:105A700081116EC03394B2E0AB0EB11CE0E13E1276
:105A8000C3CFB12CD6018D919C91009791F1DC018F
:105A9000ED91FC910084F185E02D1995811129C0CB
:105AA000F60180819181DC01ED91FC910088F18902
:105AB000E02D622D1995882309F455C0F6018081E7
:105AC0009181DC01ED91FC910484F585E02DA30129
:105AD000B401199581110DC0F60180819181DC011D
