:100000000C9498070C94C9070C94C9070C94C90761
:100010000C94C9070C94C9070C94C9070C94C90720
:100020000C94C9070C94C9070C94C9070C94C90710
:100030000C94877A0C94C9070C94C9070C94C907CF
:100040000C94C9070C9402160C94C9070C94C907A8
:100050000C94C9070C94C9070C94C9070C942C3054
:100060000C94C9070C94E3270C94B9270C94C90786
:100070000C94C9070C94C9070C94C9070C94C907C0
:100080000C94D4150C94C9070C94C9070C94C90797
:100090000C9484270C945A270C94C9070C94DB21E8
:1000A0000C94C9070C94C9070C94A6150C94C907A5
:1000B0000C94C9070C94C9070C94C9070C947815C3
:1000C0000C94C9070C94C9070C94C9070C94C90770
:1000D0000C94C9070C94C9070C94C9070C94C90760
:1000E0000C94C907443B443B443B793BBE3D203E16
:1000F000443B443B793BBE3D3C233F232E233223EC
:1001000036237623432347234D23512355235B2353
:100110005F236323762369236D2371230C94257D4C
:100120000C94C81A0C942E230C9422290C940721A9
:100130000C94E0290C94351B0C9414260C94E11AB1
:100140000C9467210C9403210C94CA250C947C0D0B
:100150000C9445210C9447230C94921B0C943C2343
:100160000C94FB280C9455230C945F230C946D2362
:100170000C945B230C9448210C94B2260C943223EB
:100180000C9452210C944D230C9469230C94787C8C
:100190000C942E1C0C94203E0C94EC260C943C2ABF
:1001A0000C9401210C94443B0C94161C0C94432396
:1001B0000C94D8250C94B7250C943B1B0C9451231C
:1001C0000C9476230C9436230C9405210C948C25E6
:1001D0000C94381B0C944A130C94BE3D0C9476304E
:1001E0000C948A7A0C947F1E0C94DF2A0C943C1B8E
:1001F0000C945B260C9463230C94BA1B0C940A1B7E
:100200000C9471230C94793B0C944B210C940E218B
:100210000C946E1D0C941D290C943F230C94950195
:100220000C94442100000A0B02090C0D0E08070370
:1002300004010000000000000000000000000000B9
:1002400000000000000000000000000000000000AE
:10025000121110000000000000000000000000006B
:100260000000000000000000000000002200250047
:1002700028002B002E00310034000201000005018F
:1002800008010B0100002100240027002A002D0096
:100290003000330001010000040107010A010505D7
:1002A0000505070508080808020202020A0A0808EC
:1002B000040404040101010101010101030303031A
:1002C00003030303040707070C0C0C0C0C0C0C0CA9
:1002D0000202020206060606060606060B0B0B0BBA
:1002E0000B0B0B0B010210202008081020401020DF
:1002F00040800201020108040201010204081020EA
:1003000040808040201008040201800402018040E7
:100310002010080402010804020101020408102050
:100320004080010204081020408089E0482EAA2461
:10033000AA94BA2CEE24EA94FE2CCC24CA94DC2C89
:1003400055245394992493948091200E882309F482
:10035000E3C58091EF0D8F5F8093EF0DD091230E59
:100360000FB6F8940F928091EF0D81508093EF0DAE
:100370008091EF0D8111DEC18091D00D882309F4A9
:10038000D9C12091EB0D3091EC0DE0E0F0E08091CF
:10039000E60D882309F48FC0D9011696ED91FC91E2
:1003A0001797048915894685578580899189DA01CF
:1003B00015969C938E93149780899189DC011396EE
:1003C0005C934E931297AF01445F5F4FD801119633
:1003D0006D917C9112976417750721F412969C9386
:1003E0008E931197158A148AD8018C9181508C9321
:1003F000AF014E5F5F4F02851385648175818681F1
:100400009781DB0115969C938E9314978681978133
:10041000DC0113967C936E931297D80111966D911F
:100420007C9112976417750721F412969C938E9312
:10043000119713861286D8018C9181508C93A689CE
:100440008091140E8A1710F4A093140E4A9ED001C6
:1004500011248D010051124FD80111968D919C915C
:10046000129795838483DC0114966D917C91159786
:100470007783668314966D917C911597DB011396B3
:100480005C934E931297DC0115965C934E931497F0
:1004900013870287D8018C918F5F8C93A091E40D14
:1004A000B091E50D968956968C91981708F46FCF08
:1004B0009092E30D6CCFEF2BE1F0E091DC0DF09129
:1004C000DD0D8081811105C0D092DB0DC092DA0D67
:1004D00010C0E091DC0DF091DD0D0580F681E02D7E
:1004E0000680F781E02D828193819093DB0D8093CC
:1004F000DA0D3091CF0D332309F417C18091EF0D40
:10050000811101C18091E00D9091E10D01969093D0
:10051000E10D8093E00D009789F54091DC0D50913D
:10052000DD0D6091DE0D7091DF0D7093DD0D609338
:10053000DC0D5093DF0D4093DE0D2091E20D2F5F17
:100540002093E20DE091DC0DF091DD0D2081211171
:1005500005C0D092DB0DC092DA0D10C0E091DC0D29
:10056000F091DD0D0580F681E02D0680F781E02D0C
:10057000428153815093DB0D4093DA0D4091DA0DA7
:100580005091DB0D20E08417950708F4ADC0E09191
:10059000DC0DF091DD0D4081411105C0D092DB0DE5
:1005A000C092DA0DA1C0E091DC0DF091DD0D058067
:1005B000F681E02D0680F781E02D4281538184177A
:1005C000950728F45093DB0D4093DA0D8DC0BF01E1
:1005D0006E5F7F4F628473840481158146815781E9
:1005E000D80115965C934E93149746815781DA0192
:1005F00013961C930E931297D30111960D911C9193
:1006000012970617170721F412965C934E931197D1
:1006100013861286D3014C9141504C93248835881F
:100620002114310429F14685578500891189DA01A1
:1006300015961C930E93149700891189D80113966F
:100640005C934E931297D10111966D907C90129706
:10065000AF01445F5F4F6416750621F412961C9338
:100660000E931197158A148AD1014C9141504C93E5
:10067000A6894091140E4A1710F4A093140E4A9EB6
:10068000D0011124AD014051524F3A01DA011196C7
:100690004D915C91129755834483DA0114960D9124
:1006A0001C9115971783068314960D911C9115972D
:1006B000D80113967C936E931297DA0115967C936A
:1006C0006E93149773866286D3014C914F5F4C935F
:1006D000A091E40DB091E50D568956964C915417B2
:1006E00008F455CF21E053CFE091E40DF091E50DF2
:1006F000E6894E9EF0011124E051F24F8081823054
:1007000040F021E006C08091CF0D8F5F8093CF0D28
:1007100020E08091E30D811101C021119092E30D41
:10072000315009F0EBCE1092CF0D8091E30D811185
:100730000E94507F0F900FBEDD2309F405CE0FB647
:10074000F8940F92E091280EF091290E06811781FE
:10075000E801EA85FB858C819D812E813F81DC014A
:1007600015963C932E9314970E80DF81C02D9B83AA
:100770008A83C8010296218132812817390711F432
:10078000D283C183E8011B861A86808181508083D1
:100790008091D00D81508093D00D8091200E81509A
:1007A0008093200E0F900FBE2F89388D21153105B3
:1007B00009F4E4C19091EF0D9F5F9093EF0DC90193
:1007C0000E943A830FB6F8940F928091EF0D8150FA
:1007D0008093EF0D8091EF0D8111CEC18091D00DEE
:1007E000882309F4C9C16091EB0D7091EC0DE0E034
:1007F000F0E08091E60D882309F47FC0DB011696B6
:10080000ED91FC911797C489D58926853785808914
:100810009189D90115969C938E931497808991891B
:10082000DC0113963C932E9312979F01245F3F4F58
:1008300049815A814217530711F49A838983158A93
:10084000148A8881815088839F012E5F3F4FC28523
:10085000D3854481558186819781DA0115969C93D1
:100860008E93149786819781DC0113965C934E9347
:10087000129749815A814217530711F49A83898349
:1008800013861286888181508883A6898091140EF0
:100890008A1710F4A093140E4A9ED0011124ED0182
:1008A000C051D24F89819A8195838483DC0114964B
:1008B0004D915C9115975783468314964D915C91A9
:1008C0001597DA0113963C932E931297DC01159637
:1008D0003C932E931497D387C28788818F5F888338
:1008E000A091E40DB091E50D968956968C919817DC
:1008F00008F47FCF9092E30D7CCFEF2BE1F0E091F5
:10090000DC0DF091DD0D8081811105C0F092DB0DD1
:10091000E092DA0D10C0E091DC0DF091DD0D058064
:10092000F681E02D0680F781E02D828193819093FE
:10093000DB0D8093DA0D8090CF0D882009F417C16C
:100940008091EF0D811101C18091E00D9091E10D39
:1009500001969093E10D8093E00D009789F5209129
:10096000DC0D3091DD0D4091DE0D5091DF0D509387
:10097000DD0D4093DC0D3093DF0D2093DE0D2091D3
:10098000E20D2F5F2093E20DE091DC0DF091DD0D83
:100990002081211105C0F092DB0DE092DA0D10C02C
:1009A000E091DC0DF091DD0D0580F681E02D0680F3
:1009B000F781E02D228133813093DB0D2093DA0D16
:1009C0002091DA0D3091DB0DD0E08217930708F407
:1009D000ADC0E091DC0DF091DD0D2081211105C04D
:1009E000F092DB0DE092DA0DA1C0E091DC0DF09108
:1009F000DD0D0580F681E02D0680F781E02D228156
:100A000033818217930728F43093DB0D2093DA0D9E
:100A10008DC0AF014E5F5F4F628473842481358146
:100A200066817781D90115967C936E9314976681C0
:100A30007781DB0113963C932E931297D301119685
:100A40002D913C9112972417350721F412967C932F
:100A50006E93119713861286D3012C9121502C93FB
:100A6000248835882114310429F126853785608949
:100A70007189D90115967C936E9314976089718959
:100A8000DB0113963C932E931297D10111966D9032
:100A90007C9012979F01245F3F4F6216730621F4EA
:100AA00012967C936E931197158A148AD1012C911A
:100AB00021502C93A6892091140E2A1710F4A0938C
:100AC000140E4A9ED00111249D012051324F39014C
:100AD000D90111962D913C91129735832483D90128
:100AE00014966D917C9115977783668314966D911A
:100AF0007C911597DB0113965C934E931297D90165
:100B000015965C934E93149773866286D3012C914D
:100B10002F5F2C93A091E40DB091E50D3689569688
:100B20002C91321708F455CFD1E053CFE091E40D6A
:100B3000F091E50DE6894E9EF0011124E051F24F4F
:100B40008081823040F0D1E006C08091CF0D8F5F70
:100B50008093CF0DD0E08091E30D811101C0D111C0
:100B60009092E30D8A948110EBCE1092CF0D80917C
:100B7000E30D81110E94507F0F900FBE01151105EA
:100B800009F4E2CB8091EF0D8F5F8093EF0DC801E8
:100B90000E943A830FB6F8940F928091EF0D815026
:100BA0008093EF0D8091EF0D8111B3C18091D00D35
:100BB000882309F4AEC12091EB0D3091EC0DE0E0FB
:100BC000F0E08091E60D882309F47DC0E901EE8113
:100BD000FF81C489D5894685578580899189DA0145
:100BE00015969C938E93149780899189DC011396B6
:100BF0005C934E931297AF01445F5F4F69817A8196
:100C00006417750711F49A838983158A148A888179
:100C100081508883AF014E5F5F4FC285D385648169
:100C2000758186819781DB0115969C938E9314972D
:100C300086819781DC0113967C936E93129769816C
:100C40007A816417750711F49A8389831386128653
:100C5000888181508883A6898091140E8A1710F4A8
:100C6000A093140E4A9ED0011124ED01C051D24F21
:100C700089819A8195838483DC0114966D917C919E
:100C800015977783668314966D917C911597DB0198
:100C900013965C934E931297DC0115965C934E93DA
:100CA0001497D387C28788818F5F8883A091E40DD2
:100CB000B091E50D968956968C91981708F481CFDE
:100CC0005092E30D7ECFEF2BE1F0E091DC0DF0913F
:100CD000DD0D8081811105C0B092DB0DA092DA0D8F
:100CE00010C0E091DC0DF091DD0D0580F681E02D66
:100CF0000680F781E02D828193819093DB0D8093B4
:100D0000DA0D3091CF0D332309F4FEC08091EF0D41
:100D10008111E8C08091E00D9091E10D01969093D2
:100D2000E10D8093E00D009789F54091DC0D509125
:100D3000DD0D6091DE0D7091DF0D7093DD0D609320
:100D4000DC0D5093DF0D4093DE0D2091E20D2F5FFF
:100D50002093E20DE091DC0DF091DD0D2081211159
:100D600005C0B092DB0DA092DA0D10C0E091DC0D51
:100D7000F091DD0D0580F681E02D0680F781E02DF4
:100D8000428153815093DB0D4093DA0D4091DA0D8F
:100D90005091DB0D20E08417950708F494C0E09192
:100DA000DC0DF091DD0D4081411105C0B092DB0DED
:100DB000A092DA0D88C0E091DC0DF091DD0D058088
:100DC000F681E02D0680F781E02D42815381841762
:100DD000950728F45093DB0D4093DA0D74C0BF01E2
:100DE0006E5F7F4FC285D38504811581468157810F
:100DF000D80115965C934E93149746815781DA017A
:100E000013961C930E93129709811A8106171707E0
:100E100011F45A83498313861286488141504883CE
:100E2000A489B5891097F9F04685578500891189FD
:100E3000EA011D830C8300891189E8015B834A83E1
:100E400011966D907C901297AF01445F5F4F6416CE
:100E5000750621F412961C930E931197158A148A25
:100E60004C9141504C93A6894091140E4A1710F4AE
:100E7000A093140E4A9ED0011124A051B24F119696
:100E80004D915C91129755834483EA010C811D8139
:100E9000178306830C811D81E8017B836A83EA0145
:100EA0007D836C83B387A2874C914F5F4C93A09155
:100EB000E40DB091E50D568956964C91541708F4FF
:100EC0006ECF21E06CCFE091E40DF091E50DE68965
:100ED0004E9EF0011124E051F24F8081823040F0AB
:100EE00021E006C08091CF0D8F5F8093CF0D20E071
:100EF0008091E30D811101C021119092E30D3150D9
:100F000009F004CF1092CF0D8091E30D81110E9462
:100F1000507F0F900FBE18CA8091F00D823010F0F4
:100F20000E94507F0E94A2280E947D2609CA8A7AC8
:100F300011241FBECFEFD1E2DEBFCDBF00E00CBF5A
:100F400023E1AEEABDE001C01D92A337B207E1F78D
:100F50001DE0A0E0B2E0E8EFFDE001E00BBF02C061
:100F600007900D92AE3AB107D9F717E0C8E9D7E07C
:100F700000E006C021970109802FFE010E949D829A
:100F8000C739D10780E00807A9F70E942D460C94C5
:100F9000FA860C9400004F925F926F927F928F922C
:100FA0009F92AF92BF92CF92DF92EF92FF920F93F8
:100FB0001F93CF93DF9364E670E080E090E00E949F
:100FC0008A230E9420306B017C01CEE5DEE084E0C4
:100FD00090E090935F0E80935E0E80E090E1AEE033
:100FE000B0E08093600E9093610EA093620EB09378
:100FF000630E40E050E16EE070E081EC9FE00E9403
:10100000241981ED92E09F938F93DF93CF930E94F9
:10101000C62F8CEE92E09F938F93DF93CF930E9425
:10102000C62F87E093E09F938F93DF93CF930E9427
:10103000C62F82E293E09F938F93DF93CF930E941A
:10104000C62F83E493E09F938F93DF93CF930E9407
:10105000522F8BE793E09F938F93DF93CF930E9460
:101060009C2F85EB93E09F938F93DF93CF930E9408
:1010700044188DEE93E09F938F93DF93CF930E945C
:101080001A18EDB7FEB7B0960FB6F894FEBF0FBEB4
:10109000EDBF88E294E09F938F938BE394E09F935E
:1010A0008F93DF93CF930E94C62F83E08F9388EEB8
:1010B0008F938AE694E09F938F93DF93CF930E9460
:1010C000C62F82E994E09F938F93DF93CF930E9482
:1010D0009C2F85EB94E09F938F93DF93CF930E9497
:1010E000C62F8FED94E09F938F93DF93CF930E9451
:1010F000C62F249A0E943828CFB7F8944DB75EB710
:10110000485E5F4F0FB6F8945EBF0FBE4DBF809133
:10111000CC0D811124C0E3EDF2E08491E9E1F3E02C
:101120009491E82FF0E0EE0FFF1FEC57FD4FA591D3
:10113000B491EC91E92321F461E085E30E940D2351
:1011400085E30E947D2F8CB580618CBD8CB5806459
:101150008CBD84E30E947D2F83E30E947D2F8091CC
:10116000CC0D8F5F8093CC0DCFBF209A289A8091B1
:1011700001018F7B8093010168E188E80E943A2891
:1011800060E288E70E943A2860E088E70E943A28F7
:10119000C1E0D0E0209709F4A4C488E60E945D284D
:1011A000219680FFF7CF61EC88ED0E943A2860E637
:1011B00080ED0E943A2864E088EE0E943A2888EE8A
:1011C0000E945D2882FFFBCF0E94222F60E288EC04
:1011D0000E943A2861E080E80E943A2881E095E088
:1011E0009F938F938EE59EE09F938F930E94C62FCF
:1011F0000F900F900F900F9068EC70E080E090E0FF
:101200000E948A2340EB51E160E08BEB91E10E9468
:101210000A1B8AE295E09F938F93CEE5DEE0DF9391
:10122000CF930E94C62F8AE495E09F938F93DF931C
:10123000CF930E94C62F8EE695E09F938F93DF9306
:10124000CF930E949C2F81E995E09F938F93DF932A
:10125000CF930E949C2F64E670E080E090E00E94B3
:101260008A234DB75EB7405F5F4F0FB6F8945EBFFD
:101270000FBE4DBF8091190E90911A0E892B09F067
:10128000B7C38091EF0D8F5F8093EF0D8FE190E0FA
:101290000E94A582EC010FB6F8940F928091EF0D99
:1012A00081508093EF0D8091EF0D8111E6C1809107
:1012B000D00D882309F4E1C12091EB0D3091EC0DA4
:1012C000E0E0F0E009E011E08091E60D882309F408
:1012D00090C0D9011696ED91FC911797A488B58816
:1012E0004685578580899189DA0115969C938E935E
:1012F000149780899189DC0113965C934E93129721
:10130000AF01445F5F4FD50111966D917C911297AB
:101310006417750721F412969C938E931197158A82
:10132000148AD5018C9181508C93AF014E5F5F4F31
:10133000A284B3846481758186819781DB011596CF
:101340009C938E93149786819781DC0113967C93EE
:101350006E931297D50111966D917C911297641737
:10136000750721F412969C938E931197138612861B
:10137000D5018C9181508C93A6898091140E8A1787
:1013800010F4A093140E0A9FD0011124CD018051B6
:10139000924F5C01DC0111968D919C91129795837F
:1013A0008483DC0114966D917C9115977783668315
:1013B00014966D917C911597DB0113965C934E9377
:1013C0001297DC0115965C934E931497B386A28610
:1013D000D5018C918F5F8C93A091E40DB091E50DB8
:1013E000968956968C91981708F46ECF1093E30D5A
:1013F0006BCFEF2BD1F0E091DC0DF091DD0D808112
:10140000811103C08FEF9FEF0CC0E091DC0DF091D4
:10141000DD0D0580F681E02D0680F781E02D8281CB
:1014200093819093DB0D8093DA0D3091CF0D3323B0
:1014300009F41EC189E0782E66246394AA24AA9434
:10144000BA2C8091EF0D811101C18091E00D909136
:10145000E10D01969093E10D8093E00D009789F5E1
:101460004091DC0D5091DD0D6091DE0D7091DF0D2E
:101470007093DD0D6093DC0D5093DF0D4093DE0D16
:101480002091E20D2F5F2093E20DE091DC0DF091B1
:10149000DD0D2081211105C0B092DB0DA092DA0D87
:1014A00010C0E091DC0DF091DD0D0580F681E02D9E
:1014B0000680F781E02D428153815093DB0D4093EC
:1014C000DA0D4091DA0D5091DB0D20E0841795077D
:1014D00008F4ADC0E091DC0DF091DD0D40814111CB
:1014E00005C0B092DB0DA092DA0DA1C0E091DC0D39
:1014F000F091DD0D0580F681E02D0680F781E02D6D
:10150000428153818417950728F45093DB0D409353
:10151000DA0D8DC0BF016E5F7F4F8284938404819A
:10152000158146815781D80115965C934E93149787
:1015300046815781DA0113961C930E931297D401BA
:1015400011960D911C9112970617170721F4129608
:101550005C934E93119713861286D4014C9141509F
:101560004C93448855884114510429F14685578588
:1015700000891189DA0115961C930E93149700893E
:101580001189D80113965C934E931297D20111964C
:101590008D909C901297AF01445F5F4F8416950623
:1015A00021F412961C930E931197158A148AD20176
:1015B0004C9141504C93A6894091140E4A1710F457
:1015C000A093140E7A9ED0011124AD014051524FC8
:1015D0004A01DA0111964D915C911297558344832B
:1015E000DA0114960D911C911597178306831496B2
:1015F0000D911C911597D80113967C936E931297B9
:10160000DA0115967C936E93149793868286D401A3
:101610004C914F5F4C93A091E40DB091E50D56892C
:1016200056964C91541708F455CF21E053CFE091D2
:10163000E40DF091E50DE6897E9EF0011124E05164
:10164000F24F8081823040F021E006C08091CF0DC2
:101650008F5F8093CF0D20E08091E30D811101C059
:1016600021116092E30D315009F0EBCE1092CF0DB5
:101670008091E30D81110E94507F0F900FBE209743
:1016800069F4279A2F9ABFEFE0E7F2E0B150E0400B
:10169000F040E1F700C000001F9AF5CFD983C8835E
:1016A00081E08B8F1C8E0FB6F8940F9228813981C0
:1016B0009B8D4C8D949FC0011124B901680F791F37
:1016C0007B836A831A8E3D832C83841B9109820F4E
:1016D000931F9F838E838FEF8D8F8E8FCE010B96FE
:1016E0009A8789872FEF3FEF3C872B879E878D87CF
:1016F000988B8F87188609969B8B8A8B3D8B2C8BBA
:101700009F8B8E8B998F888F198A0F900FBE1B82AB
:101710001A82198218821E820FB6F8940F929A8D3F
:101720008B8D981708F057C11A8D4C8D41117AC0D6
:1017300088819981892B09F08CC0EA81FB813097DF
:1017400011F480E06CC082A1815082A3268991A10E
:101750002917B9F38111F5CF9F012E5F3F4F6285A5
:1017600073854481558186819781DA0115969C9312
:101770008E93149786819781DC0113965C934E9328
:101780001297DB0111964D915C9112974217530706
:1017900021F412969C938E93119713861286DB0187
:1017A0008C9181508C9381A1868B682F70E044E0EE
:1017B00050E0461B570B558744879091140E98179D
:1017C00010F48093140E89E0869FD001879FB00D9E
:1017D0001124BD016051724FDB0111968D919C91D6
:1017E000129795838483DC0114964D915C91159733
:1017F0005783468314964D915C911597DA011396A1
:101800003C932E931297DC0115963C932E931497DC
:1018100073876287FB0180818F5F808381E01B82F9
:101820001A8218C050E060E070E08C819D810E94B7
:10183000D7832C8D8C819D81820F911D9D838C83FC
:101840002A813B818217930720F0888199819D83AB
:101850008C8380E01F5F1A8F9989992309F4B8C09F
:10186000EE89FF890680F781E02DCF010C9664890F
:1018700075894685578520893189DA0115963C930B
:101880002E93149720893189D90113965C934E9336
:101890001297DB0111964D915C91129748175907E9
:1018A00021F412963C932E931197158A148ADB012A
:1018B0002C9121502C932091EF0D211158C09F01A4
:1018C0002E5F3F4F62857385448155818681978164
:1018D000DA0115969C938E93149786819781DC018B
:1018E00013965C934E931297DB0111964D915C9188
:1018F00012974217530721F412969C938E931197D7
:1019000013861286DB018C9181508C93A68980917D
:10191000140E8A1710F4A093140E49E0A49FD0016E
:101920001124BD016051724FDB0111968D919C9184
:10193000129795838483DC0114964D915C911597E1
:101940005783468314964D915C911597DA0113964F
:101950003C932E931297DC0115963C932E9314978B
:1019600073876287DB018C918F5F8C9324C04091D9
:10197000E70D5091E80D57874687DA0114962D91AF
:101980003C911597318B208B14962D913C91159796
:10199000D90113969C938E931297DA0115969C9316
:1019A0008E93149786EE9DE0958B848B8091E60D47
:1019B0008F5F8093E60DA091E40DB091E50D9689BF
:1019C00056968C91891738F481E08093E30D01C01D
:1019D00081110E94507F0F900FBED0931A0EC093BA
:1019E000190E40E050E060E070E0CE010E947263AA
:1019F00000E010E021E040E055E067EB75E08CE7A7
:101A00009DE00E945274C82F07E11EE021E040E0F3
:101A100054E064EC75E08AE493E10E945274C823B8
:101A20008FE00E9415809093160E8093150E8FE024
:101A30000E9415809093CE0D8093CD0DC1110BC0E7
:101A400081ED95E09F938F938EE59EE09F938F931A
:101A50000E94522F0AC08AEF95E09F938F938EE5E4
:101A60009EE09F938F930E94C62F0F900F900F9030
:101A70000F908DE196E09F938F93CEE5DEE0DF93AC
:101A8000CF930E94C62F0E942030DC01CB018C191D
:101A90009D09AE09BF09BF93AF939F938F9389E4CC
:101AA00096E09F938F93DF93CF930E94C62F4DB7FD
:101AB0005EB7445F5F4F0FB6F8945EBF0FBE4DBF79
:101AC000DF91CF911F910F91FF90EF90DF90CF901A
:101AD000BF90AF909F908F907F906F905F904F904E
:101AE000089585E796E09F938F938EE59EE09F9300
:101AF0008F930E94522F7CCBCF93DF93CDB7DEB76D
:101B0000A9970FB6F894DEBF0FBECDBF45E050E0F9
:101B100060E070E08091190E90911A0E0E940D55B0
:101B2000813009F0C5C38CE996E09F938F938EE5D1
:101B30009EE09F938F930E94C62F8AE20E947D2F82
:101B400080E090E00E94567D40E052EC61E070E061
:101B500084E69EE00E9424198FEF9FEF9A83898389
:101B60000E944C7D82EC96E00E94757D0F900F9054
:101B70000F900F9084E69EE00E94D8250497D4F33E
:101B800084E69EE00E94D825892BE9F184E69EE058
:101B90000E94B725BE016F5F7F4F0E946E180197AC
:101BA00079F789819A8197FDEBCF69EC76E08EE336
:101BB0009EE00E94E783892B41F080E090E00E9444
:101BC000567DCC24C394D12C21C080E090E00E94AB
:101BD000567D82E08F9380E18F938EE092E09F9319
:101BE0008F938CEC96E09F938F938EE59EE09F936E
:101BF0008F930E94522F0FB6F894DEBF0FBECDBF59
:101C00008FEF9FEF8AC0CC24CA94DC2C64E670E08E
:101C100080E090E00E947B280E944C7D80E2EEE311
:101C2000FEE0DF011D928A95E9F784E69EE00E94BE
:101C3000D8250297D4F3E12CF12C98E0A92E97E057
:101C4000B92E2EE5822E2EE0922E30E2732E84E6FF
:101C50009EE00E94D825892B09F451C084E69EE0BD
:101C60000E94B725BE016F5F7F4F0E946E180197DB
:101C700071F709811A8117FDEACF6CEF76E08EE3E8
:101C80009EE00E94E783892B01F5BFEFEB1AFB0A68
:101C90008EE3C82E8EE0D82EDF92CF921F930F9343
:101CA000FF92EF92BF92AF929F928F920E941A186A
:101CB000F601272D11922A95E9F70FB6F894DEBFA9
:101CC0000FBECDBFC12CD12CC2CF8EE39EE09F931F
:101CD0008F931F930F93FF92EF9280E397E09F9370
:101CE0008F938EE59EE09F938F930E941A180FB6F4
:101CF000F894DEBF0FBECDBFCC24C394D12C80E0BE
:101D000090E00E94567D81E090E0CA94CD2811F4C5
:101D100080E090E0919581959109892B09F0C6C0EA
:101D200088E597E09F938F938EE59EE09F938F9336
:101D30000E94C62F8FEF9FEF9A83898380E2EEE3A4
:101D4000FEE0DF011D928A95E9F70E944C7D8DE748
:101D500097E00E94757D0F900F900F900F9084E692
:101D60009EE00E94D8250497D4F384E69EE00E946A
:101D7000D825892BE1F184E69EE00E94B725BE01BB
:101D80006F5F7F4F0E946E18019779F789819A8162
:101D900097FDEBCF69EC76E08EE39EE00E94E7834F
:101DA000892B39F080E090E00E94567D01E010E040
:101DB00020C080E090E00E94567D83E08F9382E116
:101DC0008F9389E192E09F938F9380E897E09F93B0
:101DD0008F938EE59EE09F938F930E94522F0FB6B4
:101DE000F894DEBF0FBECDBF0FEF1FEF0BC000E0BA
:101DF00010E080E090E00E94567DF1E00F27119501
:101E0000019511090115110509F000C185E098E05F
:101E10009F938F93EEE5CE2EEEE0DE2EDF92CF92F3
:101E20000E94C62F8FEF9FEF9A8389830E944C7D7B
:101E3000FEE3EF2EFEE0FF2EA0E2BA2ED701EB2D3F
:101E40001D92EA95E9F787E28F9380E18F938BE209
:101E500098E09F938F9387E398E09F938F93FF92EF
:101E6000EF920E940184FF92EF9282E08F9388E5C7
:101E70008F9384E292E09F938F9386E498E09F9300
:101E80008F93DF92CF920E941A18C7010E94757D2E
:101E9000D7011D92BA94E9F780E090E00E94567D48
:101EA0000FB6F894DEBF0FBECDBF0DC080EB97E03C
:101EB0009F938F930EE51EE01F930F930E94522F66
:101EC00083ED97E0D9C184E69EE00E94D82504976F
:101ED000D4F384E69EE00E94D8259F938F9389E7F0
:101EE00098E09F938F938EE59EE09F938F930E943F
:101EF0001A180F900F900F900F900F900F90EE24E4
:101F0000EA94FE2C84E69EE00E94D825892B09F4F1
:101F100042C084E69EE00E94B725BE016F5F7F4FFE
:101F20000E946E186C0169EC76E08EE39EE00E94E0
:101F3000E78321E0892B09F420E0E22EF12CCA94FA
:101F4000CD2801F789819A8197FDDCCF222301F109
:101F50008EE39EE09F938F9382E08F9381E78F9330
:101F600084E292E09F938F9386EA98E09F938F9309
:101F70008EE59EE09F938F930E941A1880E090E078
:101F80000E94567D0FB6F894DEBF0FBECDBF0DC0C8
:101F9000E12CF12CB7CF01E010E0EA94EF2811F426
:101FA00000E010E01195019511090115110509F0E6
:101FB00016C182E499E09F938F938EE59EE09F93F4
:101FC0008F930E94C62F8FEF9FEF9A8389836EE3D2
:101FD000E62E6EE0F62E80E2D7011D928A95E9F793
:101FE0000E944C7D1F9281E08F9380E799E09F9340
:101FF0008F93FF92EF920E940184C7010E94757D2A
:102000000FB6F894DEBF0FBECDBF0DC089ED98E0CE
:102010009F938F930EE51EE01F930F930E94522F04
:102020008FEF98E029C184E69EE00E94D8250497AE
:10203000D4F380E2EEE3FEE0DF011D928A95E9F73A
:1020400084E69EE00E94D825892BD1F184E69EE0AB
:102050000E94B725BE016F5F7F4F0E946E180197E7
:1020600079F789819A8197FDEBCF69EC76E08EE371
:102070009EE00E94E783892B29F080E090E00E9497
:10208000567D1EC080E090E00E94567D83E08F93D5
:1020900083E58F938CE392E09F938F938CE799E095
:1020A0009F938F938EE59EE09F938F930E94522F74
:1020B0000FB6F894DEBF0FBECDBF0FEF1FEF8CC081
:1020C00080E090E00E94567D80E2EEE3FEE0DF01DA
:1020D0001D928A95E9F784E69EE00E94D825892B17
:1020E00031F184E69EE00E94B725BE016F5F7F4F0D
:1020F0000E946E18019779F78EE39EE09F938F936D
:1021000083E08F9382E68F938CE392E09F938F938B
:102110008CEA99E09F938F938EE59EE09F938F9337
:102120000E941A180FB6F894DEBF0FBECDBF80E232
:10213000EEE3FEE0DF011D928A95E9F784E69EE07A
:102140000E94D825892B31F184E69EE00E94B725B4
:10215000BE016F5F7F4F0E946E18019779F78EE383
:102160009EE09F938F9383E08F9383E78F938CE31D
:1021700092E09F938F938CEE99E09F938F938EE5DF
:102180009EE09F938F930E941A180FB6F894DEBFBB
:102190000FBECDBF80E2EEE3FEE0DF011D928A9527
:1021A000E9F784E69EE00E94D82584E69EE00E943E
:1021B000B725BE016F5F7F4F0E946E18019789F7A8
:1021C0006CE27AE08EE39EE00E94E783892B49F37C
:1021D00080E090E00E94567D012B71F041C082E3C7
:1021E0009AE09F938F930EE51EE01F930F930E943A
:1021F000522F8CE59AE040C08FE99AE09F938F932D
:102200000EE51EE01F930F930E94C62F85ED9AE006
:102210009F938F931F930F930E94C62F83E090E0AC
:1022200090935F0E80935E0E1F928F9385EF9AE0DE
:102230009F938F931F930F930E94C62F8091190E27
:1022400090911A0E0FB6F894DEBF0FBECDBF009767
:1022500079F140E050E060E070E00E94726328C0D5
:102260008BE09BE09F938F930EE51EE01F930F93EF
:102270000E94522F8BE29BE09F938F931F930F93AB
:102280000E94C62F0FB6F894DEBF0FBECDBF86E901
:102290009BE09F938F938EE59EE09F938F930E9488
:1022A000522F0F900F900F900F900E94A228FDCFF9
:1022B000E091170EF091180E309709F47CC08091D0
:1022C000E40D9091E50DE817F90709F474C00FB615
:1022D000F8940F9282859385815D9D4009F069C0D5
:1022E00084899589BDE0863E9B0709F462C0892BED
:1022F00009F05FC09F012E5F3F4F84819581468129
:102300005781DC0115965C934E931497A681B78193
:1023100013969C938E9312978091D20D9091D30D2A
:102320008217930721F4B093D30DA093D20D138697
:1023300012868091D10D81508093D10DA689809114
:10234000140E8A1710F4A093140E89E0A89FD001F0
:102350001124BD016051724FDB0111968D919C914A
:10236000129795838483DC0114964D915C911597A7
:102370005783468314964D915C911597DA01139615
:102380003C932E931297DC0115963C932E93149751
:1023900073876287DB018C918F5F8C93A091E40D32
:1023A000B091E50D968956968C91981710F00E9481
:1023B000507F0F900FBE81E1682E5524539490E515
:1023C000492E20E9322E30EA232E4EE6C42E4BE071
:1023D000D42E5EE5A52E5EE0B52E0E94A7714C01BD
:1023E0008091000186FD0DC088EC0E94E32085FFEE
:1023F00004C00E94222F60E201C060E088EC0E94CD
:10240000C02080916513813041F058F0823089F00E
:10241000833049F5772473940DC0B3E1B093AF11C5
:1024200022C08091AF11807F8031E9F06092AF11BE
:102430001AC0712C8091AF11807F8031A9F40E9465
:102440002030DC01CB0188539F4FAF4FBF4F8093AB
:102450001C0E90931D0EA0931E0EB0931F0E80E2D3
:102460008093AF1101C0712C09E912E17801F701E5
:10247000819191917F01009739F0DC01ED91FC9100
:102480000680F781E02D1995B9EBEB16B2E1FB065A
:1024900071F78091AF11803409F445C050F4803257
:1024A00029F18033C1F1813109F08CC01092B91249
:1024B0000AC0813509F45FC0803809F471C08035E5
:1024C00009F080C040C0F801819191918F0100977F
:1024D00039F0DC01ED91FC910480F581E02D199536
:1024E000B2E1093B1B0779F782E11AC00E94203054
:1024F00000911C0E10911D0E20911E0E30911F0E8A
:10250000DC01CB01801B910BA20BB30BB7FD5AC0B2
:1025100080E38093AF1161E088EE0E94C02080E4E8
:102520008093AF114FC088EE0E94E32080FD4AC027
:1025300088ED0E94E320682F686088ED0E94C0202B
:102540004092AF113FC088EC0E94E32086FF3AC062
:1025500081E58093AF110E942030DC01CB014496CD
:10256000A11DB11D80931C0E90931D0EA0931E0EF5
:10257000B0931F0E27C00E94203000911C0E1091B6
:102580001D0E20911E0E30911F0EDC01CB01801B11
:10259000910BA20BB30BB7FD15C080E88093AF1170
:1025A000272D40E060E083E492E10E9460248823CC
:1025B00039F0823D39F080931B0E2092AF1102C09A
:1025C0003092AF1189E0E7E5F3E1DE015F9601901B
:1025D0000D928A95E1F789E0FE017F96DE0155961E
:1025E00001900D928A95E1F75B8AE091150EF091CA
:1025F000160E309709F445C00FB6F8940F92938DDC
:10260000828D0F900FBE981331C04AE050E0BE019A
:102610006F5F7F4F8091150E9091160E0E940D55A1
:1026200045E050E060E070E08091190E90911A0E44
:102630000E940D55813071F41F921F92DF92CF924C
:10264000BF92AF920E949C2F0F900F900F900F900F
:102650000F900F908091190E90911A0E009731F003
:1026600040E050E060E070E00E9472634AE050E0B9
:10267000BE01605F7F4F8091150E9091160E0E94F3
:10268000726399A688A66EE370E0CE0188960E94D8
:10269000B171A3CECF93DF93CDB7DEB763970FB6FB
:1026A000F894DEBF0FBECDBF45E050E060E070E0C3
:1026B0008091190E90911A0E0E940D558130D1F41F
:1026C00087EB9BE09F938F938EE59EE09F938F9384
:1026D0000E941A188091190E90911A0E0F900F9067
:1026E0000F900F90009731F040E050E060E070E014
:1026F0000E9472630FB6F8940F92E091E40DF0918E
:10270000E50DCF010296628573854481558126814E
:102710003781DA0115963C932E93149726813781E1
:10272000D90113965C934E931297DB0111964D914C
:102730005C9112974817590721F412963C932E93F7
:10274000119713861286DB012C9121502C9304895A
:1027500015890115110529F126853785408951898B
:10276000D90115965C934E93149740895189DA01EB
:1027700013963C932E931297D80111966D917C91EC
:1027800012979F01245F3F4F6217730721F412963F
:102790005C934E931197158A148AD8012C9121507D
:1027A0002C934091D20D5091D30D55834483DA017F
:1027B00014962D913C9115973783268314962D916D
:1027C0003C911597D90113969C938E931297DA0139
:1027D00015969C938E93149781ED9DE09387828745
:1027E0008091D10D8F5F8093D10D0F900FBE80919E
:1027F000220E882319F10FB6F8940F92A091DC0DE8
:10280000B091DD0D8C91811103C08FEF9FEF10C04F
:10281000A091DC0DB091DD0D15960D90BC91A02D11
:1028200016960D90BC91A02D12968D919C911397A8
:102830009093DB0D8093DA0D0F900FBE8091E40D25
:102840009091E50DE817F90709F078C08091220E04
:10285000882319F00E94507F71C08091D00D909113
:10286000D10D981305C01092E50D1092E40D66C0CD
:102870008091EF0D882321F081E08093E30D5EC00D
:102880001092E30DA091E40DB091E50DE091E40DFF
:10289000F091E50D2D913C918789908D82179307DA
:1028A000A8F08091E40D9091E50D8091E40D909158
:1028B000E50D279A2F9ABFEF27EA81E6B150204015
:1028C0008040E1F700C000001F9AF5CF8091140E00
:1028D00069E0482F50E0649F9001659F300D1124FE
:1028E000F901E051F24F9081911102C08150F1CF76
:1028F000A181B28112960D90BC91A02DB283A183CB
:102900002D50324FA217B30731F412962D913C91FE
:1029100013973283218399E0949FF001959FF00DE6
:102920001124E051F24F0180F281E02D26813781A0
:102930003093E50D2093E40D8093140E45E050E0B4
:1029400060E070E08091190E90911A0E0E940D5572
:102950008130D1F488ED9BE09F938F938EE59EE0CC
:102960009F938F930E941A188091190E90911A0EBE
:102970000F900F900F900F90009731F040E050E0D3
:1029800060E070E00E94726388248A94982C92E040
:10299000492E77247A942CE0622E33E0532E4FE1B7
:1029A000E42E4CE0F42E0EE51EE056EFC52E5BE063
:1029B000D52E0E94A7715C018091150E9091160E84
:1029C000009709F48CC04AE050E0BE016F5F7F4F72
:1029D0000E940D55882309F482C045E050E060E074
:1029E00070E08091190E90911A0E0E940D55813061
:1029F000B1F4DF92CF921F930F930E941A18809127
:102A0000190E90911A0E0F900F900F900F90009743
:102A100031F040E050E060E070E00E9472639B8A19
:102A20008A8A49827A826B821D825F864FE050E0FB
:102A3000BE016F5F7F4F84E69EE00E948C2584E696
:102A40009EE00E94D825892BD1F384E69EE00E9467
:102A5000D825892BF1F084E69EE00E94B725BE01BF
:102A60006E5E7F4F0E946E18019779F769E17CE0F6
:102A70008EE39EE00E94E783892B39F384E69EE093
:102A80000E94D825009739F084E69EE00E94B72581
:102A9000F5CF8FEF9FEF892B11F145E050E060E01B
:102AA00070E08091190E90911A0E0E940D558130A0
:102AB000B1F4FF92EF921F930F930E949C2F80918D
:102AC000190E90911A0E0F900F900F900F90009783
:102AD00031F040E050E060E070E00E947263B98A3B
:102AE000A88A6EE370E0CE0140960E94B17161CF7A
:102AF0001F920F920FB60F9211240BB60F922F93C5
:102B00003F934F935F936F937F938F939F93AF9375
:102B1000BF93EF93FF9348E251E064E271E080E0FD
:102B200090E00E94332CFF91EF91BF91AF919F9164
:102B30008F917F916F915F914F913F912F910F9066
:102B40000BBE0F900FBE0F901F9018951F920F9203
:102B50000FB60F9211240BB60F922F933F934F9302
:102B60005F936F937F938F939F93AF93BF93EF93F5
:102B7000FF9348EA50E064EA70E083E090E00E944E
:102B8000332CFF91EF91BF91AF919F918F917F91E6
:102B90006F915F914F913F912F910F900BBE0F90CE
:102BA0000FBE0F901F9018951F920F920FB60F92A5
:102BB00011240BB60F922F933F934F935F936F9314
:102BC0007F938F939F93AF93BF93EF93FF9348E9C6
:102BD00050E064E970E082E090E00E94332CFF91C5
:102BE000EF91BF91AF919F918F917F916F915F9185
:102BF0004F913F912F910F900BBE0F900FBE0F90F2
:102C00001F9018951F920F920FB60F9211240BB6BA
:102C10000F922F933F934F935F936F937F938F9375
:102C20009F93AF93BF93EF93FF9348E850E064E81E
:102C300070E081E090E00E94332CFF91EF91BF9112
:102C4000AF919F918F917F916F915F914F913F9144
:102C50002F910F900BBE0F900FBE0F901F901895E5
:102C60008F929F92AF92BF92CF92DF92EF920F938B
:102C70001F931F921F921F930F934A015A01C12C59
:102C8000D12C32E0E32E022F26E040E80E942E2DC8
:102C90000F900F900F900F901F910F91EF90DF907A
:102CA000CF90BF90AF909F908F900895AF92BF92BA
:102CB000CF92DF92EF92FF920F931F93CF93DF9308
:102CC00000D01F92CDB7DEB77C01690158011C828C
:102CD0001B821A8219828E010F5F1F4F9E012D5F8A
:102CE0003F4F0E94521A811109C049815A816B815C
:102CF0007C8185019601C7010E948B190F900F906E
:102D00000F900F90DF91CF911F910F91FF90EF9057
:102D1000DF90CF90BF90AF9008958F929F92AF9227
:102D2000BF92CF92DF92EF920F93C42ED12C1F92BD
:102D30001F921F921F92812C912CA12CB12CE12C5F
:102D4000062F21E043E2FC016285828193810E948B
:102D50002E2D0F900F900F900F900F91EF90DF900E
:102D6000CF90BF90AF909F908F9008958F929F9239
:102D7000AF92BF92CF92DF92EF920F93C62ED12CDB
:102D80001F921F925F934F9324E0822E912C34E088
:102D9000A32EB12CE12C00E020E043EAFC01628587
:102DA000828193810E942E2D0F900F900F900F9093
:102DB0000F91EF90DF90CF90BF90AF909F908F904A
:102DC00008958F929F92AF92BF92CF92DF92EF922F
:102DD0000F93C42ED12C1F921F921F921F92812CF1
:102DE000912CA12CB12CE12C062F23E043E2FC0115
:102DF0006285828193810E942E2D0F900F900F90FB
:102E00000F900F91EF90DF90CF90BF90AF909F9079
:102E10008F900895E091C10FF091C20F0190F08161
:102E2000E02D682F81EC9FE019948F929F92AF92D2
:102E3000BF920F931F93CF93DF93CDB7DEB7A197C8
:102E40000FB6F894DEBF0FBECDBF19A2423008F412
:102E50004AE08E010F5D1F4F842E912CA12CB12CC6
:102E6000A50194010E94D886E62FB901CA0101503C
:102E70001109EA3014F4E05D01C0E95CD801EC937B
:102E8000232B242B252B61F7B80181EC9FE00E94B6
:102E90004527A1960FB6F894DEBF0FBECDBFDF91D8
:102EA000CF911F910F91BF90AF909F908F900895F9
:102EB000BC0181EC9FE00C944527AF92BF92CF926A
:102EC000DF92EF92FF920F931F93CF93DF938C01CA
:102ED000EB01F8018081882309F49EC0853209F056
:102EE00092C058018FEFA81AB80AF801818188238F
:102EF00009F492C0853219F40E940A1789C08337F9
:102F000031F48E010E5F1F4F8881998178C084361D
:102F100011F0893651F48E010E5F1F4FC880D980A1
:102F20000D2C000CEE08FF0832C0883731F08835D0
:102F300091F48FE49CE00E9458178E010E5F1F4FA2
:102F400068817981072E000C880B990B40E10E9463
:102F50001517E8015DC0823631F0823479F482E5DC
:102F60009CE00E9458178E010E5F1F4F6881798187
:102F7000072E000C880B990B42E0E9CF8C36C9F480
:102F80008E010C5F1F4FC880D980EA80FB80F7FC60
:102F900004C04AE0C701B601DACF8DE20E940A17E9
:102FA00066277727CB016C197D098E099F094AE0B6
:102FB000CECF833639F48E010E5F1F4F88810E9479
:102FC0000A17C7CF843769F48E010E5F1F4F8881BF
:102FD0009981019719F48EE797E011C085E59CE08F
:102FE0000EC0843579F48E010E5F1F4F8881998160
:102FF000019719F487E59CE002C08CE59CE00E94F3
:103000005817A7CF8501F80180810E940A1758013F
:1030100085010F5F1F4F5DCFDF91CF911F910F9102
:10302000FF90EF90DF90CF90BF90AF9008954AE06F
:103030000C941517CF93DF93CDB7DEB780915E0E5A
:1030400090915F0E0597ECF060E070E082E69CE006
:103050000E945D170E94FB2F0E94171888E69CE0D3
:103060000E9458170E9420300E9417188AE69CE0A0
:103070000E945817BE01665F7F4F888599850E9420
:103080005D17DF91CF910895CF93DF93CDB7DEB772
:1030900080915E0E90915F0E0497ECF060E070E01E
:1030A0008EE69CE00E945D170E94FB2F0E9417187D
:1030B00088E69CE00E9458170E9420300E94171852
:1030C0008AE69CE00E945817BE01665F7F4F8885A4
:1030D00099850E945D17DF91CF910895CF92DF927D
:1030E000EF92FF920F931F93CF93DF93EB012FEF9C
:1030F0003FEF3093010220930002181619060CF0DE
:1031000098C08A30910599F08D30910509F07BC007
:1031100084E79CE09F938F938EE59EE09F938F932F
:103120000E941A180F900F900F900F9082C08091FC
:10313000BA129091BB128883998321E030E03093DA
:103140000102209300021092BB121092BA122EE3D9
:103150003EE03F932F939F938F931F9281E08F9335
:103160008AE99CE09F938F938EE59EE09F938F93D7
:103170000E9444188DB79EB70A960FB6F8949EBF6A
:103180000FBE8DBF0EE31EE08BECE82E8CE0F82E18
:103190009EE5C92E9EE0D92EC8018E539E402881FF
:1031A000398182179307E4F4F80121918F01422FAE
:1031B000022E000C550B5F932F935F932F939F93D9
:1031C0008F93FF92EF92DF92CF920E941A188DB7E1
:1031D0009EB70A960FB6F8949EBF0FBE8DBFDCCF88
:1031E00088EC9CE09F938F938EE59EE09F938F9356
:1031F0000E941A1880910002909101020F900F9086
:103200000F900F9018C02091BA123091BB122F313D
:1032100031057CF4A9014F5F5F4F5093BB1240937F
:10322000BA12F901E25CF14F8083FA01E25CF14FDE
:1032300010828FEF9FEFDF91CF911F910F91FF9041
:10324000EF90DF90CF900895CF92DF92EF92FF92B0
:103250000F931F93CF93DF93EC016A017B01E88901
:10326000F98982E080834115514E61057105B1F005
:1032700060E079E08DE390E0A70196010E94D88696
:1032800089019A01015011092109310936952795C3
:1032900017950795980101151041A8F0E889F9895B
:1032A000108260E874E88EE190E0A70196010E9428
:1032B000D886DA01C9010197A109B109B695A79588
:1032C000979587959C01EC85FD853083EE85FF857C
:1032D0002083188EEC89FD8986E08083EA89FB894A
:1032E000808180618083EA89FB8980818860808316
:1032F000EA89FB89808180688083EA89FB898081F3
:103300008F7D8083DF91CF911F910F91FF90EF9080
:10331000DF90CF9008952F923F924F925F926F92DD
:103320007F928F929F92AF92BF92CF92DF92EF9255
:10333000FF920F931F93CF93DF9300D01F92CDB7CF
:10334000DEB73C017C836B832A017901F901A080FF
:10335000B180FB01F181F983F90111821082FB0137
:10336000828181FD02C060E101C060E288EE0E94BE
:10337000C020AA829201EB81FC81408160E0C30100
:103380000E947821382EF6E08F1316C088EF0E9435
:10339000E3208295817091E08927EB81FC81928105
:1033A00080FB91F9928391FD02C060E101C060E26F
:1033B00088EE0E94C020DECF81115CC088EC0E94A4
:1033C000E32082FF55C080E30E94E320282E90E096
:1033D000A816B90608F42A80F70180819181822C11
:1033E000912C9501281B390BC90137FF02C080E0E1
:1033F00090E06401881599050CF46C0180E591E07A
:103400000E94F82F0E94362888E00E94F12FA60122
:1034100060E070E0C8010E94E083C114D10421F093
:10342000B601C8010E9418280C0D1D1D0E943828E5
:103430000E94F02F64E088EC0E94C020F701808198
:103440009181880E991E91828082F9812F1620F039
:103450008A149B0408F48ECF88EF0E94E3208295A3
:103460008170EB81FC81928180FB91F9928302C093
:1034700080EF382E832D0F900F900F900F90DF91DB
:10348000CF911F910F91FF90EF90DF90CF90BF9061
:10349000AF909F908F907F906F905F904F903F90F4
:1034A0002F9008958F929F92BF92CF92DF92EF92CA
:1034B000FF920F931F93CF93DF931F92CDB7DEB789
:1034C0004C01B62E690149830E94161C7C0149817A
:1034D000009709F44BC0DC01ED91FC9111973097F6
:1034E00009F446C013969C9180E0891731F0208141
:1034F000241729F033968F5FF8CFE0E0F0E0D60193
:10350000ED93FC933097B1F122812695269530E01A
:103510002031310514F02FE030E081E090E0A0E0B0
:10352000B0E004C0880F991FAA1FBB1F2A95D2F7CD
:103530000197F801918380836B2D80EE0E94C0205B
:1035400088ED0E94E320682FD70114968C91882380
:1035500039F0F401EA58FF4F80818260682B01C086
:10356000697F88ED0E94C02080E005C086ED03C021
:1035700087ED01C08BED0F90DF91CF911F910F91DF
:10358000FF90EF90DF90CF90BF909F908F90089525
:10359000CF93DF93EC018C819D81DC01ED91FC9157
:1035A0000480F581E02D6E81199581E08E8F1E8259
:1035B0001F8E18A219A21AA21CA280E0DF91CF913F
:1035C0000895DC01FC01ED57FF4F80818823D1F085
:1035D00017968C911797861741F01A968C911A9727
:1035E000861315C021E030E002C020E030E0F90190
:1035F000EE0FFF1F2E0F3F1FFD01E20FF31F80850F
:103600009185089518968D919C911997089580E061
:1036100090E00895DC0117968C911797811106C0F0
:1036200018968D919C911997892B71F01A968C910F
:103630001A97811118C01B968D919C911C97892B0C
:1036400091F421E030E002C020E030E0F901EE0F1B
:10365000FF1F2E0F3F1FFD01E20FF31F67835187EE
:10366000408781E0089580E00895FC0184A10895D9
:10367000FC0186810895089580E0089580E0089512
:1036800080E090E008950895DF92EF92FF920F930B
:103690001F93CF93DF93EC01E62EF12C85E0689F1A
:1036A000B0011124FE01E60FF71F8085182F177057
:1036B00086FF21C001E085E0D82E8FEF800F8F308C
:1036C00008F001E0FE01D09EE00DF11D112480857F
:1036D0008695869586958770811305C0602FCE01EB
:1036E0000E94441BEACF0F5F003161F78D81811387
:1036F00002C011501D8385E08E9DF0018F9DF00D5D
:103700001124EC0FFD1F108681E08187128622961E
:10371000D783C683DF91CF911F910F91FF90EF90D8
:10372000DF900895FC016134C1F43F969C01265A54
:103730003F4F61E0AC014E5F5F4FDF0112971C927B
:1037400011966C93108213974D935C933596E21704
:10375000F30799F7FC01158208953D9621E0308129
:10376000361303C0622F0C94441B2F5F3596203113
:10377000B1F70895CF93DF93FC01862F807809F08D
:1037800051C0283008F04FC0442321F09581973074
:1037900009F449C0EF012D96A0E0B0E011969881A0
:1037A000911103C0662331F021C02596AF30B105D9
:1037B000A9F739C085E08A9FE0018B9FD00D1124C5
:1037C000CE0FDF1F442331F081E4888785818F5F2E
:1037D000858302C081E0888725E02A9FC0012B9F56
:1037E000900D1124E80FF91F80851DC06770660FCA
:1037F000660F660F442341F0606485818F5F858387
:103800008770687F682B03C02770687B622B25E078
:103810002A9FC0012B9F900D1124E80FF91F60878C
:10382000862F01C080E0DF91CF910895611102C021
:1038300006960895FC013D9621E03081361307C0BD
:1038400035E0239F800D911D1124069608952F5F6A
:103850003596203191F780E090E008953F924F92A5
:103860005F926F927F928F929F92AF92BF92CF9210
:10387000DF92EF92FF920F931F93CF93DF9300D0CD
:103880001F92CDB7DEB76C017C836B835A8349836B
:103890004C0180E1880E911C5601A7E0AA0EB11CD4
:1038A00011E084E0482E3601B2E16B0E711C93E00A
:1038B000392E22E0522E8B819C81892B09F4F8C08D
:1038C000F60190A1923059F128F4992341F09130FA
:1038D00071F0F1CF933039F19430C1F1ECCF5482D3
:1038E00085819681908787835286518610A3AE0189
:1038F0004D5F5F4FBE016F5F7F4FC5010E94FA2C85
:10390000882309F4D5C0D6011596ED91FC91169740
:10391000808191968C939197818192968C93F601F8
:103920007682658230A2D60192968C9192978430ED
:1039300011F493961C92F60181A182508483258113
:103940003681308727838287818740A2D60192966D
:103950008C918430B1F0853009F440C0823009F098
:1039600068C0AE014D5F5F4FBE016F5F7F4FC50105
:103970000E94FA2C882309F49BC0F601858984A350
:103980008FC0AE014D5F5F4FBE016F5F7F4FC501BE
:103990000E94FA2C882309F48BC0D60155968C918D
:1039A0005597833009F07CC098968C919897811137
:1039B00077C093961C93939752968C9152979696B4
:1039C0008C93969753968C91539797968C93979741
:1039D00057968C91579795968C9362C0AE014D5F28
:1039E0005F4FBE016F5F7F4FC5010E94FA2C882395
:1039F00009F45EC0F60183A1882309F451C08281D5
:103A00009381009709F44CC0DC01ED91FC91019089
:103A1000F081E02D7401D60195960C9195979796BB
:103A20002C91979796964C91969794966C911995A0
:103A300037C0F60181A19585992319F0913031F0B5
:103A40002AC090E002979787868715872B813C8153
:103A500089819A81782F692FD6011E964D915C91AC
:103A60001F974115510539F49A8389833C832B8331
:103A70001D961C9210C001962115310541F0415050
:103A80005109F6015787468721503109E3CF7983E1
:103A90006A831C821B82F60186859785892B41F4F7
:103AA000D60116969C928E92159790961C9203CFF3
:103AB0000F900F900F900F90DF91CF911F910F916A
:103AC000FF90EF90DF90CF90BF90AF909F908F903E
:103AD0007F906F905F904F903F9008952F923F920C
:103AE0004F925F926F927F928F929F92AF92BF920E
:103AF000CF92DF92EF92FF920F931F93CF93DF93BA
:103B0000CDB7DEB7C454D1090FB6F894DEBF0FBEEF
:103B1000CDBFDC019496BC912496BFAF2497BB2304
:103B200009F4D2C07C010E942030F701878C90A05C
:103B3000A1A0B2A0DC01CB0188199909AA09BB098F
:103B4000B7FDC2C00E942030D70193962C91DC01B2
:103B5000CB01820F911DA11DB11DF701878F90A38D
:103B6000A1A3B2A3312CCE0101966C01282E90E4C2
:103B70009C0D25969FAF259740E4442E512C37018C
:103B8000A5E26A0E711C5701B3E8AB0EB11CF70138
:103B9000858D381608F098C0832D90E0FC01EE0F5B
:103BA000FF1F8E0F9F1F8E0D9F1DFC01E458FF4FBE
:103BB000808190E0FC01EE0FFF1FDF01A80FB91F0D
:103BC000AE0DBF1DAA59BF4F2C9130E023963FAFD9
:103BD0002EAF23974601D6011D9225962FAD25972E
:103BE0002A13FACF8E0F9F1F8E0D9F1DFC01EB59DC
:103BF000FF4F86019E012F5B3F4F4081D7011696F4
:103C00006C91169714968D919C9115970E9456165B
:103C100081115BC023968EAD9FAD239781349105B2
:103C200020F023965FAE4EAE239722962FAD2297BB
:103C3000B301C301F6013E2F3219321740F441910E
:103C4000DC013D91CD014317B1F380E003C0249620
:103C50008FAD2497982D9219921738F4F401919111
:103C60004F01DB019D93BD01F5CF81112DC0D7011F
:103C7000ED91FC91008CF18DE02D8601D5014C91E8
:103C8000B701C7011995D701ED91FC910288F3891D
:103C9000E02DD5018C91882311F0698101C060E08D
:103CA000C7011995009771F0DC01ED91FC9101902D
:103CB000F081E02D860122962FAD2297D5014C91FF
:103CC000B7011995339463CF80E0CC5BDF4F0FB61B
:103CD000F894DEBF0FBECDBFDF91CF911F910F9142
:103CE000FF90EF90DF90CF90BF90AF909F908F901C
:103CF0007F906F905F904F903F902F9008952F92FC
:103D00003F924F925F926F927F928F929F92AF926B
:103D1000BF92CF92DF92EF92FF920F931F93CF93B8
:103D2000DF93CDB7DEB7C458D1090FB6F894DEBF24
:103D30000FBECDBFDC0114960D911C911597169600
:103D4000FC90F110D2C1B22E942EA62E3C01D801C7
:103D5000ED91FC910190F081E02D60E0C801199592
:103D60002C01009719F476EDF72ECAC1FC01C08032
:103D7000D180C114D10409F4BBC11301F5E62F0EA3
:103D8000311CDC0111963C922E921496BC929E013D
:103D900026593F4F48E050E060E0F301848195816F
:103DA0000E94FE2EE82E811193C1AB96EFACAB972B
:103DB000D201CD92DC92D801ED91FC910280F38189
:103DC000E02D292D40E06A2DC8011995F301868365
:103DD000882309F490C1E2969FADE297EA59FF4F1C
:103DE0009083682FD30114968D919C9115970E9412
:103DF000CE2ED82ED801ED91FC91D20114961C92B2
:103E0000882361F00480F581E02DD30116966C9132
:103E1000C8011995F3011682FD2C72C10190F08141
:103E2000E02DD30116966C91C8011995009709F4FD
:103E30009ACF4E2D433108F042E1FC01B48241118A
:103E40003BC0E4968EAD9FADE497F301EA57FF4F78
:103E500091838083E6968EAD9FADE69732979183EE
:103E60008083EC96FFADEC97C058DF4FF883C058C5
:103E7000D040910141E0D30116966C9116971496AB
:103E80008D919C9115970E942F7DE82E811123C161
:103E900070E02E01B1E44B0E511CF3013296CF5766
:103EA000DF4FF983E883C158D040C2014096EE96B7
:103EB0009FAF8EAFEE978EC050E09E0126593F4FC8
:103EC000D30116966C91169714968D919C91159727
:103ED0000E94FE2EE82E8111FEC0B3CF82EC92E04C
:103EE000F20191838083CF57DF4FA881B981C158F8
:103EF000D040B383A28315861786168610A211A21E
:103F000012A210A6EE968EAD9FADEE979683858396
:103F100090878783848182878187EE96AEADBFAD1F
:103F2000EE97B487A387F301368184819581C258C7
:103F3000DF4F99838883CE57D0408E010F5F1F4F8C
:103F4000272F49E050E0632FCD57DF4F3883C35808
:103F5000D040CC57DF4F7883C458D0400E943016F1
:103F6000CD57DF4F3881C358D040CC57DF4F7881D1
:103F7000C458D040811127C0AB80BC805F924F9263
:103F80001F930F9350E4852E912CC12CD12C62E00D
:103F9000E62E072F26E040E8632FC258DF4F8881C6
:103FA0009981CE57D040CC57DF4F7883C458D0404A
:103FB0000E942E2D0F900F900F900F90CC57DF4F37
:103FC0007881C458D04081110DC0F301868D8230B4
:103FD00058F47F5FC058DF4FF881C058D0407F133E
:103FE0007DCF02C0E82E77C0D3015E964C915E97DC
:103FF000423008F483C0910116966C91169714967E
:104000008D919C9115970E942F7D1F921F921F9258
:104010001F92812C912CA12CB12CC12CD12CE12CE4
:10402000F301048D29E040E06681848195810E943E
:104030002E2DE82E0F900F900F900F9081114BC0F6
:1040400010E0F301858D1817B0F5812F90E09C01E9
:10405000220F331F820F931F860D971DFC01E4581A
:10406000FF4F2081222329F1329780818770C82E4B
:10407000D12C1F921F921F921F92812C912CA12C48
:10408000B12CE12C00E02AE041E2D30116966C91BC
:10409000169714968D919C9115970E942E2DE82EBF
:1040A0000F900F900F900F90882319F0B5E08B13AD
:1040B00012C01F5FC6CF0190F081E02D0688F789FE
:1040C000E02DC301199581E0D30194968C9318C01B
:1040D000F201D182C082D301ED91FC910480F5817F
:1040E000E02DC3011995FE2C0BC039EDF32E08C04D
:1040F00027EDF22E05C094EDF92E02C081EDF82EC9
:104100008F2DCC57DF4F0FB6F894DEBF0FBECDBF5B
:10411000DF91CF911F910F91FF90EF90DF90CF90A3
:10412000BF90AF909F908F907F906F905F904F90D7
:104130003F902F9008950F931F93CF93DF93C82F35
:10414000D62F8A0180E591E00E94F82F0E94362840
:104150008C2F82600E94F12FCD2FD0E0209721F08C
:10416000BE01C8010E941828C00FD11F0E94382824
:104170000E94F02FCE01DF91CF911F910F910895F2
:104180001F93CF93DF9300D0CDB7DEB7182F80E514
:1041900091E06B830E94F82F0E94362812601983E9
:1041A0006B816A8362E070E0CE0101960E9418285C
:1041B0000E9438280E94F02F0F900F900F90DF91EF
:1041C000CF911F9108951F93CF93DF931F92CDB787
:1041D000DEB7182F80E591E00E94F82F0E94362864
:1041E000812F0E94F12F80E00E94F12F89830E948D
:1041F00038280E94F02F89810F90DF91CF911F9175
:10420000089581E0089580E0089580E0089508957C
:1042100080E0089580E0089580E0089580E00895AA
:1042200080E0089585ED8093BC008091BC0084FD02
:10423000FCCF10923113089540910B13262F30E0DC
:10424000240F311D21323105DCF42091311324304B
:10425000C9F4FC0180E090E0861758F430910B130C
:104260002191DC01A751BD4EA30FB11D2C930196E6
:10427000F3CF80910B13680F60930B1380E00895C8
:1042800081E0089582E0089508958FEF9FEF0895EB
:104290008FEF9FEF08958091E81290E091958195BE
:1042A00091090895CF93DF931F921F92CDB7DEB788
:1042B000CB01642F49835A830E941C214981842F9A
:1042C0005A81952F0F900F90DF91CF910895CF9342
:1042D000DF931F92CDB7DEB7698361E0CE0101960F
:1042E0000E941C2181E090E00F90DF91CF91089512
:1042F0008F929F92AF92BF92CF92DF92EF92FF92F6
:104300000F931F93CF93DF93862E942E59010E9413
:1043100020306B017C0128E8C20E23E1D21EE11C93
:10432000F11C00E010E0D0E0C0E098280E942030AE
:10433000DC01CB018C199D09AE09BF09B7FF2DC067
:10434000692D80EF0E94C0200E942030DC01CB014B
:104350008C199D09AE09BF09B7FF09C088EC0E94FE
:10436000E32087FFF1CF60E888EC0E94C02088EF4F
:104370000E94E320C82FCF70C43019F0CE3051F026
:104380000CC00F5F1F4FA114B10481F20A151B0569
:1043900069F603C0DF5FD33049F68C2FDF91CF91F0
:1043A0001F910F91FF90EF90DF90CF90BF90AF9053
:1043B0009F908F9008951F920F920FB60F92112425
:1043C0000BB60F922F933F934F935F936F937F930F
:1043D0008F939F93AF93BF93EF93FF938091B90017
:1043E000887F803609F49CC068F5883209F45BC088
:1043F00090F4803109F454C038F4882309F4F6C0ED
:10440000883009F44DC0F6C0883109F44CC08032C0
:1044100009F45DC0EFC0803409F468C048F480330B
:1044200009F455C0883309F0E5C080933013D8C033
:10443000803509F44FC0883509F45DC0883409F02F
:10444000D9C0D6C0883909F4C7C0A8F4883709F4A0
:1044500067C038F4883609F463C0803709F460C057
:10446000C9C0883809F4B8C0803909F45FC0803801
:1044700009F0C0C05BC0803B09F486C038F4803AC4
:1044800009F466C0883A09F47FC0B4C0803C09F4DE
:10449000A7C0883C09F4A4C0883B09F48AC0AAC01C
:1044A0008091561310C09091551380915413981712
:1044B00070F5E091551381E08E0F80935513F0E075
:1044C000EC5CFC4E80818093BB0085EC86C08093C1
:1044D00030138EC0E091551381E08E0F80935513F9
:1044E0008091BB00F0E0EC5CFC4E80839091551312
:1044F000809154136EC0E091551381E08E0F80932C
:1045000055138091BB00F0E0EC5CFC4E8083809101
:10451000331381116DC081E08093321384EA61C04E
:1045200083E08093311310922F13CFCF80912F13FC
:10453000803208F051C0E0912F1381E08E0F8093FC
:104540002F138091BB00F0E0E15FFC4E8083BDCF74
:1045500085EC8093BC001092311380912F13803230
:1045600030F4E0912F13F0E0E15FFC4E1082609197
:104570002F1370E0E0910D13F0910E138FE093E193
:10458000199510922F1336C084E080933113109246
:104590000C1310920B13E0910913F0910A13199563
:1045A00080910B13811105C081E080930B13109251
:1045B000E912E0910C1381E08E0F80930C13F0E070
:1045C000E751FD4E80818093BB0090910C13809148
:1045D0000B13981708F479CF85E88093BC000AC0C4
:1045E00085EC8093BC001092311304C010923013FC
:1045F0000E941221FF91EF91BF91AF919F918F91F6
:104600007F916F915F914F913F912F910F900BBED2
:104610000F900FBE0F901F901895362F90E0FC0161
:10462000EC5DFD4F4491FC01EC51FD4F2491FC01E8
:10463000E256FD4F9491992309F46BC0442309F489
:1046400055C050E0FA013197E231F10508F04EC053
:104650008827E458FF4F8F4F0C949D8280918000F3
:104660008F7707C0809180008F7D03C0809180008C
:10467000877F809380003AC084B58F7702C084B56D
:104680008F7D84BD33C08091B0008F7703C080914F
:10469000B0008F7D8093B00029C0809190008F770B
:1046A00007C0809190008F7D03C080919000877F2C
:1046B000809390001BC08091A0008F7707C08091ED
:1046C000A0008F7D03C08091A000877F8093A00011
:1046D0000DC0809120018F7707C0809120018F7DD0
:1046E00003C080912001877F80932001E92FF0E0B3
:1046F000EE0FFF1FE659FD4FA591B4918FB7F894C7
:10470000EC91311103C020952E2301C02E2B2C9348
:104710008FBF08958F929F92AF92BF92CF92DF92F8
:10472000EF92FF926B017C010E94FB2F4B015C0119
:10473000C114D104E104F104F1F00E94FB2FDC016B
:10474000CB0188199909AA09BB09883E9340A105A4
:10475000B10570F321E0C21AD108E108F10888EE32
:10476000880E83E0981EA11CB11CC114D104E10481
:10477000F10419F7DDCFFF90EF90DF90CF90BF905D
:10478000AF909F908F9008959F92AF92BF92CF92DB
:10479000DF92EF92FF920F931F93CF93DF937C01F1
:1047A000C42F122F992493946C01C60ED11CC60EEF
:1047B000D11C86E5C80ED11CA42EB12CABE2AA0EEA
:1047C000B11CAA0CBB1CAE0CBF1CF60180819181F0
:1047D000DC01ED91FC910280F381E02D202F412F2F
:1047E0006C2F1995803EC9F4C1110BC061E088EEB1
:1047F0000E94C02066E670E080E090E00E948A237C
:1048000016C0F50180819181DC01ED91FC9102845B
:10481000F385E02D612F19950AC08D3031F49FEF9B
:10482000990D933008F040C016C081113DC0F601CB
:1048300080819181DC01ED91FC910190F081E02D6E
:10484000202F412F6C2F1995D82F8D3061F48FEFC9
:10485000890D833050F464E670E080E090E00E94BF
:104860008A239394B2CF8823F1F0C1110BC061E089
:1048700088EE0E94C02066E670E080E090E00E9432
:104880008A2311C0EC2FF0E0BB96EE0FFF1FEE0D58
:10489000FF1D80819181DC01ED91FC910284F38503
:1048A000E02D612F19958D2FDF91CF911F910F91E1
:1048B000FF90EF90DF90CF90BF90AF909F900895C2
:1048C0002F923F924F925F926F927F928F929F9220
:1048D000AF92BF92CF92DF92EF92FF920F931F930E
:1048E000CF93DF93CDB7DEB766970FB6F894DEBFF0
:1048F0000FBECDBF1B8A38E03C8B3CE33D8B8A3F2B
:104900003FEF930711F486EDEEC0122F442E562E82
:104910007C01DC011696CD90DC901797CE01439672
:1049200017969C938E9316971A962C939E012F5F41
:104930003F4F42E150E060E0C7010E94FE2EF701C8
:10494000D782C6828111CFC089849A846B847C848B
:104950003D813E8B2E80670186E5C80ED11C560135
:10496000312CD5018D919C91009789F1DC01ED915D
:10497000FC910084F185E02D1995811128C0F50185
:1049800080819181DC01ED91FC910088F189E02D1D
:10499000622D19958823D9F0F50180819181DC0180
:1049A000ED91FC910484F585E02DA301B4011995E6
:1049B000811182C0F50180819181DC01ED91FC9132
:1049C0000684F785E02D6E891995811175C03394A1
:1049D000B2E0AB0EB11CE0E13E12C3CFB12CD60168
:1049E0008D919C91009799F1DC01ED91FC910084EF
:1049F000F185E02D199581112AC0F6018081918100
:104A0000DC01ED91FC910088F189E02D622D199572
:104A1000882309F45CC0F60180819181DC01ED916D
:104A2000FC910484F585E02DA301B4011995811151
:104A30000EC0F60180819181DC01ED91FC9106842C
:104A4000F785E02D6E891995882309F440C0B39449
:104A5000B2E0CB0ED11CE0E1BE12C1CFD701169659
:104A60008D919C911797892B09F11A961C93242DEF
:104A700040E0652DC7010E94BA1BD82E8823C1F0E3
:104A8000682FC7010E94161C009709F43CCFFC0157
:104A900014836D2DC7010E94CE2E182F882351F04C
:104AA0006D2DC7010E94921B812F1DC087ED1BC079
:104AB00084ED19C080E017C0012F242D452D632DF2
:104AC000C7010E94C423813D09F481CF0CC0012F8E
:104AD000242D452D6B2DC7010E94C423982F977F4D
:104AE000913D09F4B4CF66960FB6F894DEBF0FBEC1
:104AF000CDBFDF91CF911F910F91FF90EF90DF908D
:104B0000CF90BF90AF909F908F907F906F905F906D
:104B10004F903F902F900895CF92DF92EF92FF92A7
:104B20000F931F93CF93DF936C017A018B01C0E049
:104B3000D0E0CE15DF0589F0D8016D918D01D60149
:104B4000ED91FC910190F081E02DC6011995892B22
:104B500011F47E0102C02196ECCFC701DF91CF9105
:104B60001F910F91FF90EF90DF90CF900895FC017F
:104B7000918D828D981759F0828DDF01A80FB11D9C
:104B80005D968C91928D9F5F928F90E008958FEF4C
:104B90009FEF0895FC01918D828D981731F0828DE1
:104BA000E80FF11D858D90E008958FEF9FEF089538
:104BB000FC01918D828D981B892F90E0089584E6E9
:104BC0009EE00E94D82521E0892B09F420E0822F65
:104BD000089581EC9FE00E94D82521E0892B09F4FB
:104BE00020E0822F0895FC01848DDF01A80FB11D04
:104BF000A35EBE4F2C91848D90E001968F73992710
:104C0000848FA689B7892C93A089B1898C918064FF
:104C10008C93938D848D981306C00288F389E02DC0
:104C200080818F7D80830895EF92FF920F931F9371
:104C3000CF93DF93EC0181E0888F9B8D8C8D98134F
:104C400005C0E889F989808185FD24C0F62E0B8D89
:104C500010E00F5F1F4F0F731127E02E8C8DE812AD
:104C60000CC00FB607FCFACFE889F989808185FF6F
:104C7000F5CFCE010E94F325F1CF8B8DFE01E80F19
:104C8000F11DE35EFE4FF0820B8FEA89FB89808184
:104C9000806207C0EE89FF896083E889F989808195
:104CA0008064808381E090E0DF91CF911F910F912C
:104CB000FF90EF900895CF93DF93EC01888D8823C8
:104CC000C9F0EA89FB89808185FD05C0A889B98979
:104CD0008C9186FD0FC00FB607FCF5CF808185FF54
:104CE000F2CFA889B9898C9185FFEDCFCE010E94C2
:104CF000F325E7CFDF91CF91089580E090E0892BF5
:104D000021F00E94E925811121C080E090E0892BEB
:104D100021F00E94DF2581111CC080E090E0892BEA
:104D200041F080E090E0892B21F00E940000811189
:104D300013C080E090E0892BA1F080E090E0892B07
:104D400081F00E94000081110AC008950E940000B5
:104D5000DCCF0E940000E1CF0E940000EACF0C945B
:104D600000000895CF92DF92EF92FF920F931F936E
:104D7000CF93DF937801EC0124966C012BE0C20EF7
:104D8000D11CDE01F80131912D91321304C0AC1514
:104D9000BD05C9F716C0DC0112968D919C91139741
:104DA000009779F0B801DC01ED91FC910190F08160
:104DB000E02D1995F70181917F018993CC15DD05CF
:104DC000C9F7DF91CF911F910F91FF90EF90DF9086
:104DD000CF9008950E94D283DB014C9111962C91C3
:104DE00011972370E7E5F3E14083218311969C91AD
:104DF00011979695969512968C911297382F329519
:104E0000330F330F307C932B869586958370928376
:104E1000838315965C911597578313966C9113971E
:104E2000658312963C91129732953F7034831496A5
:104E30007C91149776831696AC91A0871F925F930E
:104E40008F939F932F934F931F923F931F92AF93F4
:104E50001F927F931F926F931F925F938F939F93E5
:104E60002F934F938BED9CE09F938F938EE59EE065
:104E70009F938F930E941A188DB79EB748960FB6CE
:104E8000F8949EBF0FBE8DBF08956115710579F02E
:104E9000FB0101900020E9F73197AF01461B570B4A
:104EA000DC01ED91FC910280F381E02D199480E00A
:104EB00090E008951F920F920FB60F9211240BB637
:104EC0000F922F933F934F935F936F937F938F93A3
:104ED0009F93AF93BF93EF93FF9384E69EE00E946E
:104EE000F325FF91EF91BF91AF919F918F917F91AA
:104EF0006F915F914F913F912F910F900BBE0F904B
:104F00000FBE0F901F9018951F920F920FB60F9221
:104F100011240BB60F922F938F939F93EF93FF93D0
:104F2000E091740EF091750E8081E0917A0EF0910F
:104F30007B0E82FD11C0908180917D0E8F5F20914C
:104F40007E0E821751F0E0917D0EF0E0EC59F14FAA
:104F5000958F80937D0E01C08081FF91EF919F918D
:104F60008F912F910F900BBE0F900FBE0F901F903F
:104F700018951F920F920FB60F9211240BB60F9235
:104F80002F933F934F935F936F937F938F939F9351
:104F9000AF93BF93EF93FF9381EC9FE00E94F325C3
:104FA000FF91EF91BF91AF919F918F917F916F9101
:104FB0005F914F913F912F910F900BBE0F900FBEBD
:104FC0000F901F9018951F920F920FB60F921124F9
:104FD0000BB60F922F938F939F93EF93FF93E091D4
:104FE000D10FF091D20F8081E091D70FF091D80FBF
:104FF00082FD11C090818091DA0F8F5F2091DB0FCD
:10500000821751F0E091DA0FF0E0EF53F04F958FF7
:105010008093DA0F01C08081FF91EF919F918F9172
:105020002F910F900BBE0F900FBE0F901F901895F1
:10503000FC0120812EBDDC0131969C01260F371F1B
:10504000E217F30741F051910DB407FEFDCF4EB5C5
:105050005EBD4D93F5CF61507109FC01E60FF71F5E
:105060000DB407FEFDCF8EB5808308952C9808956A
:105070002C9A08951F93CF93DF9300D0CDB7DEB75E
:10508000182F80E591E06B830E94F82F0E9436284C
:10509000126019836B816A8362E070E0CE01019631
:1050A0000E9418280E9438280E94F02F0F900F901D
:1050B0000F90DF91CF911F9108951F93CF93DF93AE
:1050C0001F92CDB7DEB7182F80E591E00E94F82F30
:1050D0000E943628812F0E94F12F80E00E94F12F3C
:1050E00089830E9438280E94F02F89810F90DF91D8
:1050F000CF911F910895CF92DF92EF92FF92CF93BD
:10510000DF931F921F92CDB7DEB76B017C010E9427
:10511000A7719A8389832EE32C9DC0012D9D900D4C
:10512000112468EE73E00E948982CE0101960E94EC
:10513000B1710F900F90DF91CF91FF90EF90DF90C2
:10514000CF90089581EC9FE00E94D825892B09F427
:1051500051C081EC9FE00E94B725893449F134F4B5
:10516000843421F1853441F581E027C08635E1F0B2
:10517000873501F1823501F58BE69DE09F938F9392
:105180008EE59EE09F938F930E949C2F68EE73E0C4
:1051900080E090E00E947B28E0E0F0E019950F901D
:1051A0000F900F900F9008C085E007C084E005C005
:1051B00083E003C082E001C080E0282F30E0263089
:1051C000310514F025E030E030935F0E20935E0E41
:1051D0001F928F9385EF9AE09F938F938EE59EE0C9
:1051E0009F938F930E94C62F0F900F900F900F9058
:1051F0000F900F900895CF93DF93EC018A819B81EC
:10520000DC01ED91FC910480F581E02D6A85199512
:105210008A85813439F4EA81FB81EA58FF4F808125
:10522000846080831A861B861C861D861E861F86C8
:10523000188A80E0DF91CF91089581E0693009F00C
:1052400080E00895FC0182850895CF92DF92EF926D
:10525000FF920F931F93CF938C01C62F7A01FA010F
:1052600080819181A281B3818130F3E09F07F1E0D9
:10527000AF07B105E1F060F48115E1E09E07AE07EC
:10528000B10569F181309140A140B10581F08FC035
:10529000833021E0920720E1A207B10509F468C03C
:1052A00083309340A041B10509F462C080C0809171
:1052B000601381117CC04C2F61E1C8010E948D16E2
:1052C0004C2F60E1C8010E948D164C2F64E0C8018C
:1052D0000E94E11681E08093601381EB69C0462F44
:1052E00061E1C8010E948D164C2F60E1C8010E9447
:1052F0008D1610926013D8011A968C911A978770A8
:10530000C770880F880F880FC82B1296ED90FC90FD
:105310001397CC2309F44BC06701B6E5CB0ED11C23
:1053200000E010E0F601819191916F010097D1F0BA
:10533000DC01ED91FC910084F185E02D19958C1331
:1053400011C0055D1F4F000F111FF701E00FF11F86
:1053500080819181DC01ED91FC910480F581E02D4B
:10536000199525C00F5F1F4F00311105D9F61FC0D9
:105370004C2F64E1C8010E948D164C2F60E1C801DA
:105380000E948D1664E170E080E090E00E948A2324
:10539000F8016285D70111962C91269521706770CE
:1053A0004C2F828193810E9460241092601380E0D0
:1053B000CF911F910F91FF90EF90DF90CF900895C4
:1053C000CF92DF92FF920F931F93CF93DF9300D082
:1053D0001F92CDB7DEB78C01F62E19821A821B827E
:1053E0001C82462F61E10E948D164F2D60E1C8019D
:1053F0000E948D164F2D64E0C8010E94E11683E0E3
:10540000C82ED12CAE014F5F5F4F6F2DC8010E9497
:10541000B6168823E1F04F2D64E1C8010E948D1675
:105420004F2D60E1C8010E948D1664E170E080E0BC
:1054300090E00E948A230F900F900F900F90DF91C1
:10544000CF911F910F91FF90DF90CF9008958981A8
:105450009A81AB81BC819D7F83309140A041B10591
:10546000D1F264E670E080E090E00E948A2381E05F
:10547000C81AD10839F6CFCFDF92EF92FF920F937F
:105480001F93CF93DF93CDB7DEB72E970FB6F89467
:10549000DEBF0FBECDBFFC012089211102C010E08C
:1054A0007FC07C010E942030F70104851585268588
:1054B0003785DC01CB01801B910BA20BB30BB7FD31
:1054C000EECF81E090E09E878D878E010F5F1F4FAA
:1054D0009E01235F3F4F41E06285828193810E945C
:1054E000561681114FC001E082E0D82E89818D21AE
:1054F000C1F019861A861B861C86AE01475F5F4F76
:10550000602FC7010E94B61681110BC0AE01475F24
:105510005F4F602FC7010E942529813B89F18111CE
:1055200031C0DD0C0F5F083009F701E0F70183851A
:10553000801730F119861A861B861C86AE01475FDC
:105540005F4F602FC7010E94B616811117C0898571
:105550009A85877091708130914081F48B859C850C
:1055600081609C878B87AE01475F5F4F602FC701CB
:105570000E942529813B21F0811104C00F5FD6CF05
:1055800010E001C0182F0E942030DC01CB018C59A3
:105590009F4FAF4FBF4FF70184879587A687B78787
:1055A000812F2E960FB6F894DEBF0FBECDBFDF91D0
:1055B000CF911F910F91FF90EF90DF9008953F9250
:1055C0004F925F926F927F928F929F92AF92BF9213
:1055D000CF92DF92EF92FF920F931F93CF93DF93BF
:1055E000CDB7DEB7E8970FB6F894DEBF0FBECDBFDC
:1055F000DC011296ED90FC9013971A963C913111B4
:105600000BC1822E342E962E3C01D701ED91FC91D8
:105610000190F081E02D60E0C70119958C010097A1
:1056200009F4FCC0FC01C080D180C114D10409F48C
:10563000F7C05301F4E0AF0EB11CDC011196BC922F
:10564000AE9214968C92FE0131962F019F0148E094
:1056500050E060E0D30112968D919C9113970E94C7
:10566000FE2EF80114828111E1C089808D8189307C
:1056700009F0D8C0D701ED91FC910280F381E02DB3
:10568000232D41E0692DC7011995F30182878823F5
:1056900009F4CAC098859583682F828193810E94FE
:1056A000CE2E982E882391F0D801CD92DC92D7018E
:1056B000ED91FC910480F581E02DD3011A966C9157
:1056C000C7011995F3011286192DB4C0482D413236
:1056D00008F040E2D801CD92DC9241110BC0950157
:1056E00042E0F3016285828193810E942F7D8111C6
:1056F000A0C00FC050E09201D3011A966C911A9786
:1057000012968D919C9113970E94FE2E811191C04B
:10571000E6CF1F921F925F924F9288E0882E912CC5
:1057200098E0A92EB12CC12CD12C29E2E22E00E068
:1057300026E040EAF3016285828193810E942E2D4A
:10574000182F0F900F900F900F90811173C08B81C5
:10575000D3011B968C931B97820120E048E050E018
:105760001A966C911A9712968D919C9113970E949C
:10577000301681115EC04B815C8120E0F3016285AF
:10578000828193810E943016811153C0498150E07B
:105790008E010F5D1F4F20E0D3011A966C911A976E
:1057A00012968D919C9113970E943016811141C0E1
:1057B0001F921F921F921F92812C912CA12CB12C11
:1057C000E12C0E8129E040E0F30162858281938122
:1057D0000E942E2D182F0F900F900F900F90811177
:1057E00029C001E0D3011B968C911B97801738F0DC
:1057F000402F68E0C3010E94E1160F5FF3CF1296BD
:10580000ED91FC911397EA58FF4F8081846080836B
:1058100081E050968C930EC019ED0CC016ED0AC0B5
:1058200017ED08C011ED06C014ED04C0F801D182D7
:10583000C082182F812FE8960FB6F894DEBF0FBEF6
:10584000CDBFDF91CF911F910F91FF90EF90DF902F
:10585000CF90BF90AF909F908F907F906F905F9010
:105860004F903F900895CF92DF92EF92FF920F9367
:105870001F93CF93DF936C018B017A01EC01CF5919
:10588000DC4E888187FF04C0FB011182108224C096
:105890008CE08C9D90018D9D300D11248881A90193
:1058A000480F511D87FD5A958091AE1190E0481721
:1058B000590794F48881A901480F511D87FD5A9515
:1058C000CA01FA01EE0FFF1F8E0F9F1FFC01E25E5F
:1058D000FE4E808186FD19C088818F5F88838CE0B1
:1058E0008C9D90018D9D300D11248881A901480F58
:1058F000511D87FD5A958091AE1190E048175907C8
:10590000BCF488818C3044F113C08881280F311D8C
:1059100087FD3A95F901EE0FFF1F2E0F3F1FF9018A
:10592000E25EFE4E808160E08F730E940D23D4CF33
:10593000F80180819181049680349C4918F480E4B8
:105940009CE904C0F801808191810496F70191835C
:1059500080838FEF888345C0F80140815181888121
:10596000B901680F711D87FD7A95CB01FB01EE0F20
:10597000FF1F8E0F9F1FFC01E25EFE4E8181928110
:10598000840F951FF701918380838881A901480FB7
:10599000511D87FD5A95CA01FA01EE0FFF1F8E0FA8
:1059A0009F1FFC01E25EFE4E808186FF1AC0888147
:1059B000280F311D87FD3A95F901EE0FFF1F2E0FBD
:1059C0003F1FF901E25EFE4E808161E08F73DF913F
:1059D000CF911F910F91FF90EF90DF90CF900C949B
:1059E0000D23DF91CF911F910F91FF90EF90DF90EA
:1059F000CF900895CF93DF93FC01EA0180819181DC
:105A0000892B19F580E027C028813981232BD1F318
:105A1000DB012D913C91D9019C91A381B0E0A81BA1
:105A2000B10920813181A20FB31F9C9382818150E3
:105A3000828388819981019799838883DB018D9185
:105A40009C91119701968D939C9382818111DCCF5B
:105A50008381828381E0DF91CF9108952F923F92DD
:105A60004F925F926F927F928F929F92AF92BF926E
:105A7000CF92DF92EF92FF920F931F93CF93DF931A
:105A8000CDB7DEB767970FB6F894DEBF0FBECDBFB8
:105A90003C01542E422E302E2E2CEDA4FEA4188A4A
:105AA0001F861E861D868E01035F1F4F9E01215F8C
:105AB0003F4F40E00E94521A811157C159824A82D9
:105AC0003B822C82DE82CD82B886AF82AE014F5FF0
:105AD0005F4F68E080E20E949B202D853E8540E07C
