:100000000C94AF070C94E0070C94E0070C94E00705
:100010000C94E0070C94E0070C94E0070C94E007C4
:100020000C94E0070C94E0070C94E0070C94E007B4
:100030000C941C810C94E0070C94E0070C94E007EE
:100040000C94E0070C94AF340C94E0070C94E00798
:100050000C94E0070C94E0070C94E0070C94AB358B
:100060000C94E0070C94E21A0C94B81A0C94E00774
:100070000C94E0070C94E0070C94E0070C94E00764
:100080000C9481340C94E0070C94E0070C94E00786
:100090000C94831A0C94591A0C94E0070C945D1775
:1000A0000C94E0070C94E0070C9453340C94E00794
:1000B0000C94E0070C94E0070C94E0070C942534B2
:1000C0000C94E0070C94E0070C94E0070C94E00714
:1000D0000C94E0070C94E0070C94E0070C94E00704
:1000E0000C94E007DC41DC41DC4111425644B84449
:1000F000DC41DC41114256441033133302330633E2
:100100000A334A3317331B332133253329332F3333
:10011000333337334A333D3341334533084AD73BD2
:100120003BCE016E84BCBFFDC12F3D6C74319ABDC6
:1001300056833DDA3D00C77F11BED9E4BB4C3E91EA
:100140006BAAAABE000000803F000C9410330C94F0
:10015000B2300C94FE160C9411420C94B5190C9408
:100160008F180C9477120C9433330C9437110C9431
:1001700041100C9417330C94EF190C9441330C94E8
:1001800090320C9444100C944A330C94B8440C9460
:100190000F300C948E320C940A330C94DC410C9486
:1001A000EC780C94E2160C94E4810C94BA180C943C
:1001B0003D330C9429330C94E22D0C9445100C948F
:1001C00013100C945E190C949B320C9473210C94B4
:1001D00021330C949B100C9445330C943F780C9471
:1001E0002E170C94F6160C943E100C94EA0F0C94F7
:1001F00002330C9425330C94CD180C9488130C9472
:10020000AC010C9417190C94BB2D0C94DB180C94B6
:100210002F330C9492320C9437330C9413330C9488
:10022000C3100C94DD2D0C9456440C9494320C9411
:10023000B32F0C940E370C94D3160C9406330C94F5
:10024000D2160C9413260C941B330C94D10F0C94DF
:100250001F1100000A0B02090C0D0E080703040110
:10026000000000000000000000000000000000008E
:10027000000000000000000000000000000012115B
:10028000100000000000000000000000000000005E
:1002900000000000000000000000220025002800EF
:1002A0002B002E003100340002010000050108017E
:1002B0000B0100002100240027002A002D0030003F
:1002C000330001010000040107010A0105050505CD
:1002D000070508080808020202020A0A08080404BE
:1002E00004040101010101010101030303030303EC
:1002F0000303040707070C0C0C0C0C0C0C0C02027B
:10030000020206060606060606060B0B0B0B0B0B77
:100310000B0B010210202008081020401020408004
:1003200002010201080402010102040810204080B9
:100330008040201008040201800402018040201047
:100340000804020108040201010204081020408090
:10035000010204081020408089E0482EAA24AA94B3
:10036000BA2CEE24EA94FE2CCC24CA94DC2C55241E
:100370005394992493948091030E882309F4E3C540
:100380008091740D8F5F8093740DD091550E0FB6D0
:10039000F8940F928091740D81508093740D809128
:1003A000740D8111DEC18091550D882309F4D9C1E6
:1003B0002091700D3091710DE0E0F0E080916B0DB7
:1003C000882309F48FC0D9011696ED91FC911797F7
:1003D000048915894685578580899189DA011596A2
:1003E0009C938E93149780899189DC0113965C937A
:1003F0004E931297AF01445F5F4FD80111966D91F4
:100400007C9112976417750721F412969C938E9332
:100410001197158A148AD8018C9181508C93AF0161
:100420004E5F5F4F02851385648175818681978158
:10043000DB0115969C938E93149786819781DC013E
:1004400013967C936E931297D80111966D917C91BF
:1004500012976417750721F412969C938E93119747
:1004600013861286D8018C9181508C93A689809135
:10047000990D8A1710F4A093990D4A9ED00111246A
:100480008D010B58124FD80111968D919C911297A6
:1004900095838483DC0114966D917C911597778305
:1004A000668314966D917C911597DB0113965C938E
:1004B0004E931297DC0115965C934E931497138715
:1004C0000287D8018C918F5F8C93A091690DB091B8
:1004D0006A0D968956968C91981708F46FCF909272
:1004E000680D6CCFEF2BE1F0E091610DF091620DA2
:1004F0008081811105C0D092600DC0925F0D10C047
:10050000E091610DF091620D0580F681E02D06808D
:10051000F781E02D828193819093600D80935F0D30
:100520003091540D332309F417C18091740D81115A
:1005300001C18091650D9091660D01969093660DB5
:100540008093650D009789F54091610D5091620D82
:100550006091630D7091640D7093620D6093610DF5
:100560005093640D4093630D2091670D2F5F20938E
:10057000670DE091610DF091620D2081211105C0A0
:10058000D092600DC0925F0D10C0E091610DF091AE
:10059000620D0580F681E02D0680F781E02D428115
:1005A00053815093600D40935F0D40915F0D5091CA
:1005B000600D20E08417950708F4ADC0E091610D4F
:1005C000F091620D4081411105C0D092600DC09242
:1005D0005F0DA1C0E091610DF091620D0580F68183
:1005E000E02D0680F781E02D428153818417950725
:1005F00028F45093600D40935F0D8DC0BF016E5F76
:100600007F4F628473840481158146815781D801AC
:1006100015965C934E93149746815781DA01139691
:100620001C930E931297D30111960D911C91129762
:100630000617170721F412965C934E9311971386B1
:100640001286D3014C9141504C9324883588211453
:10065000310429F14685578500891189DA011596FB
:100660001C930E93149700891189D80113965C93FB
:100670004E931297D10111966D907C901297AF0115
:10068000445F5F4F6416750621F412961C930E9317
:100690001197158A148AD1014C9141504C93A68927
:1006A0004091990D4A1710F4A093990D4A9ED001DC
:1006B0001124AD014B58524F3A01DA0111964D9178
:1006C0005C91129755834483DA0114960D911C9125
:1006D00015971783068314960D911C911597D801D1
:1006E00013967C936E931297DA0115967C936E9312
:1006F000149773866286D3014C914F5F4C93A091FF
:10070000690DB0916A0D568956964C91541708F4AC
:1007100055CF21E053CFE091690DF0916A0DE68944
:100720004E9EF0011124EB58F24F8081823040F050
:1007300021E006C08091540D8F5F8093540D20E01E
:100740008091680D811101C021119092680D315086
:1007500009F0EBCE1092540D8091680D81110E942A
:100760001F810F900FBEDD2309F405CE0FB6F8945C
:100770000F92E0915A0EF0915B0E06811781E8010D
:10078000EA85FB858C819D812E813F81DC01159658
:100790003C932E9314970E80DF81C02D9B838A8318
:1007A000C8010296218132812817390711F4D283BA
:1007B000C183E8011B861A868081815080838091E5
:1007C000550D81508093550D8091030E815080937B
:1007D000030E0F900FBE2F89388D2115310509F4B6
:1007E000E4C19091740D9F5F9093740DC9010E94B4
:1007F00085890FB6F8940F928091740D8150809383
:10080000740D8091740D8111CEC18091550D882396
:1008100009F4C9C16091700D7091710DE0E0F0E0D4
:1008200080916B0D882309F47FC0DB011696ED9152
:10083000FC911797C489D589268537858089918948
:10084000D90115969C938E93149780899189DC0128
:1008500013963C932E9312979F01245F3F4F49813B
:100860005A814217530711F49A838983158A148A8F
:100870008881815088839F012E5F3F4FC285D38539
:100880004481558186819781DA0115969C938E93D8
:10089000149786819781DC0113965C934E9312978F
:1008A00049815A814217530711F49A838983138629
:1008B0001286888181508883A6898091990D8A1734
:1008C00010F4A093990D4A9ED0011124ED01CB584C
:1008D000D24F89819A8195838483DC0114964D914E
:1008E0005C9115975783468314964D915C911597AB
:1008F000DA0113963C932E931297DC0115963C93E4
:100900002E931497D387C28788818F5F8883A091A5
:10091000690DB0916A0D968956968C91981708F4D6
:100920007FCF9092680D7CCFEF2BE1F0E091610DCD
:10093000F091620D8081811105C0F092600DE0920E
:100940005F0D10C0E091610DF091620D0580F681A0
:10095000E02D0680F781E02D828193819093600DD8
:1009600080935F0D8090540D882009F417C1809109
:10097000740D811101C18091650D9091660D0196F4
:100980009093660D8093650D009789F52091610D18
:100990003091620D4091630D5091640D5093620D42
:1009A0004093610D3093640D2093630D2091670D8A
:1009B0002F5F2093670DE091610DF091620D208112
:1009C000211105C0F092600DE0925F0D10C0E09122
:1009D000610DF091620D0580F681E02D0680F781B2
:1009E000E02D228133813093600D20935F0D2091A3
:1009F0005F0D3091600DD0E08217930708F4ADC011
:100A0000E091610DF091620D2081211105C0F092FD
:100A1000600DE0925F0DA1C0E091610DF091620D5B
:100A20000580F681E02D0680F781E02D228133815B
:100A30008217930728F43093600D20935F0D8DC0CB
:100A4000AF014E5F5F4F628473842481358166817C
:100A50007781D90115967C936E931497668177817F
:100A6000DB0113963C932E931297D30111962D918F
:100A70003C9112972417350721F412967C936E93BC
:100A8000119713861286D3012C9121502C93248820
:100A900035882114310429F12685378560897189CB
:100AA000D90115967C936E93149760897189DB0147
:100AB00013963C932E931297D10111966D907C90D2
:100AC00012979F01245F3F4F6216730621F412961E
:100AD0007C936E931197158A148AD1012C91215021
:100AE0002C93A6892091990D2A1710F4A093990DA3
:100AF0004A9ED00111249D012B58324F3901D90152
:100B000011962D913C91129735832483D901149627
:100B10006D917C9115977783668314966D917C9186
:100B20001597DB0113965C934E931297D901159696
:100B30005C934E93149773866286D3012C912F5F3A
:100B40002C93A091690DB0916A0D368956962C911F
:100B5000321708F455CFD1E053CFE091690DF091F1
:100B60006A0DE6894E9EF0011124EB58F24F808108
:100B7000823040F0D1E006C08091540D8F5F8093A9
:100B8000540DD0E08091680D811101C0D111909277
:100B9000680D8A948110EBCE1092540D8091680DEF
:100BA00081110E941F810F900FBE0115110509F4DC
:100BB000E2CB8091740D8F5F8093740DC8010E9409
:100BC00085890FB6F8940F928091740D81508093AF
:100BD000740D8091740D8111B3C18091550D8823DE
:100BE00009F4AEC12091700D3091710DE0E0F0E09C
:100BF00080916B0D882309F47DC0E901EE81FF81AE
:100C0000C489D5894685578580899189DA011596E9
:100C10009C938E93149780899189DC0113965C9341
:100C20004E931297AF01445F5F4F69817A816417D9
:100C3000750711F49A838983158A148A88818150F3
:100C40008883AF014E5F5F4FC285D3856481758114
:100C500086819781DB0115969C938E9314978681EC
:100C60009781DC0113967C936E93129769817A8148
:100C70006417750711F49A83898313861286888115
:100C800081508883A6898091990D8A1710F4A093CA
:100C9000990D4A9ED0011124ED01CB58D24F898184
:100CA0009A8195838483DC0114966D917C911597CC
:100CB0007783668314966D917C911597DB0113966B
:100CC0005C934E931297DC0115965C934E931497A8
:100CD000D387C28788818F5F8883A091690DB09187
:100CE0006A0D968956968C91981708F481CF509288
:100CF000680D7ECFEF2BE1F0E091610DF091620D78
:100D00008081811105C0B092600DA0925F0D10C06E
:100D1000E091610DF091620D0580F681E02D068075
:100D2000F781E02D828193819093600D80935F0D18
:100D30003091540D332309F4FEC08091740D81115C
:100D4000E8C08091650D9091660D01969093660DB7
:100D50008093650D009789F54091610D5091620D6A
:100D60006091630D7091640D7093620D6093610DDD
:100D70005093640D4093630D2091670D2F5F209376
:100D8000670DE091610DF091620D2081211105C088
:100D9000B092600DA0925F0D10C0E091610DF091D6
:100DA000620D0580F681E02D0680F781E02D4281FD
:100DB00053815093600D40935F0D40915F0D5091B2
:100DC000600D20E08417950708F494C0E091610D50
:100DD000F091620D4081411105C0B092600DA0926A
:100DE0005F0D88C0E091610DF091620D0580F68184
:100DF000E02D0680F781E02D42815381841795070D
:100E000028F45093600D40935F0D74C0BF016E5F76
:100E10007F4FC285D3850481158146815781D801D2
:100E200015965C934E93149746815781DA01139679
:100E30001C930E93129709811A810617170711F454
:100E40005A83498313861286488141504883A48976
:100E5000B5891097F9F04685578500891189EA010F
:100E60001D830C8300891189E8015B834A831196F5
:100E70006D907C901297AF01445F5F4F64167506CA
:100E800021F412961C930E931197158A148A4C9193
:100E900041504C93A6894091990D4A1710F4A093A4
:100EA000990D4A9ED0011124AB58B24F11964D9125
:100EB0005C91129755834483EA010C811D8117834D
:100EC00006830C811D81E8017B836A83EA017D83AF
:100ED0006C83B387A2874C914F5F4C93A091690DAF
:100EE000B0916A0D568956964C91541708F46ECFFE
:100EF00021E06CCFE091690DF0916A0DE6894E9E7C
:100F0000F0011124EB58F24F8081823040F021E053
:100F100006C08091540D8F5F8093540D20E0809126
:100F2000680D811101C021119092680D315009F0B6
:100F300004CF1092540D8091680D81110E941F8181
:100F40000F900FBE18CA8091750D823010F00E946C
:100F50001F810E94C3200E94801909CAE4811124C4
:100F60001FBECFEFD1E2DEBFCDBF00E00CBF1DE062
:100F7000A0E0B2E0E6EFFCE101E00BBF02C00790A9
:100F80000D92A232B107D9F723E1A2E2BDE001C080
:100F90001D92AD37B207E1F717E0CFEAD7E000E0E6
:100FA00006C021970109802FFE010E944C87CE3A8E
:100FB000D10780E00807A9F70E94C54C0C94798EF0
:100FC0000C9400002F923F924F925F926F927F920B
:100FD0008F929F92AF92BF92CF92DF92EF92FF9249
:100FE0000F931F93CF93DF93CDB7DEB7E1970FB683
:100FF000F894DEBF0FBECDBF64E670E080E090E005
:101000000E9402350E943C356DA77EA78FA798AB42
:1010100006E71EE084E090E09093770E8093760ED2
:1010200080E090E1AEE0B0E08093780E9093790E8E
:10103000A0937A0EB0937B0E40E050E16EE070E03A
:1010400085EE9FE00E94523680EE92E09F938F9350
:101050001F930F930E94643281E093E09F938F93DC
:101060001F930F930E94D83689E393E09F938F9349
:101070001F930F930E943A3283E793E09F938F93DD
:101080001F930F930E94912D8BEA93E09F938F9370
:101090001F930F930E94672D85EE93E09F938F938C
:1010A0001F930F930E94643286E094E09F938F9386
:1010B0001F930F930E9464320FB6F894DEBF0FBEE9
:1010C000CDBF8091D311803308F042C089E00E94E7
:1010D000B9368091D311E82FF0E09F01220F331F22
:1010E000E20FF31FEE5BFE4E9081907C996090833F
:1010F0001092D4111092D5116CE00E942C873CE024
:10110000839FB001112440E050E09A01260F371F61
:10111000F901EE0FFF1F2E0F3F1FF901EE5BFE4E90
:10112000908196FD08C04F5F5F4F4C30510569F7C5
:1011300090E00E949F32E091D311F0E0CF01880F40
:10114000991FE80FF91FEE5BFE4E8081806480835B
:101150008BE294E09F938F9306E71EE01F930F931B
:101160000E9464328AE494E09F938F931F930F93BD
:101170000E943A3282E794E09F938F931F930F93DC
:101180000E94643284E30E94B93661E084E30E94E5
:10119000E1321092BB0D1092BA0D109234131092DE
:1011A00056131092321311E01093311310920C1356
:1011B00061E084E10E94E13261E085E10E94E13278
:1011C0008091B9008E7F8093B9008091B9008D7FA6
:1011D0008093B90088E48093B80085E48093BC00D4
:1011E00041E050E0BE01605E7F4F85E790E00E94E5
:1011F000E41D41E050E0BE01605E7F4F8CE690E070
:101200000E94E41D1F8E1093331388E680935513BC
:1012100010923413109256136BE68CE79EE00E94F6
:101220002E170FB6F894DEBF0FBECDBF019771F435
:1012300041E050E0BE01615E7F4F8CE79EE00E947E
:10124000FE16019719F481E00E94F5358E010F5FBB
:101250001F4FC8010E947A1E6AE0262E312C19A663
:101260001AA61BA61CA61DA21EA21FA218A619A282
:101270001AA21BA21CA2C12CD12C76014601570137
:101280002601370109AB012F89A9902F0E947A1EF0
:1012900069817A81072E000C880B990B0E94258D9D
:1012A0009B01AC01C301B2010E9455872B013C0197
:1012B0006B817C81072E000C880B990B0E94258D79
:1012C0009B01AC01C501B4010E9455874B015C0133
:1012D0006D817E81072E000C880B990B0E94258D55
:1012E0009B01AC01C701B6010E9455876B017C01CF
:1012F00069857A85072E000C880B990B0E94258D35
:101300009B01AC0169A17AA18BA19CA10E94558788
:1013100069A37AA38BA39CA36B857C85072E000C05
:10132000880B990B0E94258D9B01AC016DA17EA1BC
:101330008FA198A50E9455876DA37EA38FA398A720
:101340006D857E85072E000C880B990B0E94258DDC
:101350009B01AC0169A57AA58BA59CA50E94558728
:1013600069A77AA78BA79CA764E670E080E090E06D
:101370000E94023551E0251A310809F085CF20E09E
:1013800030E040E251E4C301B2010E94F087609373
:10139000320D7093330D8093340D9093350D20E012
:1013A00030E040E251E4C501B4010E94F08760934F
:1013B0002E0D70932F0D8093300D9093310D20E002
:1013C00030E040E251E4C701B6010E94F08760932B
:1013D0002A0D70932B0D80932C0D90932D0D20E0F2
:1013E00030E040E251E469A17AA18BA19CA10E9466
:1013F000F0876093280E7093290E80932A0E9093A5
:101400002B0E20E030E040E251E46DA17EA18FA1DF
:1014100098A50E94F0876093240E7093250E809308
:10142000260E9093270E20E030E040E251E469A5BB
:101430007AA58BA59CA50E94F0876093200E7093DF
:10144000210E8093220E9093230E0E943C356093D0
:101450001C0E70931D0E80931E0E90931F0E109203
:10146000180E1092190E10921A0E10921B0E109256
:10147000140E1092150E1092160E1092170E109256
:10148000100E1092110E1092120E1092130E109256
:101490000C0E10920D0E10920E0E10920F0E109256
:1014A000080E1092090E10920A0E10920B0E109256
:1014B000040E1092050E1092060E1092070E87E988
:1014C00094E09F938F9306E71EE01F930F930E9473
:1014D000643286EB94E09F938F931F930F930E9447
:1014E00064321092370D1092360D0FB6F894DEBFAD
:1014F0000FBECDBF3CE0D32E48E8642E712C54EBD8
:10150000852E912CA12CB12C0091360D1091370D08
:10151000043011050CF0C1C07801EE0CFF1CF7017E
:10152000E25FFD4FC080C701800F911FDC01AA520E
:10153000BE4E2D018C91803308F04BC08C2D0E9443
:10154000B936F2018081282F30E0A901440F551FE0
:10155000240F351FF901EE5BFE4E9C2D9F732081F9
:10156000207CC22EC92AC082D20111961C921197EA
:1015700012961C926D2D0E942C87BCE08B9FB001AF
:10158000112420E030E0A901460F571FFA01EE0FA9
:10159000FF1FE40FF51FEE5BFE4E908196FD08C025
:1015A0002F5F3F4F2C30310571F790E00E949F3242
:1015B000F701E00FF11FEA52FE4EE081F0E0CF01AB
:1015C000880F991FE80FF91FEE5BFE4E8081806443
:1015D00080830E0D1F1DF801EA52FE4E928181811B
:1015E000C080EFE2EC1508F44EC058E5E52E52E05D
:1015F000F52EE91AF10897FDF394EE0CFF1CEE0CA2
:10160000FF1C8301081B110987FD1395000F111F93
:10161000000F111F1801012E000C44085508C701C6
:101620000F2C000CAA0BBB0B9C01AD012219330936
:1016300044095509AAE5B0E00E943D8EA501940138
:101640000E941E8EDA01C901820D931DA41DB51DD5
:10165000801791072CF08C01E816F9060CF487012D
:1016600002501109000F111F2FB7F8948C2D90E034
:10167000FC01EE0FFF1F8E0F9F1FFC01EE5BFE4E65
:10168000128301832FBF8091360D9091370D019603
:101690009093370D8093360D37CF8EED94E09F9366
:1016A0008F9386E79EE09F938F930E94643264E657
:1016B00070E080E090E00E9402350F900F900F9054
:1016C0000F908091740E9091750E892B09F0D8C3FC
:1016D0008091740D8F5F8093740D8FE190E00E9474
:1016E000F0888C010FB6F8940F928091740D8150A0
:1016F0008093740D8091740D8111E8C18091550D16
:10170000882309F4E3C14091700D5091710DE0E020
:10171000F0E029E0F22EEE24E39480916B0D882313
:1017200009F490C0DA011696ED91FC911797C488E0
:10173000D5882685378580899189D90115969C930E
:101740008E93149780899189DC0113963C932E9394
:1017500012979F01245F3F4FD60111966D917C91A6
:1017600012976217730721F412969C938E93119728
:10177000158A148AD6018C9181508C939F012E5F1B
:101780003F4FC284D3846481758186819781DB0158
:1017900015969C938E93149786819781DC011396FE
:1017A0007C936E931297D60111966D917C9112974E
:1017B0006217730721F412969C938E9311971386E8
:1017C0001286D6018C9181508C93A6898091990DB7
:1017D0008A1710F4A093990DFA9ED0011124BD012F
:1017E0006B58724F6B01DB0111968D919C91129792
:1017F00095838483DC0114966D917C911597778392
:10180000668314966D917C911597DB0113963C933A
:101810002E931297DC0115963C932E931497D38642
:10182000C286D6018C918F5F8C93A091690DB09187
:101830006A0D968956968C91981708F46ECFE092AF
:10184000680D6BCFEF2BD1F0E091610DF091620D3F
:101850008081811103C08FEF9FEF0CC0E091610D7B
:10186000F091620D0580F681E02D0680F781E02D74
:10187000828193819093600D80935F0D3091540D20
:10188000332309F41EC189E0982E88248394EE2422
:10189000EA94FE2C8091740D811101C18091650D37
:1018A0009091660D01969093660D8093650D00975B
:1018B00089F54091610D5091620D6091630D7091B9
:1018C000640D7093620D6093610D5093640D4093AD
:1018D000630D2091670D2F5F2093670DE091610DDF
:1018E000F091620D2081211105C0F092600DE0920F
:1018F0005F0D10C0E091610DF091620D0580F681E1
:10190000E02D0680F781E02D428153815093600DD8
:1019100040935F0D40915F0D5091600D20E0841762
:10192000950708F4ADC0E091610DF091620D408122
:10193000411105C0F092600DE0925F0DA1C0E091F1
:10194000610DF091620D0580F681E02D0680F78132
:10195000E02D428153818417950728F45093600D40
:1019600040935F0D8DC0AF014E5F5F4FA284B38483
:10197000C480D58066817781D60115967C936E935D
:10198000149766817781DB011396DC92CE921297D1
:10199000D5011196CD90DC901297C416D50621F48E
:1019A00012967C936E93119713861286D5016C91D3
:1019B00061506C93648875886114710429F166859F
:1019C0007785C088D188DB011596DC92CE9214977A
:1019D000C088D188D60113967C936E931297D30159
:1019E0001196AD90BC901297BF01645F7F4FA61611
:1019F000B70621F41296DC92CE921197158A148ABA
:101A0000D3016C9161506C93A6896091990D6A170E
:101A100010F4A093990D9A9ED0011124BD016B582A
:101A2000724F5B01DB0111966D917C91129775836A
:101A30006483DB011496CD90DC901597D782C68223
:101A40001496CD90DC901597D60113965C934E9327
:101A50001297DB0115965C934E931497B386A2867A
:101A6000D5014C914F5F4C93A091690DB0916A0DD7
:101A7000568956964C91541708F455CF21E053CF10
:101A8000E091690DF0916A0DE6899E9EF0011124A6
:101A9000EB58F24F8081823040F021E006C0809107
:101AA000540D8F5F8093540D20E08091680D81115B
:101AB00001C021118092680D315009F0EBCE1092D7
:101AC000540D8091680D81110E941F810F900FBEEF
:101AD0000115110569F4279A2F9ABFEFE0E7F2E0AC
:101AE000B150E040F040E1F700C000001F9AF5CF90
:101AF000D80111961C930E9381E05B968C935B97B3
:101B00005C961C925C970FB6F8940F92F8012081B6
:101B10003181938D448D949FC0011124B901680FC8
:101B2000791F73836283128E35832483841B91090A
:101B3000820F931F978386838FEF858F868FC801CF
:101B40000B96928781872FEF3FEF34872387968705
:101B50008587908B878710860996938B828B358B30
:101B6000248B978B868B918F808F118A0F900FBE5D
:101B700013961C921E92129711961C921E92169604
:101B80001C920FB6F8940F92928D838D981708F0DF
:101B90006AC1F28C448D41117EC080819181892B74
:101BA00009F09DC00280F381E02D309711F480E0B0
:101BB0006CC082A1815082A3268991A12917B9F313
:101BC0008111F5CF9F012E5F3F4F62857385448160
:101BD000558186819781DA0115969C938E9314978F
:101BE00086819781DC0113965C934E931297DB01FB
:101BF00011964D915C9112974217530721F412965A
:101C00009C938E93119713861286DB018C918150E1
:101C10008C9381A1868B682F70E044E050E0461BD6
:101C2000570B558744879091990D981710F480931E
:101C3000990D89E0869FD001879FB00D1124BD01C9
:101C40006B58724FDB0111968D919C911297958381
:101C50008483DC0114964D915C91159757834683DC
:101C600014964D915C911597DA0113963C932E933F
:101C70001297DC0115963C932E9314977387628715
:101C8000FB0180818F5F808381E0D80113961C92D5
:101C90001E92129725C050E060E070E0F801848148
:101CA00095810E94228AD8015C962C915C971496AB
:101CB0008D919C911597820F911D15969C938E93F3
:101CC000149712962D913C9113978217930738F031
:101CD0008D919C91119715969C938E93149780E00B
:101CE000F394F801F28E9189992309F4B9C006881A
:101CF000F789E02D0680F781E02DCF010C966489ED
:101D000075894685578520893189DA0115963C9376
:101D10002E93149720893189D90113965C934E93A1
:101D20001297DB0111964D915C9112974817590754
:101D300021F412963C932E931197158A148ADB0195
:101D40002C9121502C932091740D211158C09F018A
:101D50002E5F3F4F628573854481558186819781CF
:101D6000DA0115969C938E93149786819781DC01F6
:101D700013965C934E931297DB0111964D915C91F3
:101D800012974217530721F412969C938E93119742
:101D900013861286DB018C9181508C93A6898091E9
:101DA000990D8A1710F4A093990D49E0A49FD001D2
:101DB0001124BD016B58724FDB0111968D919C91DE
:101DC000129795838483DC0114964D915C9115974D
:101DD0005783468314964D915C911597DA011396BB
:101DE0003C932E931297DC0115963C932E931497F7
:101DF00073876287DB018C918F5F8C9324C0409145
:101E00006C0D50916D0D57874687DA0114962D9110
:101E10003C911597318B208B14962D913C91159701
:101E2000D90113969C938E931297DA0115969C9381
:101E30008E9314978BE69DE0958B848B80916B0D30
:101E40008F5F80936B0DA091690DB0916A0D96899B
:101E500056968C91891738F481E08093680D01C003
:101E600081110E941F810F900FBE1093750E009379
:101E7000740E40E050E060E070E0C8010E940A6A21
:101E8000CE0101960E94A31E8E859F85A889B989DF
:101E900080933A0D90933B0DA0933C0DB0933D0D74
:101EA00000E010E021E040E055E060E075E083E70D
:101EB00091E20E941F79F82E02E71EE021E040E047
:101EC00054E06DE075E083E196E20E941F79F8220C
:101ED0008FE00E94E5839093390D8093380D8FE059
:101EE0000E94E5839093710E8093700EF1100BC0E9
:101EF0008AE195E09F938F9386E79EE09F938F936F
:101F00000E94D8360AC083E495E09F938F9386E7BA
:101F10009EE09F938F930E9464320F900F900F90DA
:101F20000F9086E695E09F938F9306E71EE01F9340
:101F30000F930E9464320E943C35DC01CB012DA539
:101F40003EA54FA558A9821B930BA40BB50BBF93BD
:101F5000AF939F938F9382E995E09F938F931F9305
:101F60000F930E9464320FB6F894DEBF0FBECDBF50
:101F7000E1960FB6F894DEBF0FBECDBFDF91CF91D3
:101F80001F910F91FF90EF90DF90CF90BF90AF9097
:101F90009F908F907F906F905F904F903F902F9089
:101FA0000895CF93DF93EC018C819D81DC01ED914D
:101FB000FC910480F581E02D6E81199581E08E8F72
:101FC0001E821F8E18A219A21AA21CA280E0DF9105
:101FD000CF910895DC01FC01ED57FF4F80818823EC
:101FE000D1F017968C911797861741F01A968C911D
:101FF0001A97861315C021E030E002C020E030E0DF
:10200000F901EE0FFF1F2E0F3F1FFD01E20FF31F1F
:1020100080859185089518968D919C9119970895C2
:1020200080E090E00895DC0117968C91179781115C
:1020300006C018968D919C911997892B71F01A966C
:102040008C911A97811118C01B968D919C911C97A9
:10205000892B91F421E030E002C020E030E0F9016A
:10206000EE0FFF1F2E0F3F1FFD01E20FF31F6783CF
:102070005187408781E0089580E00895FC0184A1A4
:102080000895FC0186810895089580E0089580E018
:10209000089580E090E008950895DF92EF92FF9216
:1020A0000F931F93CF93DF93EC01E62EF12C85E085
:1020B000689FB0011124FE01E60FF71F8085182FDD
:1020C000177086FF21C001E085E0D82E8FEF800FCA
:1020D0008F3008F001E0FE01D09EE00DF11D1124CB
:1020E00080858695869586958770811305C0602FBB
:1020F000CE010E944D10EACF0F5F003161F78D8154
:10210000811302C011501D8385E08E9DF0018F9DCB
:10211000F00D1124EC0FFD1F108681E081871286DF
:102120002296D783C683DF91CF911F910F91FF90A5
:10213000EF90DF900895FC016134C1F43F969C015B
:10214000265A3F4F61E0AC014E5F5F4FDF011297AF
:102150001C9211966C93108213974D935C93359655
:10216000E217F30799F7FC01158208953D9621E0E7
:102170003081361303C0622F0C944D102F5F3596BB
:102180002031B1F70895CF93DF93FC01862F80783B
:1021900009F051C0283008F04FC0442321F0958148
:1021A000973009F449C0EF012D96A0E0B0E01196F8
:1021B0009881911103C0662331F021C02596AF307C
:1021C000B105A9F739C085E08A9FE0018B9FD00D4A
:1021D0001124CE0FDF1F442331F081E488878581ED
:1021E0008F5F858302C081E0888725E02A9FC00138
:1021F0002B9F900D1124E80FF91F80851DC067707B
:10220000660F660F660F442341F0606485818F5F1F
:1022100085838770687F682B03C02770687B622B7B
:1022200025E02A9FC0012B9F900D1124E80FF91F74
:102230006087862F01C080E0DF91CF910895611102
:1022400002C006960895FC013D9621E030813613C8
:1022500007C035E0239F800D911D11240696089537
:102260002F5F3596203191F780E090E008953F92FE
:102270004F925F926F927F928F929F92AF92BF9296
:10228000CF92DF92EF92FF920F931F93CF93DF9342
:1022900000D01F92CDB7DEB76C017C836B835A836D
:1022A00049834C0180E1880E911C5601A7E0AA0EDB
:1022B000B11C11E084E0482E3601B2E16B0E711CB6
:1022C00093E0392E22E0522E8B819C81892B09F4D8
:1022D000F8C0F60190A1923059F128F4992341F009
:1022E000913071F0F1CF933039F19430C1F1ECCFEE
:1022F000548285819681908787835286518610A368
:10230000AE014D5F5F4FBE016F5F7F4FC5010E9401
:102310000632882309F4D5C0D6011596ED91FC91BB
:102320001697808191968C939197818192968C9348
:10233000F6017682658230A2D60192968C919297B0
:10234000843011F493961C92F60181A1825084830B
:1023500025813681308727838287818740A2D601F5
:1023600092968C918430B1F0853009F440C082306F
:1023700009F068C0AE014D5F5F4FBE016F5F7F4FD8
:10238000C5010E940632882309F49BC0F6018589A5
:1023900084A38FC0AE014D5F5F4FBE016F5F7F4F63
:1023A000C5010E940632882309F48BC0D6015596D8
:1023B0008C915597833009F07CC098968C919897B2
:1023C000811177C093961C93939752968C91529754
:1023D00096968C93969753968C91539797968C9349
:1023E000979757968C91579795968C9362C0AE01AC
:1023F0004D5F5F4FBE016F5F7F4FC5010E94063288
:10240000882309F45EC0F60183A1882309F451C032
:1024100082819381009709F44CC0DC01ED91FC911D
:102420000190F081E02D7401D60195960C9195975D
:1024300097962C91979796964C91969794966C9127
:10244000199537C0F60181A19585992319F091302E
:1024500031F02AC090E002979787868715872B81F5
:102460003C8189819A81782F692FD6011E964D91E2
:102470005C911F974115510539F49A8389833C83F8
:102480002B831D961C9210C001962115310541F039
:1024900041505109F6015787468721503109E3CF52
:1024A00079836A831C821B82F60186859785892B36
:1024B00041F4D60116969C928E92159790961C9296
:1024C00003CF0F900F900F900F90DF91CF911F913E
:1024D0000F91FF90EF90DF90CF90BF90AF909F90C3
:1024E0008F907F906F905F904F903F9008952F92C4
:1024F0003F924F925F926F927F928F929F92AF9294
:10250000BF92CF92DF92EF92FF920F931F93CF93E0
:10251000DF93CDB7DEB7C454D1090FB6F894DEBF50
:102520000FBECDBFDC019496BC912496BFAF24971B
:10253000BB2309F4D2C07C010E943C35F701878C93
:1025400090A0A1A0B2A0DC01CB0188199909AA0929
:10255000BB09B7FDC2C00E943C35D70193962C91B0
:10256000DC01CB01820F911DA11DB11DF701878FE9
:1025700090A3A1A3B2A3312CCE0101966C01282E09
:1025800090E49C0D25969FAF259740E4442E512C56
:102590003701A5E26A0E711C5701B3E8AB0EB11CFE
:1025A000F701858D381608F098C0832D90E0FC0166
:1025B000EE0FFF1F8E0F9F1F8E0D9F1DFC01E45815
:1025C000FF4F808190E0FC01EE0FFF1FDF01A80F9D
:1025D000B91FAE0DBF1DAA59BF4F2C9130E02396F5
:1025E0003FAF2EAF23974601D6011D9225962FAD02
:1025F00025972A13FACF8E0F9F1F8E0D9F1DFC016A
:10260000EB59FF4F86019E012F5B3F4F4081D70161
:1026100016966C91169714968D919C9115970E9421
:10262000A32B81115BC023968EAD9FAD2397813480
:10263000910520F023965FAE4EAE239722962FADE4
:102640002297B301C301F6013E2F3219321740F42D
:102650004191DC013D91CD014317B1F380E003C00E
:1026600024968FAD2497982D9219921738F4F4017F
:1026700091914F01DB019D93BD01F5CF81112DC0DB
:10268000D701ED91FC91008CF18DE02D8601D501F3
:102690004C91B701C7011995D701ED91FC910288C2
:1026A000F389E02DD5018C91882311F0698101C057
:1026B00060E0C7011995009771F0DC01ED91FC9184
:1026C0000190F081E02D860122962FAD2297D50151
:1026D0004C91B7011995339463CF80E0CC5BDF4F09
:1026E0000FB6F894DEBF0FBECDBFDF91CF911F9123
:1026F0000F91FF90EF90DF90CF90BF90AF909F90A1
:102700008F907F906F905F904F903F902F900895A3
:102710002F923F924F925F926F927F928F929F92F1
:10272000AF92BF92CF92DF92EF92FF920F931F93DF
:10273000CF93DF93CDB7DEB7C458D1090FB6F89465
:10274000DEBF0FBECDBFDC0114960D911C91159715
:102750001696FC90F110D2C1B22E942EA62E3C01FA
:10276000D801ED91FC910190F081E02D60E0C8016D
:1027700019952C01009719F476EDF72ECAC1FC01CA
:10278000C080D180C114D10409F4BBC11301F5E6A6
:102790002F0E311CDC0111963C922E921496BC92A5
:1027A0009E0126593F4F48E050E060E0F3018481EC
:1027B00095810E94292BE82E811193C1AB96EFAC35
:1027C000AB97D201CD92DC92D801ED91FC910280C1
:1027D000F381E02D292D40E06A2DC8011995F30100
:1027E0008683882309F490C1E2969FADE297EA5967
:1027F000FF4F9083682FD30114968D919C9115976C
:102800000E94732BD82ED801ED91FC91D201149621
:102810001C92882361F00480F581E02DD301169687
:102820006C91C8011995F3011682FD2C72C10190BB
:10283000F081E02DD30116966C91C801199500978F
:1028400009F49ACF4E2D433108F042E1FC01B482E5
:1028500041113BC0E4968EAD9FADE497F301EA577A
:10286000FF4F91838083E6968EAD9FADE6973297BA
:1028700091838083EC96FFADEC97C058DF4FF883CF
:10288000C058D040910141E0D30116966C91169743
:1028900014968D919C9115970E945986E82E81116E
:1028A00023C170E02E01B1E44B0E511CF3013296AE
:1028B000CF57DF4FF983E883C158D040C20140961B
:1028C000EE969FAF8EAFEE978EC050E09E012659D8
:1028D0003F4FD30116966C91169714968D919C914B
:1028E00015970E94292BE82E8111FEC0B3CF8AE1F3
:1028F00092E0F20191838083CF57DF4FA881B981A5
:10290000C158D040B383A28315861786168610A2BD
:1029100011A212A210A6EE968EAD9FADEE979683F1
:10292000858390878783848182878187EE96AEAD89
:10293000BFADEE97B487A387F3013681848195817B
:10294000C258DF4F99838883CE57D0408E010F5FE6
:102950001F4F272F49E050E0632FCD57DF4F3883BB
:10296000C358D040CC57DF4F7883C458D0400E9422
:102970004D2BCD57DF4F3881C358D040CC57DF4F58
:102980007881C458D040811127C0AB80BC805F9251
:102990004F921F930F9350E4852E912CC12CD12C74
:1029A00062E0E62E072F26E040E8632FC258DF4F93
:1029B00088819981CE57D040CC57DF4F7883C45857
:1029C000D0400E9489290F900F900F900F90CC5704
:1029D000DF4F7881C458D04081110DC0F301868D3E
:1029E000823058F47F5FC058DF4FF881C058D04024
:1029F0007F137DCF02C0E82E77C0D3015E964C9145
:102A00005E97423008F483C0910116966C91169738
:102A100014968D919C9115970E9459861F921F9232
:102A20001F921F92812C912CA12CB12CC12CD12C46
:102A3000E12CF301048D29E040E0668184819581D9
:102A40000E948929E82E0F900F900F900F9081110E
:102A50004BC010E0F301858D1817B0F5812F90E081
:102A60009C01220F331F820F931F860D971DFC01BF
:102A7000E458FF4F2081222329F13297808187700B
:102A8000C82ED12C1F921F921F921F92812C912C25
:102A9000A12CB12CE12C00E02AE041E2D3011696F2
:102AA0006C91169714968D919C9115970E94892987
:102AB000E82E0F900F900F900F90882319F0B5E03B
:102AC0008B1312C01F5FC6CF0190F081E02D0688E6
:102AD000F789E02DC301199581E0D30194968C9379
:102AE00018C0F201D182C082D301ED91FC91048023
:102AF000F581E02DC3011995FE2C0BC039EDF32EA5
:102B000008C027EDF22E05C094EDF92E02C081ED2C
:102B1000F82E8F2DCC57DF4F0FB6F894DEBF0FBEC7
:102B2000CDBFDF91CF911F910F91FF90EF90DF907C
:102B3000CF90BF90AF909F908F907F906F905F905D
:102B40004F903F902F9008950F931F93CF93DF9353
:102B5000C82FD62F8A0180E591E00E940B372C9870
:102B60008C2F82600E940437CD2FD0E0209721F077
:102B7000BE01C8010E94171BC00FD11F2C9A0E94D2
:102B80000337CE01DF91CF911F910F9108951F93CD
:102B9000CF93DF9300D0CDB7DEB7182F80E591E05B
:102BA0006B830E940B372C98126019836B816A83A8
:102BB00062E070E0CE0101960E94171B2C9A0E94E1
:102BC00003370F900F900F90DF91CF911F910895D1
:102BD0001F93CF93DF931F92CDB7DEB7182F80E5F9
:102BE00091E00E940B372C98812F0E94043780E0DF
:102BF0000E9404372C9A89830E94033789810F90A1
:102C0000DF91CF911F9108959F92AF92BF92CF9283
:102C1000DF92EF92FF920F931F93CF93DF937C018C
:102C2000C42F122F992493946C01C60ED11CC60E8A
:102C3000D11C86E5C80ED11CA42EB12CABE2AA0E85
:102C4000B11CAA0CBB1CAE0CBF1CF601808191818B
:102C5000DC01ED91FC910280F381E02D202F412FCA
:102C60006C2F1995803EC9F4C1110BC061E088EE4C
:102C70000E94C71566E670E080E090E00E94023591
:102C800016C0F50180819181DC01ED91FC910284F7
:102C9000F385E02D612F19950AC08D3031F49FEF37
:102CA000990D933008F040C016C081113DC0F60167
:102CB00080819181DC01ED91FC910190F081E02D0A
:102CC000202F412F6C2F1995D82F8D3061F48FEF65
:102CD000890D833050F464E670E080E090E00E945B
:102CE00002359394B2CF8823F1F0C1110BC061E09B
:102CF00088EE0E94C71566E670E080E090E00E94D2
:102D0000023511C0EC2FF0E0BB96EE0FFF1FEE0D69
:102D1000FF1D80819181DC01ED91FC910284F3859E
:102D2000E02D612F19958D2FDF91CF911F910F917C
:102D3000FF90EF90DF90CF90BF90AF909F9008955D
:102D400085ED8093BC008091BC0084FDFCCF109287
:102D5000321308954091DE0D262F30E0240F311DEF
:102D600021323105DCF4209132132430C9F4FC0106
:102D700080E090E0861758F43091DE0D2191DC015F
:102D8000A454B24FA30FB11D2C930196F3CF8091A1
:102D9000DE0D680F6093DE0D80E0089581E00895F8
:102DA00082E008950895E091BB0D8091BA0DE81777
:102DB00030F4F0E0E656F24F808190E008958FEF16
:102DC0009FEF08959091BB0D8091BA0D981750F424
:102DD000E92FF0E0E656F24F208130E09F5F9093BC
:102DE000BB0D02C02FEF3FEFC90108958091BA0DCE
:102DF00090E02091BB0D821B91090895CF92DF9244
:102E0000EF92FF920F931F93CF93DF937C01262FB6
:102E1000972F8A0180913313882391F0C62FD72FE3
:102E20006E01C40ED51ECC15DD0571F06991D70178
:102E3000ED91FC910190F081E02DC7011995F3CF40
:102E4000642F822F0E94AA16C801DF91CF911F9193
:102E50000F91FF90EF90DF90CF900895CF93DF9385
:102E60001F92CDB7DEB76983209133132223D1F0AF
:102E700020915613203240F021E030E0FC013383F2
:102E8000228380E090E015C080913413E82FF0E0B9
:102E9000EB5CFC4E998190838F5F80933413809319
:102EA000561305C061E0CE0101960E94AA1681E08A
:102EB00090E00F90DF91CF9108951F920F920FB67F
:102EC0000F9211240BB60F922F933F934F935F9362
:102ED0006F937F938F939F93AF93BF93EF93FF93E2
:102EE0008091B900887F803609F49CC068F58832EB
:102EF00009F45BC090F4803109F454C038F488239D
:102F000009F4F6C0883009F44DC0F6C0883109F4E0
:102F10004CC0803209F45DC0EFC0803409F468C051
:102F200048F4803309F455C0883309F0E5C0809334
:102F30003013D8C0803509F44FC0883509F45DC01E
:102F4000883409F0D9C0D6C0883909F4C7C0A8F4BC
:102F5000883709F467C038F4883609F463C08037CD
:102F600009F460C0C9C0883809F4B8C0803909F4D0
:102F70005FC0803809F0C0C05BC0803B09F486C0E8
:102F800038F4803A09F466C0883A09F47FC0B4C0C6
:102F9000803C09F4A7C0883C09F4A4C0883B09F42C
:102FA0008AC0AAC080910D1310C090912F138091F8
:102FB0002E13981770F5E0912F1381E08E0F8093F8
:102FC0002F13F0E0E25FFC4E80818093BB0085EC24
:102FD00086C0809330138EC0E0912F1381E08E0F56
:102FE00080932F138091BB00F0E0E25FFC4E808362
:102FF00090912F1380912E136EC0E0912F1381E0DA
:103000008E0F80932F138091BB00F0E0E25FFC4EA7
:1030100080838091311381116DC081E080930C1306
:1030200084EA61C083E0809332131092020ECFCF06
:103030008091020E803208F051C0E091020E81E0D2
:103040008E0F8093020E8091BB00F0E0EE51F24FA4
:103050008083BDCF85EC8093BC00109232138091A9
:10306000020E803230F4E091020EF0E0EE51F24FA9
:1030700010826091020E70E0E091E00DF091E10DA0
:1030800082EE9DE019951092020E36C084E0809386
:1030900032131092DF0D1092DE0DE091DC0DF091F5
:1030A000DD0D19958091DE0D811105C081E08093C1
:1030B000DE0D1092BC0DE091DF0D81E08E0F80934C
:1030C000DF0DF0E0E454F24F80818093BB009091DB
:1030D000DF0D8091DE0D981708F479CF85E8809395
:1030E000BC000AC085EC8093BC001092321304C06F
:1030F000109230130E94A016FF91EF91BF91AF91F3
:103100009F918F917F916F915F914F913F912F91FF
:103110000F900BBE0F900FBE0F901F901895CF927F
:10312000DF92EF92FF920F931F93CF93DF936C0187
:103130007A018B01C0E0D0E0CE15DF0589F0D8011F
:103140006D918D01D601ED91FC910190F081E02D02
:10315000C6011995892B11F47E0102C02196ECCF8E
:10316000C701DF91CF911F910F91FF90EF90DF90FA
:10317000CF900895FC01918D828D981759F0828D22
:10318000DF01A80FB11D5D968C91928D9F5F928F8C
:1031900090E008958FEF9FEF0895FC01918D828D4F
:1031A000981731F0828DE80FF11D858D90E008951C
:1031B0008FEF9FEF0895FC01918D828D981B892FD1
:1031C00090E0089588E89EE00E94DB1821E0892BBA
:1031D00009F420E0822F089585EE9FE00E94DB181D
:1031E00021E0892B09F420E0822F0895FC01848DD1
:1031F000DF01A80FB11DA35EBE4F2C91848D90E01E
:1032000001968F739927848FA689B7892C93A089FB
:10321000B1898C9180648C93938D848D981306C0B2
:103220000288F389E02D80818F7D80830895EF925D
:10323000FF920F931F93CF93DF93EC0181E0888F70
:103240009B8D8C8D981305C0E889F989808185FD57
:1032500024C0F62E0B8D10E00F5F1F4F0F73112748
:10326000E02E8C8DE8120CC00FB607FCFACFE8896F
:10327000F989808185FFF5CFCE010E94F618F1CF44
:103280008B8DFE01E80FF11DE35EFE4FF0820B8F88
:10329000EA89FB898081806207C0EE89FF896083AB
:1032A000E889F98980818064808381E090E0DF9102
:1032B000CF911F910F91FF90EF900895CF93DF93DF
:1032C000EC01888D8823C9F0EA89FB89808185FD1E
:1032D00005C0A889B9898C9186FD0FC00FB607FC7F
:1032E000F5CF808185FFF2CFA889B9898C9185FFC0
:1032F000EDCFCE010E94F618E7CFDF91CF91089570
:1033000080E090E0892B21F00E94EC18811121C00F
:1033100080E090E0892B21F00E94E21881111CC00E
:1033200080E090E0892B41F080E090E0892B21F053
:103330000E940000811113C080E090E0892BA1F071
:1033400080E090E0892B81F00E94000081110AC08A
:1033500008950E940000DCCF0E940000E1CF0E948F
:103360000000EACF0C9400000895CF92DF92EF9214
:10337000FF920F931F93CF93DF937801EC01249674
:103380006C012BE0C20ED11CDE01F80131912D91B0
:10339000321304C0AC15BD05C9F716C0DC01129686
:1033A0008D919C911397009779F0B801DC01ED9114
:1033B000FC910190F081E02D1995F70181917F0139
:1033C0008993CC15DD05C9F7DF91CF911F910F913E
:1033D000FF90EF90DF90CF9008950E941D8ADB014F
:1033E0003C9111968C911197482F4370ECE2FEE0CE
:1033F000308341838695869512969C911297292F4A
:103400002295220F220F207C822B292F269526958C
:1034100023708283238315965C91159757831396A7
:103420006C911397658392959F70948314967C9109
:10343000149776831696AC91A0871F925F932F9373
:103440008F934F933F931F929F931F92AF931F921F
:103450007F931F926F931F925F932F938F934F933E
:103460003F938BEC95E09F938F9386E79EE09F932D
:103470008F930E94672D8DB79EB748960FB6F8942C
:103480009EBF0FBE8DBF08956115710579F0FB01D8
:1034900001900020E9F73197AF01461B570BDC0183
:1034A000ED91FC910280F381E02D199480E090E091
:1034B00008951F920F920FB60F9211240BB60F9220
:1034C0002F933F934F935F936F937F938F939F932C
:1034D000AF93BF93EF93FF9388E89EE00E94F618A6
:1034E000FF91EF91BF91AF919F918F917F916F91DC
:1034F0005F914F913F912F910F900BBE0F900FBE98
:103500000F901F9018951F920F920FB60F921124D3
:103510000BB60F922F938F939F93EF93FF93E091AE
:10352000980EF091990E8081E0919E0EF0919F0E81
:1035300082FD11C090818091A10E8F5F2091A20E1B
:10354000821751F0E091A10EF0E0E857F14F958F0E
:103550008093A10E01C08081FF91EF919F918F9187
:103560002F910F900BBE0F900FBE0F901F901895CC
:103570001F920F920FB60F9211240BB60F922F933A
:103580003F934F935F936F937F938F939F93AF93EB
:10359000BF93EF93FF9385EE9FE00E94F618FF9193
:1035A000EF91BF91AF919F918F917F916F915F91BB
:1035B0004F913F912F910F900BBE0F900FBE0F9028
:1035C0001F9018951F920F920FB60F9211240BB6F1
:1035D0000F922F938F939F93EF93FF93E091F50FAB
:1035E000F091F60F8081E091FB0FF091FC0F82FDCE
:1035F00011C090818091FE0F8F5F2091FF0F821785
:1036000051F0E091FE0FF0E0EB51F04F958F809379
:10361000FE0F01C08081FF91EF919F918F912F91BB
:103620000F900BBE0F900FBE0F901F901895FC01CE
:1036300020812EBDDC0131969C01260F371FE21739
:10364000F30741F051910DB407FEFDCF4EB55EBDBD
:103650004D93F5CF61507109FC01E60FF71F0DB4D2
:1036600007FEFDCF8EB580830895CF92DF92EF9253
:10367000FF920F931F93CF93DF930FB6F8940F929F
:10368000E091650DF091660D0F900FBE2091740DC5
:103690002F5F2093740D2091650D3091660DAEE380
:1036A000A69FA001A79F500D1124CA0168EE73E0E8
:1036B0000E9438876E0F7F1F2E173F0728F46E1762
:1036C0007F0708F067C003C06E177F0720F026173A
:1036D000370708F05FC04091650D5091660DE0918D
:1036E000690DF0916A0DA285B3858481958106816B
:1036F0001781EC011D830C83C681D7819B838A834C
:10370000CF01029611960D911C9112970817190777
:1037100021F41296DC93CE931197138612868C9126
:1037200081508C93CA01821B930B680F791FE09123
:10373000690DF0916A0D73836283C091690DD09118
:103740006A0DCE0102966417750708F0F8C1009162
:10375000630D1091640D2A813B812F3F4FEF340799
:1037600009F0E0C1D8011796ED91FC9118972281DC
:1037700033813D832C83D90115969C938E931497A6
:10378000FF83EE83938382831B870A87E801888106
:103790008F5F88830FB6F8940F928091740D8150DB
:1037A0008093740D8091740D882311F080E0B3C173
:1037B0008091550D8823D1F32091700D3091710DBA
:1037C000E0E0F0E069E071E080916B0D882309F49E
:1037D00077C0D9011696ED91FC911797A489B58908
:1037E0008685978540895189EC015D834C83C0892A
:1037F000D1899B838A83CF010C9611964D915C9160
:1038000012974817590721F41296DC93CE9311971B
:10381000158A148A8C9181508C93CF010296A285CF
:10382000B3854481558106811781EA011D830C838C
:10383000C681D7815B834A8311964D915C91129723
:103840004817590721F41296DC93CE9311971386EB
:1038500012864C9141504C93A6894091990D4A177C
:1038600010F4A093990D6A9FD00111248D010B587B
:10387000124FD8011196CD91DC911297D583C48354
:103880004C815D81578346834C815D81DA011396BB
:103890009C938E9312979D838C8313870287E801F4
:1038A00088818F5F8883A091690DB0916A0D968998
:1038B00056968C91981708F487CF7093680D84CF33
:1038C000EF2BD1F0E091610DF091620D80818111BB
:1038D00003C08FEF9FEF0CC0E091610DF091620D7E
:1038E0000580F681E02D0680F781E02D82819381AD
:1038F0009093600D80935F0D3091540D332309F444
:1039000002C119E001E04FEF5FEF8091740D81116A
:10391000E8C08091650D9091660D01969093660DBB
:103920008093650D009789F56091610D7091620D2E
:10393000E091630DF091640DF093620DE093610DE1
:103940007093640D6093630D2091670D2F5F20933A
:10395000670DE091610DF091620D2081211105C08C
:103960005093600D40935F0D10C0E091610DF09198
:10397000620D0580F681E02D0680F781E02D6281E1
:1039800073817093600D60935F0D60915F0D709116
:10399000600D20E08617970708F494C0E091610D50
:1039A000F091620D6081611105C05093600D4093EC
:1039B0005F0D88C0E091610DF091620D0580F68188
:1039C000E02D0680F781E02D6281738186179707CD
:1039D00028F47093600D60935F0D74C0BF016E5F3B
:1039E0007F4FA285B385E480F580C680D780E7014C
:1039F000DD82CC82C681D781FB82EA821196ED906E
:103A0000FC901297E616F70621F41296DC93CE93FB
:103A1000119713861286CC91C150CC93A489B58995
:103A20001097F1F0C684D784E088F188E601FD8222
:103A3000EC82E088F188E701DB82CA821196CD90A2
:103A4000DC901297EF012C96CC16DD0621F412962D
:103A5000FC92EE921197158A148ACC91C150CC93A6
:103A6000A689B091990DBA1710F4A093990D1A9FD9
:103A7000D0011124ED01CB58D24F6E010980DA81BB
:103A8000C02DD583C483EC80FD80F782E682EC8074
:103A9000FD80D70113967C936E9312977D836C8380
:103AA000D386C286E60168816F5F6883A091690D45
:103AB000B0916A0D768956966C91761708F46ECFA0
:103AC00021E06CCFE091690DF0916A0DE6891E9FAF
:103AD000F0011124EB58F24F8081823040F021E058
:103AE00006C08091540D8F5F8093540D20E080912B
:103AF000680D811101C021110093680D315009F04A
:103B000004CF1092540D8091680D882309F44ECE95
:103B10000E941F8181E00F900FBE81114CC00E9456
:103B20001F8149C0F801339642815381DA016D91BA
:103B30007C912617370708F41ACEFA01F5CFE090EA
:103B4000610DF090620D2A813B812F3FEFEF3E0720
:103B500031F4D7011796ED91FC9118970CC0F7013D
:103B6000339642815381DA010D911C912017310760
:103B700010F0FA01F6CF228133813D832C83D901E5
:103B800015969C938E931497FF83EE839383828381
:103B9000FB86EA86E70188818F5F888380915F0DCD
:103BA0009091600D6817790708F0F4CD7093600D5F
:103BB00060935F0DEFCDDF91CF911F910F91FF903B
:103BC000EF90DF90CF900895EF92FF920F931F93A5
:103BD000CF93DF93D62FC72F7A0191E090933313C1
:103BE00098E6909355131092341310925613682F41
:103BF0008CE79EE00E942E17019709F068C080E0D4
:103C00000E94F535282F30E02115310509F061C0FB
:103C1000809132138111FCCF8E2D813208F080E229
:103C200091E090933213909331132FEF2093301340
:103C300010922F13280F20932E1390930D13909111
:103C40000D13906D90930D1390910C13913061F4BE
:103C500010920C1390910D139093BB009091BC00A7
:103C600093FDF8CF95EC01C095EE9093BC00909138
:103C700032139130E1F390912F13981710F4809143
:103C80002F13AEE0B3E12AE93DE0F9019E2F921B2C
:103C9000981718F49D919193F9CF1092BB0D8093D2
:103CA000BA0D0D2F1C2FC0E0D0E09091BA0D80917D
:103CB000BB0D981781F0CE15DF056CF421968CE7CB
:103CC0009EE00E94E216F80181938F01EECF86EF0D
:103CD00006C0C90108C0CE15DF0519F085EF9FEFBA
:103CE00002C080E090E0DF91CF911F910F91FF9093
:103CF000EF900895CF93DF93EC014EE050E0BC01CC
:103D00008BE390E00E94E41D288139813883298368
:103D10002A813B813A832B832C813D813C832D83F7
:103D20002E813F813E832F832885398538872987D7
:103D30002A853B853A872B872C853D853C872D87B7
:103D4000DF91CF9108954F925F926F927F928F9201
:103D50009F92AF92BF92CF92DF92EF92FF920F931A
:103D60001F93CF93DF93CDB7DEB7E6970FB6F894E6
:103D7000DEBF0FBECDBF8C01CE0101960E947A1E20
:103D80000E943C356F8B788F898F9A8F69817A81F9
:103D9000072E000C880B990B0E94258D6F87788B5E
:103DA000898B9A8B6B817C81072E000C880B990B79
:103DB0000E94258D2B013C016D817E81072E000C18
:103DC000880B990B0E94258D6B8B7C8B8D8B9E8B2A
:103DD0009B01AC010E94608D6B017C01A3019201EB
:103DE000C301B2010E94608DA70196010E94558710
:103DF0000E9497889B01AC016F85788989899A898F
:103E000090580E94F0870E94C1876BA37CA38DA36A
:103E10009EA32F85388949895A89CA01B9010E9410
:103E2000608DA70196010E9455870E9497889B018B
:103E3000AC01C301B2010E94F0870E94C1876FA349
:103E400078A789A79AA780911C0E90911D0EA0912A
:103E50001E0EB0911F0E2F89388D498D5A8D281B4B
:103E6000390B4A0B5B0BCA01B9010E94238D20E07C
:103E700030E04AE754E40E94F0876B017C016985D9
:103E80007A85072E000C880B990B0E94258D2091B6
:103E9000280E3091290E40912A0E50912B0E0E942F
:103EA000548720E030E043E053E40E94F087A7010C
:103EB00096010E94608D6B8F7C8F8D8F9E8F6B859E
:103EC0007C85072E000C880B990B0E94258D209174
:103ED000240E3091250E4091260E5091270E0E94FF
:103EE000548720E030E043E053E40E94F087A701CC
:103EF00096010E94608D4B015C016D857E85072EC9
:103F0000000C880B990B0E94258D2091200E30917A
:103F1000210E4091220E5091230E0E94548720E0E2
:103F200030E043E053E40E94F087A70196010E942D
:103F3000608D6B017C012091100E3091110E40912B
:103F4000120E5091130E0E9455876F8F78A389A38C
:103F50009AA320910C0E30910D0E40910E0E5091AF
:103F60000F0E6B8D7C8D8D8D9E8D0E9455876BA75E
:103F70007CA78DA79EA72091080E3091090E409135
:103F80000A0E50910B0EC501B4010E9455876FA710
:103F900078AB89AB9AAB2091040E3091050E40911D
:103FA000060E5091070EC701B6010E9455876BABF4
:103FB0007CAB8DAB9EAB2091180E3091190E4091C9
:103FC0001A0E50911B0E6B8D7C8D8D8D9E8D0E94D7
:103FD00055872FE832EC45E75FE30E94608D6B0167
:103FE0007C012DEE3EE245E652E46FA178A589A55D
:103FF0009AA50E94608D20E137ED43E25DE30E94C7
:10400000608D9B01AC01C701B6010E9455876B0111
:104010007C012091140E3091150E4091160E509196
:10402000170EC501B4010E9455872FE832EC45E711
:104030005FE30E94608D4B015C012DEE3EE245E6A0
:1040400052E46BA17CA18DA19EA10E94608D20E114
:1040500037ED43E25DE30E94608D9B01AC01C50139
:10406000B4010E9455872F89388D498D5A8D209330
:104070001C0E30931D0E40931E0E50931F0EC092C7
:10408000180ED092190EE0921A0EF0921B0E609349
:10409000140E7093150E8093160E9093170E2F8D9D
:1040A00038A149A15AA12093100E3093110E4093CC
:1040B000120E5093130E2BA53CA54DA55EA5209383
:1040C0000C0E30930D0E40930E0E50930F0E2FA535
:1040D00038A949A95AA92093080E3093090E409394
:1040E0000A0E50930B0E2BA93CA94DA95EA9209353
:1040F000040E3093050E4093060E5093070EE5E331
:10410000FEE0C582D682E782F08661877287838768
:1041100094878F8D98A1A9A1BAA185879687A78733
:10412000B08B2F85388949895A89218B328B438BF3
:10413000548B458A568A678A708E8B899C89AD8993
:10414000BE89818F928FA38FB48F8EE1D8010190A9
:104150000D928A95E1F7C801E6960FB6F894DEBF96
:104160000FBECDBFDF91CF911F910F91FF90EF90C8
:10417000DF90CF90BF90AF909F908F907F906F9087
:104180005F904F90089585EE9FE00E94DB18892B89
:1041900099F185EE9FE00E94BA188454843158F456
:1041A000E82FF0E0E45EFD4F8081082E000C990BB3
:1041B00097FF03C009C080E090E0382F292F863098
:1041C000910524F035E001C030E020E046E75EE0F4
:1041D0003093760E2093770E9F938F938BE596E026
:1041E0009F938F935F934F930E9464320F900F9031
:1041F0000F900F900F900F9008958F929F92BF9203
:10420000CF92DF92EF92FF920F931F93CF93DF93A2
:104210001F92CDB7DEB74C01B62E690149830E94CB
:104220001F117C014981009709F44BC0DC01ED911D
:10423000FC911197309709F446C013969C9180E049
:10424000891731F02081241729F033968F5FF8CF3A
:10425000E0E0F0E0D601ED93FC933097B1F12281DC
:104260002695269530E02031310514F02FE030E01E
:1042700081E090E0A0E0B0E004C0880F991FAA1F81
:10428000BB1F2A95D2F70197F801918380836B2D8C
:1042900080EE0E94C71588ED0E94E815682FD701AF
:1042A00014968C91882339F0F401EA58FF4F8081ED
:1042B0008260682B01C0697F88ED0E94C71580E08D
:1042C00005C086ED03C087ED01C08BED0F90DF9137
:1042D000CF911F910F91FF90EF90DF90CF90BF9003
:1042E0009F908F900895CF93DF93CDB7DEB7AD97B2
:1042F0000FB6F894DEBF0FBECDBF45E050E060E0E2
:1043000070E08091740E9091750E0E94A55B8130D3
:1043100009F0C0C381E796E09F938F9386E79EE004
:104320009F938F930E9464328AE20E94B93680E0A4
:1043300090E00E94007940E052EC61E070E088E893
:104340009EE00E9452368FEF9FEF9A8389830E94EE
:10435000F67887E996E00E94D2830F900F900F9035
:104360000F9088E89EE00E94DB180497D4F388E859
:104370009EE00E94DB18892BE9F188E89EE00E940C
:10438000BA18BE016F5F7F4F0E947686019779F75A
:1043900089819A8197FDEBCF6EE976E087E593E11D
:1043A0000E94328A892B41F080E090E00E940079DF
:1043B000CC24C394D12C21C080E090E00E940079ED
:1043C00081E08F938FE88F9380E392E09F938F93A8
:1043D00081EA96E09F938F9386E79EE09F938F9369
:1043E0000E94D8360FB6F894DEBF0FBECDBF8FEF58
:1043F0009FEF89C0CC24CA94DC2C64E670E080E096
:1044000090E00E94351B0E94F67880E2E7E5F3E138
:10441000DF011D928A95E9F788E89EE00E94DB188B
:104420000297D4F300E010E0EDEDAE2EE6E0BE2EF4
:10443000F6E78F2EFEE09F2EA0E27A2E88E89EE01F
:104440000E94DB18892B09F450C088E89EE00E9486
:10445000BA18BE016F5F7F4F0E947686019771F791
:10446000E980FA80F7FCEACF61ED76E087E593E139
:104470000E94328A892BF9F40F5F1F4F77E5C72E10
:1044800073E1D72EDF92CF92FF92EF921F930F939B
:10449000BF92AF929F928F920E94672DF601272DB7
:1044A00011922A95E9F70FB6F894DEBF0FBECDBF83
:1044B000C12CD12CC3CF87E593E19F938F93FF92BB
:1044C000EF921F930F9385E097E09F938F9386E77A
:1044D0009EE09F938F930E94672D0FB6F894DEBFE6
:1044E0000FBECDBFCC24C394D12C80E090E00E94BD
:1044F000007981E090E0CA94CD2811F480E090E04A
:10450000919581959109892B09F0A2C08DE297E0E0
:104510009F938F9386E79EE09F938F930E946432D0
:104520008FEF9FEF9A83898380E2E7E5F3E1DF0174
:104530001D928A95E9F70E94F67882E597E00E943D
:10454000D2830F900F900F900F9088E89EE00E940A
:10455000DB180497D4F388E89EE00E94DB18892BCF
:10456000E1F188E89EE00E94BA18BE016F5F7F4FBC
:104570000E947686019779F789819A8197FDEBCF22
:104580006EE976E087E593E10E94328A892B39F063
:1045900080E090E00E94007901E010E020C080E01F
:1045A00090E00E94007982E08F9381E98F938BE302
:1045B00092E09F938F9385E597E09F938F9386E793
:1045C0009EE09F938F930E94D8360FB6F894DEBF7B
:1045D0000FBECDBF0FEF1FEF0BC000E010E080E07B
:1045E00090E00E940079F1E00F27119501951109E3
:1045F0000115110509F065C18AED97E09F938F932E
:1046000086E79EE09F938F930E9464328FEF9FEF27
:104610009A83898357E5E52E53E1F52E80E2D70191
:104620001D928A95E9F70E94F6781F921F9280E00A
:1046300098E09F938F93FF92EF920E944C8AC7015C
:104640000E94D2830FB6F894DEBF0FBECDBF0DC05F
:1046500085E897E09F938F9306E71EE01F930F93E3
:104660000E94D83688EA97E0FBC188E89EE00E9465
:10467000DB180497D4F380E2E7E5F3E1DF011D9254
:104680008A95E9F788E89EE00E94DB18892BD1F132
:1046900088E89EE00E94BA18BE016F5F7F4F0E94BB
:1046A0007686019779F789819A8197FDEBCF6EE93C
:1046B00076E087E593E10E94328A892B29F080E039
:1046C00090E00E9400791EC080E090E00E94007996
:1046D00082E08F9382ED8F9386E492E09F938F9395
:1046E0008CE098E09F938F9386E79EE09F938F9353
:1046F0000E94D8360FB6F894DEBF0FBECDBF0FEFC5
:104700001FEF8CC080E090E00E94007980E2E7E536
:10471000F3E1DF011D928A95E9F788E89EE00E94A7
:10472000DB18892B31F188E89EE00E94BA18BE019F
:104730006F5F7F4F0E947686019779F787E593E157
:104740009F938F9382E08F9381EE8F9386E492E024
:104750009F938F938CE398E09F938F9386E79EE0DF
:104760009F938F930E94672D0FB6F894DEBF0FBE04
:10477000CDBF80E2E7E5F3E1DF011D928A95E9F71D
:1047800088E89EE00E94DB18892B31F188E89EE0E2
:104790000E94BA18BE016F5F7F4F0E947686019714
:1047A00079F787E593E19F938F9382E08F9382EF70
:1047B0008F9386E492E09F938F938CE798E09F938A
:1047C0008F9386E79EE09F938F930E94672D0FB68D
:1047D000F894DEBF0FBECDBF80E2E7E5F3E1DF0175
:1047E0001D928A95E9F788E89EE00E94DB1888E828
:1047F0009EE00E94BA18BE016F5F7F4F0E947686CE
:10480000019789F76CEB78E087E593E10E94328AA3
:10481000892B49F380E090E00E9400790115110591
:1048200009F0D1C08BE299E09F938F9326E7C22EC7
:104830002EE0D22EDF92CF920E9464328FEF9FEF54
:104840009A8389830E94F67837E5E32E33E1F32ECD
:1048500040E2B42ED701EB2D1D92EA95E9F78EE4E4
:104860008F93BF928EE599E09F938F938AE699E0AC
:104870009F938F93FF92EF920E944C8AFF92EF9248
:1048800081E08F9387ED8F9384E592E09F938F93E0
:1048900089E799E09F938F93DF92CF920E94672DD3
:1048A000C7010E94D283D7011D92BA94E9F780E034
:1048B00090E00E9400790FB6F894DEBF0FBECDBF26
:1048C0000DC082EC98E09F938F9306E71EE01F9344
:1048D0000F930E94D83688EE98E0C2C088E89EE028
:1048E0000E94DB180497D4F388E89EE00E94DB184E
:1048F0009F938F938CEA99E09F938F9386E79EE036
:104900009F938F930E94672D0F900F900F900F90A1
:104910000F900F90EE24EA94FE2C88E89EE00E940F
:10492000DB18892B09F442C088E89EE00E94BA187F
:10493000BE016F5F7F4F0E9476866C016EE976E064
:1049400087E593E10E94328A21E0892B09F420E077
:10495000E22EF12CCA94CD2801F789819A8197FD26
:10496000DCCF222301F187E593E19F938F9381E0D0
:104970008F9380EF8F9384E592E09F938F9389EDDF
:1049800099E09F938F9386E79EE09F938F930E9479
:10499000672D80E090E00E9400790FB6F894DEBFAA
:1049A0000FBECDBF0DC0E12CF12CB7CF01E010E060
:1049B000EA94EF2811F400E010E011950195110937
:1049C000012B71F041C08CE09AE09F938F9306E732
:1049D0001EE01F930F930E94D8368CE29AE040C0ED
:1049E0008FE69AE09F938F9306E71EE01F930F9345
:1049F0000E9464328DE99AE09F938F931F930F93E7
:104A00000E94643283E090E09093770E8093760E5C
:104A10001F928F938BE596E09F938F931F930F9335
:104A20000E9464328091740E9091750E0FB6F894C6
:104A3000DEBF0FBECDBF009769F140E050E060E0FF
:104A400070E00E940A6A26C08DEB9AE09F938F93D4
:104A500006E71EE01F930F930E94D83687EE9AE078
:104A60009F938F931F930F930E9464320FB6F89415
:104A7000DEBF0FBECDBF8AE49BE09F938F9386E796
:104A80009EE09F938F930E94D8360F900F900F90C7
:104A90000F90FFCFE091720EF091730E309709F4F2
:104AA0007CC08091690D90916A0DE817F90709F4AF
:104AB00074C00FB6F8940F928285938586559D40F9
:104AC00009F069C0848995893DE08B36930709F424
:104AD00062C0892B09F05FC09F012E5F3F4F848128
:104AE000958146815781DC0115965C934E9314970E
:104AF000A681B78113969C938E9312978091570D40
:104B00009091580D8217930721F4B093580DA093FC
:104B1000570D138612868091560D81508093560D45
:104B2000A6898091990D8A1710F4A093990D89E0B8
:104B3000A89FD0011124BD016B58724FDB01119663
:104B40008D919C91129795838483DC0114964D91ED
:104B50005C9115975783468314964D915C911597F8
:104B6000DA0113963C932E931297DC0115963C9331
:104B70002E93149773876287DB018C918F5F8C93E0
:104B8000A091690DB0916A0D968956968C919817EF
:104B900010F00E941F810F900FBE45E050E060E0D2
:104BA00070E08091740E9091750E0E94A55B81302B
:104BB000D1F48AE29BE09F938F9386E79EE09F93D8
:104BC0008F930E94672D8091740E9091750E0F90B7
:104BD0000F900F900F90009731F040E050E060E0B0
:104BE00070E00E940A6A8E01015E1F4F8FE0F82E6E
:104BF000CE0101960E94A31EF8012F2D11922A9535
:104C0000E9F78091700E9091710E009729F04AE0BB
:104C100050E0B8010E94A55B64E170E080E090E0A4
:104C20000E94351BE5CFCF93DF93CDB7DEB72F972B
:104C30000FB6F894DEBF0FBECDBF45E050E060E098
:104C400070E08091740E9091750E0E94A55B81308A
:104C5000D1F48BE69BE09F938F9386E79EE09F9332
:104C60008F930E94672D8091740E9091750E0F9016
:104C70000F900F900F90009731F040E050E060E00F
:104C800070E00E940A6A0FB6F8940F92E091690DE5
:104C9000F0916A0DCF01029662857385448155813A
:104CA00026813781DA0115963C932E93149726813D
:104CB0003781D90113965C934E931297DB011196BD
:104CC0004D915C9112974817590721F412963C9325
:104CD0002E93119713861286DB012C9121502C9371
:104CE000048915890115110529F126853785408923
:104CF0005189D90115965C934E9314974089518937
:104D0000DA0113963C932E931297D80111966D9168
:104D10007C9112979F01245F3F4F6217730721F424
:104D200012965C934E931197158A148AD8012C9190
:104D300021502C934091570D5091580D5583448329
:104D4000DA0114962D913C9115973783268314969A
:104D50002D913C911597D90113969C938E931297A0
:104D6000DA0115969C938E93149786E59DE09387C0
:104D700082878091560D8F5F8093560D0F900FBEE6
:104D80008091540E882319F10FB6F8940F92A091D8
:104D9000610DB091620D8C91811103C08FEF9FEF77
:104DA00010C0A091610DB091620D15960D90BC914F
:104DB000A02D16960D90BC91A02D12968D919C91D0
:104DC00013979093600D80935F0D0F900FBE8091AD
:104DD000690D90916A0DE817F90709F078C0809184
:104DE000540E882319F00E941F8171C08091550DC7
:104DF0009091560D981305C010926A0D1092690D8E
:104E000066C08091740D882321F081E08093680D45
:104E10005EC01092680DA091690DB0916A0DE0918D
:104E2000690DF0916A0D2D913C918789908D8217C3
:104E30009307A8F08091690D90916A0D8091690D9A
:104E400090916A0D279A2F9ABFEFE7EAF1E6B150E9
:104E5000E040F040E1F700C000001F9AF5CF8091DC
:104E6000990D69E0482F50E0649F9001659F300DD7
:104E70001124F901EB58F24F9081911102C0815039
:104E8000F1CFA181B28112960D90BC91A02DB28379
:104E9000A1832858324FA217B30731F412962D91EF
:104EA0003C9113973283218399E0949FF001959F61
:104EB000F00D1124EB58F24F0180F281E02D268194
:104EC000378130936A0D2093690D8093990D45E0E9
:104ED00050E060E070E08091740E9091750E0E9439
:104EE000A55B8130D1F48CE89BE09F938F9386E79C
:104EF0009EE09F938F930E94672D8091740E9091F6
:104F0000750E0F900F900F900F90009731F040E0CA
:104F100050E060E070E00E940A6A06E71EE092E559
:104F2000292E9CE0392ECE0101966C0121E1422E02
:104F30002CE0522E8091700E9091710E892B09F405
:104F40001CC188E89EE00E94DB180F97D1F788E823
:104F50009EE00E94DB187C018FE0A82EE114F10492
:104F600009F401C1BB24B3949FE0E916F10409F0F0
:104F7000B12C45E050E060E070E08091740E9091BB
:104F8000750E0E94A55B813009F041C01F92AF925F
:104F90001F92BF92FF92EF92AAEABBE0BF93AF933A
:104FA0001F930F930E94672D0FB6F894DEBF0FBEBC
:104FB000CDBFB11014C01F92AF92FF92EF921F921B
:104FC0001F92ADECBBE0BF93AF931F930F930E9472
:104FD0003A320FB6F894DEBF0FBECDBF0CC0A2EFC1
:104FE000BBE0BF93AF931F930F930E94912D0F903F
:104FF0000F900F900F908091740E9091750E009706
:1050000031F040E050E060E070E00E940A6ABB20AE
:1050100009F497C0C701FFE0EF16F10410F08FE02C
:1050200090E036015601A80EB91E46010E943C359B
:105030006093900E7093910E8093920E9093930EC6
:10504000E091880EF091890E0680F781E02D88E8C6
:105050009EE0199597FD0AC0D4018D934D01AA15C4
:10506000BB0521F78981823039F51EC00E943C358D
:105070002091900E3091910E4091920E5091930E8E
:10508000DC01CB01821B930BA40BB50B20918C0E82
:1050900030918D0E40918E0E50918F0E8217930796
:1050A000A407B50768F2DECF8A818F3F29F4BB24BD
:1050B000B3948B818C3009F0B12C45E050E060E076
:1050C00070E08091740E9091750E0E94A55B813006
:1050D000F1F5812C912C8E149F04B4F4F30181918D
:1050E0003F011F928F939F928F925F924F921F93D7
:1050F0000F930E94672DFFEF8F1A9F0A0FB6F89447
:10510000DEBF0FBECDBFE7CFDF92CF928FE29CE034
:105110009F938F931F930F930E94672D8091740E1E
:105120009091750E0F900F900F900F900F900F9021
:10513000009769F040E050E060E070E00E940A6A89
:1051400006C088E89EE00E94DB187C0107CFBB20E8
:1051500051F04AE050E0B6018091700E9091710ECE
:105160000E940A6A0AC03F922F921F930F930E94D7
:105170003A320F900F900F900F9064E170E080E052
:1051800090E00E94351BD6CE2F923F924F925F92B5
:105190006F927F928F929F92AF92BF92CF92DF9247
:1051A000EF92FF920F931F93CF93DF9300D01F9244
:1051B000CDB7DEB73C017C836B832A017901F9010D
:1051C000A080B180FB01F181F983F9011182108285
:1051D000FB01828181FD02C060E101C060E288EED6
:1051E0000E94C715AA829201EB81FC81408160E098
:1051F000C3010E944835382EF6E08F1316C088EFA1
:105200000E94E8158295817091E08927EB81FC81ED
:10521000928180FB91F9928391FD02C060E101C00F
:1052200060E288EE0E94C715DECF81115AC088EC7B
:105230000E94E81582FF53C080E30E94E815282EE3
:1052400090E0A816B90608F42A80F70180819181C0
:10525000822C912C9501281B390BC90137FF02C004
:1052600080E090E06401881599050CF46C0180E5FC
:1052700091E00E940B372C9888E00E940437A60129
:1052800060E070E0C8010E942B8AC114D10421F0B3
:10529000B601C8010E94171B0C0D1D1D2C9A0E94FF
:1052A000033764E088EC0E94C715F7018081918183
:1052B000880E991E91828082F9812F1620F08A141F
:1052C0009B0408F490CF88EF0E94E81582958170C6
:1052D000EB81FC81928180FB91F9928302C080EF87
:1052E000382E832D0F900F900F900F90DF91CF915C
:1052F0001F910F91FF90EF90DF90CF90BF90AF90F4
:105300009F908F907F906F905F904F903F902F90E5
:1053100008952F923F924F925F926F927F928F9259
:105320009F92AF92BF92CF92DF92EF92FF920F9334
:105330001F93CF93DF93CDB7DEB767970FB6F8947F
:10534000DEBF0FBECDBF3C01542E422E302E2E2C80
:10535000EDA4FEA4188A1F861E861D868E01035F9B
:105360001F4F9E01215F3F4F40E00E94FD208111B1
:1053700057C159824A823B822C82DE82CD82B88616
:10538000AF82AE014F5F5F4F68E080E20E94A415DC
:105390002D853E8540E060E1C3010E944835182F0D
:1053A0008111FAC0452C441C4424441CE114F1042E
:1053B00009F4E3C0CF84D888442009F455C0D6014D
:1053C00012968C911297826012968C9365015524E7
:1053D0005394C114D10409F443C09C868B864D8537
:1053E0005E856F85788987019E01255F3F4FC301E8
:1053F0000E94C428182F863079F42F84388888EFCB
:105400000E94E81585FB882780F98525F1019281A6
:1054100080FB91F99283DDCF8111BEC02FA538A901
:1054200021153105A1F0D901ED91FC911197019061
:10543000F081E02DC5018C199D099A8789876B85BC
:105440007C859E01275F3F4FA701CD0119958B8574
:105450009C85C81AD90A8815990508F0BACF8DC05D
:10546000112309F48FC098C0F60182818160828384
:105470002D853E853A8B298B21808FEF820D8034DC
:1054800008F088C00E943C359B01AC0128573C4E77
:105490004F4F5F4F2B8B3C8B4D8B5E8BD601129603
:1054A0008C9180FD02C060E401C060E888EE0E943B
:1054B000C715312C8114910409F44DC054012814EE
:1054C000390408F45101AF8AA7016A2D80E10E94D6
:1054D000A4156A2D88E30E94C715F60160816062F9
:1054E00080EF0E94C71588EC0E94E81587FFFBCF6C
:1054F00060E888EC0E94C71588EF0E94E815182F15
:105500001F70412C512C00E0112371F00E943C359A
:10551000DC01CB012B893C894D895E89821B930B71
:10552000A40BB50BB7FD05C08A189B08EA0CFB1C41
:10553000C1CF163099F11E3009F46AC0143059F405
:10554000FFEF4F1A5F0A29893A8921153105F1F1D8
:1055500042165306D9F588EF0E94E81585FB882787
:1055600080F9D60112969C91129780FB90F91296C1
:105570009C93112309F450C00FC02D853E85411026
:1055800003C04CC02D853E8560EA40E0C3010E9407
:10559000483546C08AED44C0812F42C088EF0E9442
:1055A000E81585FB882780F931E08327D60112961C
:1055B0009C91129780FB90F912969C9390FD02C0EB
:1055C00060E401C060E888EE0E94C71560E088E3EF
:1055D0000E94C715F701608180E10E94C7156F899D
:1055E00088E30E94C715D6016C91606280EF0E942B
:1055F000C71588EC0E94E81587FFFBCF60E888ECB0
:105600000E94C71588EF0E94E815182F1F707CCFE5
:105610000F5F0330D9F69FCF2D853E8560E8B5CF6B
:1056200067960FB6F894DEBF0FBECDBFDF91CF9166
:105630001F910F91FF90EF90DF90CF90BF90AF90B0
:105640009F908F907F906F905F904F903F902F90A2
:1056500008958F929F92AF92BF92CF92DF92EF9276
:105660000F931F921F923F932F934A015A01C12C0F
:10567000D12CEE24E39400E026E040E80E94892942
:105680000F900F900F900F900F91EF90DF90CF90B1
:10569000BF90AF909F908F9008958F929F92AF92FE
:1056A000BF92CF92DF92EF920F931F931F921F92A0
:1056B0001F930F934A015A01C12CD12C32E0E32EE3
:1056C000022F26E040E80E9489290F900F900F904A
:1056D0000F901F910F91EF90DF90CF90BF90AF9000
:1056E0009F908F9008958F929F92AF92BF92CF928A
:1056F000DF92EF920F93CF931F921F921F921F92F0
:10570000812C912CA12CB12CC12CD12CE12C062F59
:1057100025E040E060E00E948929C82F6CE271E03A
:1057200080E090E00E9402350F900F900F900F9054
:105730008C2FCF910F91EF90DF90CF90BF90AF90D3
:105740009F908F900895AF92BF92CF92DF92EF9289
:10575000FF920F931F93CF93DF9300D01F92CDB78B
:10576000DEB77C01690158011C821B821A821982F2
:105770008E010F5F1F4F9E012D5F3F4F0E94FD2046
:10578000811109C049815A816B817C818501960113
:10579000C7010E94C4280F900F900F900F90DF91C7
:1057A000CF911F910F91FF90EF90DF90CF90BF901E
:1057B000AF9008958F929F92AF92BF92CF92DF9257
:1057C000EF920F93C42ED12C1F921F921F921F9203
:1057D000812C912CA12CB12CE12C062F21E043E24D
:1057E000FC016285828193810E9489290F900F902C
:1057F0000F900F900F91EF90DF90CF90BF90AF90F0
:105800009F908F9008958F929F92AF92BF92CF9268
:10581000DF92EF920F93C62ED12C1F921F925F93AF
:105820004F9324E0822E912C34E0A32EB12CE12C56
:1058300000E020E043EAFC016285828193810E94BE
:1058400089290F900F900F900F900F91EF90DF909C
:10585000CF90BF90AF909F908F9008958F929F921E
:10586000AF92BF92CF92DF92EF920F93C42ED12CC2
:105870001F921F921F921F92812C912CA12CB12C50
:10588000E12C062F23E043E2FC01628582819381B3
:105890000E9489290F900F900F900F900F91EF9019
:1058A000DF90CF90BF90AF909F908F900895E09140
:1058B000E50FF091E60F0190F081E02D682F85EE65
:1058C0009FE019948F929F92AF92BF920F931F9374
:1058D000CF93DF93CDB7DEB7A1970FB6F894DEBFB5
:1058E0000FBECDBF19A2423008F44AE08E010F5D11
:1058F0001F4F842E912CA12CB12CA50194010E9444
:10590000488EE62FB901CA0101501109EA3014F49A
:10591000E05D01C0E95CD801EC93232B242B252BFF
:1059200061F7B80185EE9FE00E94441AA1960FB678
:10593000F894DEBF0FBECDBFDF91CF911F910F91C5
:10594000BF90AF909F908F900895BC0185EE9FE02F
:105950000C94441AAF92BF92CF92DF92EF92FF92D3
:105960000F931F93CF93DF938C01EB01F80180819C
:10597000882309F49EC0853209F092C058018FEF48
:10598000A81AB80AF8018181882309F492C08532E7
:1059900019F40E94572C89C0833731F48E010E5FB1
:1059A0001F4F8881998178C0843611F0893651F46F
:1059B0008E010E5F1F4FC880D9800D2C000CEE08A1
:1059C000FF0832C0883731F0883591F481E89CE0D7
:1059D0000E94A52C8E010E5F1F4F68817981072ED2
:1059E000000C880B990B40E10E94622CE8015DC01D
:1059F000823631F0823479F484E89CE00E94A52C50
:105A00008E010E5F1F4F68817981072E000C880B75
:105A1000990B42E0E9CF8C36C9F48E010C5F1F4F21
:105A2000C880D980EA80FB80F7FC04C04AE0C70147
:105A3000B601DACF8DE20E94572C66277727CB017B
:105A40006C197D098E099F094AE0CECF833639F45F
:105A50008E010E5F1F4F88810E94572CC7CF84375D
:105A600069F48E010E5F1F4F88819981019719F4A7
:105A700083E597E011C087E89CE00EC0843579F497
:105A80008E010E5F1F4F88819981019719F489E873
:105A90009CE002C08EE89CE00E94A52CA7CF850167
:105AA000F80180810E94572C580185010F5F1F4F1C
:105AB0005DCFDF91CF911F910F91FF90EF90DF901D
:105AC000CF90BF90AF9008954AE00C94622CCF9392
:105AD000DF93CDB7DEB78091760E9091770E059764
