:100000000C94AF070C94E0070C94E0070C94E00705
:100010000C94E0070C94E0070C94E0070C94E007C4
:100020000C94E0070C94E0070C94E0070C94E007B4
:100030000C9455850C94E0070C94E0070C94E007B1
:100040000C94E0070C9417340C94E0070C94E00730
:100050000C94E0070C94E0070C94E0070C94B03487
:100060000C94E0070C9450240C9426240C94E00784
:100070000C94E0070C94E0070C94E0070C94E00764
:100080000C94E9330C94E0070C94E0070C94E0071F
:100090000C94F1230C94C7230C94E0070C9433299F
:1000A0000C94E0070C94E0070C94BB330C94E0072D
:1000B0000C94E0070C94E0070C94E0070C943817BC
:1000C0000C94E0070C94E0070C94E0070C94E00714
:1000D0000C94E0070C94E0070C94E0070C94E00704
:1000E0000C94E007FD3FFD3FFD3F32407742D9428F
:1000F000FD3FFD3F32407742A632A93298329C3212
:10010000A032E032AD32B132B732BB32BF32C5328B
:10011000C932CD32E032D332D732DB32084AD73B54
:100120003BCE016E84BCBFFDC12F3D6C74319ABDC6
:1001300056833DDA3D00C77F11BED9E4BB4C3E91EA
:100140006BAAAABE000000803F000C9423230C94ED
:100150000D770C94C9320C948C2A0C9457130C9480
:1001600071280C94A6320C9455280C94FD210C9403
:100170000D100C9432400C94C5320C9428220C942F
:10018000B7320C9446120C94AC010C9406280C94D3
:1001900046280C9477420C9414100C94BF320C94A3
:1001A000B90F0C94BB320C9466170C94D9420C9482
:1001B000A00F0C94652A0C94DB320C94CC220C9486
:1001C000CD320C9413100C94E20F0C94D7320C9493
:1001D00006110C945C2D0C94C2790C9469280C9433
:1001E0002F350C9492100C9404280C9485220C94B6
:1001F00008280C949C320C94E0320C94FD3F0C9433
:10020000D3320C946A100C94B1320C9402280C94E2
:1002100010100C94A1280C9449220C94EE100C940C
:10022000872A0C945D230C9460760C94B92C0C9462
:1002300045280C94A9320C94A0320C945D2C0C949B
:10024000371C0C94AD320C943B220C940F280C9468
:10025000983200002200250028002B002E003100DB
:10026000340002010000050108010B01000021001B
:10027000240027002A002D00300033000101000077
:10028000040107010A010505050507050808080816
:10029000020202020A0A080804040404010101011E
:1002A0000101010103030303030303030407070719
:1002B0000C0C0C0C0C0C0C0C0202020206060606BE
:1002C000060606060B0B0B0B0B0B0B0B010210208B
:1002D000200808102040102040800201020108047C
:1002E0000201010204081020408080402010080410
:1002F0000201800402018040201008040201080469
:1003000002010102040810204080010204081020AC
:10031000408000000A0B02090C0D0E0807030401BF
:1003200000000000000000000000000000000000CD
:10033000000000000000000000000000000012119A
:10034000100000000000000000000000000000009D
:10035000000000000000000089E0482EAA24AA94B2
:10036000BA2CEE24EA94FE2CCC24CA94DC2C55241E
:100370005394992493948091860E882309F4E3C5BD
:100380008091830E8F5F8093830ED0919D130FB663
:10039000F8940F928091830E81508093830E809108
:1003A000830E8111DEC18091410E882309F4D9C1E9
:1003B00020915A0E30915B0EE0E0F0E08091550EF6
:1003C000882309F48FC0D9011696ED91FC911797F7
:1003D000048915894685578580899189DA011596A2
:1003E0009C938E93149780899189DC0113965C937A
:1003F0004E931297AF01445F5F4FD80111966D91F4
:100400007C9112976417750721F412969C938E9332
:100410001197158A148AD8018C9181508C93AF0161
:100420004E5F5F4F02851385648175818681978158
:10043000DB0115969C938E93149786819781DC013E
:1004400013967C936E931297D80111966D917C91BF
:1004500012976417750721F412969C938E93119747
:1004600013861286D8018C9181508C93A689809135
:10047000820E8A1710F4A093820E4A9ED001112496
:100480008D01025A114FD80111968D919C911297AE
:1004900095838483DC0114966D917C911597778305
:1004A000668314966D917C911597DB0113965C938E
:1004B0004E931297DC0115965C934E931497138715
:1004C0000287D8018C918F5F8C93A091840EB0919C
:1004D000850E968956968C91981708F46FCF909256
:1004E000540E6CCFEF2BE1F0E0914D0EF0914E0EDB
:1004F0008081811105C0D0924C0EC0924B0E10C06D
:10050000E0914D0EF0914E0E0580F681E02D0680B3
:10051000F781E02D8281938190934C0E80934B0E56
:100520003091400E332309F417C18091830E81115D
:1005300001C18091510E9091520E01969093520EEE
:100540008093510E009789F540914D0E50914E0EBB
:1005500060914F0E7091500E70934E0E60934D0E41
:100560005093500E40934F0E2091530E2F5F2093C7
:10057000530EE0914D0EF0914E0E2081211105C0D9
:10058000D0924C0EC0924B0E10C0E0914D0EF091E7
:100590004E0E0580F681E02D0680F781E02D428128
:1005A000538150934C0E40934B0E40914B0E509103
:1005B0004C0E20E08417950708F4ADC0E0914D0E75
:1005C000F0914E0E4081411105C0D0924C0EC09268
:1005D0004B0EA1C0E0914D0EF0914E0E0580F681BC
:1005E000E02D0680F781E02D428153818417950725
:1005F00028F450934C0E40934B0E8DC0BF016E5F9C
:100600007F4F628473840481158146815781D801AC
:1006100015965C934E93149746815781DA01139691
:100620001C930E931297D30111960D911C91129762
:100630000617170721F412965C934E9311971386B1
:100640001286D3014C9141504C9324883588211453
:10065000310429F14685578500891189DA011596FB
:100660001C930E93149700891189D80113965C93FB
:100670004E931297D10111966D907C901297AF0115
:10068000445F5F4F6416750621F412961C930E9317
:100690001197158A148AD1014C9141504C93A68927
:1006A0004091820E4A1710F4A093820E4A9ED00108
:1006B0001124AD01425A514F3A01DA0111964D9180
:1006C0005C91129755834483DA0114960D911C9125
:1006D00015971783068314960D911C911597D801D1
:1006E00013967C936E931297DA0115967C936E9312
:1006F000149773866286D3014C914F5F4C93A091FF
:10070000840EB091850E568956964C91541708F474
:1007100055CF21E053CFE091840EF091850EE6890C
:100720004E9EF0011124E25AF14F8081823040F058
:1007300021E006C08091400E8F5F8093400E20E044
:100740008091540E811101C021119092540E3150AC
:1007500009F0EBCE1092400E8091540E81110E9450
:1007600058850F900FBEDD2309F405CE0FB6F8941F
:100770000F92E091A213F091A31306811781E80173
:10078000EA85FB858C819D812E813F81DC01159658
:100790003C932E9314970E80DF81C02D9B838A8318
:1007A000C8010296218132812817390711F4D283BA
:1007B000C183E8011B861A868081815080838091E5
:1007C000410E81508093410E8091860E815080931E
:1007D000860E0F900FBE2F89388D2115310509F433
:1007E000E4C19091830E9F5F9093830EC9010E9494
:1007F0001A8B0FB6F8940F928091830E81508093DC
:10080000830E8091830E8111CEC18091410E882389
:1008100009F4C9C160915A0E70915B0EE0E0F0E0FE
:100820008091550E882309F47FC0DB011696ED9167
:10083000FC911797C489D589268537858089918948
:10084000D90115969C938E93149780899189DC0128
:1008500013963C932E9312979F01245F3F4F49813B
:100860005A814217530711F49A838983158A148A8F
:100870008881815088839F012E5F3F4FC285D38539
:100880004481558186819781DA0115969C938E93D8
:10089000149786819781DC0113965C934E9312978F
:1008A00049815A814217530711F49A838983138629
:1008B0001286888181508883A6898091820E8A174A
:1008C00010F4A093820E4A9ED0011124ED01C25A69
:1008D000D14F89819A8195838483DC0114964D914F
:1008E0005C9115975783468314964D915C911597AB
:1008F000DA0113963C932E931297DC0115963C93E4
:100900002E931497D387C28788818F5F8883A091A5
:10091000840EB091850E968956968C91981708F49E
:100920007FCF9092540E7CCFEF2BE1F0E0914D0EF3
:10093000F0914E0E8081811105C0F0924C0EE09234
:100940004B0E10C0E0914D0EF0914E0E0580F681D9
:10095000E02D0680F781E02D8281938190934C0EEB
:1009600080934B0E8090400E882009F417C180912F
:10097000830E811101C18091510E9091520E01960A
:100980009093520E8093510E009789F520914D0E51
:1009900030914E0E40914F0E5091500E50934E0E8E
:1009A00040934D0E3093500E20934F0E2091530ED6
:1009B0002F5F2093530EE0914D0EF0914E0E20814B
:1009C000211105C0F0924C0EE0924B0E10C0E09148
:1009D0004D0EF0914E0E0580F681E02D0680F781D8
:1009E000E02D2281338130934C0E20934B0E2091C9
:1009F0004B0E30914C0ED0E08217930708F4ADC037
:100A0000E0914D0EF0914E0E2081211105C0F09223
:100A10004C0EE0924B0EA1C0E0914D0EF0914E0EA7
:100A20000580F681E02D0680F781E02D228133815B
:100A30008217930728F430934C0E20934B0E8DC0F1
:100A4000AF014E5F5F4F628473842481358166817C
:100A50007781D90115967C936E931497668177817F
:100A6000DB0113963C932E931297D30111962D918F
:100A70003C9112972417350721F412967C936E93BC
:100A8000119713861286D3012C9121502C93248820
:100A900035882114310429F12685378560897189CB
:100AA000D90115967C936E93149760897189DB0147
:100AB00013963C932E931297D10111966D907C90D2
:100AC00012979F01245F3F4F6216730621F412961E
:100AD0007C936E931197158A148AD1012C91215021
:100AE0002C93A6892091820E2A1710F4A093820ECF
:100AF0004A9ED00111249D01225A314F3901D9015A
:100B000011962D913C91129735832483D901149627
:100B10006D917C9115977783668314966D917C9186
:100B20001597DB0113965C934E931297D901159696
:100B30005C934E93149773866286D3012C912F5F3A
:100B40002C93A091840EB091850E368956962C91E7
:100B5000321708F455CFD1E053CFE091840EF091D5
:100B6000850EE6894E9EF0011124E25AF14F8081F4
:100B7000823040F0D1E006C08091400E8F5F8093BC
:100B8000400ED0E08091540E811101C0D11190929D
:100B9000540E8A948110EBCE1092400E8091540E28
:100BA00081110E9458850F900FBE0115110509F49F
:100BB000E2CB8091830E8F5F8093830EC8010E94E9
:100BC0001A8B0FB6F8940F928091830E8150809308
:100BD000830E8091830E8111B3C18091410E8823D1
:100BE00009F4AEC120915A0E30915B0EE0E0F0E0C6
:100BF0008091550E882309F47DC0E901EE81FF81C3
:100C0000C489D5894685578580899189DA011596E9
:100C10009C938E93149780899189DC0113965C9341
:100C20004E931297AF01445F5F4F69817A816417D9
:100C3000750711F49A838983158A148A88818150F3
:100C40008883AF014E5F5F4FC285D3856481758114
:100C500086819781DB0115969C938E9314978681EC
:100C60009781DC0113967C936E93129769817A8148
:100C70006417750711F49A83898313861286888115
:100C800081508883A6898091820E8A1710F4A093E0
:100C9000820E4A9ED0011124ED01C25AD14F8981A2
:100CA0009A8195838483DC0114966D917C911597CC
:100CB0007783668314966D917C911597DB0113966B
:100CC0005C934E931297DC0115965C934E931497A8
:100CD000D387C28788818F5F8883A091840EB0916B
:100CE000850E968956968C91981708F481CF50926C
:100CF000540E7ECFEF2BE1F0E0914D0EF0914E0EB1
:100D00008081811105C0B0924C0EA0924B0E10C094
:100D1000E0914D0EF0914E0E0580F681E02D06809B
:100D2000F781E02D8281938190934C0E80934B0E3E
:100D30003091400E332309F4FEC08091830E81115F
:100D4000E8C08091510E9091520E01969093520EF0
:100D50008093510E009789F540914D0E50914E0EA3
:100D600060914F0E7091500E70934E0E60934D0E29
:100D70005093500E40934F0E2091530E2F5F2093AF
:100D8000530EE0914D0EF0914E0E2081211105C0C1
:100D9000B0924C0EA0924B0E10C0E0914D0EF0910F
:100DA0004E0E0580F681E02D0680F781E02D428110
:100DB000538150934C0E40934B0E40914B0E5091EB
:100DC0004C0E20E08417950708F494C0E0914D0E76
:100DD000F0914E0E4081411105C0B0924C0EA09290
:100DE0004B0E88C0E0914D0EF0914E0E0580F681BD
:100DF000E02D0680F781E02D42815381841795070D
:100E000028F450934C0E40934B0E74C0BF016E5F9C
:100E10007F4FC285D3850481158146815781D801D2
:100E200015965C934E93149746815781DA01139679
:100E30001C930E93129709811A810617170711F454
:100E40005A83498313861286488141504883A48976
:100E5000B5891097F9F04685578500891189EA010F
:100E60001D830C8300891189E8015B834A831196F5
:100E70006D907C901297AF01445F5F4F64167506CA
:100E800021F412961C930E931197158A148A4C9193
:100E900041504C93A6894091820E4A1710F4A093BA
:100EA000820E4A9ED0011124A25AB14F11964D9143
:100EB0005C91129755834483EA010C811D8117834D
:100EC00006830C811D81E8017B836A83EA017D83AF
:100ED0006C83B387A2874C914F5F4C93A091840E93
:100EE000B091850E568956964C91541708F46ECFE2
:100EF00021E06CCFE091840EF091850EE6894E9E44
:100F0000F0011124E25AF14F8081823040F021E05B
:100F100006C08091400E8F5F8093400E20E080914C
:100F2000540E811101C021119092540E315009F0DC
:100F300004CF1092400E8091540E81110E9458856A
:100F40000F900FBE18CA80915E0E823010F00E9482
:100F500058850E94A9270E94EE2209CAC27911244D
:100F60001FBECFEFD1E2DEBFCDBF00E00CBF1EE061
:100F7000A0E0B2E0E0E3F0E201E00BBF02C00790C6
:100F80000D92AE30B107D9F724E1AEE0BEE001C06A
:100F90001D92AC37B207E1F717E0CFEAD7E000E0E7
:100FA00006C021970109802FFE010E94E188CE3AF8
:100FB000D10780E00807A9F70E94E64A0C94169032
:100FC0000C9400002F923F924F925F926F927F920B
:100FD0008F929F92AF92BF92CF92DF92EF92FF9249
:100FE0000F931F93CF93DF93CDB7DEB7AB970FB6B9
:100FF000F894DEBF0FBECDBF64E670E080E090E005
:101000000E946A340E94A4346FA378A789A79AA784
:1010100001E11FE084E090E09093120F8093110FA4
:1010200080E090E1AEE0B0E08093130F9093140F56
:10103000A093150FB093160F40E050E16EE070E002
:1010400080E890E10E94AC2080ED92E09F938F9326
:101050001F930F930E9405358BEE92E09F938F9321
:101060001F930F930E94053586E093E09F938F9323
:101070001F930F930E94053581E293E09F938F9316
:101080001F930F930E94053582E493E09F938F9303
:101090001F930F930E9432218AE793E09F938F93CF
:1010A0001F930F930E945D2184EB93E09F938F9396
:1010B0001F930F930E9425208CEE93E09F938F93B4
:1010C0001F930F930E94FB1F0FB6F894DEBF0FBE55
:1010D000CDBF87E294E09F938F938AE394E09F9340
:1010E0008F931F930F930E9405351F9284E68F9371
:1010F00086E694E09F938F931F930F930E9405358C
:101100008EE894E09F938F931F930F930E94053571
:101110000FB6F894DEBF0FBECDBF80916E12803344
:1011200008F042C089E00E94132180916E12E82FDE
:10113000F0E09F01220F331FE20FF31FE352FE4E38
:101140009081907C9960908310926F12109270122F
:101150006CE00E94C1885CE0859FB001112440E0F2
:1011600050E09A01260F371FF901EE0FFF1F2E0FD7
:101170003F1FF901E352FE4E908196FD08C04F5F7C
:101180005F4F4C30510569F790E00E94F616E091F0
:101190006E12F0E0CF01880F991FE80FF91FE3529C
:1011A000FE4E80818064808383EB94E09F938F93D5
:1011B00001E11FE01F930F930E94053582ED94E03B
:1011C0009F938F931F930F930E945D218AEF94E06A
:1011D0009F938F931F930F930E94053584E30E9482
:1011E000132161E084E30E9477321092221410925E
:1011F00021141092CE0E1092F00E1092CC0E11E02F
:101200001093CB0E1092A60E61E084E10E9477321B
:1012100061E085E10E9477328091B9008E7F8093F2
:10122000B9008091B9008D7F8093B90088E48093E4
:10123000B80085E48093BC0041E050E0BE01665EEA
:101240007F4F85E790E00E94CA2441E050E0BE0154
:10125000665E7F4F8CE690E00E94CA24198E109340
:10126000CD0E88E68093EF0E1092CE0E1092F00E07
:101270006BE687E19FE00E94A1280FB6F894DEBFDD
:101280000FBECDBF019771F441E050E0BE01675E33
:101290007F4F87E19FE00E947128019719F481E058
:1012A0000E944F208E010F5F1F4FC8010E946025D2
:1012B0002AE0222E312C1BA21CA21DA21EA21F8ED0
:1012C00018A219A21AA21B8E1C8E1D8E1E8EC12C56
:1012D000D12C760146015701260137010BA7012FBA
:1012E0008BA5902F0E94602569817A81072E000CC2
:1012F000880B990B0E94BA8E9B01AC01C301B2010D
:101300000E94EA882B013C016B817C81072E000C36
:10131000880B990B0E94BA8E9B01AC01C501B401E8
:101320000E94EA884B015C016D817E81072E000CD2
:10133000880B990B0E94BA8E9B01AC01C701B601C4
:101340000E94EA886B017C0169857A85072E000C72
:10135000880B990B0E94BA8E9B01AC016B8D7C8D22
:101360008D8D9E8D0E94EA886B8F7C8F8D8F9E8FD6
:101370006B857C85072E000C880B990B0E94BA8E1A
:101380009B01AC016F8D78A189A19AA10E94EA8886
:101390006F8F78A389A39AA36D857E85072E000C95
:1013A000880B990B0E94BA8E9B01AC016BA17CA1AA
:1013B0008DA19EA10E94EA886BA37CA38DA39EA30E
:1013C00064E670E080E090E00E946A3471E0271AE1
:1013D000310809F085CF20E030E040E251E4C3015C
:1013E000B2010E94858960931E0E70931F0E809338
:1013F000200E9093210E20E030E040E251E4C50140
:10140000B4010E94858960931A0E70931B0E80931D
:101410001C0E90931D0E20E030E040E251E4C70125
:10142000B6010E9485896093160E7093170E809303
:10143000180E9093190E20E030E040E251E46B8DDD
:101440007C8D8D8D9E8D0E9485896093F4137093A1
:10145000F5138093F6139093F71320E030E040E209
:1014600051E46F8D78A189A19AA10E94858960932A
:10147000F0137093F1138093F2139093F31320E021
:1014800030E040E251E46BA17CA18DA19EA10E94BD
:1014900085896093EC137093ED138093EE13909312
:1014A000EF130E94A4346093E8137093E9138093C0
:1014B000EA139093EB131092E4131092E513109239
:1014C000E6131092E7131092E0131092E1131092BA
:1014D000E2131092E3131092DC131092DD131092BA
:1014E000DE131092DF131092D8131092D9131092BA
:1014F000DA131092DB131092D4131092D5131092BA
:10150000D6131092D7131092D0131092D1131092B9
:10151000D2131092D3138FE195E09F938F9301E143
:101520001FE01F930F930E9405358EE395E09F9374
:101530008F931F930F930E9405351092230E1092E4
:10154000220E0FB6F894DEBF0FBECDBF9CE0D92EA1
:101550000091220E1091230E043011050CF06CC086
:101560007801EE0CFF1CF701EE5EFD4FC080C70155
:10157000800F911FDC01AF58BD4E5D018C9180330F
:1015800008F04AC08C2D0E941321F5018081E82FBC
:10159000F0E09F01220F331FE20FF31FE352FE4ED4
:1015A0009C2D9F732081207CC22EC92AC082D50128
:1015B00011961C92119712961C926D2D0E94C18853
:1015C000BCE08B9FA001112420E030E0B901640F42
:1015D000751FFB01EE0FFF1FE60FF71FE352FE4ED4
:1015E000908196FD08C02F5F3F4F2C30310571F779
:1015F00090E00E94F616F701E00FF11FEF58FD4E44
:10160000E081F0E0CF01880F991FE80FF91FE35246
:10161000FE4E808180648083C701800F911F6AE540
:1016200070E08F589D4E0E94A4160F5F1F4F1093BD
:10163000230E0093220E8CCF86E695E09F938F9326
:1016400081E19FE09F938F930E94053564E670E0EF
:1016500080E090E00E946A340F900F900F900F90FE
:1016600080918B0E90918C0E892B09F0D8C38091BC
:10167000830E8F5F8093830E8FE190E00E94858AB6
:101680008C010FB6F8940F928091830E8150809355
:10169000830E8091830E8111E8C18091410E8823D1
:1016A00009F4E3C140915A0E50915B0EE0E0F0E086
:1016B00029E0F22EEE24E3948091550E882309F45C
:1016C00090C0DA011696ED91FC911797C488D588E1
:1016D0002685378580899189D90115969C938E93AB
:1016E000149780899189DC0113963C932E9312976D
:1016F0009F01245F3F4FD60111966D917C91129707
:101700006217730721F412969C938E931197158A92
:10171000148AD6018C9181508C939F012E5F3F4F8C
:10172000C284D3846481758186819781DB0115969B
:101730009C938E93149786819781DC0113967C93FA
:101740006E931297D60111966D917C911297621744
:10175000730721F412969C938E9311971386128629
:10176000D6018C9181508C93A6898091820E8A1724
:1017700010F4A093820EFA9ED0011124BD01625A8A
:10178000714F6B01DB0111968D919C91129795839E
:101790008483DC0114966D917C9115977783668321
:1017A00014966D917C911597DB0113963C932E93C3
:1017B0001297DC0115963C932E931497D386C2861C
:1017C000D6018C918F5F8C93A091840EB091850E81
:1017D000968956968C91981708F46ECFE092540E25
:1017E0006BCFEF2BD1F0E0914D0EF0914E0E80813A
:1017F000811103C08FEF9FEF0CC0E0914D0EF0916F
:101800004E0E0580F681E02D0680F781E02D828165
:10181000938190934C0E80934B0E3091400E332366
:1018200009F41EC189E0982E88248394EE24EA945A
:10183000FE2C8091830E811101C18091510E9091F7
:10184000520E01969093520E8093510E009789F597
:1018500040914D0E50914E0E60914F0E7091500E72
:1018600070934E0E60934D0E5093500E40934F0E5A
:101870002091530E2F5F2093530EE0914D0EF09167
:101880004E0E2081211105C0F0924C0EE0924B0EBD
:1018900010C0E0914D0EF0914E0E0580F681E02DC6
:1018A0000680F781E02D4281538150934C0E409386
:1018B0004B0E40914B0E50914C0E20E08417950733
:1018C00008F4ADC0E0914D0EF0914E0E40814111F3
:1018D00005C0F0924C0EE0924B0EA1C0E0914D0E6F
:1018E000F0914E0E0580F681E02D0680F781E02D07
:1018F000428153818417950728F450934C0E4093EE
:101900004B0E8DC0AF014E5F5F4FA284B384C48085
:10191000D58066817781D60115967C936E93149756
:1019200066817781DB011396DC92CE921297D50106
:101930001196CD90DC901297C416D50621F412961C
:101940007C936E93119713861286D5016C9161502A
:101950006C93648875886114710429F166857785B4
:10196000C088D188DB011596DC92CE921497C0888E
:10197000D188D60113967C936E931297D30111965A
:10198000AD90BC901297BF01645F7F4FA616B7065B
:1019900021F41296DC92CE921197158A148AD30103
:1019A0006C9161506C93A6896091820E6A1710F455
:1019B000A093820E9A9ED0011124BD01625A714FEC
:1019C0005B01DB0111966D917C91129775836483A5
:1019D000DB011496CD90DC901597D782C6821496C1
:1019E000CD90DC901597D60113965C934E93129789
:1019F000DB0115965C934E931497B386A286D501AE
:101A00004C914F5F4C93A091840EB091850E5689F6
:101A100056964C91541708F455CF21E053CFE091DE
:101A2000840EF091850EE6899E9EF0011124E25A03
:101A3000F14F8081823040F021E006C08091400E5D
:101A40008F5F8093400E20E08091540E811101C081
:101A500021118092540E315009F0EBCE1092400EBD
:101A60008091540E81110E9458850F900FBE011570
:101A7000110569F4279A2F9ABFEFE0E7F2E0B15021
:101A8000E040F040E1F700C000001F9AF5CFD80118
:101A900011961C930E9381E05B968C935B975C96FA
:101AA0001C925C970FB6F8940F92F8012081318157
:101AB000938D448D949FC0011124B901680F791F43
:101AC00073836283128E35832483841B9109820F72
:101AD000931F978386838FEF858F868FC8010B9620
:101AE000928781872FEF3FEF3487238796878587FB
:101AF000908B878710860996938B828B358B248BEE
:101B0000978B868B918F808F118A0F900FBE1396C3
:101B10001C921E92129711961C921E9216961C925F
:101B20000FB6F8940F92928D838D981708F06AC1C2
:101B3000F28C448D41117EC080819181892B09F006
:101B40009DC00280F381E02D309711F480E06CC0DD
:101B500082A1815082A3268991A12917B9F381110D
:101B6000F5CF9F012E5F3F4F62857385448155817C
:101B700086819781DA0115969C938E9314978681BE
:101B80009781DC0113965C934E931297DB011196BB
:101B90004D915C9112974217530721F412969C9332
:101BA0008E93119713861286DB018C9181508C9352
:101BB00081A1868B682F70E044E050E0461B570BF4
:101BC000558744879091820E981710F48093820E67
:101BD00089E0869FD001879FB00D1124BD01625A14
:101BE000714FDB0111968D919C911297958384839F
:101BF000DC0114964D915C9115975783468314969A
:101C00004D915C911597DA0113963C932E931297A0
:101C1000DC0115963C932E93149773876287FB0122
:101C200080818F5F808381E0D80113961C921E9281
:101C3000129725C050E060E070E0F8018481958142
:101C40000E94B78BD8015C962C915C9714968D916D
:101C50009C911597820F911D15969C938E931497C6
:101C600012962D913C9113978217930738F08D911E
:101C70009C91119715969C938E93149780E0F39402
:101C8000F801F28E9189992309F4B9C00688F78981
:101C9000E02D0680F781E02DCF010C9664897589CF
:101CA0004685578520893189DA0115963C932E9314
:101CB000149720893189D90113965C934E9312971A
:101CC000DB0111964D915C9112974817590721F449
:101CD00012963C932E931197158A148ADB012C914E
:101CE00021502C932091830E211158C09F012E5F0B
:101CF0003F4F628573854481558186819781DA01E2
:101D000015969C938E93149786819781DC01139688
:101D10005C934E931297DB0111964D915C91129753
:101D20004217530721F412969C938E9311971386B2
:101D30001286DB018C9181508C93A6898091820E52
:101D40008A1710F4A093820E49E0A49FD0011124B9
:101D5000BD01625A714FDB0111968D919C911297D2
:101D600095838483DC0114964D915C91159757837C
:101D7000468314964D915C911597DA0113963C9326
:101D80002E931297DC0115963C932E93149773872C
:101D90006287DB018C918F5F8C9324C04091560E3B
:101DA0005091570E57874687DA0114962D913C9132
:101DB0001597318B208B14962D913C911597D90155
:101DC00013969C938E931297DA0115969C938E939B
:101DD000149785E59EE0958B848B8091550E8F5FDF
:101DE0008093550EA091840EB091850E96895696DB
:101DF0008C91891738F481E08093540E01C08111D1
:101E00000E9458850F900FBE10938C0E00938B0E7E
:101E100040E050E060E070E0C8010E942B68CE0115
:101E200001960E94892589859A85AB85BC8580931A
:101E3000260E9093270EA093280EB093290E00E053
:101E400010E021E040E055E068E875E086E697E1C3
:101E50000E94667CF82E09E81EE021E040E054E094
:101E600065E975E087E39CE10E94667CF8228FE0DB
:101E70000E944D869093250E8093240E8FE00E9441
:101E80004D869093880E8093870EF1100BC082EAE6
:101E900095E09F938F9381E19FE09F938F930E94A2
:101EA00032210AC08BEC95E09F938F9381E19FE0F4
:101EB0009F938F930E9405350F900F900F900F9076
:101EC0008EEE95E09F938F9301E11FE01F930F9398
:101ED0000E9405350E94A434DC01CB012FA138A556
:101EE00049A55AA5821B930BA40BB50BBF93AF93C7
:101EF0009F938F938AE196E09F938F931F930F9305
:101F00000E9405350FB6F894DEBF0FBECDBFAB966D
:101F10000FB6F894DEBF0FBECDBFDF91CF911F91FA
:101F20000F91FF90EF90DF90CF90BF90AF909F9078
:101F30008F907F906F905F904F903F902F9008957B
:101F4000CF93DF93EC018C819D81DC01ED91FC91BD
:101F50000480F581E02D6E81199581E08E8F1E82BF
:101F60001F8E18A219A21AA21CA280E0DF91CF91A5
:101F70000895DC01FC01ED57FF4F80818823D1F0EB
:101F800017968C911797861741F01A968C911A978D
:101F9000861315C021E030E002C020E030E0F901F6
:101FA000EE0FFF1F2E0F3F1FFD01E20FF31F808575
:101FB0009185089518968D919C911997089580E0C8
:101FC00090E00895DC0117968C911797811106C057
:101FD00018968D919C911997892B71F01A968C9176
:101FE0001A97811118C01B968D919C911C97892B73
:101FF00091F421E030E002C020E030E0F901EE0F82
:10200000FF1F2E0F3F1FFD01E20FF31F6783518754
:10201000408781E0089580E00895FC0184A108953F
:10202000FC0186810895089580E0089580E0089578
:1020300080E090E008950895DF92EF92FF920F9371
:102040001F93CF93DF93EC01E62EF12C85E0689F80
:10205000B0011124FE01E60FF71F8085182F1770BD
:1020600086FF21C001E085E0D82E8FEF800F8F30F2
:1020700008F001E0FE01D09EE00DF11D11248085E5
:102080008695869586958770811305C0602FCE0151
:102090000E941C10EACF0F5F003161F78D81811320
:1020A00002C011501D8385E08E9DF0018F9DF00DC3
:1020B0001124EC0FFD1F108681E081871286229685
:1020C000D783C683DF91CF911F910F91FF90EF903F
:1020D000DF900895FC016134C1F43F969C01265ABB
:1020E0003F4F61E0AC014E5F5F4FDF0112971C92E2
:1020F00011966C93108213974D935C933596E2176B
:10210000F30799F7FC01158208953D9621E030818F
:10211000361303C0622F0C941C102F5F35962031AC
:10212000B1F70895CF93DF93FC01862F807809F0F3
:1021300051C0283008F04FC0442321F095819730DA
:1021400009F449C0EF012D96A0E0B0E01196988106
:10215000911103C0662331F021C02596AF30B1053F
:10216000A9F739C085E08A9FE0018B9FD00D11242B
:10217000CE0FDF1F442331F081E4888785818F5F94
:10218000858302C081E0888725E02A9FC0012B9FBC
:10219000900D1124E80FF91F80851DC06770660F30
:1021A000660F660F442341F0606485818F5F8583ED
:1021B0008770687F682B03C02770687B622B25E0DF
:1021C0002A9FC0012B9F900D1124E80FF91F6087F3
:1021D000862F01C080E0DF91CF910895611102C088
:1021E00006960895FC013D9621E03081361307C024
:1021F00035E0239F800D911D1124069608952F5FD1
:102200003596203191F780E090E008953F924F920B
:102210005F926F927F928F929F92AF92BF92CF9276
:10222000DF92EF92FF920F931F93CF93DF9300D033
:102230001F92CDB7DEB76C017C836B835A834983D1
:102240004C0180E1880E911C5601A7E0AA0EB11C3A
:1022500011E084E0482E3601B2E16B0E711C93E070
:10226000392E22E0522E8B819C81892B09F4F8C0F3
:10227000F60190A1923059F128F4992341F0913060
:1022800071F0F1CF933039F19430C1F1ECCF548239
:1022900085819681908787835286518610A3AE01EF
:1022A0004D5F5F4FBE016F5F7F4FC5010E94B02E33
:1022B000882309F4D5C0D6011596ED91FC911697A7
:1022C000808191968C939197818192968C93F6015F
:1022D0007682658230A2D60192968C919297843054
:1022E00011F493961C92F60181A18250848325817A
:1022F0003681308727838287818740A2D6019296D4
:102300008C918430B1F0853009F440C0823009F0FE
:1023100068C0AE014D5F5F4FBE016F5F7F4FC5016B
:102320000E94B02E882309F49BC0F601858984A3FE
:102330008FC0AE014D5F5F4FBE016F5F7F4FC50124
:102340000E94B02E882309F48BC0D60155968C913B
:102350005597833009F07CC098968C91989781119D
:1023600077C093961C93939752968C91529796961A
:102370008C93969753968C91539797968C939797A7
:1023800057968C91579795968C9362C0AE014D5F8E
:102390005F4FBE016F5F7F4FC5010E94B02E882343
:1023A00009F45EC0F60183A1882309F451C082813B
:1023B0009381009709F44CC0DC01ED91FC910190F0
:1023C000F081E02D7401D60195960C919597979622
:1023D0002C91979796964C91969794966C91199507
:1023E00037C0F60181A19585992319F0913031F01C
:1023F0002AC090E002979787868715872B813C81BA
:1024000089819A81782F692FD6011E964D915C9112
:102410001F974115510539F49A8389833C832B8397
:102420001D961C9210C001962115310541F04150B6
:102430005109F6015787468721503109E3CF798347
:102440006A831C821B82F60186859785892B41F45D
:10245000D60116969C928E92159790961C9203CF59
:102460000F900F900F900F90DF91CF911F910F91D0
:10247000FF90EF90DF90CF90BF90AF909F908F90A4
:102480007F906F905F904F903F9008952F923F9272
:102490004F925F926F927F928F929F92AF92BF9274
:1024A000CF92DF92EF92FF920F931F93CF93DF9320
:1024B000CDB7DEB7C454D1090FB6F894DEBF0FBE56
:1024C000CDBFDC019496BC912496BFAF2497BB236B
:1024D00009F4D2C07C010E94A434F701878C90A03B
:1024E000A1A0B2A0DC01CB0188199909AA09BB09F6
:1024F000B7FDC2C00E94A434D70193962C91DC0191
:10250000CB01820F911DA11DB11DF701878F90A3F3
:10251000A1A3B2A3312CCE0101966C01282E90E428
:102520009C0D25969FAF259740E4442E512C3701F2
:10253000A5E26A0E711C5701B3E8AB0EB11CF7019E
:10254000858D381608F098C0832D90E0FC01EE0FC1
:10255000FF1F8E0F9F1F8E0D9F1DFC01E458FF4F24
:10256000808190E0FC01EE0FFF1FDF01A80FB91F73
:10257000AE0DBF1DAA59BF4F2C9130E023963FAF3F
:102580002EAF23974601D6011D9225962FAD259794
:102590002A13FACF8E0F9F1F8E0D9F1DFC01EB5942
:1025A000FF4F86019E012F5B3F4F4081D70116965A
:1025B0006C91169714968D919C9115970E94C3313A
:1025C00081115BC023968EAD9FAD23978134910519
:1025D00020F023965FAE4EAE239722962FAD229722
:1025E000B301C301F6013E2F3219321740F4419175
:1025F000DC013D91CD014317B1F380E003C0249687
:102600008FAD2497982D9219921738F4F401919177
:102610004F01DB019D93BD01F5CF81112DC0D70185
:10262000ED91FC91008CF18DE02D8601D5014C914E
:10263000B701C7011995D701ED91FC910288F38983
:10264000E02DD5018C91882311F0698101C060E0F3
:10265000C7011995009771F0DC01ED91FC91019093
:10266000F081E02D860122962FAD2297D5014C9165
:10267000B7011995339463CF80E0CC5BDF4F0FB681
:10268000F894DEBF0FBECDBFDF91CF911F910F91A8
:10269000FF90EF90DF90CF90BF90AF909F908F9082
:1026A0007F906F905F904F903F902F9008952F9262
:1026B0003F924F925F926F927F928F929F92AF92D2
:1026C000BF92CF92DF92EF92FF920F931F93CF931F
:1026D000DF93CDB7DEB7C458D1090FB6F894DEBF8B
:1026E0000FBECDBFDC0114960D911C911597169667
:1026F000FC90F110D2C1B22E942EA62E3C01D8012E
:10270000ED91FC910190F081E02D60E0C8011995F8
:102710002C01009719F476EDF72ECAC1FC01C08098
:10272000D180C114D10409F4BBC11301F5E62F0E09
:10273000311CDC0111963C922E921496BC929E01A3
:1027400026593F4F48E050E060E0F30184819581D5
:102750000E944931E82E811193C1AB96EFACAB9743
:10276000D201CD92DC92D801ED91FC910280F381EF
:10277000E02D292D40E06A2DC8011995F3018683CB
:10278000882309F490C1E2969FADE297EA59FF4F82
:102790009083682FD30114968D919C9115970E9478
:1027A0009331D82ED801ED91FC91D20114961C9250
:1027B000882361F00480F581E02DD30116966C9199
:1027C000C8011995F3011682FD2C72C10190F081A8
:1027D000E02DD30116966C91C8011995009709F464
:1027E0009ACF4E2D433108F042E1FC01B4824111F1
:1027F0003BC0E4968EAD9FADE497F301EA57FF4FDF
:1028000091838083E6968EAD9FADE6973297918354
:102810008083EC96FFADEC97C058DF4FF883C0582B
:10282000D040910141E0D30116966C911697149611
:102830008D919C9115970E941D86E82E811123C1D0
:1028400070E02E01B1E44B0E511CF3013296CF57CC
:10285000DF4FF983E883C158D040C2014096EE961D
:102860009FAF8EAFEE978EC050E09E0126593F4F2E
:10287000D30116966C91169714968D919C9115978D
:102880000E944931E82E8111FEC0B3CF8EE192E063
:10289000F20191838083CF57DF4FA881B981C1585E
:1028A000D040B383A28315861786168610A211A284
:1028B00012A210A6EE968EAD9FADEE9796838583FD
:1028C00090878783848182878187EE96AEADBFAD86
:1028D000EE97B487A387F301368184819581C2582E
:1028E000DF4F99838883CE57D0408E010F5F1F4FF3
:1028F000272F49E050E0632FCD57DF4F3883C3586F
:10290000D040CC57DF4F7883C458D0400E946D31FF
:10291000CD57DF4F3881C358D040CC57DF4F788137
:10292000C458D040811127C0AB80BC805F924F92C9
:102930001F930F9350E4852E912CC12CD12C62E073
:10294000E62E072F26E040E8632FC258DF4F88812C
:102950009981CE57D040CC57DF4F7883C458D040B0
:102960000E94A92F0F900F900F900F90CC57DF4F20
:102970007881C458D04081110DC0F301868D82301A
:1029800058F47F5FC058DF4FF881C058D0407F13A4
:102990007DCF02C0E82E77C0D3015E964C915E9742
:1029A000423008F483C0910116966C9116971496E4
:1029B0008D919C9115970E941D861F921F921F92C8
:1029C0001F92812C912CA12CB12CC12CD12CE12C4B
:1029D000F301048D29E040E06681848195810E94A5
:1029E000A92FE82E0F900F900F900F9081114BC0E0
:1029F00010E0F301858D1817B0F5812F90E09C0150
:102A0000220F331F820F931F860D971DFC01E45880
:102A1000FF4F2081222329F1329780818770C82EB1
:102A2000D12C1F921F921F921F92812C912CA12CAE
:102A3000B12CE12C00E02AE041E2D30116966C9122
:102A4000169714968D919C9115970E94A92FE82EA8
:102A50000F900F900F900F90882319F0B5E08B1313
:102A600012C01F5FC6CF0190F081E02D0688F78964
:102A7000E02DC301199581E0D30194968C9318C081
:102A8000F201D182C082D301ED91FC910480F581E5
:102A9000E02DC3011995FE2C0BC039EDF32E08C0B3
:102AA00027EDF22E05C094EDF92E02C081EDF82E2F
:102AB0008F2DCC57DF4F0FB6F894DEBF0FBECDBFC2
:102AC000DF91CF911F910F91FF90EF90DF90CF900A
:102AD000BF90AF909F908F907F906F905F904F903E
:102AE0003F902F9008950F931F93CF93DF93C82F9C
:102AF000D62F8A0180E591E00E9402352C988C2F18
:102B000082600E94FB34CD2FD0E0209721F0BE01DF
:102B1000C8010E948524C00FD11F2C9A0E94FA344C
:102B2000CE01DF91CF911F910F9108951F93CF9305
:102B3000DF9300D0CDB7DEB7182F80E591E06B832F
:102B40000E9402352C98126019836B816A8362E0BF
:102B500070E0CE0101960E9485242C9A0E94FA34DE
:102B60000F900F900F90DF91CF911F9108951F93B9
:102B7000CF93DF931F92CDB7DEB7182F80E591E09A
:102B80000E9402352C98812F0E94FB3480E00E9425
:102B9000FB342C9A89830E94FA3489810F90DF914B
:102BA000CF911F9108959F92AF92BF92CF92DF92E3
:102BB000EF92FF920F931F93CF93DF937C01C42F6B
:102BC000122F992493946C01C60ED11CC60ED11CF1
:102BD00086E5C80ED11CA42EB12CABE2AA0EB11C06
:102BE000AA0CBB1CAE0CBF1CF60180819181DC01DC
:102BF000ED91FC910280F381E02D202F412F6C2F6D
:102C00001995803EC9F4C1110BC061E088EE0E94A5
:102C1000961566E670E080E090E00E946A3416C087
:102C2000F50180819181DC01ED91FC910284F385B5
:102C3000E02D612F19950AC08D3031F49FEF990D69
:102C4000933008F040C016C081113DC0F60180816C
:102C50009181DC01ED91FC910190F081E02D202F1C
:102C6000412F6C2F1995D82F8D3061F48FEF890D7E
:102C7000833050F464E670E080E090E00E946A34B3
:102C80009394B2CF8823F1F0C1110BC061E088EEBC
:102C90000E94961566E670E080E090E00E946A343B
:102CA00011C0EC2FF0E0BB96EE0FFF1FEE0DFF1DE5
:102CB00080819181DC01ED91FC910284F385E02D0E
:102CC000612F19958D2FDF91CF911F910F91FF905B
:102CD000EF90DF90CF90BF90AF909F900895FC0150
:102CE0009081903380F5818128E830E0281B3109FC
:102CF00087FD3395220F331F220F331F621773078F
:102D00007CF0828128E532E0281B310987FD33956C
:102D1000220F331F220F331F621773070CF49B011E
:102D200022503109220F331F4FB7F894892F90E0BA
:102D3000FC01EE0FFF1F8E0F9F1FFC01E352FE4EA2
:102D4000328321834FBF0895CF92DF92EF92FF929B
:102D5000CF93DF93EC01603282E078070CF03DC046
:102D600077FD06C0653B71052CF064EB70E002C096
:102D700060E070E0898128E830E06901C81AD10874
:102D800087FDD394CC0CDD1CCC0CDD1C0D2C000C71
:102D9000EE08FF088A8128E532E0281B310987FD0B
:102DA0003395220F331F220F331FC901330FAA0B94
:102DB000BB0B9C01AD012C193D094E095F09DB01DC
:102DC0000E94DD8F24EB30E040E050E00E94B38FA2
:102DD000C20ED31EE41EF51EB601CE01DF91CF91C7
:102DE000FF90EF90DF90CF900C946F16813091059B
:102DF00081F41092800082E080938100109285001F
:102E000010928400B19A80916F00826080936F006D
:102E100008958230910569F41092900082E08093C9
:102E20009100109295001092940088BB80937100DD
:102E300008958330910569F41092A00082E0809398
:102E4000A1001092A5001092A40089BB809372008B
:102E50000895892B61F41092200182E08093210172
:102E600010922501109224018ABB8093730008956B
:102E70001F920F920FB60F9211240BB60F922F9341
:102E80003F934F935F936F937F938F939F93AF93F2
:102E9000BF93EF93FF9348E251E064E271E080E07A
:102EA00090E00E94F432FF91EF91BF91AF919F911A
:102EB0008F917F916F915F914F913F912F910F90E3
:102EC0000BBE0F900FBE0F901F901895CF93DF93FE
:102ED000CDB7DEB7AA970FB6F894DEBF0FBECDBF51
:102EE00045E050E060E070E080918B0E90918C0E98
:102EF0000E94C659813009F027C383E596E09F936D
:102F00008F9381E19FE09F938F930E9405358AE222
:102F10000E94132180E090E00E94A58240E052ECE4
:102F200061E070E083E29FE00E94AC208FEF9FEFB2
:102F30009A8389830E949B8289E796E00E943A8661
:102F40000F900F900F900F9083E29FE00E94492214
:102F50000497D4F383E29FE00E944922892BE9F190
:102F600083E29FE00E942822BE016F5F7F4F0E9494
:102F7000B07B019779F789819A8197FDEBCF60E863
:102F800076E081EF9EE00E94C78B892B41F080E0C4
:102F900090E00E94A582CC24C394D12C21C080E073
:102FA00090E00E94A58282E08F938AE58F9380E271
:102FB00092E09F938F9383E896E09F938F9381E1B4
:102FC0009FE09F938F930E9432210FB6F894DEBF4B
:102FD0000FBECDBF8FEF9FEF89C0CC24CA94DC2CED
:102FE00064E670E080E090E00E94A3240E949B824F
:102FF00080E2E1EFFEE0DF011D928A95E9F783E2CE
:103000009FE00E9449220297D4F300E010E04FEBCA
:10301000A42E46E0B42E51E1652E5FE0752E60E2ED
:10302000962E83E29FE00E944922892B09F450C02A
:1030300083E29FE00E942822BE016F5F7F4F0E94C3
:10304000B07B019771F7E980FA80F7FCEACF63EB78
:1030500076E081EF9EE00E94C78B892BF9F40F5F29
:103060001F4F31EFC32E3EE0D32EDF92CF92FF925F
:10307000EF921F930F93BF92AF927F926F920E9435
:10308000FB1FF601292D11922A95E9F70FB6F89446
:10309000DEBF0FBECDBFC12CD12CC3CF81EF9EE0D0
:1030A0009F938F93FF92EF921F930F9387EE96E07B
:1030B0009F938F9381E19FE09F938F930E94FB1FCB
:1030C0000FB6F894DEBF0FBECDBFCC24C394D12C75
:1030D00080E090E00E94A58281E090E0CA94CD2833
:1030E00011F480E090E0919581959109892B09F088
:1030F00075C08FE097E09F938F9381E19FE09F934E
:103100008F930E9405358FEF9FEF9A83898380E22A
:10311000E1EFFEE0DF011D928A95E9F70E949B82B4
:1031200084E397E00E943A860F900F900F900F90E3
:1031300083E29FE00E9449220497D4F383E29FE058
:103140000E944922892BE1F183E29FE00E9428221C
:10315000BE016F5F7F4F0E94B07B019779F7898135
:103160009A8197FDEBCF60E876E081EF9EE00E94C8
:10317000C78B892B39F080E090E00E94A58201E0A6
:1031800010E020C080E090E00E94A58283E08F9351
:103190008CE58F938BE292E09F938F9387E397E088
:1031A0009F938F9381E19FE09F938F930E943221A1
:1031B0000FB6F894DEBF0FBECDBF0FEF1FEF0BC0F1
:1031C00000E010E080E090E00E94A582F1E00F278F
:1031D000119501951109012B71F049C087E697E01F
:1031E0009F938F9301E11FE01F930F930E94322161
:1031F0008AE897E08DC18CEB97E09F938F9301E174
:103200001FE01F930F930E9405350E94C4827C012A
:103210000F900F900F900F90892B09F012C18BE443
:1032200098E09F938F931F930F930E9405358FEF24
:103230009FEF9A83898301EF1EE080E2D8011D92FF
:103240008A95E9F70E949B821F921F9289E798E076
:103250009F938F931F930F930E94E18BC8010E944D
:103260003A860FB6F894DEBF0FBECDBF0DC082EE1A
:1032700097E09F938F9301E11FE01F930F930E94AC
:10328000322188E098E044C183E29FE00E94492215
:103290000497D4F380E2E1EFFEE0DF011D928A950E
:1032A000E9F783E29FE00E944922892BD9F183E26A
:1032B0009FE00E942822BE016F5F7F4F0E94B07B7B
:1032C000019779F789819A8197FDEBCF60E876E0E5
:1032D00081EF9EE00E94C78B892B29F080E090E06F
:1032E0000E94A5821FC080E090E00E94A58283E03A
:1032F0008F938DE98F9386E392E09F938F9385E878
:1033000098E09F938F9381E19FE09F938F930E941A
:1033100032210FB6F894DEBF0FBECDBFEE24EA9483
:10332000FE2C8CC080E090E00E94A58280E2E1EF5C
:10333000FEE0DF011D928A95E9F783E29FE00E949B
:103340004922892B31F183E29FE00E942822BE01AD
:103350006F5F7F4F0E94B07B019779F781EF9EE00E
:103360009F938F9383E08F938CEA8F9386E392E011
:103370009F938F9385EB98E09F938F9381E19FE0DC
:103380009F938F930E94FB1F0FB6F894DEBF0FBE72
:10339000CDBF80E2E1EFFEE0DF011D928A95E9F703
:1033A00083E29FE00E944922892B31F183E29FE072
:1033B0000E942822BE016F5F7F4F0E94B07B019761
:1033C00079F781EF9EE09F938F9383E08F938DEB4E
:1033D0008F9386E392E09F938F9385EF98E09F937E
:1033E0008F9381E19FE09F938F930E94FB1F0FB605
:1033F000F894DEBF0FBECDBF80E2E1EFFEE0DF015B
:103400001D928A95E9F783E29FE00E94492283E2B8
:103410009FE00E942822BE016F5F7F4F0E94B07B19
:10342000019789F765E379E081EF9EE00E94C78B01
:10343000892B49F380E090E00E94A582EF2861F09B
:103440001EC08BE399E09F938F931F930F930E946D
:10345000322185E699E05CC088EA99E09F938F93DA
:1034600001E11FE01F930F930E9405350E94C48263
:103470000F900F900F900F90892B71F03FC08BED44
:1034800099E09F938F9301E11FE01F930F930E9498
:1034900032218BEF99E03CC08EE39AE09F938F93AB
:1034A0001F930F930E9405358CE69AE09F938F93AC
:1034B0001F930F930E94053583E090E09093120FC5
:1034C0008093110F1F928F938CE89AE09F938F93B4
:1034D0001F930F930E94053580918B0E90918C0E57
:1034E0000FB6F894DEBF0FBECDBF009769F140E084
:1034F00050E060E070E00E942B6826C082EA9AE00B
:103500009F938F931F930F930E9432218CEC9AE02C
:103510009F938F931F930F930E9405350FB6F894D6
:10352000DEBF0FBECDBF8FE29BE09F938F9381E103
:103530009FE09F938F930E9432210F900F900F90E6
:103540000F900E94A927FDCFE091890EF0918A0E7D
:10355000309709F47CC08091840E9091850EE81715
:10356000F90709F474C00FB6F8940F928285938519
:1035700082549E4009F069C0848995893EE0853572
:10358000930709F462C0892B09F05FC09F012E5F89
:103590003F4F8481958146815781DC0115965C936C
:1035A0004E931497A681B78113969C938E9312978E
:1035B0008091430E9091440E8217930721F4B093AB
:1035C000440EA093430E138612868091420E8150C2
:1035D0008093420EA6898091820E8A1710F4A093E0
:1035E000820E89E0A89FD0011124BD01625A714F5B
:1035F000DB0111968D919C91129795838483DC0158
:1036000014964D915C9115975783468314964D916E
:103610005C911597DA0113963C932E931297DC0177
:1036200015963C932E93149773876287DB018C91D8
:103630008F5F8C93A091840EB091850E96895696DB
:103640008C91981710F00E9458850F900FBE45E09E
:1036500050E060E070E080918B0E90918C0E0E94A3
:10366000C6598130D1F48FE09BE09F938F9381E125
:103670009FE09F938F930E94FB1F80918B0E9091F0
:103680008C0E0F900F900F900F90009731F040E04C
:1036900050E060E070E00E942B6888248A9483E008
:1036A000982EA12CB12C0E9417771C01CE010196F7
:1036B0000E9489258091870E9091880E009709F4C9
:1036C000CDC04AE050E0BE01675E7F4F0E94C65900
:1036D000882309F4C3C0EE8CFF8CC8A0D9A02BA10D
:1036E00030E0A4E1B0E00E9407902FEF30E040E02E
:1036F00050E00E94B38F29013A01BAE04B1A5108F9
:10370000610871089701ACE3B0E00E940790A50141
:1037100094010E94B38FDA01C901CC96A11DB11D9D
:10372000E42DE80FEAA7E09300029601ACE3B0E0D5
:103730000E940790A50194010E94B38F022F040DEF
:103740000E5C00930102D70124EC3FEF4FEF5FEFD7
:103750000E94D28FA50194010E94B38F122F140DE5
:10376000115810930202D60124EC3FEF4FEF5FEFA8
:103770000E94D28FA50194010E94B38FDA01C90182
:1037800088589F4FAF4FBF4F480E409203028CA105
:10379000803441F460ED77E08EE692E10E946F168E
:1037A0001092A50E8EA1803441F460E070E08EE6A8
:1037B00092E10E946F161092A50E8CA1803449F4FC
:1037C00068E274E08EE692E10E946F16F1E0F093F9
:1037D000A50E8091A50E8823F9F02DA1822F90E0EF
:1037E000A0E0B0E09C01AD012F5F31094109510912
:1037F000A8EAB3E00E94D28F21E03FEF4FEF5FEFE6
:103800000E94B38FCA01B901685D7B4F8F4F9F4FF4
:103810008EE692E10E946F162AA5622F70E081E782
:1038200092E10E94A416602F70E084E792E10E946A
:10383000A416612F70E087E792E10E94A416642D20
:1038400070E08AE792E10E94A416E8EBF3E1ADE8AC
:10385000BEE088E101900D928A95E1F739A628A68D
:1038600066E070E0CE0188960E9421771CCFCF934E
:10387000DF93CDB7DEB761970FB6F894DEBF0FBE0A
:10388000CDBF45E050E060E070E080918B0E9091FC
:103890008C0E0E94C6598130D1F480E59BE09F9345
:1038A0008F9381E19FE09F938F930E94FB1F8091F4
:1038B0008B0E90918C0E0F900F900F900F900097A1
:1038C00031F040E050E060E070E00E942B680FB6FD
:1038D000F8940F92E091840EF091850ECF0102963C
:1038E000628573854481558126813781DA01159679
:1038F0003C932E93149726813781D90113965C93BC
:103900004E931297DB0111964D915C9112974817D7
:10391000590721F412963C932E9311971386128621
:10392000DB012C9121502C93048915890115110577
:1039300029F12685378540895189D90115965C93EF
:103940004E93149740895189DA0113963C932E9334
:103950001297D80111966D917C9112979F01245F67
:103960003F4F6217730721F412965C934E931197A1
:10397000158A148AD8012C9121502C934091430E22
:103980005091440E55834483DA0114962D913C9155
:1039900015973783268314962D913C911597D9015D
:1039A00013969C938E931297DA0115969C938E939F
:1039B000149782E49EE0938782878091420E8F5F06
:1039C0008093420E0F900FBE80919C13882319F1B3
:1039D0000FB6F8940F92A0914D0EB0914E0E8C91AF
:1039E000811103C08FEF9FEF10C0A0914D0EB091D9
:1039F0004E0E15960D90BC91A02D16960D90BC9173
:103A0000A02D12968D919C91139790934C0E8093BC
:103A10004B0E0F900FBE8091840E9091850EE8178B
:103A2000F90709F078C080919C13882319F00E944F
:103A3000588571C08091410E9091420E981305C037
:103A40001092850E1092840E66C08091830E88239A
:103A500021F081E08093540E5EC01092540EA0912C
:103A6000840EB091850EE091840EF091850E2D911B
:103A70003C918789908D82179307A8F08091840EDE
:103A80009091850E8091840E9091850E279A2F9AA1
:103A9000BFEFE7EAF1E6B150E040F040E1F700C0E7
:103AA00000001F9AF5CF8091820E69E0482F50E008
:103AB000649F9001659F300D1124F901E25AF14F86
:103AC0009081911102C08150F1CFA181B2811296F3
:103AD0000D90BC91A02DB283A1832F59314FA21715
:103AE000B30731F412962D913C91139732832183C1
:103AF00099E0949FF001959FF00D1124E25AF14F47
:103B00000180F281E02D268137813093850E20934C
:103B1000840E8093820E45E050E060E070E080917A
:103B20008B0E90918C0E0E94C6598130D1F481E7A2
:103B30009BE09F938F9381E19FE09F938F930E94DF
:103B4000FB1F80918B0E90918C0E0F900F900F9019
:103B50000F90009731F040E050E060E070E00E948C
:103B60002B6801E11FE0CE0101967C018FE8282E31
:103B70008BE0382E28010E9417774C018091870E28
:103B80009091880E892B09F41DC183E29FE00E9469
:103B900049220297D4F383E29FE00E94282289837E
:103BA000823009F003C183E29FE00E94492202971C
:103BB000D4F383E29FE00E9428228A838F3F09F09A
:103BC000F5C083E29FE00E9449220297D4F383E28A
:103BD0009FE00E9428228B83893009F0E7C083E2AE
:103BE0009FE00E9449220297D4F383E29FE00E9463
:103BF00028228C83813009F0D9C083E29FE00E94A3
:103C000049220297D4F383E29FE00E9428228D8309
:103C100083E29FE00E9449220A97D0F383E29FE06B
:103C20000E944922009709F4C1C00A9709F0A3C075
:103C3000DE0116965D01C12CD12C0E94A434609344
:103C40002B0F70932C0F80932D0F90932E0FE091DC
:103C5000230FF091240F0680F781E02D83E29FE08F
:103C6000199597FD13C0F50181935F01FFEFCF1AFE
:103C7000DF0A29E0C216D10401F783E29FE00E9427
:103C800028228F879981923079F51EC00E94A43432
:103C900020912B0F30912C0F40912D0F50912E0F12
:103CA000DC01CB01821B930BA40BB50B2091270FDA
:103CB0003091280F4091290F50912A0F82179307B6
:103CC000A407B50720F2D9CF9A819F3F69F49B8161
:103CD000993051F49C81913039F49D81911104C047
:103CE000DD24D394833009F0D12C45E050E060E02E
:103CF00070E080918B0E90918C0E0E94C65981309D
:103D000009F044C05701612C712CD5012D915D0142
:103D10001F922F937F926F923F922F921F930F9338
:103D20000E94FB1FBFEF6B1A7B0A0FB6F894DEBF31
:103D30000FBECDBFFAE06F16710439F7FF92EF9214
:103D4000ADEABBE0BF93AF935F924F920E94FB1F1F
:103D500080918B0E90918C0E0F900F900F900F9082
:103D60000F900F90009791F040E050E060E070E01D
:103D70000E942B680BC083E29FE00E944922892B9E
:103D8000A9F083E29FE00E942822F5CF83E29FE022
:103D90000E944922DD2051F04AE050E0B7018091B5
:103DA000870E9091880E0E942B680CC0A0EDBBE09E
:103DB000BF93AF931F930F930E945D210F900F90BD
:103DC0000F900F90998A888A66E070E0CE01409645
:103DD0000E942177D0CEE0918010F0918110019067
:103DE000F081E02D682F80E890E119948F929F92E6
:103DF000AF92BF920F931F93CF93DF93CDB7DEB7F0
:103E0000A1970FB6F894DEBF0FBECDBF19A2423006
:103E100008F44AE08E010F5D1F4F842E912CA12CD7
:103E2000B12CA50194010E94E58FE62FB901CA01CA
:103E300001501109EA3014F4E05D01C0E95CD801D9
:103E4000EC93232B242B252B61F7B80180E890E11C
:103E50000E94B223A1960FB6F894DEBF0FBECDBF6D
:103E6000DF91CF911F910F91BF90AF909F908F9056
:103E70000895BC0180E890E10C94B223AF92BF9208
:103E8000CF92DF92EF92FF920F931F93CF93DF9326
:103E90008C01EB01F8018081882309F49EC08532F2
:103EA00009F092C058018FEFA81AB80AF801818171
:103EB000882309F492C0853219F40E94EB1E89C050
:103EC000833731F48E010E5F1F4F8881998178C04E
:103ED000843611F0893651F48E010E5F1F4FC88071
:103EE000D9800D2C000CEE08FF0832C0883731F065
:103EF000883591F48FEF9BE00E94391F8E010E5F91
:103F00001F4F68817981072E000C880B990B40E1C7
:103F10000E94F61EE8015DC0823631F0823479F4E9
:103F200082E09CE00E94391F8E010E5F1F4F688166
:103F30007981072E000C880B990B42E0E9CF8C3673
:103F4000C9F48E010C5F1F4FC880D980EA80FB80C6
:103F5000F7FC04C04AE0C701B601DACF8DE20E9447
:103F6000EB1E66277727CB016C197D098E099F0907
:103F70004AE0CECF833639F48E010E5F1F4F888121
:103F80000E94EB1EC7CF843769F48E010E5F1F4F6E
:103F900088819981019719F485E397E011C085E044
:103FA0009CE00EC0843579F48E010E5F1F4F88812E
:103FB0009981019719F487E09CE002C08CE09CE0B5
:103FC0000E94391FA7CF8501F80180810E94EB1E56
:103FD000580185010F5F1F4F5DCFDF91CF911F917A
:103FE0000F91FF90EF90DF90CF90BF90AF9008952A
:103FF0004AE00C94F61ECF93DF93CDB7DEB78091E5
:10400000110F9091120F0597ECF060E070E082E1E3
:104010009CE00E943E1F0E9445340E94F81F88E1E8
:104020009CE00E94391F0E94A4340E94F81F8AE17C
:104030009CE00E94391FBE01665F7F4F888599858D
:104040000E943E1FDF91CF910895CF93DF93CDB7AC
:10405000DEB78091110F9091120F0497ECF060E0A1
:1040600070E08EE19CE00E943E1F0E9445340E9459
:10407000F81F88E19CE00E94391F0E94A4340E942E
:10408000F81F8AE19CE00E94391FBE01665F7F4FE6
:10409000888599850E943E1FDF91CF910895382F22
:1040A0002091F00E9091EF0E213208F049C08091DE
:1040B000CC0E8111FCCF42E04093CC0E3093CB0E5E
:1040C0003FEF3093CA0E1092C90E2093C80EAFEC8A
:1040D000BEE048EA5EE0FA013E2F341B321718F4C6
:1040E0003D913193F9CF1092A70E2091A70E990F11
:1040F000922B9093A70E9091A60E913061F410929E
:10410000A60E9091A70E9093BB009091BC0093FDDA
:10411000F8CF95EC01C095EE9093BC009091CC0E39
:104120009230E1F39091CA0E9F3F79F08091CA0ED0
:10413000803241F08091CA0E803331F084E005C0B6
:1041400081E003C082E001C083E01092CE0E1092A5
:10415000F00E1092CD0E0895CF92DF92EF92FF9263
:104160000F931F93CF93DF93EC016A017B01E889E2
:10417000F98982E080834115514E61057105B1F0E6
:1041800060E079E08DE390E0A70196010E94E58F61
:1041900089019A01015011092109310936952795A4
:1041A00017950795980101151041A8F0E889F9893C
:1041B000108260E874E88EE190E0A70196010E9409
:1041C000E58FDA01C9010197A109B109B695A79553
:1041D000979587959C01EC85FD853083EE85FF855D
:1041E0002083188EEC89FD8986E08083EA89FB892B
:1041F000808180618083EA89FB89808188608083F7
:10420000EA89FB89808180688083EA89FB898081D3
:104210008F7D8083DF91CF911F910F91FF90EF9061
:10422000DF90CF90089590E0FC01E453FD4F24917E
:10423000FC01EA57FD4F8491882399F090E0880FA4
:10424000991FFC01E459FD4FA591B491FC01EE5A70
:10425000FD4F859194918FB7F894EC91E22BEC93FC
:104260008FBF0895CF93DF93CDB7DEB78091110F45
:104270009091120F18161906ECF460E070E08BE8CC
:104280009CE00E943E1F0E9445340E94F81F88E176
:104290009CE00E94391F0E94A4340E94F81F8AE10A
:1042A0009CE00E94391FBE01665F7F4F888599851B
:1042B0000E943E1FDF91CF910895CF93DF93CDB73A
:1042C000DEB78091110F9091120F0297ECF060E031
:1042D00070E081E99CE00E943E1F0E9445340E94EC
:1042E000F81F88E19CE00E94391F0E94A4340E94BC
:1042F000F81F8AE19CE00E94391FBE01665F7F4F74
:10430000888599850E943E1FDF91CF9108958F92F5
:104310009F92BF92CF92DF92EF92FF920F931F93E3
:10432000CF93DF931F92CDB7DEB74C01B62E690154
:1043300049830E94EE107C014981009709F44BC02B
:10434000DC01ED91FC911197309709F446C013966A
:104350009C9180E0891731F02081241729F0339651
:104360008F5FF8CFE0E0F0E0D601ED93FC9330975B
:10437000B1F122812695269530E02031310514F0E7
:104380002FE030E081E090E0A0E0B0E004C0880FD2
:10439000991FAA1FBB1F2A95D2F70197F801918395
:1043A00080836B2D80EE0E94961588ED0E94B715D4
:1043B000682FD70114968C91882339F0F401EA58BC
:1043C000FF4F80818260682B01C0697F88ED0E9469
:1043D000961580E005C086ED03C087ED01C08BED2A
:1043E0000F90DF91CF911F910F91FF90EF90DF9091
:1043F000CF90BF909F908F900895CF92DF92EF92D1
:10440000FF920F931F93CF93DF936C017A018B017F
:10441000C0E0D0E0CE15DF0589F0D8016D918D01A7
:10442000D601ED91FC910190F081E02DC601199526
:10443000892B11F47E0102C02196ECCFC701DF91D8
:10444000CF911F910F91FF90EF90DF90CF90089543
:10445000FC01918D828D981759F0828DDF01A80F94
:10446000B11D5D968C91928D9F5F928F90E0089523
:104470008FEF9FEF0895FC01918D828D981731F099
:10448000828DE80FF11D858D90E008958FEF9FEFED
:104490000895FC01918D828D981B892F90E00895DD
:1044A00083E29FE00E94492221E0892B09F420E069
:1044B000822F089580E890E10E94492221E0892B13
:1044C00009F420E0822F0895FC01848DDF01A80FFC
:1044D000B11DA35EBE4F2C91848D90E001968F7329
:1044E0009927848FA689B7892C93A089B1898C914B
:1044F00080648C93938D848D981306C00288F38911
:10450000E02D80818F7D80830895EF92FF920F933D
:104510001F93CF93DF93EC0181E0888F9B8D8C8D6F
:10452000981305C0E889F989808185FD24C0F62E9D
:104530000B8D10E00F5F1F4F0F731127E02E8C8D36
:10454000E8120CC00FB607FCFACFE889F989808120
:1045500085FFF5CFCE010E946422F1CF8B8DFE0145
:10456000E80FF11DE35EFE4FF0820B8FEA89FB89B5
:104570008081806207C0EE89FF896083E889F989BC
:1045800080818064808381E090E0DF91CF911F91F2
:104590000F91FF90EF900895CF93DF93EC01888DFA
:1045A0008823C9F0EA89FB89808185FD05C0A88937
:1045B000B9898C9186FD0FC00FB607FCF5CF8081BD
:1045C00085FFF2CFA889B9898C9185FFEDCFCE0107
:1045D0000E946422E7CFDF91CF91089580E090E0C0
:1045E000892B21F00E945A22811121C080E090E0A5
:1045F000892B21F00E94502281111CC080E090E0A4
:10460000892B41F080E090E0892B21F00E9400008E
:10461000811113C080E090E0892BA1F080E090E050
:10462000892B81F00E94000081110AC008950E9428
:104630000000DCCF0E940000E1CF0E940000EACF22
:104640000C9400000895CF92DF92EF92FF920F93A7
:104650001F93CF93DF937801EC0124966C012BE03C
:10466000C20ED11CDE01F80131912D91321304C02C
:10467000AC15BD05C9F716C0DC0112968D919C9151
:104680001397009779F0B801DC01ED91FC9101904E
:10469000F081E02D1995F70181917F018993CC1567
:1046A000DD05C9F7DF91CF911F910F91FF90EF903A
:1046B000DF90CF9008950E94B28BDB013C91119660
:1046C0008C911197482F4370E8EFF3E130834183D9
:1046D0008695869512969C911297292F2295220FE6
:1046E000220F207C822B292F2695269523708283EA
:1046F000238315965C911597578313966C911397A6
:10470000658392959F70948314967C911497768319
:104710001696AC91A0871F925F932F938F934F9320
:104720003F931F929F931F92AF931F927F931F926D
:104730006F931F925F932F938F934F933F9387E9CC
:104740009CE09F938F9381E19FE09F938F930E94C2
:10475000FB1F8DB79EB748960FB6F8949EBF0FBE4D
:104760008DBF08956115710579F0FB01019000205E
:10477000E9F73197AF01461B570BDC01ED91FC9136
:104780000280F381E02D199480E090E008951F925B
:104790000F920FB60F9211240BB60F922F933F93E7
:1047A0004F935F936F937F938F939F93AF93BF9339
:1047B000EF93FF9383E29FE00E946422FF91EF91C9
:1047C000BF91AF919F918F917F916F915F914F9129
:1047D0003F912F910F900BBE0F900FBE0F901F9027
:1047E00018951F920F920FB60F9211240BB60F92CD
:1047F0002F938F939F93EF93FF93E091330FF0915B
:10480000340F8081E091390FF0913A0F82FD11C091
:10481000908180913C0F8F5F20913D0F821751F066
:10482000E0913C0FF0E0ED5DF04F958F80933C0FF1
:1048300001C08081FF91EF919F918F912F910F90F7
:104840000BBE0F900FBE0F901F9018951F920F92E6
:104850000FB60F9211240BB60F922F933F934F93E5
:104860005F936F937F938F939F93AF93BF93EF93D8
:10487000FF9380E890E10E946422FF91EF91BF9145
:10488000AF919F918F917F916F915F914F913F91E8
:104890002F910F900BBE0F900FBE0F901F90189589
:1048A0001F920F920FB60F9211240BB60F922F93F7
:1048B0008F939F93EF93FF93E0919010F09191105D
:1048C0008081E0919610F091971082FD11C0908147
:1048D000809199108F5F20919A10821751F0E0918A
:1048E0009910F0E0E058FF4E958F8093991001C029
:1048F0008081FF91EF919F918F912F910F900BBE2F
:104900000F900FBE0F901F901895FC0120812EBDB7
:10491000DC0131969C01260F371FE217F30741F0A7
:1049200051910DB407FEFDCF4EB55EBD4D93F5CF51
:1049300061507109FC01E60FF71F0DB407FEFDCFB2
:104940008EB580830895CF92DF92EF92FF92CF933E
:10495000DF931F921F92CDB7DEB76B017C010E94DF
:1049600017779A8389832EE32C9DC0012D9D900D8E
:10497000112468EE73E00E94CD88CE0101960E945A
:1049800021770F900F90DF91CF91FF90EF90DF9004
:10499000CF900895EF92FF920F931F93CF93DF93E1
:1049A000D62FC72F7A0191E09093CD0E98E6909381
:1049B000EF0E1092CE0E1092F00E682F87E19FE05E
:1049C0000E94A128019709F068C080E00E944F2052
:1049D000282F30E02115310509F061C08091CC0EFF
:1049E0008111FCCF8E2D813208F080E291E090930E
:1049F000CC0E9093CB0E2FEF2093CA0E1092C90EBF
:104A0000280F2093C80E9093A70E9091A70E906D3B
:104A10009093A70E9091A60E913061F41092A60E7D
:104A20009091A70E9093BB009091BC0093FDF8CF9E
:104A300095EC01C095EE9093BC009091CC0E913016
:104A4000E1F39091C90E981710F48091C90EA8EA6D
:104A5000BEE021E034E1F9019E2F921B981718F473
:104A60009D919193F9CF10922214809321140D2FD0
:104A70001C2FC0E0D0E0909121148091221498174F
:104A800081F0CE15DF056CF4219687E19FE00E944E
:104A90005528F80181938F01EECF86EF06C0C9013A
:104AA00008C0CE15DF0519F085EF9FEF02C080E04A
:104AB00090E0DF91CF911F910F91FF90EF900895BB
:104AC000CF93DF93EC014EE050E0BC018BE390E02C
:104AD0000E94CA2428813981388329832A813B8115
:104AE0003A832B832C813D813C832D832E813F8112
:104AF0003E832F8328853985388729872A853B85FA
:104B00003A872B872C853D853C872D87DF91CF9178
:104B100008954F925F926F927F928F929F92AF9281
:104B2000BF92CF92DF92EF92FF920F931F93CF939A
:104B3000DF93CDB7DEB7E6970FB6F894DEBF0FBEB2
:104B4000CDBF8C01CE0101960E9460250E94A43445
:104B50006F8B788F898F9A8F69817A81072E000CED
:104B6000880B990B0E94BA8E6F87788B898B9A8BF2
:104B70006B817C81072E000C880B990B0E94BA8EEA
:104B80002B013C016D817E81072E000C880B990B57
:104B90000E94BA8E6B8B7C8B8D8B9E8B9B01AC01A4
:104BA0000E94F58E6B017C01A3019201C301B20149
:104BB0000E94F58EA70196010E94EA880E942C8A25
:104BC0009B01AC016F85788989899A8990580E94E8
:104BD00085890E9456896BA37CA38DA39EA32F85F4
:104BE000388949895A89CA01B9010E94F58EA701FD
:104BF00096010E94EA880E942C8A9B01AC01C301A5
:104C0000B2010E9485890E9456896FA378A789A75F
:104C10009AA78091E8139091E913A091EA13B091BB
:104C2000EB132F89388D498D5A8D281B390B4A0B70
:104C30005B0BCA01B9010E94B88E20E030E04AE760
:104C400054E40E9485896B017C0169857A85072E71
:104C5000000C880B990B0E94BA8E2091F4133091AE
:104C6000F5134091F6135091F7130E94E98820E064
:104C700030E043E053E40E948589A70196010E9439
:104C8000F58E6B8F7C8F8D8F9E8F6B857C85072E2D
:104C9000000C880B990B0E94BA8E2091F013309172
:104CA000F1134091F2135091F3130E94E98820E030
:104CB00030E043E053E40E948589A70196010E94F9
:104CC000F58E4B015C016D857E85072E000C880BEF
:104CD000990B0E94BA8E2091EC133091ED13409104
:104CE000EE135091EF130E94E98820E030E043E09A
:104CF00053E40E948589A70196010E94F58E6B01FD
:104D00007C012091DC133091DD134091DE13509132
:104D1000DF130E94EA886F8F78A389A39AA320915A
:104D2000D8133091D9134091DA135091DB136B8D66
:104D30007C8D8D8D9E8D0E94EA886BA77CA78DA7A8
:104D40009EA72091D4133091D5134091D613509142
:104D5000D713C501B4010E94EA886FA778AB89AB6D
:104D60009AAB2091D0133091D1134091D21350912E
:104D7000D313C701B6010E94EA886BAB7CAB8DAB45
:104D80009EAB2091E4133091E5134091E6135091CE
:104D9000E7136B8D7C8D8D8D9E8D0E94EA882FE8A8
:104DA00032EC45E75FE30E94F58E6B017C012DEE4E
:104DB0003EE245E652E46FA178A589A59AA50E9436
:104DC000F58E20E137ED43E25DE30E94F58E9B0115
:104DD000AC01C701B6010E94EA886B017C012091F9
:104DE000E0133091E1134091E2135091E313C501B8
:104DF000B4010E94EA882FE832EC45E75FE30E94A5
:104E0000F58E4B015C012DEE3EE245E652E46BA1CE
:104E10007CA18DA19EA10E94F58E20E137ED43E299
:104E20005DE30E94F58E9B01AC01C501B4010E94B7
:104E3000EA882F89388D498D5A8D2093E813309355
:104E4000E9134093EA135093EB13C092E413D0920A
:104E5000E513E092E613F092E7136093E01370938A
:104E6000E1138093E2139093E3132F8D38A149A1AE
:104E70005AA12093DC133093DD134093DE1350933B
:104E8000DF132BA53CA54DA55EA52093D813309329
:104E9000D9134093DA135093DB132FA538A949A9EE
:104EA0005AA92093D4133093D5134093D61350931B
:104EB000D7132BA93CA94DA95EA92093D0133093F9
:104EC000D1134093D2135093D313E8EBF3E1C08294
:104ED000D182E282F38264837583868397838F8D88
:104EE00098A1A9A1BAA180879187A287B3872F85AE
:104EF000388949895A892487358746875787408A60
:104F0000518A628A738A8B899C89AD89BE89848B18
:104F1000958BA68BB78B88E1D80101900D928A956D
:104F2000E1F7C801E6960FB6F894DEBF0FBECDBF1D
:104F3000DF91CF911F910F91FF90EF90DF90CF9075
:104F4000BF90AF909F908F907F906F905F904F90A9
:104F5000089580E890E10E944922892B09F451C00C
:104F600080E890E10E942822893449F134F48434A5
:104F700021F1853441F581E027C08635E1F08735A0
:104F800001F1823501F587ED9DE09F938F9381E1DB
:104F90009FE09F938F930E945D2168EE73E080E015
:104FA00090E00E94A324E0E0F0E019950F900F90AC
:104FB0000F900F9008C085E007C084E005C083E033
:104FC00003C082E001C080E0282F30E026303105A8
:104FD00014F025E030E03093120F2093110F1F9250
:104FE0008F938CE89AE09F938F9381E19FE09F934A
:104FF0008F930E9405350F900F900F900F900F9098
:105000000F90089581E0089580E0089580E008956C
:10501000089580E0089580E0089580E0089580E09C
:10502000089580E0089585ED8093BC008091BC00D8
:1050300084FDFCCF1092CC0E089540914514262F8C
:1050400030E0240F311D21323105DCF42091CC0EEB
:105050002430C9F4FC0180E090E0861758F43091C8
:1050600045142191DC01AD5DBB4EA30FB11D2C9306
:105070000196F3CF80914514680F6093451480E04A
:10508000089581E0089582E008950895E091221442
:1050900080912114E81730F4F0E0EF5FFB4E80813F
:1050A00090E008958FEF9FEF0895909122148091E2
:1050B0002114981750F4E92FF0E0EF5FFB4E2081A8
:1050C00030E09F5F9093221402C02FEF3FEFC901A1
:1050D00008958091211490E020912214821B91095F
:1050E0000895CF92DF92EF92FF920F931F93CF9389
:1050F000DF937C01262F972F8A018091CD0E882384
:1051000091F0C62FD72F6E01C40ED51ECC15DD052C
:1051100071F06991D701ED91FC910190F081E02D42
:10512000C7011995F3CF642F822F0E941D28C80153
:10513000DF91CF911F910F91FF90EF90DF90CF9073
:105140000895CF93DF931F92CDB7DEB76983209187
:10515000CD0E2223D1F02091F00E203240F021E03C
:1051600030E0FC013383228380E090E015C0809121
:10517000CE0EE82FF0E0E153F14F998190838F5FDD
:105180008093CE0E8093F00E05C061E0CE010196B3
:105190000E941D2881E090E00F90DF91CF9108954B
:1051A0008F929F92AF92BF92CF92DF92EF92FF9237
:1051B0000F931F93CF93DF93862E942E59010E9455
:1051C000A4346B017C0128E8C20E23E1D21EE11C4D
:1051D000F11C00E010E0D0E0C0E098280E94A43468
:1051E000DC01CB018C199D09AE09BF09B7FF2DC0A9
:1051F000692D80EF0E9496150E94A434DC01CB013A
:105200008C199D09AE09BF09B7FF09C088EC0E943F
:10521000B71587FFF1CF60E888EC0E94961588EFFC
:105220000E94B715C82FCF70C43019F0CE3051F09E
:105230000CC00F5F1F4FA114B10481F20A151B05AA
:1052400069F603C0DF5FD33049F68C2FDF91CF9131
:105250001F910F91FF90EF90DF90CF90BF90AF9094
:105260009F908F9008951F920F920FB60F92112466
:105270000BB60F922F933F934F935F936F937F9350
:105280008F939F93AF93BF93EF93FF938091B90058
:10529000887F803609F49CC068F5883209F45BC0C9
:1052A00090F4803109F454C038F4882309F4F6C02E
:1052B000883009F44DC0F6C0883109F44CC0803202
:1052C00009F45DC0EFC0803409F468C048F480334D
:1052D00009F455C0883309F0E5C08093CA0ED8C0E0
:1052E000803509F44FC0883509F45DC0883409F071
:1052F000D9C0D6C0883909F4C7C0A8F4883709F4E2
:1053000067C038F4883609F463C0803709F460C098
:10531000C9C0883809F4B8C0803909F45FC0803842
:1053200009F0C0C05BC0803B09F486C038F4803A05
:1053300009F466C0883A09F47FC0B4C0803C09F41F
:10534000A7C0883C09F4A4C0883B09F48AC0AAC05D
:105350008091A70E10C09091C90E8091C80E981729
:1053600070F5E091C90E81E08E0F8093C90EF0E0D8
:10537000E855F14F80818093BB0085EC86C0809317
:10538000CA0E8EC0E091C90E81E08E0F8093C90EC7
:105390008091BB00F0E0E855F14F80839091C90EF9
:1053A0008091C80E6EC0E091C90E81E08E0F80938F
:1053B000C90E8091BB00F0E0E855F14F80838091E9
:1053C000CB0E81116DC081E08093A60E84EA61C08E
:1053D00083E08093CC0E10926914CFCF8091691432
:1053E000803208F051C0E091691481E08E0F809303
:1053F00069148091BB00F0E0E75BFB4E8083BDCF7A
:1054000085EC8093BC001092CC0E809169148032A0
:1054100030F4E0916914F0E0E75BFB4E108260919C
:10542000691470E0E0914714F091481489E494E124
:1054300019951092691436C084E08093CC0E1092B6
:10544000461410924514E0914314F09144141995B8
:1054500080914514811105C081E08093451410921C
:105460002314E091461481E08E0F80934614F0E0FF
:10547000ED5DFB4E80818093BB009091461480913E
:105480004514981708F479CF85E88093BC000AC0CA
:1054900085EC8093BC001092CC0E04C01092CA0E12
:1054A0000E941328FF91EF91BF91AF919F918F912F
:1054B0007F916F915F914F913F912F910F900BBE14
:1054C0000F900FBE0F901F901895CF93DF93EC01B4
:1054D0008A819B81DC01ED91FC910480F581E02DB6
:1054E0006A8519958A85813439F4EA81FB81EA5805
:1054F000FF4F8081846080831A861B861C861D86F0
:105500001E861F86188A80E0DF91CF91089581E082
:10551000693009F080E00895FC01828508952F929A
:105520003F924F925F926F927F928F929F92AF9233
:10553000BF92CF92DF92EF92FF920F931F93CF9380
:10554000DF93CDB7DEB766970FB6F894DEBF0FBE18
:10555000CDBF7C01162F6A01FA0180819181A28161
:10556000B3818130F3E09F07F1E0AF07B105E1F0CF
:1055700060F48115E1E09E07AE07B10569F1813065
:105580009140A140B10581F067C1833021E09207CD
:1055900020E1A207B10509F46BC083309340A0411C
:1055A000B10509F465C058C180916A14811154C1D4
:1055B000412F61E1C7010E94FA31412F60E1C7012B
:1055C0000E94FA31412F64E0C7010E944E3281E00F
:1055D00080936A1481EB58C1462F61E1C7010E9494
:1055E000FA31412F60E1C7010E94FA3110926A142A
:1055F000D7011A968C911A9787701770880F880FA9
:10560000880F182B1296CD90DC901397112309F474
:1056100023C15601B6E5AB0EB11CE12CF12CF5010E
:10562000819191915F010097D9F0DC01ED91FC919E
:105630000084F185E02D1995811312C0BBE2EB0EB9
:10564000F11CEE0CFF1CF601EE0DFF1D8081918117
:10565000DC01ED91FC910480F581E02D1995FCC0F1
:10566000BFEFEB1AFB0AE0E1EE16F104C1F6F4C05D
:10567000412F64E1C7010E94FA31412F60E1C70167
:105680000E94FA3164E170E080E090E00E946A34A8
:10569000D7011A968C911A97F60151808770482E7F
:1056A0001296ED90FC9013971B8A88E08C8B8CE30C
:1056B0008D8BFAEFEF16FFEFFF0609F4CBC051FA1E
:1056C000552450F8D7011696CD90DC901797CE014F
:1056D000439617969C938E9316971A965C929E010A
:1056E0002F5F3F4F42E150E060E0C7010E94493127
:1056F000F701D782C6828111ADC089849A846B84F8
:105700007C84FD81FE8B2E80670126E5C20ED11CB4
:105710005601312CD5018D919C91009789F1DC01C6
:10572000ED91FC910084F185E02D1995811128C03F
:10573000F50180819181DC01ED91FC910088F18976
:10574000E02D622D19958823D9F0F5018081918192
:10575000DC01ED91FC910484F585E02DA301B401F9
:10576000199581117BC0F50180819181DC01ED915A
:10577000FC910684F785E02D6E89199581116EC024
:105780003394B2E0AB0EB11CE0E13E12C3CFB12CBA
:10579000D6018D919C91009791F1DC01ED91FC91E6
:1057A0000084F185E02D1995811129C0F6018081D1
:1057B0009181DC01ED91FC910088F189E02D622D51
:1057C0001995882309F455C0F60180819181DC0187
:1057D000ED91FC910484F585E02DA301B4011995A8
:1057E00081110DC0F60180819181DC01ED91FC9168
:1057F0000684F785E02D6E8919958823D1F1B3943D
:10580000B2E0CB0ED11CE0E1BE12C2CFD70116969A
:105810008D919C911797892BE9F01A965C92212F14
:1058200040E0642DC7010E949210182F882391F048
:10583000682FC7010E94EE10009761F0FC015482AE
:10584000612FC7010E949331882321F0612FC70186
:105850000E946A1010926A1480E016C0052D212F54
:10586000442D632DC7010E94D315813D09F488CFD3
:10587000F1CF052D212F442D6B2DC7010E94D3158B
:10588000877F813D39F7BBCF66960FB6F894DEBFB0
:105890000FBECDBFDF91CF911F910F91FF90EF9081
:1058A000DF90CF90BF90AF909F908F907F906F9040
:1058B0005F904F903F902F900895CF92DF92FF928C
:1058C0000F931F93CF93DF9300D01F92CDB7DEB716
:1058D0008C01F62E19821A821B821C82462F61E1EE
:1058E0000E94FA314F2D60E1C8010E94FA314F2D1C
:1058F00064E0C8010E944E3283E0C82ED12CAE0174
:105900004F5F5F4F6F2DC8010E9423328823E1F063
:105910004F2D64E1C8010E94FA314F2D60E1C801AA
:105920000E94FA3164E170E080E090E00E946A3405
:105930000F900F900F900F90DF91CF911F910F91CB
:10594000FF90DF90CF90089589819A81AB81BC81CF
:105950009D7F83309140A041B105D1F264E670E0B3
:1059600080E090E00E946A3481E0C81AD10839F6DC
:10597000CFCFDF92EF92FF920F931F93CF93DF93DE
:10598000CDB7DEB72E970FB6F894DEBF0FBECDBFF2
:10599000FC012089211102C010E07FC07C010E941F
:1059A000A434F7010485158526853785DC01CB01F4
:1059B000801B910BA20BB30BB7FDEECF81E090E003
:1059C0009E878D878E010F5F1F4F9E01235F3F4F84
:1059D00041E06285828193810E94C33181114FC071
:1059E00001E082E0D82E89818D21C1F019861A86C6
:1059F0001B861C86AE01475F5F4F602FC7010E9468
:105A0000233281110BC0AE01475F5F4F602FC7018A
:105A10000E948F2A813B89F1811131C0DD0C0F5F1B
:105A2000083009F701E0F7018385801730F1198606
:105A30001A861B861C86AE01475F5F4F602FC70129
:105A40000E942332811117C089859A8587709170D1
:105A50008130914081F48B859C8581609C878B8708
:105A6000AE01475F5F4F602FC7010E948F2A813BC5
:105A700021F0811104C00F5FD6CF10E001C0182FB4
:105A80000E94A434DC01CB018C599F4FAF4FBF4F14
:105A9000F70184879587A687B787812F2E960FB643
:105AA000F894DEBF0FBECDBFDF91CF911F910F9154
:105AB000FF90EF90DF9008953F924F925F926F9228
:105AC0007F928F929F92AF92BF92CF92DF92EF928E
:105AD000FF920F931F93CF93DF93CDB7DEB7E89775
