:100000000C947C010C94AD010C94AD010C94AD01E9
:100010000C94AD010C94AD010C94AD010C94AD01A8
:100020000C94AD010C94AD010C94AD010C94AD0198
:100030000C941A270C94AD010C94AD010C94AD01F5
:100040000C94AD010C9488170C94AD010C94AD0187
:100050000C94AD010C94AD010C94AD010C94EE2305
:100060000C94AD010C9483040C9459040C94AD01D0
:100070000C94AD010C94AD010C94AD010C94AD0148
:100080000C945A170C94AD010C94AD010C94AD0175
:100090000C9424040C94FA030C94AD010C948A156E
:1000A0000C94AD010C94AD010C942C170C94AD0183
:1000B0000C94AD010C94AD010C94AD010C94FE16A2
:1000C0000C94AD010C94AD010C94AD010C94AD01F8
:1000D0000C94AD010C94AD010C94AD010C94AD01E8
:1000E0000C94AD01E517E817D717DB17DF171F18BA
:1000F000EC17F017F617FA17FE17041808180C1863
:100100001F18121816181A180C94C01A0C94981369
:100110000C94A5030C94D5020C94FA170C94141D9E
:100120000C94F6170C947A100C94330D0C94D51390
:100130000C94FF270C94DF170C94DB170C941A18FF
:100140000C94FB010C9416180C9431140C94B81CEC
:100150000C94FE170C9404180C947E020C94370235
:100160000C94EC170C949B240C941F180C94E81717
:100170000C94B71D0C94290E0C94E5130C948D0D62
:100180000C94370D0C94300D0C94ED010C949613D7
:100190000C9408180C94DA010C94DC0C0C940114E7
:1001A0000C94B50D0C94C30C0C94D7170C94360D0D
:1001B0000C94110E0C94E71A0C94F0170C94D613AF
:1001C0000C94E5170C940C180C94E21A0C94690F1B
:1001D0000C9492130C949F130C94F9130C94941395
:1001E0000C9448250C9412180C94AF010C94050D36
:1001F00000000A0B02090C0D0E08070304010000A1
:1002000000000000000000000000000000000000EE
:1002100000000000000000000000000012111000AB
:1002200000000000000000000000000000000000CE
:1002300000000000000000002200250028002B0024
:100240002E003100340002010000050108010B01FD
:1002500000002100240027002A002D003000330078
:1002600001010000040107010A0105050505070554
:1002700008080808020202020A0A08080404040422
:10028000010101010101010103030303030303034E
:10029000040707070C0C0C0C0C0C0C0C02020202DD
:1002A00006060606060606060B0B0B0B0B0B0B0BC6
:1002B0000102102020080810204010204080020178
:1002C000020108040201010204081020408080405D
:1002D000201008040201800402018040201008045C
:1002E00002010804020101020408102040800102FA
:1002F000040810204080FF2711241FBECFEFD1E259
:10030000DEBFCDBF00E00CBF16E0A0E0B2E0EEEA39
:10031000F7E500E00BBF02C007900D92A63BB107C6
:10032000D9F72CE0A6EBB6E001C01D92AE38B207BB
:10033000E1F711E0CCE7D1E000E006C02197010928
:10034000802FFE010E94F929CB37D10780E00807F2
:10035000A9F70E9438240C94D52B0C940000CF925E
:10036000DF92EF92FF920F931F93CF93DF936C0175
:100370007A018B01C0E0D0E0CE15DF0589F0D8010D
:100380006D918D01D601ED91FC910190F081E02DF0
:10039000C6011995892B11F47E0102C02196ECCF7C
:1003A000C701DF91CF911F910F91FF90EF90DF90E8
:1003B000CF900895FC01918D828D981759F0828D10
:1003C000DF01A80FB11D5D968C91928D9F5F928F7A
:1003D00090E008958FEF9FEF0895FC01918D828D3D
:1003E000981731F0828DE80FF11D858D90E008950A
:1003F0008FEF9FEF0895FC01918D828D981B892FBF
:1004000090E008958EE098E00E94FB0121E0892BA6
:1004100009F420E0822F08958BE699E00E94FB0109
:1004200021E0892B09F420E0822F0895FC01848DBE
:10043000DF01A80FB11DA35EBE4F2C91848D90E00B
:1004400001968F739927848FA689B7892C93A089E9
:10045000B1898C9180648C93938D848D981306C0A0
:100460000288F389E02D80818F7D80830895EF924B
:10047000FF920F931F93CF93DF93EC0181E0888F5E
:100480009B8D8C8D981305C0E889F989808185FD45
:1004900024C0F62E0B8D10E00F5F1F4F0F73112736
:1004A000E02E8C8DE8120CC00FB607FCFACFE8895D
:1004B000F989808185FFF5CFCE010E941602F1CF28
:1004C0008B8DFE01E80FF11DE35EFE4FF0820B8F76
:1004D000EA89FB898081806207C0EE89FF89608399
:1004E000E889F98980818064808381E090E0DF91F0
:1004F000CF911F910F91FF90EF900895CF93DF93CD
:10050000EC01888D8823C9F0EA89FB89808185FD0B
:1005100005C0A889B9898C9186FD0FC00FB607FC6C
:10052000F5CF808185FFF2CFA889B9898C9185FFAD
:10053000EDCFCE010E941602E7CFDF91CF91089553
:1005400080E090E0892B21F00E940C02811121C0F3
:1005500080E090E0892B21F00E94020281111CC0F2
:1005600080E090E0892B41F080E090E0892B21F041
:100570000E940000811113C080E090E0892BA1F05F
:1005800080E090E0892B81F00E94000081110AC078
:1005900008950E940000DCCF0E940000E1CF0E947D
:1005A0000000EACF0C9400000895CF92DF92EF9202
:1005B000FF920F931F93CF93DF937801EC01249662
:1005C0006C012BE0C20ED11CDE01F80131912D919E
:1005D000321304C0AC15BD05C9F716C0DC01129674
:1005E0008D919C911397009779F0B801DC01ED9102
:1005F000FC910190F081E02D1995F70181917F0127
:100600008993CC15DD05C9F7DF91CF911F910F912B
:10061000FF90EF90DF90CF9008950E94E02AEF9234
:10062000FF920F931F93CF93DF93D62FC72F7A019B
:1006300091E09093D80798E69093FA071092D90723
:100640001092FB07682F82E098E00E943114019716
:1006500009F068C080E00E94DC19282F30E02115E5
:10066000310509F061C08091D7078111FCCF8E2D33
:10067000813208F080E291E09093D7079093D607FB
:100680002FEF2093D5071092D407280F2093D3077C
:100690009093B2079091B207906D9093B2079091AA
:1006A000B107913061F41092B1079091B207909325
:1006B000BB009091BC0093FDF8CF95EC01C095EE86
:1006C0009093BC009091D7079130E1F39091D407BB
:1006D000981710F48091D407A3EBB7E024E437E037
:1006E000F9019E2F921B981718F49D919193F9CFC1
:1006F00010926507809364070D2F1C2FC0E0D0E097
:100700009091640780916507981781F0CE15DF05F9
:100710006CF4219682E098E00E94E513F801819341
:100720008F01EECF86EF06C0C90108C0CE15DF05E8
:1007300019F085EF9FEF02C080E090E0DF91CF914C
:100740001F910F91FF90EF900895DB013C9111965E
:100750008C911197482F4370E8E0F7E03083418394
:100760008695869512969C911297292F2295220F95
:10077000220F207C822B292F269526952370828399
:10078000238315965C911597578313966C91139755
:10079000658392959F70948314967C9114977683C9
:1007A0001696AC91A0871F925F932F938F934F93D0
:1007B0003F931F929F931F92AF931F927F931F921D
:1007C0006F931F925F932F938F934F933F938EE876
:1007D00092E09F938F938CEF97E09F938F930E946B
:1007E000B2198DB79EB748960FB6F8949EBF0FBE4C
:1007F0008DBF08951F920F920FB60F9211240BB662
:100800000F922F933F934F935F936F937F938F93A9
:100810009F93AF93BF93EF93FF938EE098E00E9476
:100820001602FF91EF91BF91AF919F918F917F91B0
:100830006F915F914F913F912F910F900BBE0F9051
:100840000FBE0F901F9018951F920F920FB60F9228
:1008500011240BB60F922F938F939F93EF93FF93D7
:10086000E0911E08F0911F088081E0912408F0912A
:10087000250882FD11C09081809127088F5F20910B
:100880002808821751F0E0912708F0E0E25FF74F67
:10089000958F8093270801C08081FF91EF919F91F0
:1008A0008F912F910F900BBE0F900FBE0F901F9046
:1008B00018951F920F920FB60F9211240BB60F923C
:1008C0002F933F934F935F936F937F938F939F9358
:1008D000AF93BF93EF93FF938BE699E00E941602CC
:1008E000FF91EF91BF91AF919F918F917F916F9108
:1008F0005F914F913F912F910F900BBE0F900FBEC4
:100900000F901F9018951F920F920FB60F921124FF
:100910000BB60F922F938F939F93EF93FF93E091DA
:100920007B09F0917C098081E0918109F091820935
:1009300082FD11C09081809184098F5F209185098B
:10094000821751F0E0918409F0E0E559F64F958F58
:100950008093840901C08081FF91EF919F918F91D5
:100960002F910F900BBE0F900FBE0F901F901895F8
:10097000FC0120812EBDDC0131969C01260F371F22
:10098000E217F30741F051910DB407FEFDCF4EB5CC
:100990005EBD4D93F5CF61507109FC01E60FF71F65
:1009A0000DB407FEFDCF8EB580830895CF92DF9200
:1009B000EF92FF920F931F93CF93DF938BE699E013
:1009C0000E94FB01892B09F4E3C28BE699E00E94A7
:1009D000DA018934A1F03CF4843479F0853409F0EB
:1009E0006CC281E06BC2863531F0873551F08235BB
:1009F00009F063C208C085E061C284E05FC283E0A1
:100A00005DC282E05BC282EF92E09F938F938CEF96
:100A100097E09F938F930E94581A0FB6F8940F9205
:100A20004091190750911A070F900FBE809143070C
:100A30008F5F809343072091190730911A07CA01ED
:100A4000CE960F900F900F900F902417350728F433
:100A50008417950708F067C003C08417950720F036
:100A60002817390708F05FC06091190770911A07BD
:100A7000E0914007F0914107A285B38544815581FB
:100A800006811781EA011D830C83C681D7815B83B0
:100A90004A83AF014E5F5F4F11960D911C911297E3
:100AA0000417150721F41296DC93CE931197138641
:100AB00012864C9141504C93821B930B860F971FCB
:100AC000E0914007F091410793838283C0914007F2
:100AD000D09141078617970708F01BC2CE010296F6
:100AE00000911507109116072A813B812F3F4FEF88
:100AF000340709F001C2D8011796ED91FC911897BF
:100B0000228133813D832C83D90115969C938E934A
:100B10001497FF83EE83938382831B870A87E80100
:100B200088818F5F88830FB6F8940F928091430776
:100B300081508093430780914307882311F080E020
:100B4000B3C18091B7068823D1F32091C6063091B6
:100B5000C706E0E0F0E069E071E08091C10688231B
:100B600009F477C0D9011696ED91FC911797A489E5
:100B7000B5898685978540895189EC015D834C83D1
:100B8000C089D1899B838A83CF010C9611964D91A0
:100B90005C9112974817590721F41296DC93CE9373
:100BA0001197158A148A8C9181508C93CF010296EB
:100BB000A285B3854481558106811781EA011D8391
:100BC0000C83C681D7815B834A8311964D915C91DA
:100BD00012974817590721F41296DC93CE93119778
:100BE000138612864C9141504C93A68940913F0741
:100BF0004A1710F4A0933F076A9FD00111248D017A
:100C0000055E184FD8011196CD91DC911297D583CE
:100C1000C4834C815D81578346834C815D81DA01B9
:100C200013969C938E9312979D838C8313870287D0
:100C3000E80188818F5F8883A0914007B0914107C8
:100C4000968956968C91981708F487CF709342072F
:100C500084CFEF2BD1F0E0911707F0911807808136
:100C6000811103C08FEF9FEF0CC0E0911707F09147
:100C700018070580F681E02D0680F781E02D82813E
:100C800093819093130780931207309111073323B8
:100C900009F402C119E001E04FEF5FEF80914307D3
:100CA0008111E8C08091190790911A0701969093DD
:100CB0001A0780931907009789F5609117077091BB
:100CC0001807E0911507F0911607F0931807E093C5
:100CD00017077093160760931507209114072F5F6D
:100CE00020931407E0911707F09118072081211134
:100CF00005C0509313074093120710C0E0911707E7
:100D0000F09118070580F681E02D0680F781E02D2F
:100D100062817381709313076093120760911207C9
:100D20007091130720E08617970708F494C0E091AC
:100D30001707F09118076081611105C050931307E0
:100D40004093120788C0E0911707F09118070580BB
:100D5000F681E02D0680F781E02D62817381861790
:100D6000970728F4709313076093120774C0BF01AC
:100D70006E5F7F4FA285B385E480F580C680D78003
:100D8000E701DD82CC82C681D781FB82EA8211969F
:100D9000ED90FC901297E616F70621F41296DC937C
:100DA000CE93119713861286CC91C150CC93A4890F
:100DB000B5891097F1F0C684D784E088F188E60100
:100DC000FD82EC82E088F188E701DB82CA8211961D
:100DD000CD90DC901297EF012C96CC16DD0621F415
:100DE0001296FC92EE921197158A148ACC91C150FA
:100DF000CC93A689B0913F07BA1710F4A0933F0790
:100E00001A9FD0011124ED01C55ED84F6E010980F3
:100E1000DA81C02DD583C483EC80FD80F782E68221
:100E2000EC80FD80D70113967C936E9312977D839F
:100E30006C83D386C286E60168816F5F6883A09168
:100E40004007B0914107768956966C91761708F461
:100E50006ECF21E06CCFE0914007F0914107E68929
:100E60001E9FF0011124E55EF84F8081823040F032
:100E700021E006C0809111078F5F8093110720E069
:100E800080914207811101C0211100934207315026
:100E900009F004CF1092110780914207882309F4CA
:100EA0004ECE0E941D2781E00F900FBE811102C01F
:100EB0000E941D27E0E0F0E0199580E0282F30E047
:100EC0002630310514F025E030E03093FD07209303
:100ED000FC071F928F9380E293E09F938F938CEF98
:100EE00097E09F938F930E94821A0F900F900F901C
:100EF0000F900F900F904CC0F801339642815381B0
:100F0000DA016D917C912617370708F4F9CDFA01C3
:100F1000F5CF9E012E5F3F4FE0901707F090180726
:100F20004A815B814F3FEFEF5E0731F4D70117969F
:100F3000ED91FC9118970CC0F70133966281738193
:100F4000DB010D911C914017510710F0FB01F6CF0A
:100F5000428153815D834C83DA0115963C932E9335
:100F60001497FF83EE8333832283FB86EA86E701AF
:100F700028812F5F28832091120730911307821751
:100F8000930708F0D0CD9093130780931207CBCD31
:100F9000DF91CF911F910F91FF90EF90DF90CF9055
:100FA0000895CF93DF93CDB7DEB7EC970FB6F894E3
:100FB000DEBF0FBECDBF64E670E080E090E00E942F
:100FC00033180E94E2230CEF17E084E090E0909346
:100FD000FD078093FC0780E090E1AEE0B0E08093F5
:100FE000FE079093FF07A0930008B0930108E091DB
:100FF0007B09F0917C0982E08083E0917709F09190
:1010000078091082E0917909F0917A0981E0808372
:1010100010928309E0917F09F091800986E0808336
:10102000E0917D09F0917E09808180618083E0916B
:101030007D09F0917E09808188608083E0917D093F
:10104000F0917E09808180688083E0917D09F09134
:101050007E0980818F7D808386E393E09F938F93C9
:101060001F930F930E94821A81E593E09F938F93C1
:101070001F930F930E94821A8CE693E09F938F93A5
:101080001F930F930E94821A87E893E09F938F9398
:101090001F930F930E94821A88EA93E09F938F9385
:1010A0001F930F930E94C42080EE93E09F938F9331
:1010B0001F930F930E94581A8AE194E09F938F9395
:1010C0001F930F930E949A2082E594E09F938F9341
:1010D0001F930F930E94B2190FB6F894DEBF0FBE94
:1010E000CDBF8DE894E09F938F9380EA94E09F9327
:1010F0008F931F930F930E94821A83E08F9388EE41
:101100008F938CEC94E09F938F931F930F930E9487
:10111000821A84EF94E09F938F931F930F930E9402
:10112000821A0FB6F894DEBF0FBECDBF8091590B67
:10113000803308F043C089E00E94391A8091590B2E
:10114000E82FF0E09F01220F331FE20FF31FE85357
:10115000F54F9081907C9960908310925A0B109279
:101160005B0B6CE00E94ED29682F90E0ECE06E9F35
:10117000B001112440E050E09A01260F371FF90119
:10118000EE0FFF1F2E0F3F1FF901E853F54F20818F
:1011900026FD07C04F5F5F4F4C30510569F70E9435
:1011A000BC16E091590BF0E0CF01880F991FE80FB2
:1011B000F91FE853F54F80818064808389E195E0D1
:1011C0009F938F930CEF17E01F930F930E94821A47
:1011D00088E395E09F938F931F930F930E94581A73
:1011E00080E695E09F938F931F930F930E94821A3E
:1011F00084E30E94391A61E084E30E94B6171092DA
:101200006507109264071092D9071092FB0710929D
:10121000D70711E01093D6071092B10761E084E17F
:101220000E94B61761E085E10E94B6178091B9006F
:101230008E7F8093B9008091B9008D7F8093B90033
:1012400088E48093B80085E48093BC0041E050E0DE
:10125000BE01615E7F4F85E790E00E940F0341E091
:1012600050E0BE01615E7F4F8CE690E00E940F036C
:101270001EA61093D80788E68093FA071092D90724
:101280001092FB076BE682E098E00E9431140FB6E3
:10129000F894DEBF0FBECDBF019771F441E050E07E
:1012A000BE01625D7F4F82E098E00E9401140197C9
:1012B00019F481E00E94DC194EE050E0CE01019665
:1012C0001C01BC018BE390E00E940F0389819A818D
:1012D00099838A838B819C819B838C838D819E8162
:1012E0009D838E838F8198859F83888789859A8542
:1012F00099878A878B859C859B878C878D859E8522
:101300009D878E870AE010E01FAA18AE19AE1AAEAC
:101310001BAA1CAA1DAA1EAA1FA618AA19AA1AAAA5
:10132000C12CD12C760146015701260137012BAE85
:101330003CAE4EE050E06BAD7CAD8BE390E00E94A4
:101340000F0389819A8199838A838B819C819B83F6
:101350008C838D819E819D838E838F8198859F83D1
:10136000888789859A8599878A878B859C859B87BD
:101370008C878D859E859D878E8769817A81072ED2
:10138000000C880B990B0E94EE2A9B01AC01C30153
:10139000B2010E94022A2B013C016B817C81072E45
:1013A000000C880B990B0E94EE2A9B01AC01C50131
:1013B000B4010E94022A4B015C016D817E81072EDF
:1013C000000C880B990B0E94EE2A9B01AC01C7010F
:1013D000B6010E94022A6B017C0169857A85072E7D
:1013E000000C880B990B0E94EE2A9B01AC016FA5A3
:1013F00078A989A99AA90E94022A6FA778AB89AB1C
:101400009AAB6B857C85072E000C880B990B0E948C
:10141000EE2A9B01AC016BA97CA98DA99EA90E9413
:10142000022A6BAB7CAB8DAB9EAB6D857E85072EA8
:10143000000C880B990B0E94EE2A9B01AC016FA94E
:1014400078AD89AD9AAD0E94022A6FAB78AF89AFB3
:101450009AAF64E670E080E090E00E94331801509B
:10146000110909F066CF20E030E040E251E4C30109
:10147000B2010E946E2A6093E6067093E70680939D
:10148000E8069093E90620E030E040E251E4C5012F
:10149000B4010E946E2A6093E2067093E306809383
:1014A000E4069093E50620E030E040E251E4C70115
:1014B000B6010E946E2A6093DE067093DF06809369
:1014C000E0069093E10620E030E040E251E46FA5B1
:1014D00078A989A99AA90E946E2A6093DA06709366
:1014E000DB068093DC069093DD0620E030E040E2EE
:1014F00051E46BA97CA98DA99EA90E946E2A6093D4
:10150000D6067093D7068093D8069093D90620E02C
:1015100030E040E251E46FA978AD89AD9AAD0E9408
:101520006E2A6093D2067093D3068093D40690936C
:10153000D5060E94E223609302077093030780930D
:101540000407909305071092FE061092FF06109272
:101550000007109201071092FA061092FB061092F3
:10156000FC061092FD061092F6061092F7061092F5
:10157000F8061092F9061092F2061092F3061092F5
:10158000F4061092F5061092EE061092EF061092F5
:10159000F0061092F1061092EA061092EB061092F5
:1015A000EC061092ED0685E895E09F938F930CEF83
:1015B00017E01F930F930E94821A84EA95E09F938D
:1015C0008F931F930F930E94821A10920707109215
:1015D00006070FB6F894DEBF0FBECDBF9CE0D92E34
:1015E00028E8622E712C34EB832E912CA12CB12C87
:1015F0000091060710910707043011050CF0C2C0D6
:101600007801EE0CFF1CF701E45FFD4FC080C701BD
:10161000800F911F9C01245A344F2901F9018081C8
:10162000803308F04BC08C2D0E94391AF201808162
:10163000282F30E0A901440F551F240F351FF90151
:10164000E853F54F9C2D9F732081207CC22EC92A20
:10165000C082F201118212826D2D0E94ED29282F85
:1016600030E09CE0899FF001112460E070E0AB0164
:101670004E0F5F1FCA01880F991F480F591FDA01CB
:10168000A853B54F8C9186FD08C06F5F7F4F6C30BB
:10169000710569F7C9010E94BC16F701E00FF11F3F
:1016A000E45AF44FE081F0E0CF01880F991FE80F72
:1016B000F91FE853F54F8081806480830E0D1F1D54
:1016C000F801E45AF44F92818181C080EFE2EC1579
:1016D00008F44EC048E5E42E42E0F42EE91AF10881
:1016E00097FDF394EE0CFF1CEE0CFF1C8301081B0E
:1016F000110987FD1395000F111F000F111F18010D
:10170000012E000C44085508C7010F2C000CAA0B31
:10171000BB0B9C01AD012219330944095509AAE507
:10172000B0E00E94992BA50194010E947A2BDA0166
:10173000C901820D931DA41DB51D801791072CF0C2
:101740008C01E816F9060CF4870102501109000F0C
:10175000111F2FB7F8948C2D90E0FC01EE0FFF1FA6
:101760008E0F9F1FFC01E853F54F128301832FBF9B
:101770008091060790910707019690930707809341
:10178000060736CF8CEC95E09F938F938CEF97E014
:101790009F938F930E94821A8EEE95E00E948C2078
:1017A00082E08F8F8FEF88A389E089A381E08AA3ED
:1017B0001BA283E08DA76AE070E08BEA90E00E94B4
:1017C0000F1982E196E00E948A186AE070E089E0D1
:1017D00090E00E940F1989E196E00E948A184AE081
:1017E00069E070E080E090E00E948C1881E296E071
:1017F0000E948A1889E090E00E947A207E01FFE131
:10180000EF0EF11C0F900F900F900F9000E010E082
:101810008AE296E00E948A186AE070E0C8010E949D
:101820000F198CE296E00E948A18F70181917F01DE
:1018300090E00E94AC1A0F5F1F4F0F30110541F767
:1018400081E396E00E948C2082E089839FEF9A8357
:1018500098E19B838C831D8283E08E8F6AE070E029
:1018600088EC90E00E940F1982E196E00E948A18AD
:101870006AE070E088E190E00E940F1989E196E04B
:101880000E948A184AE068E170E080E090E00E94DF
:101890008C1881E296E00E948A1888E190E00E940C
:1018A0007A200BAD1CAD6801E12CF12C8AE296E0A8
:1018B0000E948A186AE070E0C7010E940F198CE24A
:1018C00096E00E948A18F60181916F0190E00E94D3
:1018D000AC1AFFEFEF1AFF0A2EE1E216F10431F71E
:1018E00085E596E00E948C2089E08B8381E08C83E3
:1018F0006AE070E086EE90E00E940F1982E196E0C7
:101900000E948A186AE070E089E090E00E940F1956
:1019100089E196E00E948A184AE069E070E080E080
:1019200090E00E948C1881E296E00E948A1888E17B
:1019300090E00E947A20E12CF12C8AE296E00E944D
:101940008A186AE070E0C7010E940F198CE296E0E5
:101950000E948A18F80181918F0190E00E94AC1AD0
:10196000FFEFEF1AFF0A2EE1E216F10431F7FFCF85
:1019700008958EBD00000DB407FEFDCF8EB508950D
:101980008CBD9DBD0895CF93DF93EC018C819D812B
:10199000DC01ED91FC910480F581E02D6E811995BB
:1019A00081E08E8F1E821F8E18A219A21AA21CA27D
:1019B00080E0DF91CF910895DC01FC01ED57FF4FEE
:1019C00080818823D1F017968C911797861741F064
:1019D0001A968C911A97861315C021E030E002C048
:1019E00020E030E0F901EE0FFF1F2E0F3F1FFD0139
:1019F000E20FF31F80859185089518968D919C9133
:101A00001997089580E090E00895DC0117968C9175
:101A10001797811106C018968D919C911997892B63
:101A200071F01A968C911A97811118C01B968D919E
:101A30009C911C97892B91F421E030E002C020E0BA
:101A400030E0F901EE0FFF1F2E0F3F1FFD01E20FE7
:101A5000F31F67835187408781E0089580E00895F0
:101A6000FC0184A10895FC0186810895089580E019
:101A7000089580E0089580E090E008950895DF9251
:101A8000EF92FF920F931F93CF93DF93EC01E62E1B
:101A9000F12C85E0689FB0011124FE01E60FF71FCD
:101AA0008085182F177086FF21C001E085E0D82EB1
:101AB0008FEF800F8F3008F001E0FE01D09EE00D27
:101AC000F11D1124808586958695869587708113F2
:101AD00005C0602FCE010E943F0DEACF0F5F00319D
:101AE00061F78D81811302C011501D8385E08E9DA9
:101AF000F0018F9DF00D1124EC0FFD1F108681E089
:101B0000818712862296D783C683DF91CF911F915A
:101B10000F91FF90EF90DF900895FC016134C1F4C4
:101B20003F969C01265A3F4F61E0AC014E5F5F4FEC
:101B3000DF0112971C9211966C93108213974D93AC
:101B40005C933596E217F30799F7FC011582089527
:101B50003D9621E03081361303C0622F0C943F0D77
:101B60002F5F35962031B1F70895CF93DF93FC01B5
:101B7000862F807809F051C0283008F04FC04423E8
:101B800021F09581973009F449C0EF012D96A0E02E
:101B9000B0E011969881911103C0662331F021C005
:101BA0002596AF30B105A9F739C085E08A9FE001DD
:101BB0008B9FD00D1124CE0FDF1F442331F081E421
:101BC000888785818F5F858302C081E0888725E0D3
:101BD0002A9FC0012B9F900D1124E80FF91F8085CB
:101BE0001DC06770660F660F660F442341F0606486
:101BF00085818F5F85838770687F682B03C027701E
:101C0000687B622B25E02A9FC0012B9F900D112439
:101C1000E80FF91F6087862F01C080E0DF91CF9128
:101C20000895611102C006960895FC013D9621E0D9
:101C30003081361307C035E0239F800D911D11249C
:101C4000069608952F5F3596203191F780E090E059
:101C500008953F924F925F926F927F928F929F92E0
:101C6000AF92BF92CF92DF92EF92FF920F931F93AA
:101C7000CF93DF9300D01F92CDB7DEB76C017C838A
:101C80006B835A8349834C0180E1880E911C560175
:101C9000A7E0AA0EB11C11E084E0482E3601B2E1A3
:101CA0006B0E711C93E0392E22E0522E8B819C81A9
:101CB000892B09F4F8C0F60190A1923059F128F46B
:101CC000992341F0913071F0F1CF933039F1943094
:101CD000C1F1ECCF548285819681908787835286AB
:101CE000518610A3AE014D5F5F4FBE016F5F7F4F06
:101CF000C5010E940B1F882309F4D5C0D601159693
:101D0000ED91FC911697808191968C9391978181AA
:101D100092968C93F6017682658230A2D6019296D5
:101D20008C919297843011F493961C92F60181A1C4
:101D300082508483258136813087278382878187FB
:101D400040A2D60192968C918430B1F0853009F48E
:101D500040C0823009F068C0AE014D5F5F4FBE01E8
:101D60006F5F7F4FC5010E940B1F882309F49BC042
:101D7000F601858984A38FC0AE014D5F5F4FBE0120
:101D80006F5F7F4FC5010E940B1F882309F48BC032
:101D9000D60155968C915597833009F07CC0989662
:101DA0008C919897811177C093961C939397529634
:101DB0008C91529796968C93969753968C915397B5
:101DC00097968C93979757968C91579795968C9357
:101DD00062C0AE014D5F5F4FBE016F5F7F4FC501B7
:101DE0000E940B1F882309F45EC0F60183A188239B
:101DF00009F451C082819381009709F44CC0DC0141
:101E0000ED91FC910190F081E02D7401D601959641
:101E10000C91959797962C91979796964C919697AB
:101E200094966C91199537C0F60181A195859923F7
:101E300019F0913031F02AC090E002979787868799
:101E400015872B813C8189819A81782F692FD60152
:101E50001E964D915C911F974115510539F49A8357
:101E600089833C832B831D961C9210C001962115FB
:101E7000310541F041505109F601578746872150FD
:101E80003109E3CF79836A831C821B82F601868540
:101E90009785892B41F4D60116969C928E921597C0
:101EA00090961C9203CF0F900F900F900F90DF91A0
:101EB000CF911F910F91FF90EF90DF90CF90BF9047
:101EC000AF909F908F907F906F905F904F903F90DA
:101ED00008952F923F924F925F926F927F928F92CE
:101EE0009F92AF92BF92CF92DF92EF92FF920F93A9
:101EF0001F93CF93DF93CDB7DEB7C454D1090FB68C
:101F0000F894DEBF0FBECDBFDC019496BC91249641
:101F1000BFAF2497BB2309F4D2C07C010E94E22307
:101F2000F701878C90A0A1A0B2A0DC01CB01881999
:101F30009909AA09BB09B7FDC2C00E94E223D701D3
:101F400093962C91DC01CB01820F911DA11DB11D37
:101F5000F701878F90A3A1A3B2A3312CCE010196E4
:101F60006C01282E90E49C0D25969FAF259740E4A8
:101F7000442E512C3701A5E26A0E711C5701B3E8BB
:101F8000AB0EB11CF701858D381608F098C0832D73
:101F900090E0FC01EE0FFF1F8E0F9F1F8E0D9F1D07
:101FA000FC01E458FF4F808190E0FC01EE0FFF1F21
:101FB000DF01A80FB91FAE0DBF1DAA59BF4F2C914D
:101FC00030E023963FAF2EAF23974601D6011D92F6
:101FD00025962FAD25972A13FACF8E0F9F1F8E0DB2
:101FE0009F1DFC01EB59FF4F86019E012F5B3F4F68
:101FF0004081D70116966C91169714968D919C91FD
:1020000015970E94092381115BC023968EAD9FAD69
:1020100023978134910520F023965FAE4EAE23972F
:1020200022962FAD2297B301C301F6013E2F32193C
:10203000321740F44191DC013D91CD014317B1F3DA
:1020400080E003C024968FAD2497982D92199217A3
:1020500038F4F40191914F01DB019D93BD01F5CF5F
:1020600081112DC0D701ED91FC91008CF18DE02DF7
:102070008601D5014C91B701C7011995D701ED91A2
:10208000FC910288F389E02DD5018C91882311F011
:10209000698101C060E0C7011995009771F0DC010A
:1020A000ED91FC910190F081E02D860122962FADFB
:1020B0002297D5014C91B7011995339463CF80E0F5
:1020C000CC5BDF4F0FB6F894DEBF0FBECDBFDF9104
:1020D000CF911F910F91FF90EF90DF90CF90BF9025
:1020E000AF909F908F907F906F905F904F903F90B8
:1020F0002F9008952F923F924F925F926F927F920E
:102100008F929F92AF92BF92CF92DF92EF92FF9207
:102110000F931F93CF93DF93CDB7DEB7C458D10988
:102120000FB6F894DEBF0FBECDBFDC0114960D9143
:102130001C9115971696FC90F110D2C1B22E942ED8
:10214000A62E3C01D801ED91FC910190F081E02D8B
:1021500060E0C80119952C01009719F476EDF72E6F
:10216000CAC1FC01C080D180C114D10409F4BBC133
:102170001301F5E62F0E311CDC0111963C922E92D4
:102180001496BC929E0126593F4F48E050E060E013
:10219000F301848195810E948F22E82E811193C1E1
:1021A000AB96EFACAB97D201CD92DC92D801ED911A
:1021B000FC910280F381E02D292D40E06A2DC801B9
:1021C0001995F3018683882309F490C1E2969FADA7
:1021D000E297EA59FF4F9083682FD30114968D91AF
:1021E0009C9115970E94D922D82ED801ED91FC918F
:1021F000D20114961C92882361F00480F581E02DB1
:10220000D30116966C91C8011995F3011682FD2C25
:1022100072C10190F081E02DD30116966C91C80136
:102220001995009709F49ACF4E2D433108F042E1F9
:10223000FC01B48241113BC0E4968EAD9FADE497A2
:10224000F301EA57FF4F91838083E6968EAD9FADF1
:10225000E697329791838083EC96FFADEC97C05858
:10226000DF4FF883C058D040910141E0D30116966A
:102270006C91169714968D919C9115970E94E22768
:10228000E82E811123C170E02E01B1E44B0E511CE8
:10229000F3013296CF57DF4FF983E883C158D0401E
:1022A000C2014096EE969FAF8EAFEE978EC050E083
:1022B0009E0126593F4FD30116966C91169714969E
:1022C0008D919C9115970E948F22E82E8111FEC05E
:1022D000B3CF88E192E0F20191838083CF57DF4F43
:1022E000A881B981C158D040B383A28315861786CF
:1022F000168610A211A212A210A6EE968EAD9FAD68
:10230000EE979683858390878783848182878187F0
:10231000EE96AEADBFADEE97B487A387F3013681DD
:1023200084819581C258DF4F99838883CE57D040EE
:102330008E010F5F1F4F272F49E050E0632FCD57CD
:10234000DF4F3883C358D040CC57DF4F7883C45811
:10235000D0400E94B322CD57DF4F3881C358D040C0
:10236000CC57DF4F7881C458D040811127C0AB8053
:10237000BC805F924F921F930F9350E4852E912C57
:10238000C12CD12C62E0E62E072F26E040E8632F17
:10239000C258DF4F88819981CE57D040CC57DF4F4C
:1023A0007883C458D0400E94EF200F900F900F9078
:1023B0000F90CC57DF4F7881C458D04081110DC0A9
:1023C000F301868D823058F47F5FC058DF4FF8816B
:1023D000C058D0407F137DCF02C0E82E77C0D30114
:1023E0005E964C915E97423008F483C09101169638
:1023F0006C91169714968D919C9115970E94E227E7
:102400001F921F921F921F92812C912CA12CB12CF4
:10241000C12CD12CE12CF301048D29E040E0668130
:10242000848195810E94EF20E82E0F900F900F90ED
:102430000F9081114BC010E0F301858D1817B0F596
:10244000812F90E09C01220F331F820F931F860D76
:10245000971DFC01E458FF4F2081222329F1329778
:1024600080818770C82ED12C1F921F921F921F92BD
:10247000812C912CA12CB12CE12C00E02AE041E22E
:10248000D30116966C91169714968D919C91159781
:102490000E94EF20E82E0F900F900F900F9088234E
:1024A00019F0B5E08B1312C01F5FC6CF0190F08109
:1024B000E02D0688F789E02DC301199581E0D3014D
:1024C00094968C9318C0F201D182C082D301ED9111
:1024D000FC910480F581E02DC3011995FE2C0BC001
:1024E00039EDF32E08C027EDF22E05C094EDF92E3C
:1024F00002C081EDF82E8F2DCC57DF4F0FB6F89428
:10250000DEBF0FBECDBFDF91CF911F910F91FF9026
:10251000EF90DF90CF90BF90AF909F908F907F9083
:102520006F905F904F903F902F9008950F931F935F
:10253000CF93DF93C82FD62F8A0180E591E00E94C8
:10254000C00C2C988C2F82600E94B90CCD2FD0E04B
:10255000209721F0BE01C8010E94B804C00FD11F0E
:102560002C9A0E94B80CCE01DF91CF911F910F9150
:1025700008951F93CF93DF9300D0CDB7DEB7182F08
:1025800080E591E06B830E94C00C2C981260198347
:102590006B816A8362E070E0CE0101960E94B8040C
:1025A0002C9A0E94B80C0F900F900F90DF91CF9152
:1025B0001F9108951F93CF93DF931F92CDB7DEB77E
:1025C000182F80E591E00E94C00C2C98812F0E946A
:1025D000B90C80E00E94B90C2C9A89830E94B80C37
:1025E00089810F90DF91CF911F9108959F92AF92B3
:1025F000BF92CF92DF92EF92FF920F931F93CF93F0
:10260000DF937C01C42F122F992493946C01C60E82
:10261000D11CC60ED11C86E5C80ED11CA42EB12C2F
:10262000ABE2AA0EB11CAA0CBB1CAE0CBF1CF6017F
:1026300080819181DC01ED91FC910280F381E02D9C
:10264000202F412F6C2F1995803EC9F4C1110BC06A
:1026500061E088EE0E94B91266E670E080E090E0EA
:102660000E94331816C0F50180819181DC01ED9143
:10267000FC910284F385E02D612F19950AC08D30FD
:1026800031F49FEF990D933008F040C016C08111CE
:102690003DC0F60180819181DC01ED91FC910190BA
:1026A000F081E02D202F412F6C2F1995D82F8D30E0
:1026B00061F48FEF890D833050F464E670E080E0C0
:1026C00090E00E9433189394B2CF8823F1F0C111A7
:1026D0000BC061E088EE0E94B91266E670E080E00F
:1026E00090E00E94331811C0EC2FF0E0BB96EE0F83
:1026F000FF1FEE0DFF1D80819181DC01ED91FC91AA
:102700000284F385E02D612F19958D2FDF91CF91F4
:102710001F910F91FF90EF90DF90CF90BF90AF90FF
:102720009F90089581E0089580E0089580E00895E5
:10273000089580E0089580E0089580E0089580E0A5
:10274000089580E0089585ED8093BC008091BC00E1
:1027500084FDFCCF1092D707089540918C07262F57
:1027600030E0240F311D21323105DCF42091D707F0
:102770002430C9F4FC0180E090E0861758F43091D1
:102780008C072191DC01A659B84FA30FB11D2C93E2
:102790000196F3CF80918C07680F60938C0780E0DF
:1027A000089581E0089582E008950895E091650715
:1027B00080916407E81730F4F0E0EC5BF84F80811B
:1027C00090E008958FEF9FEF0895909165078091B5
:1027D0006407981750F4E92FF0E0EC5BF84F208184
:1027E00030E09F5F9093650702C02FEF3FEFC90174
:1027F00008958091640790E020916507821B9109FC
:102800000895CF92DF92EF92FF920F931F93CF9391
:10281000DF937C01262F972F8A018091D807882388
:1028200091F0C62FD72F6E01C40ED51ECC15DD0535
:1028300071F06991D701ED91FC910190F081E02D4B
:10284000C7011995F3CF642F822F0E94AD13C801E1
:10285000DF91CF911F910F91FF90EF90DF90CF907C
:102860000895CF93DF931F92CDB7DEB76983209190
:10287000D8072223D1F02091FB07203240F021E03D
:1028800030E0FC013383228380E090E015C080912A
:10289000D907E82FF0E0E652F84F998190838F5FD7
:1028A0008093D9078093FB0705C061E0CE010196B4
:1028B0000E94AD1381E090E00F90DF91CF910895D9
:1028C000CF92DF92EF92FF920F931F93CF93DF93FC
:1028D0006C018B017A01EC01CA59D84F888187FFBE
:1028E00004C0FB011182108224C08CE08C9D9001F9
:1028F0008D9D300D11248881A901480F511D87FD40
:102900005A958091580B90E04817590794F48881A4
:10291000A901480F511D87FD5A95CA01FA01EE0F12
:10292000FF1F8E0F9F1FFC01E853F54F808186FD2E
:1029300019C088818F5F88838CE08C9D90018D9D6C
:10294000300D11248881A901480F511D87FD5A952A
:102950008091580B90E048175907BCF488818C305F
:1029600044F113C08881280F311D87FD3A95F90184
:10297000EE0FFF1F2E0F3F1FF901E853F54F808127
:1029800060E08F730E94B617D4CFF80180819181E7
:10299000049680349C4918F480E49CE904C0F80152
:1029A000808191810496F701918380838FEF8883E2
:1029B00045C0F801408151818881B901680F711DBE
:1029C00087FD7A95CB01FB01EE0FFF1F8E0F9F1F36
:1029D000FC01E853F54F81819281840F951FF70127
:1029E000918380838881A901480F511D87FD5A95E5
:1029F000CA01FA01EE0FFF1F8E0F9F1FFC01E85363
:102A0000F54F808186FF1AC08881280F311D87FD10
:102A10003A95F901EE0FFF1F2E0F3F1FF901E85302
:102A2000F54F808161E08F73DF91CF911F910F91FE
:102A3000FF90EF90DF90CF900C94B617DF91CF917D
:102A40001F910F91FF90EF90DF90CF9008958F929C
:102A50009F92AF92BF92CF92DF92EF92FF920F932D
:102A60001F93CF93DF93862E942E59010E94E22369
:102A70006B017C0128E8C20E23E1D21EE11CF11C8F
:102A800000E010E0D0E0C0E098280E94E223DC01E2
:102A9000CB018C199D09AE09BF09B7FF2DC0692D67
:102AA00080EF0E94B9120E94E223DC01CB018C1955
:102AB0009D09AE09BF09B7FF09C088EC0E94DA1270
:102AC00087FFF1CF60E888EC0E94B91288EF0E947E
:102AD000DA12C82FCF70C43019F0CE3051F00CC0CC
:102AE0000F5F1F4FA114B10481F20A151B0569F68F
:102AF00003C0DF5FD33049F68C2FDF91CF911F9158
:102B00000F91FF90EF90DF90CF90BF90AF909F908C
:102B10008F9008951F920F920FB60F9211240BB64B
:102B20000F922F933F934F935F936F937F938F9366
:102B30009F93AF93BF93EF93FF938091B900887FEA
:102B4000803609F49CC068F5883209F45BC090F4C3
:102B5000803109F454C038F4882309F4F6C0883071
:102B600009F44DC0F6C0883109F44CC0803209F434
:102B70005DC0EFC0803409F468C048F4803309F4C4
:102B800055C0883309F0E5C08093D507D8C080359B
:102B900009F44FC0883509F45DC0883409F0D9C004
:102BA000D6C0883909F4C7C0A8F4883709F467C0CB
:102BB00038F4883609F463C0803709F460C0C9C0AE
:102BC000883809F4B8C0803909F45FC0803809F04A
:102BD000C0C05BC0803B09F486C038F4803A09F479
:102BE00066C0883A09F47FC0B4C0803C09F4A7C02D
:102BF000883C09F4A4C0883B09F48AC0AAC080912B
:102C0000B20710C09091D4078091D307981770F540
:102C1000E091D40781E08E0F8093D407F0E0ED546B
:102C2000F84F80818093BB0085EC86C08093D507E8
:102C30008EC0E091D40781E08E0F8093D4078091FD
:102C4000BB00F0E0ED54F84F80839091D407809161
:102C5000D3076EC0E091D40781E08E0F8093D40734
:102C60008091BB00F0E0ED54F84F80838091D6074F
:102C700081116DC081E08093B10784EA61C083E077
:102C80008093D7071092B007CFCF8091B0078032E2
:102C900008F051C0E091B00781E08E0F8093B0073B
:102CA0008091BB00F0E0E057F84F8083BDCF85EC0A
:102CB0008093BC001092D7078091B007803230F427
:102CC000E091B007F0E0E057F84F10826091B00754
:102CD00070E0E0918E07F0918F0780E997E01995F9
:102CE0001092B00736C084E08093D70710928D070A
:102CF00010928C07E0918A07F0918B0719958091CB
:102D00008C07811105C081E080938C0710926A07BF
:102D1000E0918D0781E08E0F80938D07F0E0E659FA
:102D2000F84F80818093BB0090918D0780918C0734
:102D3000981708F479CF85E88093BC000AC085EC29
:102D40008093BC001092D70704C01092D5070E9450
:102D5000A313FF91EF91BF91AF919F918F917F91BD
:102D60006F915F914F913F912F910F900BBE0F90FC
:102D70000FBE0F901F9018958130910581F410922D
:102D8000800082E080938100109285001092840080
:102D9000B19A80916F00826080936F0008958230B5
:102DA000910569F41092900082E080939100109256
:102DB00095001092940088BB809371000895833031
:102DC000910569F41092A00082E08093A100109216
:102DD000A5001092A40089BB809372000895892BEE
:102DE00061F41092200182E080932101109225016C
:102DF000109224018ABB8093730008951F920F9252
:102E00000FB60F9211240BB60F922F933F934F934F
:102E10005F936F937F938F939F93AF93BF93EF9342
:102E2000FF9348E251E064E271E080E090E00E94AC
:102E30006014FF91EF91BF91AF919F918F917F911E
:102E40006F915F914F913F912F910F900BBE0F901B
:102E50000FBE0F901F9018951F920F920FB60F92F2
:102E600011240BB60F922F933F934F935F936F9361
:102E70007F938F939F93AF93BF93EF93FF9348EA12
:102E800050E064EA70E083E090E00E946014FF91FB
:102E9000EF91BF91AF919F918F917F916F915F91D2
:102EA0004F913F912F910F900BBE0F900FBE0F903F
:102EB0001F9018951F920F920FB60F9211240BB608
:102EC0000F922F933F934F935F936F937F938F93C3
:102ED0009F93AF93BF93EF93FF9348E950E064E96A
:102EE00070E082E090E00E946014FF91EF91BF914A
:102EF000AF919F918F917F916F915F914F913F9192
:102F00002F910F900BBE0F900FBE0F901F90189532
:102F10001F920F920FB60F9211240BB60F922F93A0
:102F20003F934F935F936F937F938F939F93AF9351
:102F3000BF93EF93FF9348E850E064E870E081E0CE
:102F400090E00E946014FF91EF91BF91AF919F912B
:102F50008F917F916F915F914F913F912F910F9042
:102F60000BBE0F900FBE0F901F901895362F90E05C
:102F7000FC01E051FE4F4491FC01E055FD4F2491CE
:102F8000FC01E659FD4F9491992309F46BC0442349
:102F900009F455C050E0FA013197E231F10508F02B
:102FA0004EC08827EE58FF4F8F4F0C94F92980911F
:102FB00080008F7707C0809180008F7D03C0809153
:102FC0008000877F809380003AC084B58F7702C0ED
:102FD00084B58F7D84BD33C08091B0008F7703C0EE
:102FE0008091B0008F7D8093B00029C080919000C7
:102FF0008F7707C0809190008F7D03C080919000F3
:10300000877F809390001BC08091A0008F7707C0BE
:103010008091A0008F7D03C08091A000877F809366
:10302000A0000DC0809120018F7707C08091200102
:103030008F7D03C080912001877F80932001E92F3D
:10304000F0E0EE0FFF1FEA5CFD4FA591B4918FB742
:10305000F894EC91311103C020952E2301C02E2B42
:103060002C938FBF08958F929F92AF92BF92CF9271
:10307000DF92EF92FF926B017C010E94BD234B0116
:103080005C01C114D104E104F104F1F00E94BD23FC
:10309000DC01CB0188199909AA09BB09883E934034
:1030A000A105B10570F321E0C21AD108E108F108C9
:1030B00088EE880E83E0981EA11CB11CC114D104B7
:1030C000E104F10419F7DDCFFF90EF90DF90CF908E
:1030D000BF90AF909F908F900895E0916B09F09111
:1030E0006C090190F081E02D682F8BE699E019942E
:1030F000009769F0FC0101900020E9F73197AF01DA
:10310000481B590BBC018BE699E00C94AF0180E0A1
:1031100090E008950C9478188F929F92AF92BF928E
:103120000F931F93CF93DF93CDB7DEB7A1970FB661
:10313000F894DEBF0FBECDBF19A2423008F44AE0BA
:103140008E010F5D1F4F842E912CA12CB12CA50157
:1031500094010E94A42BE62FB901CA010150110964
:10316000EA3014F4E05D01C0E95CD801EC93232B54
:10317000242B252B61F7C8010E947818A1960FB661
:10318000F894DEBF0FBECDBFDF91CF911F910F919D
:10319000BF90AF909F908F900895CF92DF92EF9263
:1031A000FF92CF93DF936B017C014115510581F4B0
:1031B000E0916B09F0916C090190F081E02D8BE6B4
:1031C00099E0DF91CF91FF90EF90DF90CF9019942D
:1031D0004A305105D1F497FF17C08DE20E946D1857
:1031E000EC0166277727CB016C197D098E099F09B1
:1031F0004AE00E948C188C0F9D1FDF91CF91FF90A9
:10320000EF90DF90CF9008954AE0C701B601DF91BB
:10321000CF91FF90EF90DF90CF900C948C18AB0182
:10322000BC01990F880B990B0C94CD18EF92FF926B
:103230000F931F93CF93DF938C01EB01F8018081F3
:10324000882309F485C0853209F079C078018FEFB1
:10325000E81AF80AF8018181882309F479C08532D7
:1032600019F40E946D1870C0833731F48E010E5F1F
:103270001F4F888199815FC0843611F0893659F4D7
:103280008E010E5F1F4F6AE070E0888199810E9475
:103290000F19E80159C0883731F0883551F489E7B2
:1032A00096E00E948A188E010E5F1F4F60E170E069
:1032B000ECCF823631F0823451F48CE796E00E94F4
:1032C0008A188E010E5F1F4F62E070E0DECF8C36F1
:1032D00061F48E010C5F1F4F688179818A819B8127
:1032E0004AE050E00E94CD18D4CF833639F48E01E5
:1032F0000E5F1F4F88810E946D18CBCF843769F411
:103300008E010E5F1F4F88819981019719F48FE715
:1033100096E011C081E896E00EC0843579F48E0104
:103320000E5F1F4F88819981019719F483E896E019
:1033300002C088E896E00E948A18ABCF8701F801A6
:1033400080810E946D18780187010F5F1F4F76CF33
:10335000DF91CF911F910F91FF90EF9008954AE078
:103360000C948C18CF93DF93CDB7DEB78091FC0718
:103370009091FD070597ECF060E070E08EE896E034
:103380000E9416190E94BD230E94AF1984E996E09D
:103390000E948A180E94E2230E94AF1986E996E0F3
:1033A0000E948A18BE01665F7F4F888599850E94BA
:1033B0001619DF91CF910895382F2091FB07909136
:1033C000FA07213208F049C08091D7078111FCCF5C
:1033D00042E04093D7073093D6073FEF3093D507AD
:1033E0001092D4072093D307AAEDB7E043EB57E040
:1033F000FA013E2F341B321718F43D913193F9CF67
:103400001092B2072091B207990F922B9093B207B6
:103410009091B107913061F41092B1079091B20789
:103420009093BB009091BC0093FDF8CF95EC01C048
:1034300095EE9093BC009091D7079230E1F3909174
:10344000D5079F3F79F08091D507803241F0809178
:10345000D507803331F084E005C081E003C082E00D
:1034600001C083E01092D9071092FB071092D80791
:10347000089590E0FC01E055FD4F2491FC01E659D0
:10348000FD4F8491882399F090E0880F991FFC01EB
:10349000E05BFD4FA591B491FC01EA5CFD4F859185
:1034A00094918FB7F894EC91E22BEC938FBF089531
:1034B000CF93DF93CDB7DEB78091FC079091FD07E6
:1034C0000297ECF060E070E08AE996E00E9416193D
:1034D0000E94BD230E94AF1984E996E00E948A18D9
:1034E0000E94E2230E94AF1986E996E00E948A18A2
:1034F000BE01665F7F4F888599850E941619DF910E
:10350000CF910895CF93DF93CDB7DEB78091FC07BD
:103510009091FD070397ECF060E070E080EA96E0A0
:103520000E9416190E94BD230E94AF1984E996E0FB
:103530000E948A180E94E2230E94AF1986E996E051
:103540000E948A18BE01665F7F4F888599850E9418
:103550001619DF91CF910895CF93DF93BC01990F96
:10356000880B990B4AE050E00E94CD18EC0186EAE6
:1035700096E00E9478188C0F9D1FDF91CF910895DF
:10358000CF93DF93EC018A819B81DC01ED91FC916B
:103590000480F581E02D6A8519958A85813439F496
:1035A000EA81FB81EA58FF4F8081846080831A861C
:1035B0001B861C861D861E861F86188A80E0DF916A
:1035C000CF91089581E0693009F080E00895FC0111
:1035D000828508952F923F924F925F926F927F92D1
:1035E0008F929F92AF92BF92CF92DF92EF92FF9213
:1035F0000F931F93CF93DF93CDB7DEB766970FB6C8
:10360000F894DEBF0FBECDBF7C01162F6A01FA0110
:1036100080819181A281B3818130F3E09F07F1E045
:10362000AF07B105E1F060F48115E1E09E07AE0758
:10363000B10569F181309140A140B10581F067C1C8
:10364000833021E0920720E1A207B10509F46BC0A5
:1036500083309340A041B10509F465C058C1809101
:10366000840C811154C1412F61E1C7010E944023A4
:10367000412F60E1C7010E944023412F64E0C70150
:103680000E94942381E08093840C81EB58C1462FE3
:1036900061E1C7010E944023412F60E1C7010E9400
:1036A00040231092840CD7011A968C911A97877038
:1036B0001770880F880F880F182B1296CD90DC900A
:1036C0001397112309F423C15601B6E5AB0EB11CC3
:1036D000E12CF12CF501819191915F010097D9F0D6
:1036E000DC01ED91FC910084F185E02D19958113A9
:1036F00012C0BBE2EB0EF11CEE0CFF1CF601EE0D4E
:10370000FF1D80819181DC01ED91FC910480F581A8
:10371000E02D1995FCC0BFEFEB1AFB0AE0E1EE16B5
:10372000F104C1F6F4C0412F64E1C7010E944023B7
:10373000412F60E1C7010E94402364E170E080E016
:1037400090E00E943318D7011A968C911A97F601CF
:1037500051808770482E1296ED90FC9013971B8A2B
:1037600088E08C8B8CE38D8BFAEFEF16FFEFFF0672
:1037700009F4CBC051FA552450F8D7011696CD90D4
:10378000DC901797CE01439617969C938E931697CD
:103790001A965C929E012F5F3F4F42E150E060E03D
:1037A000C7010E948F22F701D782C6828111ADC066
:1037B00089849A846B847C84FD81FE8B2E806701D2
:1037C00026E5C20ED11C5601312CD5018D919C915C
:1037D000009789F1DC01ED91FC910084F185E02DE9
:1037E0001995811128C0F50180819181DC01ED914D
:1037F000FC910088F189E02D622D19958823D9F07C
:10380000F50180819181DC01ED91FC910484F585C5
:10381000E02DA301B401199581117BC0F5018081D0
:103820009181DC01ED91FC910684F785E02D6E8994
:10383000199581116EC03394B2E0AB0EB11CE0E17A
:103840003E12C3CFB12CD6018D919C91009791F17E
:10385000DC01ED91FC910084F185E02D1995811139
:1038600029C0F60180819181DC01ED91FC910088F5
:10387000F189E02D622D1995882309F455C0F601D0
:1038800080819181DC01ED91FC910484F585E02D2E
:10389000A301B401199581110DC0F60180819181B8
:1038A000DC01ED91FC910684F785E02D6E89199578
:1038B0008823D1F1B394B2E0CB0ED11CE0E1BE126B
:1038C000C2CFD70116968D919C911797892BE9F05D
:1038D0001A965C92212F40E0642DC7010E94B50D1D
:1038E000182F882391F0682FC7010E94110E0097AE
:1038F00061F0FC015482612FC7010E94D922882304
:1039000021F0612FC7010E948D0D1092840C80E080
:1039100016C0052D212F442D632DC7010E94F612DC
:10392000813D09F488CFF1CF052D212F442D6B2D3A
:10393000C7010E94F612877F813D39F7BBCF66969B
:103940000FB6F894DEBF0FBECDBFDF91CF911F91B0
:103950000F91FF90EF90DF90CF90BF90AF909F902E
:103960008F907F906F905F904F903F902F90089531
:10397000CF92DF92FF920F931F93CF93DF9300D0EC
:103980001F92CDB7DEB78C01F62E19821A821B82E8
:103990001C82462F61E10E9440234F2D60E1C80147
:1039A0000E9440234F2D64E0C8010E94942383E0CD
:1039B000C82ED12CAE014F5F5F4F6F2DC8010E9402
:1039C00069238823E1F04F2D64E1C8010E94402360
:1039D0004F2D60E1C8010E94402364E170E080E067
:1039E00090E00E9433180F900F900F900F90DF918E
:1039F000CF911F910F91FF90DF90CF900895898113
:103A00009A81AB81BC819D7F83309140A041B105FB
:103A1000D1F264E670E080E090E00E94331881E02B
:103A2000C81AD10839F6CFCFDF92EF92FF920F93E9
:103A30001F93CF93DF93CDB7DEB72E970FB6F894D1
:103A4000DEBF0FBECDBFFC012089211102C010E0F6
:103A50007FC07C010E94E223F7010485158526853D
:103A60003785DC01CB01801B910BA20BB30BB7FD9B
:103A7000EECF81E090E09E878D878E010F5F1F4F14
:103A80009E01235F3F4F41E06285828193810E94C6
:103A9000092381114FC001E082E0D82E89818D2158
:103AA000C1F019861A861B861C86AE01475F5F4FE0
:103AB000602FC7010E94692381110BC0AE01475FCF
:103AC0005F4F602FC7010E94EA1A813B89F1811183
:103AD00031C0DD0C0F5F083009F701E0F701838585
:103AE000801730F119861A861B861C86AE01475F47
:103AF0005F4F602FC7010E946923811117C089851C
:103B00009A85877091708130914081F48B859C8576
:103B100081609C878B87AE01475F5F4F602FC70135
:103B20000E94EA1A813B21F0811104C00F5FD6CFB9
:103B300010E001C0182F0E94E223DC01CB018C5958
:103B40009F4FAF4FBF4FF70184879587A687B787F1
:103B5000812F2E960FB6F894DEBF0FBECDBFDF913A
:103B6000CF911F910F91FF90EF90DF9008953F92BA
:103B70004F925F926F927F928F929F92AF92BF927D
:103B8000CF92DF92EF92FF920F931F93CF93DF9329
:103B9000CDB7DEB7E8970FB6F894DEBF0FBECDBF46
:103BA000DC011296ED90FC9013971A963C9131111E
:103BB0000BC1822E342E962E3C01D701ED91FC9143
:103BC0000190F081E02D60E0C70119958C0100970C
:103BD00009F4FCC0FC01C080D180C114D10409F4F7
:103BE000F7C05301F4E0AF0EB11CDC011196BC929A
:103BF000AE9214968C92FE0131962F019F0148E0FF
:103C000050E060E0D30112968D919C9113970E9431
:103C10008F22F80114828111E1C089808D81893061
:103C200009F0D8C0D701ED91FC910280F381E02D1D
:103C3000232D41E0692DC7011995F301828788235F
:103C400009F4CAC098859583682F828193810E9468
:103C5000D922982E882391F0D801CD92DC92D701F9
:103C6000ED91FC910480F581E02DD3011A966C91C1
:103C7000C7011995F3011286192DB4C0482D4132A0
:103C800008F040E2D801CD92DC9241110BC09501C1
:103C900042E0F3016285828193810E94E2278111D3
:103CA000A0C00FC050E09201D3011A966C911A97F0
:103CB00012968D919C9113970E948F22811191C031
:103CC000E6CF1F921F925F924F9288E0882E912C30
:103CD00098E0A92EB12CC12CD12C29E2E22E00E0D3
:103CE00026E040EAF3016285828193810E94EF2001
:103CF000182F0F900F900F900F90811173C08B8130
:103D0000D3011B968C931B97820120E048E050E082
:103D10001A966C911A9712968D919C9113970E9406
:103D2000B32281115EC04B815C8120E0F30162858A
:103D3000828193810E94B322811153C0498150E056
:103D40008E010F5D1F4F20E0D3011A966C911A97D8
:103D500012968D919C9113970E94B322811141C0BC
:103D60001F921F921F921F92812C912CA12CB12C7B
:103D7000E12C0E8129E040E0F3016285828193818C
:103D80000E94EF20182F0F900F900F900F9081112D
:103D900029C001E0D3011B968C911B97801738F046
:103DA000402F68E0C3010E9494230F5FF3CF129667
:103DB000ED91FC911397EA58FF4F808184608083D6
:103DC00081E050968C930EC019ED0CC016ED0AC020
:103DD00017ED08C011ED06C014ED04C0F801D18242
:103DE000C082182F812FE8960FB6F894DEBF0FBE61
:103DF000CDBFDF91CF911F910F91FF90EF90DF909A
:103E0000CF90BF90AF909F908F907F906F905F907A
:103E10004F903F900895CF93DF93FC01EA0180819A
:103E20009181892B19F580E027C028813981232BC6
:103E3000D1F3DB012D913C91D9019C91A381B0E09C
:103E4000A81BB10920813181A20FB31F9C938281ED
:103E50008150828388819981019799838883DB01CE
:103E60008D919C91119701968D939C9382818111E4
:103E7000DCCF8381828381E0DF91CF9108958F929F
:103E80009F92BF92CF92DF92EF92FF920F931F9378
:103E9000CF93DF931F92CDB7DEB74C01B62E6901E9
:103EA00049830E94110E7C014981009709F44BC09F
:103EB000DC01ED91FC911197309709F446C01396FF
:103EC0009C9180E0891731F02081241729F03396E6
:103ED0008F5FF8CFE0E0F0E0D601ED93FC933097F0
:103EE000B1F122812695269530E02031310514F07C
:103EF0002FE030E081E090E0A0E0B0E004C0880F67
:103F0000991FAA1FBB1F2A95D2F70197F801918329
:103F100080836B2D80EE0E94B91288ED0E94DA1228
:103F2000682FD70114968C91882339F0F401EA5850
:103F3000FF4F80818260682B01C0697F88ED0E94FD
:103F4000B91280E005C086ED03C087ED01C08BED9E
:103F50000F90DF91CF911F910F91FF90EF90DF9025
:103F6000CF90BF909F908F9008952F923F924F9245
:103F70005F926F927F928F929F92AF92BF92CF92F9
:103F8000DF92EF92FF920F931F93CF93DF9300D0B6
:103F90001F92CDB7DEB73C017C836B832A01790188
:103FA000F901A080B180FB01F181F983F90111824F
:103FB0001082FB01828181FD02C060E101C060E2EC
:103FC00088EE0E94B912AA829201EB81FC814081A5
:103FD00060E0C3010E942715382EF6E08F1316C04B
:103FE00088EF0E94DA128295817091E08927EB8137
:103FF000FC81928180FB91F9928391FD02C060E186
:1040000001C060E288EE0E94B912DECF81115AC071
:1040100088EC0E94DA1282FF53C080E30E94DA1219
:10402000282E90E0A816B90608F42A80F7018081AE
:104030009181822C912C9501281B390BC90137FFE6
:1040400002C080E090E06401881599050CF46C01D1
:1040500080E591E00E94C00C2C9888E00E94B90C89
:10406000A60160E070E0C8010E94E52AC114D104F5
:1040700021F0B601C8010E94B8040C0D1D1D2C9A38
:104080000E94B80C64E088EC0E94B912F7018081AC
:104090009181880E991E91828082F9812F1620F0DD
:1040A0008A149B0408F490CF88EF0E94DA1282955C
:1040B0008170EB81FC81928180FB91F9928302C037
:1040C00080EF382E832D0F900F900F900F90DF917F
:1040D000CF911F910F91FF90EF90DF90CF90BF9005
:1040E000AF909F908F907F906F905F904F903F9098
:1040F0002F900895CF93DF93BC0180E090E04AE0D9
:104100000E948C18EC0186EA96E00E9478188C0FC9
:104110009D1FDF91CF910895CF93DF930E94781870
:10412000EC0186EA96E00E9478188C0F9D1FDF91C3
:10413000CF910895CF93DF93CDB7DEB78091FC0781
:104140009091FD070497ECF060E070E089EA96E05A
:104150000E9416190E94BD230E94AF1984E996E0BF
:104160000E948A180E94E2230E94AF1986E996E015
:104170000E948A18BE01665F7F4F8AE194E00E9428
:104180001619DF91CF910895CF93DF93CDB7DEB7A6
:104190008091FC079091FD0718161906ECF460E079
:1041A00070E08FEA96E00E9416190E94BD230E94DB
:1041B000AF1984E996E00E948A180E94E2230E94C7
:1041C000AF1986E996E00E948A18BE01665F7F4FAC
:1041D00088EA93E00E941619DF91CF9108952F92FB
:1041E0003F924F925F926F927F928F929F92AF9287
:1041F000BF92CF92DF92EF92FF920F931F93CF93D4
:10420000DF93CDB7DEB767970FB6F894DEBF0FBE6A
:10421000CDBF3C01542E422E302E2E2CEDA4FEA4F8
:10422000188A1F861E861D868E01035F1F4F9E0102
:10423000215F3F4F40E00E943F1F811157C15982CB
:104240004A823B822C82DE82CD82B886AF82AE016A
:104250004F5F5F4F68E080E20E9496122D853E8599
:1042600040E060E1C3010E942715182F8111FAC0B8
:10427000452C441C4424441CE114F10409F4E3C01B
:10428000CF84D888442009F455C0D60112968C9169
:104290001297826012968C93650155245394C11431
:1042A000D10409F443C09C868B864D855E856F855D
:1042B000788987019E01255F3F4FC3010E94B51F8A
:1042C000182F863079F42F84388888EF0E94DA120C
:1042D00085FB882780F98525F101928180FB91F982
:1042E0009283DDCF8111BEC02FA538A921153105DC
:1042F000A1F0D901ED91FC9111970190F081E02D91
:10430000C5018C199D099A8789876B857C859E01DB
:10431000275F3F4FA701CD0119958B859C85C81A52
:10432000D90A8815990508F0BACF8DC0112309F470
:104330008FC098C0F6018281816082832D853E8581
:104340003A8B298B21808FEF820D803408F088C052
:104350000E94E2239B01AC0128573C4E4F4F5F4F18
:104360002B8B3C8B4D8B5E8BD60112968C9180FDF6
:1043700002C060E401C060E888EE0E94B912312CEE
:104380008114910409F44DC054012814390408F42F
:104390005101AF8AA7016A2D80E10E9496126A2D11
:1043A00088E30E94B912F6016081606280EF0E948A
:1043B000B91288EC0E94DA1287FFFBCF60E888EC24
:1043C0000E94B91288EF0E94DA12182F1F70412C38
:1043D000512C00E0112371F00E94E223DC01CB019B
:1043E0002B893C894D895E89821B930BA40BB50BED
:1043F000B7FD05C08A189B08EA0CFB1CC1CF16301C
:1044000099F11E3009F46AC0143059F4FFEF4F1AC5
:104410005F0A29893A8921153105F1F142165306BF
:10442000D9F588EF0E94DA1285FB882780F9D6013A
:1044300012969C91129780FB90F912969C931123EF
:1044400009F450C00FC02D853E85411003C04CC0FB
:104450002D853E8560EA40E0C3010E94271546C0D5
:104460008AED44C0812F42C088EF0E94DA1285FB9A
:10447000882780F931E08327D60112969C91129704
:1044800080FB90F912969C9390FD02C060E401C0FD
:1044900060E888EE0E94B91260E088E30E94B912D9
:1044A000F701608180E10E94B9126F8988E30E9460
:1044B000B912D6016C91606280EF0E94B91288EC4B
:1044C0000E94DA1287FFFBCF60E888EC0E94B912E5
:1044D00088EF0E94DA12182F1F707CCF0F5F033015
:1044E000D9F69FCF2D853E8560E8B5CF67960FB68C
:1044F000F894DEBF0FBECDBFDF91CF911F910F911A
:10450000FF90EF90DF90CF90BF90AF909F908F90F3
:104510007F906F905F904F903F902F9008958F9273
:104520009F92AF92BF92CF92DF92EF920F931F9222
:104530001F923F932F934A015A01C12CD12CEE2494
:10454000E39400E026E040E80E94EF200F900F90F7
:104550000F900F900F91EF90DF90CF90BF90AF90A2
:104560009F908F9008958F929F92AF92BF92CF921B
:10457000DF92EF920F931F931F921F921F930F933F
:104580004A015A01C12CD12C32E0E32E022F26E041
:1045900040E80E94EF200F900F900F900F901F9116
:1045A0000F91EF90DF90CF90BF90AF909F908F9042
:1045B00008958F929F92AF92BF92CF92DF92EF9227
:1045C0000F93CF931F921F921F921F92812C912CB9
:1045D000A12CB12CC12CD12CE12C062F25E040E0E0
:1045E00060E00E94EF20C82F6CE271E080E090E074
:1045F0000E9433180F900F900F900F908C2FCF9137
:104600000F91EF90DF90CF90BF90AF909F908F90E1
:104610000895AF92BF92CF92DF92EF92FF920F93E5
:104620001F93CF93DF9300D01F92CDB7DEB77C01ED
:10463000690158011C821B821A8219828E010F5F48
:104640001F4F9E012D5F3F4F0E943F1F811109C0E8
:1046500049815A816B817C8185019601C7010E9445
:10466000B51F0F900F900F900F90DF91CF911F917A
:104670000F91FF90EF90DF90CF90BF90AF90089593
:104680008F929F92AF92BF92CF92DF92EF920F9351
:10469000C42ED12C1F921F921F921F92812C912CFD
:1046A000A12CB12CE12C062F21E043E2FC01628514
:1046B000828193810E94EF200F900F900F900F90B6
:1046C0000F91EF90DF90CF90BF90AF909F908F9021
:1046D00008958F929F92AF92BF92CF92DF92EF9206
:1046E0000F93C62ED12C1F921F925F934F9324E0FD
:1046F000822E912C34E0A32EB12CE12C00E020E09E
:1047000043EAFC016285828193810E94EF200F9031
:104710000F900F900F900F91EF90DF90CF90BF9080
:10472000AF909F908F9008958F929F92AF92BF927B
:10473000CF92DF92EF920F93C42ED12C1F921F9233
:104740001F921F92812C912CA12CB12CE12C062FB1
:1047500023E043E2FC016285828193810E94EF2085
:104760000F900F900F900F900F91EF90DF90CF90E0
:10477000BF90AF909F908F9008953FB7F89480912D
:104780008A0C90918B0CA0918C0CB0918D0C26B55D
:10479000A89B05C02F3F19F00196A11DB11D3FBF79
:1047A000BA2FA92F982F8827820F911DA11DB11D07
:1047B000BC01CD0142E0660F771F881F991F4A9503
:1047C000D1F708952FB7F8946091860C7091870CFB
:1047D0008091880C9091890C2FBF08951F920F92A1
:1047E0000FB60F9211242F933F938F939F93AF9304
:1047F000BF938091860C9091870CA091880CB0910A
:10480000890C3091850C23E0230F2D3720F401967D
:10481000A11DB11D05C026E8230F0296A11DB11DE3
:104820002093850C8093860C9093870CA093880C22
:10483000B093890C80918A0C90918B0CA0918C0C78
:10484000B0918D0C0196A11DB11D80938A0C90939F
:104850008B0CA0938C0CB0938D0CBF91AF919F915A
:104860008F913F912F910F900FBE0F901F90189531
:10487000789484B5826084BD84B5816084BD85B53B
:10488000826085BD85B5816085BDEEE6F0E0808102
:1048900081608083E1E8F0E0108280818260808323
:1048A000808181608083E0E8F0E0808181608083A6
:1048B000E1EBF0E0808184608083E0EBF0E08081D8
:1048C00081608083E1E9F0E0808182608083808183
:1048D00081608083E0E9F0E0808181608083E1EAAB
:1048E000F0E0808182608083808181608083E0EA63
:1048F000F0E0808181608083E1E2F1E0808182608C
:104900008083808181608083E0E2F1E0808181604A
:104910008083EAE7F0E08081846080838081826028
:104920008083808181608083808180688083109211
:10493000C1000E94D107AF92BF92CF92DF92EF9257
:10494000FF920F931F93CF93DF93FC01E701568DE6
:10495000523018F0848D681390C0648F358D60E0FC
:1049600070E0E42EF12CC22ED12CA02EB12C162FEB
:10497000631700F1832F90E0BC01660F771F680F6B
:10498000791FCB0186589F4F8E0F9F1F6E0F7F1F81
:10499000DB01A658BF4F47702770220F220F220F4E
:1049A0000295000F000F007C422B042B0C933F5FFD
:1049B000358F35C063307105E9F2DB01AA0FBB1FEB
:1049C000A60FB71FAE0FBF1FA658BF4F8C91A82FC1
:1049D000A770B0E0AE15BF05F9F4A82FA695A6956F
:1049E000A695A770B0E0AC15BD05B1F4829586958B
:1049F0008695837090E08A159B0571F4812F90E075
:104A0000BC01660F771F860F971F86589F4F8E0F2A
:104A10009F1F009721F4AECF6F5F7F4FA8CF2B81F0
:104A200023706A81233039F4462F4095441F442770
:104A3000441F4F5F01C042E0252F30E0D901AA0F8B
:104A4000BB1F2A0F3B1F2E0F3F1FD901AB59BF4F72
:104A50006F706C9311966C816C93119624E02C937B
:104A6000DC01A40FB11D11965C938E8193A1981760
:104A700008F483A3868D8F5F868FDF91CF911F917E
:104A80000F91FF90EF90DF90CF90BF90AF9008957F
:104A9000EF92FF920F9302970E949B240F91FF9039
:104AA000EF9008950F920FB6F8940F920BB60F92F5
:104AB0000CB60F921F9211242F923F924F925F9249
:104AC0006F927F928F929F92AF92BF92CF92DF921E
:104AD000EF92FF920F931F932F933F934F935F9308
:104AE0006F937F938F939F93AF93BF93CF93DF93F6
:104AF000EF93FF93A0914007B09141070DB60D923F
:104B00000EB60D9213BE809143078111F1C08091C2
:104B1000190790911A07019690931A078093190725
:104B2000009799F5209117073091180740911507C4
:104B300050911607509318074093170730931607A4
:104B400020931507209114072F5F20931407E091FD
:104B50001707F09118072081211107C02FEF3FEFB1
:104B6000309313072093120710C0E0911707F091BC
:104B700018070580F681E02D0680F781E02D22815F
:104B8000338130931307209312072091120730913D
:104B900013078217930710F420E09AC020E019E071
:104BA000E0911707F09118073081311107C08FEF9E
:104BB0009FEF90931307809312078AC0E091170725
:104BC000F09118070580F681E02D0680F781E02D31
:104BD000428153818417950728F45093130740931B
:104BE000120776C0AF014E5F5F4FA285B385648127
:104BF0007581E680F780EB01FD82EC82C681D7816A
:104C00007B836A8311966D917C9112976417750767
:104C100021F41296DC93CE931197138612863C9161
:104C200031503C93A489B5891097F1F0668577855A
:104C3000E088F188EB01FD82EC82C089D1897B8319
:104C40006A831196ED90FC901297BF01645F7F4FCD
:104C5000E616F70621F41296DC93CE931197158A87
:104C6000148A3C9131503C93A68930913F073A1702
:104C700010F4A0933F071A9FD0011124BD01655E77
:104C8000784F7B01DB011196CD91DC911297D58392
:104C9000C4836C817D81778366836C817D81DB0138
:104CA00013965C934E9312975D834C83F386E28652
:104CB000E70138813F5F3883A0914007B0914107F9
:104CC000468956963C91431708F46ACF21E068CF95
:104CD000E0914007F0914107E689D9E0ED9FF001AE
:104CE0001124E55EF84F8081823040F021E006C05B
:104CF000809111078F5F8093110720E08091420718
:104D0000811103C0222309F466C0809143078823E0
:104D100021F081E0809342075EC010924207A0918B
:104D20004007B0914107E0914007F09141072D9174
:104D30003C918789908D82179307A8F08091400756
:104D4000909141078091400790914107279A2F9AAF
:104D50002FEF67EA71E6215060407040E1F700C034
:104D600000001F9AF5CF80913F0769E001C0815094
:104D7000482F50E0649F9001659F300D1124F90188
:104D8000E55EF84F9081992391F3A181B28112964B
:104D90000D90BC91A02DB283A183225E384FA21743
:104DA000B30731F412962D913C91139732832183EE
:104DB00099E0949FF001959FF00D1124E55EF84F66
:104DC0000180F281E02D26813781309341072093C5
:104DD000400780933F07A0914007B0914107CD91D4
:104DE000CDBFDD91DEBFFF91EF91DF91CF91BF91FC
:104DF000AF919F918F917F916F915F914F913F9173
:104E00002F911F910F91FF90EF90DF90CF90BF9067
:104E1000AF909F908F907F906F905F904F903F905A
:104E20002F901F900F900CBE0F900BBE0F900FBED7
:104E30000F9008950E94522518950F920FB6F8947E
:104E40000F920BB60F920CB60F921F9211242F9255
:104E50003F924F925F926F927F928F929F92AF920A
:104E6000BF92CF92DF92EF92FF920F931F932F93F7
:104E70003F934F935F936F937F938F939F93AF93E2
:104E8000BF93CF93DF93EF93FF93A0914007B0912F
:104E900041070DB60D920EB60D92809143078823FF
:104EA00021F081E0809342075EC010924207A091FA
:104EB0004007B0914107E0914007F09141072D91E3
:104EC0003C918789908D82179307A8F080914007C5
:104ED000909141078091400790914107279A2F9A1E
:104EE0002FEF87EA91E6215080409040E1F700C023
:104EF00000001F9AF5CF80913F0769E001C0815003
:104F0000482F50E0649F9001659F300D1124F901F6
:104F1000E55EF84F9081992391F3A181B2811296B9
:104F20000D90BC91A02DB283A183225E384FA217B1
:104F3000B30731F412962D913C911397328321835C
:104F400099E0949FF001959FF00D1124E55EF84FD4
:104F50000180F281E02D2681378130934107209333
:104F6000400780933F07A0914007B0914107CD9142
:104F7000CDBFDD91DEBFFF91EF91DF91CF91BF916A
:104F8000AF919F918F917F916F915F914F913F91E1
:104F90002F911F910F91FF90EF90DF90CF90BF90D6
:104FA000AF909F908F907F906F905F904F903F90C9
:104FB0002F901F900F900CBE0F900BBE0F900FBE46
:104FC0000F9008950F931F93CF93DF932115310511
:104FD00071F0E901042F162F0E94110EFC01892B9C
:104FE00041F01283D183C083038380E003C088ED46
:104FF00001C086EDDF91CF911F910F91089510921E
:1050000005081092040888EE93E0A0E0B0E08093D9
:10501000060890930708A0930808B093090824E2B3
:1050200032E0309303082093020810921108109286
:1050300010088093120890931308A0931408B0935B
:10504000150824E332E030930F0820930E084DEC4E
:1050500050E050931B0840931A084CEC50E05093DA
:105060001D0840931C0848EC50E050931F084093E3
:105070001E0849EC50E050932108409320084AEC68
:1050800050E050932308409322084EEC50E0509398
:10509000250840932408109227081092280810929F
:1050A000290810922A0810926E0910926D098093B7
:1050B0006F0990937009A0937109B09372093093AE
:1050C0006C0920936B0985EC90E0909378098093AC
:1050D000770984EC90E090937A098093790980ECC9
:1050E00090E090937C0980937B0981EC90E0909311
:1050F0007E0980937D0982EC90E0909380098093F3
:105100007F0986EC90E09093820980938109109248
:10511000840910928509109286091092870988E8FF
:1051200092E090930E0C80930D0C1092120C109242
:10513000150C81E08093160C1092170C8FE09CE008
:105140009093140C8093130C10920F0C88E08093B2
:10515000100C8CE38093110C80E090E041E02FE094
:105160003CE0FC01E35FF34F1586468717863487E2
:10517000238705968B349105A1F71092830C81E16A
:105180008093680B82E792E09093FD0B8093FC0B79
:105190008DE09CE09093FF0B8093FE0B1092060C29
:1051A0001092070C1092080C1092090C10920A0C25
:1051B00010920B0C10920C0C1092000C88E0809353
:1051C000010C9CE39093020C91E09093030C80936C
:1051D000040C84E08093050CE3E6FCE080E090E0C2
:1051E00021913191232B51F4880F991FFC01ED5926
:1051F000F34F8CEF9BE09183808304C00196803154
:10520000910571F78DE09CE09093790B8093780B7A
:105210008AE492E09093750B8093740B8CE692E095
:105220009093770B8093760B1092930B1092940BC4
:105230001092950B1092960B1092970B1092980B60
:105240001092F70B10927B0B10927D0B10927C0B3F
:1052500010927E0B1092800B10927F0BE1E8FBE026
:1052600010821282118233962BE0E039F207C1F7E7
:1052700044E75BE09A0180E090E0FC01EE0FFF1F45
:10528000E80FF91FE251F44F608168736083F90100
:10529000E558FF4F10823196108201962D5F3F4FE7
:1052A0008330910551F780E090E0FA01EB59FF4F10
:1052B0001082009711F428E001C020E0FA01EA59B9
:1052C000FF4F2083FC01EE0FFF1FDF01A80FB91F66
:1052D000A552B44F2C912E7F2D7F2C93009711F463
:1052E0002FE001C021E0E80FF91FE552F44F220F33
:1052F000220F30813370232B208301964D5F5F4F47
:105300008730910591F681E08093920B1092910B7A
:105310001092900BE9E9FBE080E48E0F11928E135E
:10532000FDCFE3E6FCE080E090E021913191232B7A
:1053300051F4880F991FFC01ED59F34F84E79BE06E
:105340009183808304C001968031910571F784E4D4
:1053500092E090936A0B8093690B80E092E09093C7
:105360006C0B80936B0B8091580BACE5BBE09FEF0F
:1053700048EB5BE0803378F48C93282F30E0F90120
:10538000EE0FFF1F2E0F3F1FF901E853F54F528319
:1053900041838F5F01C09C9313962BE0A836B20720
:1053A00049F78093580B8033A0F491E0980F9093C5
:1053B000580B8093590B90E0FC01EE0FFF1F8E0FEE
:1053C0009F1FFC01E853F54F88EB9BE0928381839C
:1053D00008958FEF8093590B0895991B79E004C0CD
:1053E000991F961708F0961B881F7A95C9F7809524
:1053F0000895EE0FFF1F881F8BBF0790F691E02DD9
:1054000019945058BB27AA270E94192A0C94402BA4
:105410000E94322B38F00E94392B20F039F49F3F44
:1054200019F426F40C942F2B0EF4E095E7FB0C9462
:10543000292BE92F0E94512B58F3BA1762077307E3
:105440008407950720F079F4A6F50C94732B0EF4DD
:10545000E0950B2EBA2FA02D0B01B90190010C0184
:10546000CA01A0011124FF27591B99F0593F50F49C
:10547000503E68F11A16F040A22F232F342F4427F4
:10548000585FF3CF469537952795A795F0405395EC
:10549000C9F77EF41F16BA0B620B730B840BBAF0BC
:1054A0009150A1F0FF0FBB1F661F771F881FC2F727
:1054B0000EC0BA0F621F731F841F48F4879577953B
:1054C0006795B795F7959E3F08F0B0CF9395880FF5
:1054D00008F09927EE0F9795879508950E94822AE4
:1054E0000C94402B0E94392B58F00E94322B40F034
:1054F00029F45F3F29F00C94292B51110C94742B43
:105500000C942F2B0E94512B68F39923B1F3552350
:1055100091F3951B550BBB27AA27621773078407C6
:1055200038F09F5F5F4F220F331F441FAA1FA9F35C
:1055300035D00E2E3AF0E0E832D091505040E6954A
:10554000001CCAF72BD0FE2F29D0660F771F881FAB
:10555000BB1F261737074807AB07B0E809F0BB0B9E
:10556000802DBF01FF2793585F4F3AF09E3F5105B2
:1055700078F00C94292B0C94742B5F3FE4F3983E45
:10558000D4F3869577956795B795F7959F5FC9F79B
:10559000880F911D9695879597F90895E1E0660F1C
:1055A000771F881FBB1F621773078407BA0720F095
:1055B000621B730B840BBA0BEE1F88F7E0950895FE
:1055C00081E090E0F8940C94D52BDC0101C06D9340
:1055D00041505040E0F70895E89409C097FB3EF42D
:1055E00090958095709561957F4F8F4F9F4F992330
:1055F000A9F0F92F96E9BB279395F69587957795AE
:105600006795B795F111F8CFFAF4BB0F11F460FF6D
:105610001BC06F5F7F4F8F4F9F4F16C0882311F0C5
:1056200096E911C0772321F09EE8872F762F05C0D9
:10563000662371F096E8862F70E060E02AF09A9574
:10564000660F771F881FDAF7880F9695879597F969
:10565000089597F99F6780E870E060E008959FEFF4
:1056600080EC089500240A941616170618060906F9
:10567000089500240A9412161306140605060895C8
:10568000092E0394000C11F4882352F0BB0F40F450
:10569000BF2B11F460FF04C06F5F7F4F8F4F9F4F90
:1056A000089557FD9058440F551F59F05F3F71F012
:1056B0004795880F97FB991F61F09F3F79F0879579
:1056C0000895121613061406551FF2CF4695F1DF02
:1056D00008C0161617061806991FF1CF8695710592
:1056E000610508940895E894BB2766277727CB01C6
:1056F00097F90895052E97FB1EF400940E94912BB4
:1057000057FD07D00E94A42B07FC03D04EF40C9445
:10571000912B50954095309521953F4F4F4F5F4FBE
:10572000089590958095709561957F4F8F4F9F4F0D
:1057300008950E94C62BA59F900DB49F900DA49F25
:10574000800D911D11240895A1E21A2EAA1BBB1BE6
:10575000FD010DC0AA1FBB1FEE1FFF1FA217B3073D
:10576000E407F50720F0A21BB30BE40BF50B661F53
:10577000771F881F991F1A9469F760957095809517
:1057800090959B01AC01BD01CF010895A29FB0018E
:10579000B39FC001A39F700D811D1124911DB29F65
:0E57A000700D811D1124911D0895F894FFCF06
:1057AE001E0200008E0C80000100000002000300AB
:1057BE000400050000000000290E00000000A503F3
:1057CE000000000031140114F913E513D613D5139C
:1057DE00000000003702AF01FB01DA01ED017E028D
:1057EE0000000000D502000000007A109F13C30CC9
:1057FE00690F330D9813961394139213DC0C050D49
:10580E00370D360D300D9B24FEFF0000482500009D
:10581E000000B71D9F13C01A141DE71AB81C96136B
:10582E00E21A921300000000110EB50D8D0D534BB0
:10583E00595F5359533A204D41494E3A2038383A20
:10584E0020583A20256420593A202564205A3A20BF
:10585E002564205961773A2025642C206275747472
:10586E006F6E5F613A20256420627574746F6E5F8F
:10587E00623A202564206861743A20256420783AC3
:10588E0020256420793A202564207A3A2025640A5E
:10589E000D00534B595F5359533A204D41494E3ADF
:1058AE00203734333A2053595354454D5F524553A4
:1058BE00455420696E2031303030206D730A0D0052
:1058CE004C4F47206C6576656C207265696E697405
:1058DE002025640A0D00534B595F5359533A204DFE
:1058EE0041494E3A2039333A20454D5054590A0D0C
:1058FE0000534B595F5359533A204D41494E3A206C
:10590E0039343A20454D5054590A0D00534B595FC6
:10591E005359533A204D41494E3A2039353A204594
:10592E004D5054590A0D00534B595F5359533A2059
:10593E004D41494E3A2039363A2048454C4C4F207D
:10594E00574F524C440A0D00534B595F5359533A1B
:10595E00204D41494E3A2039373A204C4F474C455D
:10596E0056454C202D204552524F52204C455645FF
:10597E004C202D204D534720434845434B0A0D00E4
:10598E00534B595F5359533A204D41494E3A2039A2
:10599E00383A204C4F474C4556454C202D20574108
:1059AE00524E494E47204C4556454C202D204D53C6
:1059BE004720434845434B0A0D00534B595F5359FB
:1059CE00533A204D41494E3A2039393A204C4F47EF
:1059DE004C4556454C202D204445425547204C45BC
:1059EE0056454C202D204D534720434845434B0AE6
:1059FE000D00534B595F5359533A204D41494E3A7E
:105A0E00203130303A204C4F474C4556454C202DD6
:105A1E0020564552424F5345204C4556454C202D5D
:105A2E00204D534720434845434B0A0D0076302EF8
:105A3E00302E302D37342D673230643339386100D3
:105A4E00534B595F5359533A204D41494E3A2031E9
:105A5E0030353A20534B595F53595354454D2056C8
:105A6E00455249534F4E2025730A0D00534B595F33
:105A7E005359533A204D41494E3A203131323A2052
:105A8E005441534B5F4C4F4F505F54494D45202569
:105A9E00640A0D00534B595F5359533A204D4149F7
:105AAE004E3A203131353A2053657474696E672051
:105ABE007570204543530A0D00534B595F5359538C
:105ACE003A204D41494E3A203131373A20444F4E1B
