:100000000C94AF070C94E0070C94E0070C94E00705
:100010000C94E0070C94E0070C94E0070C94E007C4
:100020000C94E0070C94E0070C94E0070C94E007B4
:100030000C9477840C94E0070C94E0070C94E00790
:100040000C94E0070C948F240C94E0070C94E007C8
:100050000C94E0070C94E0070C94E0070C94EE3449
:100060000C94E0070C9442280C9418280C94E00798
:100070000C94E0070C94E0070C94E0070C94E00764
:100080000C9461240C94E0070C94E0070C94E007B6
:100090000C94E3270C94B9270C94E0070C94BD242E
:1000A0000C94E0070C94E0070C9433240C94E007C4
:1000B0000C94E0070C94E0070C94E0070C940524E2
:1000C0000C94E0070C94E0070C94E0070C94E00714
:1000D0000C94E0070C94E0070C94E0070C94E00704
:1000E0000C94E00711401140114046408B42ED4214
:1000F0001140114046408B423534383427342B347C
:100100002F346F343C34403446344A344E34543403
:1001100058345C346F34623466346A34084AD73BEE
:100120003BCE016E84BCBFFDC12F3D6C74319ABDC6
:1001300056833DDA3D00C77F11BED9E4BB4C3E91EA
:100140006BAAAABE000000803F000C9458340C94A7
:100150001B2C0C9435340C9444210C9452170C94A1
:1001600087210C9497210C94D6790C942B180C941D
:1001700046400C9454340C94A9170C944A210C94C6
:10018000B3210C9446340C9421770C948B420C943C
:1001900015270C944E340C944A340C94ED420C9474
:1001A000A00F0C94F42B0C94AC170C946A340C94A0
:1001B0003B260C947B170C945C340C94EF250C9428
:1001C000AB210C94A6170C9466340C94EB2E0C9473
:1001D00046210C94AD170C9443350C949F180C9445
:1001E000F01A0C942B340C946F340C94E3210C947F
:1001F000AC010C9487180C9411400C941A260C94A2
:1002000062340C9439170C9440340C9451210C94A2
:1002100074760C944F270C9403180C94162C0C94A1
:1002200088210C94482E0C9438340C942F340C9460
:1002300048210C9471140C942D260C94EC2D0C94E4
:100240003C340C9477260C94DF190C9427340C94CE
:10025000BE2600002200250028002B002E003100C1
:10026000340002010000050108010B01000021001B
:10027000240027002A002D00300033000101000077
:10028000040107010A010505050507050808080816
:10029000020202020A0A080804040404010101011E
:1002A0000101010103030303030303030407070719
:1002B0000C0C0C0C0C0C0C0C0202020206060606BE
:1002C000060606060B0B0B0B0B0B0B0B010210208B
:1002D000200808102040102040800201020108047C
:1002E0000201010204081020408080402010080410
:1002F0000201800402018040201008040201080469
:1003000002010102040810204080010204081020AC
:10031000408000000A0B02090C0D0E0807030401BF
:1003200000000000000000000000000000000000CD
:10033000000000000000000000000000000012119A
:10034000100000000000000000000000000000009D
:10035000000000000000000089E0482EAA24AA94B2
:10036000BA2CEE24EA94FE2CCC24CA94DC2C55241E
:100370005394992493948091A50E882309F4E3C59E
:100380008091830E8F5F8093830ED0919D130FB663
:10039000F8940F928091830E81508093830E809108
:1003A000830E8111DEC18091410E882309F4D9C1E9
:1003B00020915A0E30915B0EE0E0F0E08091550EF6
:1003C000882309F48FC0D9011696ED91FC911797F7
:1003D000048915894685578580899189DA011596A2
:1003E0009C938E93149780899189DC0113965C937A
:1003F0004E931297AF01445F5F4FD80111966D91F4
:100400007C9112976417750721F412969C938E9332
:100410001197158A148AD8018C9181508C93AF0161
:100420004E5F5F4F02851385648175818681978158
:10043000DB0115969C938E93149786819781DC013E
:1004400013967C936E931297D80111966D917C91BF
:1004500012976417750721F412969C938E93119747
:1004600013861286D8018C9181508C93A689809135
:10047000820E8A1710F4A093820E4A9ED001112496
:100480008D01025A114FD80111968D919C911297AE
:1004900095838483DC0114966D917C911597778305
:1004A000668314966D917C911597DB0113965C938E
:1004B0004E931297DC0115965C934E931497138715
:1004C0000287D8018C918F5F8C93A091840EB0919C
:1004D000850E968956968C91981708F46FCF909256
:1004E000540E6CCFEF2BE1F0E0914D0EF0914E0EDB
:1004F0008081811105C0D0924C0EC0924B0E10C06D
:10050000E0914D0EF0914E0E0580F681E02D0680B3
:10051000F781E02D8281938190934C0E80934B0E56
:100520003091400E332309F417C18091830E81115D
:1005300001C18091510E9091520E01969093520EEE
:100540008093510E009789F540914D0E50914E0EBB
:1005500060914F0E7091500E70934E0E60934D0E41
:100560005093500E40934F0E2091530E2F5F2093C7
:10057000530EE0914D0EF0914E0E2081211105C0D9
:10058000D0924C0EC0924B0E10C0E0914D0EF091E7
:100590004E0E0580F681E02D0680F781E02D428128
:1005A000538150934C0E40934B0E40914B0E509103
:1005B0004C0E20E08417950708F4ADC0E0914D0E75
:1005C000F0914E0E4081411105C0D0924C0EC09268
:1005D0004B0EA1C0E0914D0EF0914E0E0580F681BC
:1005E000E02D0680F781E02D428153818417950725
:1005F00028F450934C0E40934B0E8DC0BF016E5F9C
:100600007F4F628473840481158146815781D801AC
:1006100015965C934E93149746815781DA01139691
:100620001C930E931297D30111960D911C91129762
:100630000617170721F412965C934E9311971386B1
:100640001286D3014C9141504C9324883588211453
:10065000310429F14685578500891189DA011596FB
:100660001C930E93149700891189D80113965C93FB
:100670004E931297D10111966D907C901297AF0115
:10068000445F5F4F6416750621F412961C930E9317
:100690001197158A148AD1014C9141504C93A68927
:1006A0004091820E4A1710F4A093820E4A9ED00108
:1006B0001124AD01425A514F3A01DA0111964D9180
:1006C0005C91129755834483DA0114960D911C9125
:1006D00015971783068314960D911C911597D801D1
:1006E00013967C936E931297DA0115967C936E9312
:1006F000149773866286D3014C914F5F4C93A091FF
:10070000840EB091850E568956964C91541708F474
:1007100055CF21E053CFE091840EF091850EE6890C
:100720004E9EF0011124E25AF14F8081823040F058
:1007300021E006C08091400E8F5F8093400E20E044
:100740008091540E811101C021119092540E3150AC
:1007500009F0EBCE1092400E8091540E81110E9450
:100760007A840F900FBEDD2309F405CE0FB6F894FE
:100770000F92E091A213F091A31306811781E80173
:10078000EA85FB858C819D812E813F81DC01159658
:100790003C932E9314970E80DF81C02D9B838A8318
:1007A000C8010296218132812817390711F4D283BA
:1007B000C183E8011B861A868081815080838091E5
:1007C000410E81508093410E8091A50E81508093FF
:1007D000A50E0F900FBE2F89388D2115310509F414
:1007E000E4C19091830E9F5F9093830EC9010E9494
:1007F0002E8B0FB6F8940F928091830E81508093C8
:10080000830E8091830E8111CEC18091410E882389
:1008100009F4C9C160915A0E70915B0EE0E0F0E0FE
:100820008091550E882309F47FC0DB011696ED9167
:10083000FC911797C489D589268537858089918948
:10084000D90115969C938E93149780899189DC0128
:1008500013963C932E9312979F01245F3F4F49813B
:100860005A814217530711F49A838983158A148A8F
:100870008881815088839F012E5F3F4FC285D38539
:100880004481558186819781DA0115969C938E93D8
:10089000149786819781DC0113965C934E9312978F
:1008A00049815A814217530711F49A838983138629
:1008B0001286888181508883A6898091820E8A174A
:1008C00010F4A093820E4A9ED0011124ED01C25A69
:1008D000D14F89819A8195838483DC0114964D914F
:1008E0005C9115975783468314964D915C911597AB
:1008F000DA0113963C932E931297DC0115963C93E4
:100900002E931497D387C28788818F5F8883A091A5
:10091000840EB091850E968956968C91981708F49E
:100920007FCF9092540E7CCFEF2BE1F0E0914D0EF3
:10093000F0914E0E8081811105C0F0924C0EE09234
:100940004B0E10C0E0914D0EF0914E0E0580F681D9
:10095000E02D0680F781E02D8281938190934C0EEB
:1009600080934B0E8090400E882009F417C180912F
:10097000830E811101C18091510E9091520E01960A
:100980009093520E8093510E009789F520914D0E51
:1009900030914E0E40914F0E5091500E50934E0E8E
:1009A00040934D0E3093500E20934F0E2091530ED6
:1009B0002F5F2093530EE0914D0EF0914E0E20814B
:1009C000211105C0F0924C0EE0924B0E10C0E09148
:1009D0004D0EF0914E0E0580F681E02D0680F781D8
:1009E000E02D2281338130934C0E20934B0E2091C9
:1009F0004B0E30914C0ED0E08217930708F4ADC037
:100A0000E0914D0EF0914E0E2081211105C0F09223
:100A10004C0EE0924B0EA1C0E0914D0EF0914E0EA7
:100A20000580F681E02D0680F781E02D228133815B
:100A30008217930728F430934C0E20934B0E8DC0F1
:100A4000AF014E5F5F4F628473842481358166817C
:100A50007781D90115967C936E931497668177817F
:100A6000DB0113963C932E931297D30111962D918F
:100A70003C9112972417350721F412967C936E93BC
:100A8000119713861286D3012C9121502C93248820
:100A900035882114310429F12685378560897189CB
:100AA000D90115967C936E93149760897189DB0147
:100AB00013963C932E931297D10111966D907C90D2
:100AC00012979F01245F3F4F6216730621F412961E
:100AD0007C936E931197158A148AD1012C91215021
:100AE0002C93A6892091820E2A1710F4A093820ECF
:100AF0004A9ED00111249D01225A314F3901D9015A
:100B000011962D913C91129735832483D901149627
:100B10006D917C9115977783668314966D917C9186
:100B20001597DB0113965C934E931297D901159696
:100B30005C934E93149773866286D3012C912F5F3A
:100B40002C93A091840EB091850E368956962C91E7
:100B5000321708F455CFD1E053CFE091840EF091D5
:100B6000850EE6894E9EF0011124E25AF14F8081F4
:100B7000823040F0D1E006C08091400E8F5F8093BC
:100B8000400ED0E08091540E811101C0D11190929D
:100B9000540E8A948110EBCE1092400E8091540E28
:100BA00081110E947A840F900FBE0115110509F47E
:100BB000E2CB8091830E8F5F8093830EC8010E94E9
:100BC0002E8B0FB6F8940F928091830E81508093F4
:100BD000830E8091830E8111B3C18091410E8823D1
:100BE00009F4AEC120915A0E30915B0EE0E0F0E0C6
:100BF0008091550E882309F47DC0E901EE81FF81C3
:100C0000C489D5894685578580899189DA011596E9
:100C10009C938E93149780899189DC0113965C9341
:100C20004E931297AF01445F5F4F69817A816417D9
:100C3000750711F49A838983158A148A88818150F3
:100C40008883AF014E5F5F4FC285D3856481758114
:100C500086819781DB0115969C938E9314978681EC
:100C60009781DC0113967C936E93129769817A8148
:100C70006417750711F49A83898313861286888115
:100C800081508883A6898091820E8A1710F4A093E0
:100C9000820E4A9ED0011124ED01C25AD14F8981A2
:100CA0009A8195838483DC0114966D917C911597CC
:100CB0007783668314966D917C911597DB0113966B
:100CC0005C934E931297DC0115965C934E931497A8
:100CD000D387C28788818F5F8883A091840EB0916B
:100CE000850E968956968C91981708F481CF50926C
:100CF000540E7ECFEF2BE1F0E0914D0EF0914E0EB1
:100D00008081811105C0B0924C0EA0924B0E10C094
:100D1000E0914D0EF0914E0E0580F681E02D06809B
:100D2000F781E02D8281938190934C0E80934B0E3E
:100D30003091400E332309F4FEC08091830E81115F
:100D4000E8C08091510E9091520E01969093520EF0
:100D50008093510E009789F540914D0E50914E0EA3
:100D600060914F0E7091500E70934E0E60934D0E29
:100D70005093500E40934F0E2091530E2F5F2093AF
:100D8000530EE0914D0EF0914E0E2081211105C0C1
:100D9000B0924C0EA0924B0E10C0E0914D0EF0910F
:100DA0004E0E0580F681E02D0680F781E02D428110
:100DB000538150934C0E40934B0E40914B0E5091EB
:100DC0004C0E20E08417950708F494C0E0914D0E76
:100DD000F0914E0E4081411105C0B0924C0EA09290
:100DE0004B0E88C0E0914D0EF0914E0E0580F681BD
:100DF000E02D0680F781E02D42815381841795070D
:100E000028F450934C0E40934B0E74C0BF016E5F9C
:100E10007F4FC285D3850481158146815781D801D2
:100E200015965C934E93149746815781DA01139679
:100E30001C930E93129709811A810617170711F454
:100E40005A83498313861286488141504883A48976
:100E5000B5891097F9F04685578500891189EA010F
:100E60001D830C8300891189E8015B834A831196F5
:100E70006D907C901297AF01445F5F4F64167506CA
:100E800021F412961C930E931197158A148A4C9193
:100E900041504C93A6894091820E4A1710F4A093BA
:100EA000820E4A9ED0011124A25AB14F11964D9143
:100EB0005C91129755834483EA010C811D8117834D
:100EC00006830C811D81E8017B836A83EA017D83AF
:100ED0006C83B387A2874C914F5F4C93A091840E93
:100EE000B091850E568956964C91541708F46ECFE2
:100EF00021E06CCFE091840EF091850EE6894E9E44
:100F0000F0011124E25AF14F8081823040F021E05B
:100F100006C08091400E8F5F8093400E20E080914C
:100F2000540E811101C021119092540E315009F0DC
:100F300004CF1092400E8091540E81110E947A8449
:100F40000F900FBE18CA80915E0E823010F00E9482
:100F50007A840E949B2B0E94E02609CAD67911242C
:100F60001FBECFEFD1E2DEBFCDBF00E00CBF1EE061
:100F7000A0E0B2E0E8E5F0E201E00BBF02C00790BC
:100F80000D92AE30B107D9F724E1AEE0BEE001C06A
:100F90001D92AC37B207E1F717E0CFEAD7E000E0E7
:100FA00006C021970109802FFE010E94F588CE3AE4
:100FB000D10780E00807A9F70E94FA4A0C942A900A
:100FC0000C9400002F923F924F925F926F927F920B
:100FD0008F929F92AF92BF92CF92DF92EF92FF9249
:100FE0000F931F93CF93DF93CDB7DEB7AB970FB6B9
:100FF000F894DEBF0FBECDBF64E670E080E090E005
:101000000E94A8340E94E2346FA378A789A79AA708
:1010100001E11FE084E090E09093120F8093110FA4
:1010200080E090E1AEE0B0E08093130F9093140F56
:10103000A093150FB093160F40E050E16EE070E002
:1010400080E890E10E94C91F80ED92E09F938F930A
:101050001F930F930E94A4208BEE92E09F938F9397
:101060001F930F930E94A42086E093E09F938F9399
:101070001F930F930E94A42081E293E09F938F938C
:101080001F930F930E94A42082E493E09F938F9379
:101090001F930F930E944F208AE793E09F938F93B3
:1010A0001F930F930E947A2084EB93E09F938F937A
:1010B0001F930F930E94421F8CEE93E09F938F9398
:1010C0001F930F930E94181F0FB6F894DEBF0FBE38
:1010D000CDBF87E294E09F938F938AE394E09F9340
:1010E0008F931F930F930E94A4201F9284E68F93E7
:1010F00086E694E09F938F931F930F930E94A42002
:101100008EE894E09F938F931F930F930E94A420E7
:101110000FB6F894DEBF0FBECDBF80916E12803344
:1011200008F042C089E00E94302080916E12E82FC2
:10113000F0E09F01220F331FE20FF31FE352FE4E38
:101140009081907C9960908310926F12109270122F
:101150006CE00E94D5885CE0859FB001112440E0DE
:1011600050E09A01260F371FF901EE0FFF1F2E0FD7
:101170003F1FF901E352FE4E908196FD08C04F5F7C
:101180005F4F4C30510569F790E00E94C323E09116
:101190006E12F0E0CF01880F991FE80FF91FE3529C
:1011A000FE4E80818064808383EB94E09F938F93D5
:1011B00001E11FE01F930F930E94A42082ED94E0B1
:1011C0009F938F931F930F930E947A208AEF94E04E
:1011D0009F938F931F930F930E94A42084E30E94F8
:1011E000302061E084E30E9406341092D9131092FB
:1011F000D8131092CE0E1092F00E1092CC0E11E079
:101200001093CB0E1092A60E61E084E10E9406348A
:1012100061E085E10E9406348091B9008E7F809361
:10122000B9008091B9008D7F8093B90088E48093E4
:10123000B80085E48093BC0041E050E0BE01665EEA
:101240007F4F85E790E00E94BC2841E050E0BE015E
:10125000665E7F4F8CE690E00E94BC28198E10934A
:10126000CD0E88E68093EF0E1092CE0E1092F00E07
:101270006BE687E19FE00E94E3210FB6F894DEBFA2
:101280000FBECDBF019771F441E050E0BE01675E33
:101290007F4F87E19FE00E94B321019719F481E01D
:1012A0000E946C1F8E010F5F1F4FC8010E945229C0
:1012B0002AE0222E312C1BA21CA21DA21EA21F8ED0
:1012C00018A219A21AA21B8E1C8E1D8E1E8EC12C56
:1012D000D12C760146015701260137010BA7012FBA
:1012E0008BA5902F0E94522969817A81072E000CCC
:1012F000880B990B0E94CE8E9B01AC01C301B201F9
:101300000E94FE882B013C016B817C81072E000C22
:10131000880B990B0E94CE8E9B01AC01C501B401D4
:101320000E94FE884B015C016D817E81072E000CBE
:10133000880B990B0E94CE8E9B01AC01C701B601B0
:101340000E94FE886B017C0169857A85072E000C5E
:10135000880B990B0E94CE8E9B01AC016B8D7C8D0E
:101360008D8D9E8D0E94FE886B8F7C8F8D8F9E8FC2
:101370006B857C85072E000C880B990B0E94CE8E06
:101380009B01AC016F8D78A189A19AA10E94FE8872
:101390006F8F78A389A39AA36D857E85072E000C95
:1013A000880B990B0E94CE8E9B01AC016BA17CA196
:1013B0008DA19EA10E94FE886BA37CA38DA39EA3FA
:1013C00064E670E080E090E00E94A83471E0271AA3
:1013D000310809F085CF20E030E040E251E4C3015C
:1013E000B2010E94998960931E0E70931F0E809324
:1013F000200E9093210E20E030E040E251E4C50140
:10140000B4010E94998960931A0E70931B0E809309
:101410001C0E90931D0E20E030E040E251E4C70125
:10142000B6010E9499896093160E7093170E8093EF
:10143000180E9093190E20E030E040E251E46B8DDD
:101440007C8D8D8D9E8D0E9499896093611470931F
:101450006214809363149093641420E030E040E2BF
:1014600051E46F8D78A189A19AA10E949989609316
:101470005D1470935E1480935F149093601420E069
:1014800030E040E251E46BA17CA18DA19EA10E94BD
:1014900099896093591470935A1480935B149093B4
:1014A0005C140E94E2346093551470935614809338
:1014B0005714909358141092511410925214109281
:1014C00053141092541410924D1410924E14109202
:1014D0004F14109250141092491410924A14109202
:1014E0004B1410924C141092451410924614109202
:1014F0004714109248141092411410924214109202
:1015000043141092441410923D1410923E14109201
:101510003F14109240148FE195E09F938F9301E167
:101520001FE01F930F930E94A4208EE395E09F93EA
:101530008F931F930F930E94A4201092230E10925A
:10154000220E0FB6F894DEBF0FBECDBF9CE0D92EA1
:101550000091220E1091230E043011050CF06CC086
:101560007801EE0CFF1CF701EE5EFD4FC080C70155
:10157000800F911FDC01AF58BD4E5D018C9180330F
:1015800008F04AC08C2D0E943020F5018081E82FA0
:10159000F0E09F01220F331FE20FF31FE352FE4ED4
:1015A0009C2D9F732081207CC22EC92AC082D50128
:1015B00011961C92119712961C926D2D0E94D5883F
:1015C000BCE08B9FA001112420E030E0B901640F42
:1015D000751FFB01EE0FFF1FE60FF71FE352FE4ED4
:1015E000908196FD08C02F5F3F4F2C30310571F779
:1015F00090E00E94C323F701E00FF11FEF58FD4E6A
:10160000E081F0E0CF01880F991FE80FF91FE35246
:10161000FE4E808180648083C701800F911F6AE540
:1016200070E08F589D4E0E9471230F5F1F4F1093E3
:10163000230E0093220E8CCF86E695E09F938F9326
:1016400081E19FE09F938F930E94A42064E670E065
:1016500080E090E00E94A8340F900F900F900F90C0
:1016600080918A0E90918B0E892B09F0D8C38091BE
:10167000830E8F5F8093830E8FE190E00E94998AA2
:101680008C010FB6F8940F928091830E8150809355
:10169000830E8091830E8111E8C18091410E8823D1
:1016A00009F4E3C140915A0E50915B0EE0E0F0E086
:1016B00029E0F22EEE24E3948091550E882309F45C
:1016C00090C0DA011696ED91FC911797C488D588E1
:1016D0002685378580899189D90115969C938E93AB
:1016E000149780899189DC0113963C932E9312976D
:1016F0009F01245F3F4FD60111966D917C91129707
:101700006217730721F412969C938E931197158A92
:10171000148AD6018C9181508C939F012E5F3F4F8C
:10172000C284D3846481758186819781DB0115969B
:101730009C938E93149786819781DC0113967C93FA
:101740006E931297D60111966D917C911297621744
:10175000730721F412969C938E9311971386128629
:10176000D6018C9181508C93A6898091820E8A1724
:1017700010F4A093820EFA9ED0011124BD01625A8A
:10178000714F6B01DB0111968D919C91129795839E
:101790008483DC0114966D917C9115977783668321
:1017A00014966D917C911597DB0113963C932E93C3
:1017B0001297DC0115963C932E931497D386C2861C
:1017C000D6018C918F5F8C93A091840EB091850E81
:1017D000968956968C91981708F46ECFE092540E25
:1017E0006BCFEF2BD1F0E0914D0EF0914E0E80813A
:1017F000811103C08FEF9FEF0CC0E0914D0EF0916F
:101800004E0E0580F681E02D0680F781E02D828165
:10181000938190934C0E80934B0E3091400E332366
:1018200009F41EC189E0982E88248394EE24EA945A
:10183000FE2C8091830E811101C18091510E9091F7
:10184000520E01969093520E8093510E009789F597
:1018500040914D0E50914E0E60914F0E7091500E72
:1018600070934E0E60934D0E5093500E40934F0E5A
:101870002091530E2F5F2093530EE0914D0EF09167
:101880004E0E2081211105C0F0924C0EE0924B0EBD
:1018900010C0E0914D0EF0914E0E0580F681E02DC6
:1018A0000680F781E02D4281538150934C0E409386
:1018B0004B0E40914B0E50914C0E20E08417950733
:1018C00008F4ADC0E0914D0EF0914E0E40814111F3
:1018D00005C0F0924C0EE0924B0EA1C0E0914D0E6F
:1018E000F0914E0E0580F681E02D0680F781E02D07
:1018F000428153818417950728F450934C0E4093EE
:101900004B0E8DC0AF014E5F5F4FA284B384C48085
:10191000D58066817781D60115967C936E93149756
:1019200066817781DB011396DC92CE921297D50106
:101930001196CD90DC901297C416D50621F412961C
:101940007C936E93119713861286D5016C9161502A
:101950006C93648875886114710429F166857785B4
:10196000C088D188DB011596DC92CE921497C0888E
:10197000D188D60113967C936E931297D30111965A
:10198000AD90BC901297BF01645F7F4FA616B7065B
:1019900021F41296DC92CE921197158A148AD30103
:1019A0006C9161506C93A6896091820E6A1710F455
:1019B000A093820E9A9ED0011124BD01625A714FEC
:1019C0005B01DB0111966D917C91129775836483A5
:1019D000DB011496CD90DC901597D782C6821496C1
:1019E000CD90DC901597D60113965C934E93129789
:1019F000DB0115965C934E931497B386A286D501AE
:101A00004C914F5F4C93A091840EB091850E5689F6
:101A100056964C91541708F455CF21E053CFE091DE
:101A2000840EF091850EE6899E9EF0011124E25A03
:101A3000F14F8081823040F021E006C08091400E5D
:101A40008F5F8093400E20E08091540E811101C081
:101A500021118092540E315009F0EBCE1092400EBD
:101A60008091540E81110E947A840F900FBE01154F
:101A7000110569F4279A2F9ABFEFE0E7F2E0B15021
:101A8000E040F040E1F700C000001F9AF5CFD80118
:101A900011961C930E9381E05B968C935B975C96FA
:101AA0001C925C970FB6F8940F92F8012081318157
:101AB000938D448D949FC0011124B901680F791F43
:101AC00073836283128E35832483841B9109820F72
:101AD000931F978386838FEF858F868FC8010B9620
:101AE000928781872FEF3FEF3487238796878587FB
:101AF000908B878710860996938B828B358B248BEE
:101B0000978B868B918F808F118A0F900FBE1396C3
:101B10001C921E92129711961C921E9216961C925F
:101B20000FB6F8940F92928D838D981708F06AC1C2
:101B3000F28C448D41117EC080819181892B09F006
:101B40009DC00280F381E02D309711F480E06CC0DD
:101B500082A1815082A3268991A12917B9F381110D
:101B6000F5CF9F012E5F3F4F62857385448155817C
:101B700086819781DA0115969C938E9314978681BE
:101B80009781DC0113965C934E931297DB011196BB
:101B90004D915C9112974217530721F412969C9332
:101BA0008E93119713861286DB018C9181508C9352
:101BB00081A1868B682F70E044E050E0461B570BF4
:101BC000558744879091820E981710F48093820E67
:101BD00089E0869FD001879FB00D1124BD01625A14
:101BE000714FDB0111968D919C911297958384839F
:101BF000DC0114964D915C9115975783468314969A
:101C00004D915C911597DA0113963C932E931297A0
:101C1000DC0115963C932E93149773876287FB0122
:101C200080818F5F808381E0D80113961C921E9281
:101C3000129725C050E060E070E0F8018481958142
:101C40000E94CB8BD8015C962C915C9714968D9159
:101C50009C911597820F911D15969C938E931497C6
:101C600012962D913C9113978217930738F08D911E
:101C70009C91119715969C938E93149780E0F39402
:101C8000F801F28E9189992309F4B9C00688F78981
:101C9000E02D0680F781E02DCF010C9664897589CF
:101CA0004685578520893189DA0115963C932E9314
:101CB000149720893189D90113965C934E9312971A
:101CC000DB0111964D915C9112974817590721F449
:101CD00012963C932E931197158A148ADB012C914E
:101CE00021502C932091830E211158C09F012E5F0B
:101CF0003F4F628573854481558186819781DA01E2
:101D000015969C938E93149786819781DC01139688
:101D10005C934E931297DB0111964D915C91129753
:101D20004217530721F412969C938E9311971386B2
:101D30001286DB018C9181508C93A6898091820E52
:101D40008A1710F4A093820E49E0A49FD0011124B9
:101D5000BD01625A714FDB0111968D919C911297D2
:101D600095838483DC0114964D915C91159757837C
:101D7000468314964D915C911597DA0113963C9326
:101D80002E931297DC0115963C932E93149773872C
:101D90006287DB018C918F5F8C9324C04091560E3B
:101DA0005091570E57874687DA0114962D913C9132
:101DB0001597318B208B14962D913C911597D90155
:101DC00013969C938E931297DA0115969C938E939B
:101DD000149785E59EE0958B848B8091550E8F5FDF
:101DE0008093550EA091840EB091850E96895696DB
:101DF0008C91891738F481E08093540E01C08111D1
:101E00000E947A840F900FBE10938B0E00938A0E5F
:101E100040E050E060E070E0C8010E943F68CE0101
:101E200001960E947B2989859A85AB85BC85809324
:101E3000260E9093270EA093280EB093290E00E053
:101E400010E021E040E055E068E875E080EA9FE0BE
:101E50000E947A7CF82E08E81EE021E040E054E081
:101E600065E975E081E794E10E947A7CF8228FE0D1
:101E70000E9461869093250E8093240E8FE00E942D
:101E800061869093870E8093860EF1100BC082EAD4
:101E900095E09F938F9381E19FE09F938F930E94A2
:101EA0004F200AC08BEC95E09F938F9381E19FE0D8
:101EB0009F938F930E94A4200F900F900F900F90EC
:101EC0008EEE95E09F938F9301E11FE01F930F9398
:101ED0000E94A4200E94E234DC01CB012FA138A58E
:101EE00049A55AA5821B930BA40BB50BBF93AF93C7
:101EF0009F938F938AE196E09F938F931F930F9305
:101F00000E94A4200FB6F894DEBF0FBECDBFAB96E3
:101F10000FB6F894DEBF0FBECDBFDF91CF911F91FA
:101F20000F91FF90EF90DF90CF90BF90AF909F9078
:101F30008F907F906F905F904F903F902F9008957B
:101F4000CF93DF93CDB7DEB7AA970FB6F894DEBF75
:101F50000FBECDBF45E050E060E070E080918A0E9A
:101F600090918B0E0E94DA59813009F027C383E5E6
:101F700096E09F938F9381E19FE09F938F930E94C0
:101F8000A4208AE20E94302080E090E00E946685D2
:101F900040E052EC61E070E083E29FE00E94C91FE4
:101FA0008FEF9FEF9A8389830E945C8589E796E093
:101FB0000E944E860F900F900F900F9083E29FE04B
:101FC0000E943B260497D4F383E29FE00E943B26C5
:101FD000892BE9F183E29FE00E941A26BE016F5F20
:101FE0007F4F0E94C47B019779F789819A8197FD81
:101FF000EBCF60E876E081EF9EE00E94DB8B892BDF
:1020000041F080E090E00E946685CC24C394D12CFE
:1020100021C080E090E00E94668582E08F938DE78A
:102020008F938AE192E09F938F9383E896E09F934A
:102030008F9381E19FE09F938F930E944F200FB673
:10204000F894DEBF0FBECDBF8FEF9FEF89C0CC24C9
:10205000CA94DC2C64E670E080E090E00E94952851
:102060000E945C8580E2E1EFFEE0DF011D928A952F
:10207000E9F783E29FE00E943B260297D4F300E059
:1020800010E04FEBA42E46E0B42E51E1652E5FE048
:10209000752E60E2962E83E29FE00E943B26892BFC
:1020A00009F450C083E29FE00E941A26BE016F5FD0
:1020B0007F4F0E94C47B019771F7E980FA80F7FC9B
:1020C000EACF63EB76E081EF9EE00E94DB8B892B09
:1020D000F9F40F5F1F4F31EFC32E3EE0D32EDF9296
:1020E000CF92FF92EF921F930F93BF92AF927F9286
:1020F0006F920E94181FF601292D11922A95E9F777
:102100000FB6F894DEBF0FBECDBFC12CD12CC3CF0C
:1021100081EF9EE09F938F93FF92EF921F930F9317
:1021200087EE96E09F938F9381E19FE09F938F933B
:102130000E94181F0FB6F894DEBF0FBECDBFCC248F
:10214000C394D12C80E090E00E94668581E090E00D
:10215000CA94CD2811F480E090E091958195910981
:10216000892B09F075C08FE097E09F938F9381E1F1
:102170009FE09F938F930E94A4208FEF9FEF9A83FD
:10218000898380E2E1EFFEE0DF011D928A95E9F7A5
:102190000E945C8584E397E00E944E860F900F902A
:1021A0000F900F9083E29FE00E943B260497D4F3A8
:1021B00083E29FE00E943B26892BE1F183E29FE0CE
:1021C0000E941A26BE016F5F7F4F0E94C47B019759
:1021D00079F789819A8197FDEBCF60E876E081EF0E
:1021E0009EE00E94DB8B892B39F080E090E00E941A
:1021F000668501E010E020C080E090E00E946685E6
:1022000083E08F938FE78F9385E292E09F938F9384
:1022100087E397E09F938F9381E19FE09F938F9354
:102220000E944F200FB6F894DEBF0FBECDBF0FEF58
:102230001FEF0BC000E010E080E090E00E94668598
:10224000F1E00F27119501951109012B71F049C09B
:1022500087E697E09F938F9301E11FE01F930F9311
:102260000E944F208AE897E08DC18CEB97E09F9306
:102270008F9301E11FE01F930F930E94A4200E94FF
:1022800085857C010F900F900F900F90892B09F09E
:1022900012C18BE498E09F938F931F930F930E943A
:1022A000A4208FEF9FEF9A83898301EF1EE080E2E5
:1022B000D8011D928A95E9F70E945C851F921F92B2
:1022C00089E798E09F938F931F930F930E94F58B5C
:1022D000C8010E944E860FB6F894DEBF0FBECDBF78
:1022E0000DC082EE97E09F938F9301E11FE01F9353
:1022F0000F930E944F2088E098E044C183E29FE062
:102300000E943B260497D4F380E2E1EFFEE0DF0178
:102310001D928A95E9F783E29FE00E943B26892B74
:10232000D9F183E29FE00E941A26BE016F5F7F4FC2
:102330000E94C47B019779F789819A8197FDEBCF41
:1023400060E876E081EF9EE00E94DB8B892B29F02C
:1023500080E090E00E9466851FC080E090E00E94CF
:10236000668583E08F9380EC8F9380E392E09F9368
:102370008F9385E898E09F938F9381E19FE09F93EF
:102380008F930E944F200FB6F894DEBF0FBECDBFD3
:10239000EE24EA94FE2C8CC080E090E00E946685DA
:1023A00080E2E1EFFEE0DF011D928A95E9F783E22A
:1023B0009FE00E943B26892B31F183E29FE00E943F
:1023C0001A26BE016F5F7F4F0E94C47B019779F789
:1023D00081EF9EE09F938F9383E08F938FEC8F9399
:1023E00080E392E09F938F9385EB98E09F938F9388
:1023F00081E19FE09F938F930E94181F0FB6F8947E
:10240000DEBF0FBECDBF80E2E1EFFEE0DF011D9237
:102410008A95E9F783E29FE00E943B26892B31F100
:1024200083E29FE00E941A26BE016F5F7F4F0E94E9
:10243000C47B019779F781EF9EE09F938F9383E0B0
:102440008F9380EE8F9380E392E09F938F9385EF3D
:1024500098E09F938F9381E19FE09F938F930E94D9
:10246000181F0FB6F894DEBF0FBECDBF80E2E1EFBC
:10247000FEE0DF011D928A95E9F783E29FE00E946A
:102480003B2683E29FE00E941A26BE016F5F7F4FCA
:102490000E94C47B019789F765E379E081EF9EE0B4
:1024A0000E94DB8B892B49F380E090E00E946685D7
:1024B000EF2861F01EC08BE399E09F938F931F93E9
:1024C0000F930E944F2085E699E05CC088EA99E06E
:1024D0009F938F9301E11FE01F930F930E94A4200D
:1024E0000E9485850F900F900F900F90892B71F0AF
:1024F0003FC08BED99E09F938F9301E11FE01F9305
:102500000F930E944F208BEF99E03CC08EE39AE03E
:102510009F938F931F930F930E94A4208CE69AE0C1
:102520009F938F931F930F930E94A42083E090E0CA
:102530009093120F8093110F1F928F938CE89AE063
:102540009F938F931F930F930E94A42080918A0ED4
:1025500090918B0E0FB6F894DEBF0FBECDBF0097E3
:1025600069F140E050E060E070E00E943F6826C002
:1025700082EA9AE09F938F931F930F930E944F20BC
:102580008CEC9AE09F938F931F930F930E94A4204B
:102590000FB6F894DEBF0FBECDBF8FE29BE09F93D6
:1025A0008F9381E19FE09F938F930E944F200F9024
:1025B0000F900F900F900E949B2BFDCFE091880E03
:1025C000F091890E309709F47CC08091840E90912F
:1025D000850EE817F90709F474C00FB6F8940F9246
:1025E0008285938582549E4009F069C084899589CB
:1025F0003EE08535930709F462C0892B09F05FC07E
:102600009F012E5F3F4F8481958146815781DC0178
:1026100015965C934E931497A681B78113969C935D
:102620008E9312978091430E9091440E82179307D8
:1026300021F4B093440EA093430E1386128680912A
:10264000420E81508093420EA6898091820E8A1795
:1026500010F4A093820E89E0A89FD0011124BD013F
:10266000625A714FDB0111968D919C91129795835F
:102670008483DC0114964D915C91159757834683B2
:1026800014964D915C911597DA0113963C932E9315
:102690001297DC0115963C932E93149773876287EB
:1026A000DB018C918F5F8C93A091840EB091850E8D
:1026B000968956968C91981710F00E947A840F9004
:1026C0000FBE45E050E060E070E080918A0E90918E
:1026D0008B0E0E94DA598130D1F48FE09BE09F93FA
:1026E0008F9381E19FE09F938F930E94181F8091A9
:1026F0008A0E90918B0E0F900F900F900F90009775
:1027000031F040E050E060E070E00E943F688824D3
:102710008A9483E0982EA12CB12C0E942B771C0167
:10272000CE0101960E947B298091860E9091870EA2
:10273000009709F4CDC04AE050E0BE01675E7F4FCC
:102740000E94DA59882309F4C3C0EE8CFF8CC8A01C
:10275000D9A02BA130E0A4E1B0E00E941B902FEFA4
:1027600030E040E050E00E94C78F29013A01BAE012
:102770004B1A5108610871089701ACE3B0E00E9460
:102780001B90A50194010E94C78FDA01C901CC9664
:10279000A11DB11DE42DE80FEAA7E0930002960108
:1027A000ACE3B0E00E941B90A50194010E94C78F8A
:1027B000022F040D0E5C00930102D70124EC3FEFC1
:1027C0004FEF5FEF0E94E68FA50194010E94C78F33
:1027D000122F140D115810930202D60124EC3FEF72
:1027E0004FEF5FEF0E94E68FA50194010E94C78F13
:1027F000DA01C90188589F4FAF4FBF4F480E409232
:1028000003028CA1803441F460ED77E08EE692E122
:102810000E943C231092A40E8EA1803441F460E00B
:1028200070E08EE692E10E943C231092A40E8CA1EF
:10283000803449F468E274E08EE692E10E943C2321
:10284000F1E0F093A40E8091A40E8823F9F02DA15D
:10285000822F90E0A0E0B0E09C01AD012F5F310934
:1028600041095109A8EAB3E00E94E68F21E03FEF59
:102870004FEF5FEF0E94C78FCA01B901685D7B4FC0
:102880008F4F9F4F8EE692E10E943C232AA5622F34
:1028900070E081E792E10E947123602F70E084E78D
:1028A00092E10E947123612F70E087E792E10E941C
:1028B0007123642D70E08AE792E10E947123E5E2C2
:1028C000F4E1ACE8BEE088E101900D928A95E1F771
:1028D00039A628A666E070E0CE0188960E9435777A
:1028E0001CCFCF93DF93CDB7DEB761970FB6F894C7
:1028F000DEBF0FBECDBF45E050E060E070E08091EC
:102900008A0E90918B0E0E94DA598130D1F480E5C5
:102910009BE09F938F9381E19FE09F938F930E9411
:10292000181F80918A0E90918B0E0F900F900F9030
:102930000F90009731F040E050E060E070E00E94BE
:102940003F680FB6F8940F92E091840EF091850ED7
:10295000CF01029662857385448155812681378136
:10296000DA0115963C932E93149726813781D9016D
:1029700013965C934E931297DB0111964D915C91E7
:1029800012974817590721F412963C932E931197EA
:1029900013861286DB012C9121502C930489158912
:1029A0000115110529F12685378540895189D901FD
:1029B00015965C934E93149740895189DA011396CA
:1029C0003C932E931297D80111966D917C9112979A
:1029D0009F01245F3F4F6217730721F412965C93A7
:1029E0004E931197158A148AD8012C9121502C935B
:1029F0004091430E5091440E55834483DA0114965E
:102A00002D913C9115973783268314962D913C91F7
:102A10001597D90113969C938E931297DA01159608
:102A20009C938E93149782E49EE093878287809193
:102A3000420E8F5F8093420E0F900FBE80919C13C9
:102A4000882319F10FB6F8940F92A0914D0EB09112
:102A50004E0E8C91811103C08FEF9FEF10C0A0919B
:102A60004D0EB0914E0E15960D90BC91A02D169660
:102A70000D90BC91A02D12968D919C9113979093DF
:102A80004C0E80934B0E0F900FBE8091840E909150
:102A9000850EE817F90709F078C080919C13882308
:102AA00019F00E947A8471C08091410E9091420E7B
:102AB000981305C01092850E1092840E66C0809106
:102AC000830E882321F081E08093540E5EC0109223
:102AD000540EA091840EB091850EE091840EF09179
:102AE000850E2D913C918789908D82179307A8F0D0
:102AF0008091840E9091850E8091840E9091850E28
:102B0000279A2F9ABFEFE7EAF1E6B150E040F04094
:102B1000E1F700C000001F9AF5CF8091820E69E0B6
:102B2000482F50E0649F9001659F300D1124F901FA
:102B3000E25AF14F9081911102C08150F1CFA181F1
:102B4000B28112960D90BC91A02DB283A1832F5912
:102B5000314FA217B30731F412962D913C91139780
:102B60003283218399E0949FF001959FF00D112409
:102B7000E25AF14F0180F281E02D268137813093B6
:102B8000850E2093840E8093820E45E050E060E035
:102B900070E080918A0E90918B0E0E94DA598130FC
:102BA000D1F481E79BE09F938F9381E19FE09F9316
:102BB0008F930E94181F80918A0E90918B0E0F9018
:102BC0000F900F900F90009731F040E050E060E0E0
:102BD00070E00E943F6801E11FE0CE0101967C0198
:102BE0008FE8282E8BE0382E28010E942B774C018D
:102BF0008091860E9091870E892B09F431C183E272
:102C00009FE00E943B260697D4F383E29FE00E9458
:102C10001A268983823061F083E29FE00E943B267E
:102C2000892B09F411C183E29FE00E941A26F4CF98
:102C300083E29FE00E941A268A838F3F61F083E23D
:102C40009FE00E943B26892B09F4FEC083E29FE0AF
:102C50000E941A26F4CF83E29FE00E941A268B83FB
:102C6000893061F083E29FE00E943B26892B09F4C2
:102C7000EBC083E29FE00E941A26F4CF83E29FE03C
:102C80000E941A268C83813061F083E29FE00E94CB
:102C90003B26892B09F4D8C083E29FE00E941A26C4
:102CA000F4CF83E29FE00E941A268D8383E29FE0A7
:102CB0000E943B260A97D0F383E29FE00E943B26C6
:102CC000009709F4C1C00A9709F0A3C0DE01169667
:102CD0005D01C12CD12C0E94E23460932B0F7093C4
:102CE0002C0F80932D0F90932E0FE091230FF091D6
:102CF000240F0680F781E02D83E29FE0199597FD70
:102D000013C0F50181935F01FFEFCF1ADF0A29E0BD
:102D1000C216D10401F783E29FE00E941A268F8732
:102D20009981923079F51EC00E94E23420912B0FD8
:102D300030912C0F40912D0F50912E0FDC01CB01C3
:102D4000821B930BA40BB50B2091270F3091280FFA
:102D50004091290F50912A0F82179307A407B507B6
:102D600020F2D9CF9A819F3F69F49B81993051F429
:102D70009C81913039F49D81911104C0DD24D3945C
:102D8000833009F0D12C45E050E060E070E08091A4
:102D90008A0E90918B0E0E94DA59813009F044C05E
:102DA0005701612C712CD5012D915D011F922F933C
:102DB0007F926F923F922F921F930F930E94181F42
:102DC000BFEF6B1A7B0A0FB6F894DEBF0FBECDBF04
:102DD000FAE06F16710439F7FF92EF92ADEABBE0AB
:102DE000BF93AF935F924F920E94181F80918A0EFB
:102DF00090918B0E0F900F900F900F900F900F905F
:102E0000009791F040E050E060E070E00E943F6881
:102E10000BC083E29FE00E943B26892BA9F083E24E
:102E20009FE00E941A26F5CF83E29FE00E943B2696
:102E3000DD2051F04AE050E0B7018091860E90917C
:102E4000870E0E943F680CC0A0EDBBE0BF93AF931C
:102E50001F930F930E947A200F900F900F900F9066
:102E6000998A888A66E070E0CE0140960E943577A4
:102E7000BCCECF93DF93EC018C819D81DC01ED9181
:102E8000FC910480F581E02D6E81199581E08E8F93
:102E90001E821F8E18A219A21AA21CA280E0DF9126
:102EA000CF910895DC01FC01ED57FF4F808188230D
:102EB000D1F017968C911797861741F01A968C913E
:102EC0001A97861315C021E030E002C020E030E000
:102ED000F901EE0FFF1F2E0F3F1FFD01E20FF31F41
:102EE00080859185089518968D919C9119970895E4
:102EF00080E090E00895DC0117968C91179781117E
:102F000006C018968D919C911997892B71F01A968D
:102F10008C911A97811118C01B968D919C911C97CA
:102F2000892B91F421E030E002C020E030E0F9018B
:102F3000EE0FFF1F2E0F3F1FFD01E20FF31F6783F0
:102F40005187408781E0089580E00895FC0184A1C5
:102F50000895FC0186810895089580E0089580E039
:102F6000089580E090E008950895DF92EF92FF9237
:102F70000F931F93CF93DF93EC01E62EF12C85E0A6
:102F8000689FB0011124FE01E60FF71F8085182FFE
:102F9000177086FF21C001E085E0D82E8FEF800FEB
:102FA0008F3008F001E0FE01D09EE00DF11D1124EC
:102FB00080858695869586958770811305C0602FDC
:102FC000CE010E94B517EACF0F5F003161F78D8106
:102FD000811302C011501D8385E08E9DF0018F9DED
:102FE000F00D1124EC0FFD1F108681E08187128601
:102FF0002296D783C683DF91CF911F910F91FF90C7
:10300000EF90DF900895FC016134C1F43F969C017C
:10301000265A3F4F61E0AC014E5F5F4FDF011297D0
:103020001C9211966C93108213974D935C93359676
:10303000E217F30799F7FC01158208953D9621E008
:103040003081361303C0622F0C94B5172F5F35966D
:103050002031B1F70895CF93DF93FC01862F80785C
:1030600009F051C0283008F04FC0442321F0958169
:10307000973009F449C0EF012D96A0E0B0E0119619
:103080009881911103C0662331F021C02596AF309D
:10309000B105A9F739C085E08A9FE0018B9FD00D6B
:1030A0001124CE0FDF1F442331F081E4888785810E
:1030B0008F5F858302C081E0888725E02A9FC00159
:1030C0002B9F900D1124E80FF91F80851DC067709C
:1030D000660F660F660F442341F0606485818F5F41
:1030E00085838770687F682B03C02770687B622B9D
:1030F00025E02A9FC0012B9F900D1124E80FF91F96
:103100006087862F01C080E0DF91CF910895611123
:1031100002C006960895FC013D9621E030813613E9
:1031200007C035E0239F800D911D11240696089558
:103130002F5F3596203191F780E090E008953F921F
:103140004F925F926F927F928F929F92AF92BF92B7
:10315000CF92DF92EF92FF920F931F93CF93DF9363
:1031600000D01F92CDB7DEB76C017C836B835A838E
:1031700049834C0180E1880E911C5601A7E0AA0EFC
:10318000B11C11E084E0482E3601B2E16B0E711CD7
:1031900093E0392E22E0522E8B819C81892B09F4F9
:1031A000F8C0F60190A1923059F128F4992341F02A
:1031B000913071F0F1CF933039F19430C1F1ECCF0F
:1031C000548285819681908787835286518610A389
:1031D000AE014D5F5F4FBE016F5F7F4FC5010E9423
:1031E0003F30882309F4D5C0D6011596ED91FC91A6
:1031F0001697808191968C939197818192968C936A
:10320000F6017682658230A2D60192968C919297D1
:10321000843011F493961C92F60181A1825084832C
:1032200025813681308727838287818740A2D60116
:1032300092968C918430B1F0853009F440C0823090
:1032400009F068C0AE014D5F5F4FBE016F5F7F4FF9
:10325000C5010E943F30882309F49BC0F60185898F
:1032600084A38FC0AE014D5F5F4FBE016F5F7F4F84
:10327000C5010E943F30882309F48BC0D6015596C2
:103280008C915597833009F07CC098968C919897D3
:10329000811177C093961C93939752968C91529775
:1032A00096968C93969753968C91539797968C936A
:1032B000979757968C91579795968C9362C0AE01CD
:1032C0004D5F5F4FBE016F5F7F4FC5010E943F3072
:1032D000882309F45EC0F60183A1882309F451C054
:1032E00082819381009709F44CC0DC01ED91FC913F
:1032F0000190F081E02D7401D60195960C9195977F
:1033000097962C91979796964C91969794966C9148
:10331000199537C0F60181A19585992319F091304F
:1033200031F02AC090E002979787868715872B8116
:103330003C8189819A81782F692FD6011E964D9103
:103340005C911F974115510539F49A8389833C8319
:103350002B831D961C9210C001962115310541F05A
:1033600041505109F6015787468721503109E3CF73
:1033700079836A831C821B82F60186859785892B57
:1033800041F4D60116969C928E92159790961C92B7
:1033900003CF0F900F900F900F90DF91CF911F915F
:1033A0000F91FF90EF90DF90CF90BF90AF909F90E4
:1033B0008F907F906F905F904F903F9008952F92E5
:1033C0003F924F925F926F927F928F929F92AF92B5
:1033D000BF92CF92DF92EF92FF920F931F93CF9302
:1033E000DF93CDB7DEB7C454D1090FB6F894DEBF72
:1033F0000FBECDBFDC019496BC912496BFAF24973D
:10340000BB2309F4D2C07C010E94E234F701878C0F
:1034100090A0A1A0B2A0DC01CB0188199909AA094A
:10342000BB09B7FDC2C00E94E234D70193962C912C
:10343000DC01CB01820F911DA11DB11DF701878F0A
:1034400090A3A1A3B2A3312CCE0101966C01282E2A
:1034500090E49C0D25969FAF259740E4442E512C77
:103460003701A5E26A0E711C5701B3E8AB0EB11C1F
:10347000F701858D381608F098C0832D90E0FC0187
:10348000EE0FFF1F8E0F9F1F8E0D9F1DFC01E45836
:10349000FF4F808190E0FC01EE0FFF1FDF01A80FBE
:1034A000B91FAE0DBF1DAA59BF4F2C9130E0239616
:1034B0003FAF2EAF23974601D6011D9225962FAD23
:1034C00025972A13FACF8E0F9F1F8E0D9F1DFC018B
:1034D000EB59FF4F86019E012F5B3F4F4081D70183
:1034E00016966C91169714968D919C9115970E9443
:1034F000523381115BC023968EAD9FAD23978134EB
:10350000910520F023965FAE4EAE239722962FAD05
:103510002297B301C301F6013E2F3219321740F44E
:103520004191DC013D91CD014317B1F380E003C02F
:1035300024968FAD2497982D9219921738F4F401A0
:1035400091914F01DB019D93BD01F5CF81112DC0FC
:10355000D701ED91FC91008CF18DE02D8601D50114
:103560004C91B701C7011995D701ED91FC910288E3
:10357000F389E02DD5018C91882311F0698101C078
:1035800060E0C7011995009771F0DC01ED91FC91A5
:103590000190F081E02D860122962FAD2297D50172
:1035A0004C91B7011995339463CF80E0CC5BDF4F2A
:1035B0000FB6F894DEBF0FBECDBFDF91CF911F9144
:1035C0000F91FF90EF90DF90CF90BF90AF909F90C2
:1035D0008F907F906F905F904F903F902F900895C5
:1035E0002F923F924F925F926F927F928F929F9213
:1035F000AF92BF92CF92DF92EF92FF920F931F9301
:10360000CF93DF93CDB7DEB7C458D1090FB6F89486
:10361000DEBF0FBECDBFDC0114960D911C91159736
:103620001696FC90F110D2C1B22E942EA62E3C011B
:10363000D801ED91FC910190F081E02D60E0C8018E
:1036400019952C01009719F476EDF72ECAC1FC01EB
:10365000C080D180C114D10409F4BBC11301F5E6C7
:103660002F0E311CDC0111963C922E921496BC92C6
:103670009E0126593F4F48E050E060E0F30184810D
:1036800095810E94D832E82E811193C1AB96EFACA0
:10369000AB97D201CD92DC92D801ED91FC910280E2
:1036A000F381E02D292D40E06A2DC8011995F30121
:1036B0008683882309F490C1E2969FADE297EA5988
:1036C000FF4F9083682FD30114968D919C9115978D
:1036D0000E942233D82ED801ED91FC91D20114968C
:1036E0001C92882361F00480F581E02DD3011696A9
:1036F0006C91C8011995F3011682FD2C72C10190DD
:10370000F081E02DD30116966C91C80119950097B0
:1037100009F49ACF4E2D433108F042E1FC01B48206
:1037200041113BC0E4968EAD9FADE497F301EA579B
:10373000FF4F91838083E6968EAD9FADE6973297DB
:1037400091838083EC96FFADEC97C058DF4FF883F0
:10375000C058D040910141E0D30116966C91169764
:1037600014968D919C9115970E943F85E82E8111AA
:1037700023C170E02E01B1E44B0E511CF3013296CF
:10378000CF57DF4FF983E883C158D040C20140963C
:10379000EE969FAF8EAFEE978EC050E09E012659F9
:1037A0003F4FD30116966C91169714968D919C916C
:1037B00015970E94D832E82E8111FEC0B3CF82E463
:1037C00092E0F20191838083CF57DF4FA881B981C6
:1037D000C158D040B383A28315861786168610A2DF
:1037E00011A212A210A6EE968EAD9FADEE97968313
:1037F000858390878783848182878187EE96AEADAB
:10380000BFADEE97B487A387F3013681848195819C
:10381000C258DF4F99838883CE57D0408E010F5F07
:103820001F4F272F49E050E0632FCD57DF4F3883DC
:10383000C358D040CC57DF4F7883C458D0400E9443
:10384000FC32CD57DF4F3881C358D040CC57DF4FC3
:103850007881C458D040811127C0AB80BC805F9272
:103860004F921F930F9350E4852E912CC12CD12C95
:1038700062E0E62E072F26E040E8632FC258DF4FB4
:1038800088819981CE57D040CC57DF4F7883C45878
:10389000D0400E9438310F900F900F900F90CC576E
:1038A000DF4F7881C458D04081110DC0F301868D5F
:1038B000823058F47F5FC058DF4FF881C058D04045
:1038C0007F137DCF02C0E82E77C0D3015E964C9166
:1038D0005E97423008F483C0910116966C9116975A
:1038E00014968D919C9115970E943F851F921F926F
:1038F0001F921F92812C912CA12CB12CC12CD12C68
:10390000E12CF301048D29E040E0668184819581FA
:103910000E943831E82E0F900F900F900F90811178
:103920004BC010E0F301858D1817B0F5812F90E0A2
:103930009C01220F331F820F931F860D971DFC01E0
:10394000E458FF4F2081222329F13297808187702C
:10395000C82ED12C1F921F921F921F92812C912C46
:10396000A12CB12CE12C00E02AE041E2D301169613
:103970006C91169714968D919C9115970E943831F1
:10398000E82E0F900F900F900F90882319F0B5E05C
:103990008B1312C01F5FC6CF0190F081E02D068807
:1039A000F789E02DC301199581E0D30194968C939A
:1039B00018C0F201D182C082D301ED91FC91048044
:1039C000F581E02DC3011995FE2C0BC039EDF32EC6
:1039D00008C027EDF22E05C094EDF92E02C081ED4E
:1039E000F82E8F2DCC57DF4F0FB6F894DEBF0FBEE9
:1039F000CDBFDF91CF911F910F91FF90EF90DF909E
:103A0000CF90BF90AF909F908F907F906F905F907E
:103A10004F903F902F9008950F931F93CF93DF9374
:103A2000C82FD62F8A0180E591E00E9440352C985E
:103A30008C2F82600E943935CD2FD0E0209721F065
:103A4000BE01C8010E947728C00FD11F2C9A0E9486
:103A50003835CE01DF91CF911F910F9108951F93BB
:103A6000CF93DF9300D0CDB7DEB7182F80E591E07C
:103A70006B830E9440352C98126019836B816A8396
:103A800062E070E0CE0101960E9477282C9A0E9495
:103A900038350F900F900F90DF91CF911F910895BF
:103AA0001F93CF93DF931F92CDB7DEB7182F80E51A
:103AB00091E00E9440352C98812F0E94393580E09A
:103AC0000E9439352C9A89830E94383589810F905C
:103AD000DF91CF911F9108959F92AF92BF92CF92A5
:103AE000DF92EF92FF920F931F93CF93DF937C01AE
:103AF000C42F122F992493946C01C60ED11CC60EAC
:103B0000D11C86E5C80ED11CA42EB12CABE2AA0EA6
:103B1000B11CAA0CBB1CAE0CBF1CF60180819181AC
:103B2000DC01ED91FC910280F381E02D202F412FEB
:103B30006C2F1995803EC9F4C1110BC061E088EE6D
:103B40000E942F1D66E670E080E090E00E94A8349D
:103B500016C0F50180819181DC01ED91FC91028418
:103B6000F385E02D612F19950AC08D3031F49FEF58
:103B7000990D933008F040C016C081113DC0F60188
:103B800080819181DC01ED91FC910190F081E02D2B
:103B9000202F412F6C2F1995D82F8D3061F48FEF86
:103BA000890D833050F464E670E080E090E00E947C
:103BB000A8349394B2CF8823F1F0C1110BC061E017
:103BC00088EE0E942F1D66E670E080E090E00E9483
:103BD000A83411C0EC2FF0E0BB96EE0FFF1FEE0DE6
:103BE000FF1D80819181DC01ED91FC910284F385C0
:103BF000E02D612F19958D2FDF91CF911F910F919E
:103C0000FF90EF90DF90CF90BF90AF909F9008957E
:103C1000E0918010F09181100190F081E02D682FEB
:103C200080E890E11994BC0180E890E10C94A4270D
:103C30008F929F92AF92BF920F931F93CF93DF9378
:103C4000CDB7DEB7A1970FB6F894DEBF0FBECDBFDC
:103C500019A2423008F44AE08E010F5D1F4F842EF6
:103C6000912CA12CB12CA50194010E94F98FE62F73
:103C7000B901CA0101501109EA3014F4E05D01C034
:103C8000E95CD801EC93232B242B252B61F7B80199
:103C900080E890E10E94A427A1960FB6F894DEBFB9
:103CA0000FBECDBFDF91CF911F910F91BF90AF900D
:103CB0009F908F900895AF92BF92CF92DF92EF9234
:103CC000FF920F931F93CF93DF938C01EB01F801C9
:103CD0008081882309F49EC0853209F092C0580182
:103CE0008FEFA81AB80AF8018181882309F492C0DD
:103CF000853219F40E94081E89C0833731F48E0181
:103D00000E5F1F4F8881998178C0843611F0893603
:103D100051F48E010E5F1F4FC880D9800D2C000C0E
:103D2000EE08FF0832C0883731F0883591F48FEF04
:103D30009BE00E94131E8E010E5F1F4F68817981E8
:103D4000072E000C880B990B40E10E94181EE80119
:103D50005DC0823631F0823479F482E09CE00E94CA
:103D6000131E8E010E5F1F4F68817981072E000C94
:103D7000880B990B42E0E9CF8C36C9F48E010C5FB9
:103D80001F4FC880D980EA80FB80F7FC04C04AE05E
:103D9000C701B601DACF8DE20E94081E6627772799
:103DA000CB016C197D098E099F094AE0CECF83367D
:103DB00039F48E010E5F1F4F88810E94081EC7CF05
:103DC000843769F48E010E5F1F4F888199810197B6
:103DD00019F485E397E011C085E09CE00EC08435BE
:103DE00079F48E010E5F1F4F88819981019719F434
:103DF00087E09CE002C08CE09CE00E94131EA7CFED
:103E00008501F80180810E94081E580185010F5F1D
:103E10001F4F5DCFDF91CF911F910F91FF90EF90DA
:103E2000DF90CF90BF90AF9008954AE00C94181E99
:103E3000CF93DF93CDB7DEB78091110F9091120F22
:103E40000597ECF060E070E082E19CE00E945B1E70
:103E50000E9483340E94151F88E19CE00E94131E7B
:103E60000E94E2340E94151F8AE19CE00E94131E0A
:103E7000BE01665F7F4F888599850E945B1EDF913A
:103E8000CF910895CF93DF93CDB7DEB78091110F17
:103E90009091120F0497ECF060E070E08EE19CE0EE
:103EA0000E945B1E0E9483340E94151F88E19CE0E3
:103EB0000E94131E0E94E2340E94151F8AE19CE0BA
:103EC0000E94131EBE01665F7F4F888599850E9400
:103ED0005B1EDF91CF910895382F2091F00E9091C5
:103EE000EF0E213208F049C08091CC0E8111FCCF39
:103EF00042E04093CC0E3093CB0E3FEF3093CA0E8E
:103F00001092C90E2093C80EAFECBEE048EA5EE006
:103F1000FA013E2F341B321718F43D913193F9CF3B
:103F20001092A70E2091A70E990F922B9093A70E97
:103F30009091A60E913061F41092A60E9091A70E6A
:103F40009093BB009091BC0093FDF8CF95EC01C01D
:103F500095EE9093BC009091CC0E9230E1F390914D
:103F6000CA0E9F3F79F08091CA0E803241F0809155
:103F7000CA0E803331F084E005C081E003C082E0E6
:103F800001C083E01092CE0E1092F00E1092CD0E72
:103F90000895CF92DF92EF92FF920F931F93CF93EA
:103FA000DF93EC016A017B01E889F98982E0808373
:103FB0004115514E61057105B1F060E079E08DE386
:103FC00090E0A70196010E94F98F89019A010150A2
:103FD00011092109310936952795179507959801FB
:103FE00001151041A8F0E889F989108260E874E8A9
:103FF0008EE190E0A70196010E94F98FDA01C901D4
:104000000197A109B109B695A795979587959C0148
:10401000EC85FD853083EE85FF852083188EEC8945
:10402000FD8986E08083EA89FB89808180618083C5
:10403000EA89FB89808188608083EA89FB898081A5
:1040400080688083EA89FB8980818F7D8083DF910E
:10405000CF911F910F91FF90EF90DF90CF90089537
:1040600090E0FC01E453FD4F2491FC01EA57FD4F21
:104070008491882399F090E0880F991FFC01E459FE
:10408000FD4FA591B491FC01EE5AFD4F859194919D
:104090008FB7F894EC91E22BEC938FBF0895CF93F8
:1040A000DF93CDB7DEB78091110F9091120F1816E4
:1040B0001906ECF460E070E08BE89CE00E945B1E67
:1040C0000E9483340E94151F88E19CE00E94131E09
:1040D0000E94E2340E94151F8AE19CE00E94131E98
:1040E000BE01665F7F4F888599850E945B1EDF91C8
:1040F000CF910895CF93DF93CDB7DEB78091110FA5
:104100009091120F0297ECF060E070E081E99CE082
:104110000E945B1E0E9483340E94151F88E19CE070
:104120000E94131E0E94E2340E94151F8AE19CE047
:104130000E94131EBE01665F7F4F888599850E948D
:104140005B1EDF91CF910895CF93DF93CDB7DEB79C
:104150008091110F9091120F0397ECF060E070E0E6
:1041600087E99CE00E945B1E0E9483340E94151F19
:1041700088E19CE00E94131E0E94E2340E94151FF9
:104180008AE19CE00E94131EBE01665F7F4F888516
:1041900099850E945B1EDF91CF9108958F929F9227
:1041A000BF92CF92DF92EF92FF920F931F93CF9324
:1041B000DF931F92CDB7DEB74C01B62E690149835C
:1041C0000E9487187C014981009709F44BC0DC01EB
:1041D000ED91FC911197309709F446C013969C918C
:1041E00080E0891731F02081241729F033968F5F02
:1041F000F8CFE0E0F0E0D601ED93FC933097B1F119
:1042000022812695269530E02031310514F02FE0EB
:1042100030E081E090E0A0E0B0E004C0880F991F9A
:10422000AA1FBB1F2A95D2F70197F80191838083BB
:104230006B2D80EE0E942F1D88ED0E94501D682F6F
:10424000D70114968C91882339F0F401EA58FF4F76
:1042500080818260682B01C0697F88ED0E942F1DDC
:1042600080E005C086ED03C087ED01C08BED0F90A7
:10427000DF91CF911F910F91FF90EF90DF90CF9042
:10428000BF909F908F90089581E0089580E00895F9
:1042900080E00895089580E0089580E0089580E02A
:1042A000089580E0089580E0089585ED8093BC0036
:1042B0008091BC0084FDFCCF1092CC0E08954091FB
:1042C000FC13262F30E0240F311D21323105DCF4A0
:1042D0002091CC0E2430C9F4FC0180E090E08617D8
:1042E00058F43091FC132191DC01A652BC4EA30F6F
:1042F000B11D2C930196F3CF8091FC13680F60934E
:10430000FC1380E0089581E0089582E00895089507
:10431000E091D9138091D813E81730F4F0E0E85415
:10432000FC4E808190E008958FEF9FEF089590916B
:10433000D9138091D813981750F4E92FF0E0E8547E
:10434000FC4E208130E09F5F9093D91302C02FEF85
:104350003FEFC90108958091D81390E02091D913BF
:10436000821B91090895CF92DF92EF92FF920F93F3
:104370001F93CF93DF937C01262F972F8A01809183
:10438000CD0E882391F0C62FD72F6E01C40ED51EF7
:10439000CC15DD0571F06991D701ED91FC9101908B
:1043A000F081E02DC7011995F3CF642F822F0E9471
:1043B0005F21C801DF91CF911F910F91FF90EF9086
:1043C000DF90CF900895CF93DF931F92CDB7DEB7E4
:1043D00069832091CD0E2223D1F02091F00E20325E
:1043E00040F021E030E0FC013383228380E090E064
:1043F00015C08091CE0EE82FF0E0E153F14F998186
:1044000090838F5F8093CE0E8093F00E05C061E0A5
:10441000CE0101960E945F2181E090E00F90DF9134
:10442000CF910895CF92DF92EF92FF920F931F9357
:10443000CF93DF936C018B017A01EC01CF5DDB4EF2
:10444000888187FF04C0FB011182108224C08CE0A8
:104450008C9D90018D9D300D11248881A901480FFC
:10446000511D87FD5A9580916D1290E048175907AC
:1044700094F48881A901480F511D87FD5A95CA01FE
:10448000FA01EE0FFF1F8E0F9F1FFC01E352FE4E3D
:10449000808186FD19C088818F5F88838CE08C9D28
:1044A00090018D9D300D11248881A901480F511D67
:1044B00087FD5A9580916D1290E048175907BCF41A
:1044C00088818C3044F113C08881280F311D87FD0D
:1044D0003A95F901EE0FFF1F2E0F3F1FF901E3522E
:1044E000FE4E808160E08F730E940634D4CFF801C5
:1044F00080819181049680349C4918F480E49CE981
:1045000004C0F801808191810496F7019183808332
:104510008FEF888345C0F801408151818881B901BE
:10452000680F711D87FD7A95CB01FB01EE0FFF1F10
:104530008E0F9F1FFC01E352FE4E81819281840FFA
:10454000951FF701918380838881A901480F511D30
:1045500087FD5A95CA01FA01EE0FFF1F8E0F9F1FAC
:10456000FC01E352FE4E808186FF1AC08881280F2D
:10457000311D87FD3A95F901EE0FFF1F2E0F3F1FEA
:10458000F901E352FE4E808161E08F73DF91CF919C
:104590001F910F91FF90EF90DF90CF900C94063415
:1045A000DF91CF911F910F91FF90EF90DF90CF900F
:1045B00008958F929F92AF92BF92CF92DF92EF9227
:1045C000FF920F931F93CF93DF93862E942E590162
:1045D0000E94E2346B017C0128E8C20E23E1D21E66
:1045E000E11CF11C00E010E0D0E0C0E098280E943F
:1045F000E234DC01CB018C199D09AE09BF09B7FF7C
:104600002DC0692D80EF0E942F1D0E94E234DC0135
:10461000CB018C199D09AE09BF09B7FF09C088EC11
:104620000E94501D87FFF1CF60E888EC0E942F1D8B
:1046300088EF0E94501DC82FCF70C43019F0CE30C3
:1046400051F00CC00F5F1F4FA114B10481F20A1585
:104650001B0569F603C0DF5FD33049F68C2FDF916D
:10466000CF911F910F91FF90EF90DF90CF90BF906F
:10467000AF909F908F900895FC019081903380F5CA
:10468000818128E830E0281B310987FD3395220F0E
:10469000331F220F331F621773077CF0828128E5D6
:1046A00032E0281B310987FD3395220F331F220F7B
:1046B000331F621773070CF49B0122503109220F3C
:1046C000331F4FB7F894892F90E0FC01EE0FFF1FC6
:1046D0008E0F9F1FFC01E352FE4E328321834FBF9A
:1046E0000895CF92DF92EF92FF92CF93DF93EC0188
:1046F000603282E078070CF03DC077FD06C0653B74
:1047000071052CF064EB70E002C060E070E089811C
:1047100028E830E06901C81AD10887FDD394CC0C91
:10472000DD1CCC0CDD1C0D2C000CEE08FF088A8172
:1047300028E532E0281B310987FD3395220F331F0E
:10474000220F331FC901330FAA0BBB0B9C01AD0114
:104750002C193D094E095F09DB010E94F18F24EB02
:1047600030E040E050E00E94C78FC20ED31EE41E2E
:10477000F51EB601CE01DF91CF91FF90EF90DF9053
:10478000CF900C943C238130910581F410928000ED
:1047900082E0809381001092850010928400B19A8B
:1047A00080916F00826080936F0008958230910540
:1047B00069F41092900082E080939100109295002D
:1047C0001092940088BB8093710008958330910506
:1047D00069F41092A00082E08093A1001092A500DD
:1047E0001092A40089BB809372000895892B61F414
:1047F0001092200182E080932101109225011092F5
:1048000024018ABB8093730008951F920F920FB604
:104810000F9211240BB60F922F933F934F935F93F8
:104820006F937F938F939F93AF93BF93EF93FF9378
:1048300048E251E064E271E080E090E00E941222E0
:10484000FF91EF91BF91AF919F918F917F916F9168
:104850005F914F913F912F910F900BBE0F900FBE24
:104860000F901F9018951F920F920FB60F92112460
:104870000BB60F922F933F934F935F936F937F935A
:104880008F939F93AF93BF93EF93FF9348EA50E0CA
:1048900064EA70E083E090E00E941222FF91EF91C1
:1048A000BF91AF919F918F917F916F915F914F9148
:1048B0003F912F910F900BBE0F900FBE0F901F9046
:1048C00018951F920F920FB60F9211240BB60F92EC
:1048D0002F933F934F935F936F937F938F939F9308
:1048E000AF93BF93EF93FF9348E950E064E970E022
:1048F00082E090E00E941222FF91EF91BF91AF9170
:104900009F918F917F916F915F914F913F912F91E7
:104910000F900BBE0F900FBE0F901F9018951F9217
:104920000F920FB60F9211240BB60F922F933F9355
:104930004F935F936F937F938F939F93AF93BF93A7
:10494000EF93FF9348E850E064E870E081E090E086
:104950000E941222FF91EF91BF91AF919F918F9191
:104960007F916F915F914F913F912F910F900BBE6F
:104970000F900FBE0F901F9018951F920F920FB6B9
:104980000F9211240BB60F922F933F934F935F9387
:104990006F937F938F939F93AF93BF93EF93FF9307
:1049A0008091B900887F803609F49CC068F5883210
:1049B00009F45BC090F4803109F454C038F48823C2
:1049C00009F4F6C0883009F44DC0F6C0883109F406
:1049D0004CC0803209F45DC0EFC0803409F468C077
:1049E00048F4803309F455C0883309F0E5C080935A
:1049F000CA0ED8C0803509F44FC0883509F45DC0AF
:104A0000883409F0D9C0D6C0883909F4C7C0A8F4E1
:104A1000883709F467C038F4883609F463C08037F2
:104A200009F460C0C9C0883809F4B8C0803909F4F5
:104A30005FC0803809F0C0C05BC0803B09F486C00D
:104A400038F4803A09F466C0883A09F47FC0B4C0EB
:104A5000803C09F4A7C0883C09F4A4C0883B09F451
:104A60008AC0AAC08091A70E10C09091C90E8091F3
:104A7000C80E981770F5E091C90E81E08E0F8093F3
:104A8000C90EF0E0E855F14F80818093BB0085ECC2
:104A900086C08093CA0E8EC0E091C90E81E08E0F51
:104AA0008093C90E8091BB00F0E0E855F14F808300
:104AB0009091C90E8091C80E6EC0E091C90E81E040
:104AC0008E0F8093C90E8091BB00F0E0E855F14F46
:104AD00080838091CB0E81116DC081E08093A60E02
:104AE00084EA61C083E08093CC0E10922014CFCF73
:104AF00080912014803208F051C0E091201481E0B0
:104B00008E0F809320148091BB00F0E0E050FC4EAB
:104B10008083BDCF85EC8093BC001092CC0E809139
:104B20002014803230F4E0912014F0E0E050FC4E8C
:104B300010826091201470E0E091FE13F091FF1359
:104B400080E094E119951092201436C084E080939F
:104B5000CC0E1092FD131092FC13E091FA13F09119
:104B6000FB1319958091FC13811105C081E080939E
:104B7000FC131092DA13E091FD1381E08E0F809305
:104B8000FD13F0E0E652FC4E80818093BB009091D3
:104B9000FD138091FC13981708F479CF85E8809372
:104BA000BC000AC085EC8093BC001092CC0E04C0FF
:104BB0001092CA0E0E945521FF91EF91BF91AF91C3
:104BC0009F918F917F916F915F914F913F912F9125
:104BD0000F900BBE0F900FBE0F901F901895CF92A5
:104BE000DF92EF92FF920F931F93CF93DF936C01AD
:104BF0007A018B01C0E0D0E0CE15DF0589F0D80145
:104C00006D918D01D601ED91FC910190F081E02D27
:104C1000C6011995892B11F47E0102C02196ECCFB3
:104C2000C701DF91CF911F910F91FF90EF90DF901F
:104C3000CF900895FC01918D828D981759F0828D47
:104C4000DF01A80FB11D5D968C91928D9F5F928FB1
:104C500090E008958FEF9FEF0895FC01918D828D74
:104C6000981731F0828DE80FF11D858D90E0089541
:104C70008FEF9FEF0895FC01918D828D981B892FF6
:104C800090E0089583E29FE00E943B2621E0892B7B
:104C900009F420E0822F089580E890E10E943B26ED
:104CA00021E0892B09F420E0822F0895FC01848DF6
:104CB000DF01A80FB11DA35EBE4F2C91848D90E043
:104CC00001968F739927848FA689B7892C93A08921
:104CD000B1898C9180648C93938D848D981306C0D8
:104CE0000288F389E02D80818F7D80830895EF9283
:104CF000FF920F931F93CF93DF93EC0181E0888F96
:104D00009B8D8C8D981305C0E889F989808185FD7C
:104D100024C0F62E0B8D10E00F5F1F4F0F7311276D
:104D2000E02E8C8DE8120CC00FB607FCFACFE88994
:104D3000F989808185FFF5CFCE010E945626F1CFFB
:104D40008B8DFE01E80FF11DE35EFE4FF0820B8FAD
:104D5000EA89FB898081806207C0EE89FF896083D0
:104D6000E889F98980818064808381E090E0DF9127
:104D7000CF911F910F91FF90EF900895CF93DF9304
:104D8000EC01888D8823C9F0EA89FB89808185FD43
:104D900005C0A889B9898C9186FD0FC00FB607FCA4
:104DA000F5CF808185FFF2CFA889B9898C9185FFE5
:104DB000EDCFCE010E945626E7CFDF91CF91089527
:104DC00080E090E0892B21F00E944C26811121C0C7
:104DD00080E090E0892B21F00E94422681111CC0C6
:104DE00080E090E0892B41F080E090E0892B21F079
:104DF0000E940000811113C080E090E0892BA1F097
:104E000080E090E0892B81F00E94000081110AC0AF
:104E100008950E940000DCCF0E940000E1CF0E94B4
:104E20000000EACF0C9400000895CF92DF92EF9239
:104E3000FF920F931F93CF93DF937801EC01249699
:104E40006C012BE0C20ED11CDE01F80131912D91D5
:104E5000321304C0AC15BD05C9F716C0DC011296AB
:104E60008D919C911397009779F0B801DC01ED9139
:104E7000FC910190F081E02D1995F70181917F015E
:104E80008993CC15DD05C9F7DF91CF911F910F9163
:104E9000FF90EF90DF90CF9008950E94C68BDB01CA
:104EA0003C9111968C911197482F4370E5E6F4E1FF
:104EB000308341838695869512969C911297292F6F
:104EC0002295220F220F207C822B292F26952695B2
:104ED00023708283238315965C91159757831396CD
:104EE0006C911397658392959F70948314967C912F
:104EF000149776831696AC91A0871F925F932F9399
:104F00008F934F933F931F929F931F92AF931F9244
:104F10007F931F926F931F925F932F938F934F9363
:104F20003F938DE99CE09F938F9381E19FE09F9356
:104F30008F930E94181F8DB79EB748960FB6F894AE
:104F40009EBF0FBE8DBF08956115710579F0FB01FD
:104F500001900020E9F73197AF01461B570BDC01A8
:104F6000ED91FC910280F381E02D199480E090E0B6
:104F700008951F920F920FB60F9211240BB60F9245
:104F80002F933F934F935F936F937F938F939F9351
:104F9000AF93BF93EF93FF9383E29FE00E94562667
:104FA000FF91EF91BF91AF919F918F917F916F9101
:104FB0005F914F913F912F910F900BBE0F900FBEBD
:104FC0000F901F9018951F920F920FB60F921124F9
:104FD0000BB60F922F938F939F93EF93FF93E091D4
:104FE000330FF091340F8081E091390FF0913A0F37
:104FF00082FD11C0908180913C0F8F5F20913D0F09
:10500000821751F0E0913C0FF0E0ED5DF04F958F8D
:1050100080933C0F01C08081FF91EF919F918F9110
:105020002F910F900BBE0F900FBE0F901F901895F1
:105030001F920F920FB60F9211240BB60F922F935F
:105040003F934F935F936F937F938F939F93AF9310
:10505000BF93EF93FF9380E890E10E945626FF9163
:10506000EF91BF91AF919F918F917F916F915F91E0
:105070004F913F912F910F900BBE0F900FBE0F904D
:105080001F9018951F920F920FB60F9211240BB616
:105090000F922F938F939F93EF93FF93E091901034
:1050A000F09191108081E0919610F091971082FD1F
:1050B00011C09081809199108F5F20919A10821772
:1050C00051F0E0919910F0E0E058FF4E958F8093F9
:1050D000991001C08081FF91EF919F918F912F9145
:1050E0000F900BBE0F900FBE0F901F901895FC01F4
:1050F00020812EBDDC0131969C01260F371FE2175F
:10510000F30741F051910DB407FEFDCF4EB55EBDE2
:105110004D93F5CF61507109FC01E60FF71F0DB4F7
:1051200007FEFDCF8EB580830895CF92DF92EF9278
:10513000FF92CF93DF931F921F92CDB7DEB76B0123
:105140007C010E942B779A8389832EE32C9DC001DA
:105150002D9D900D112468EE73E00E94E188CE0130
:1051600001960E9435770F900F90DF91CF91FF90BD
:10517000EF90DF90CF900895EF92FF920F931F93DF
:10518000CF93DF93D62FC72F7A0191E09093CD0E66
:1051900098E69093EF0E1092CE0E1092F00E682FBC
:1051A00087E19FE00E94E321019709F068C080E059
:1051B0000E946C1F282F30E02115310509F061C0D5
:1051C0008091CC0E8111FCCF8E2D813208F080E2CF
:1051D00091E09093CC0E9093CB0E2FEF2093CA0EBC
:1051E0001092C90E280F2093C80E9093A70E90918D
:1051F000A70E906D9093A70E9091A60E913061F43A
:105200001092A60E9091A70E9093BB009091BC00B7
:1052100093FDF8CF95EC01C095EE9093BC00909172
:10522000CC0E9130E1F39091C90E981710F4809153
:10523000C90EA8EABEE028EB33E1F9019E2F921BCC
:10524000981718F49D919193F9CF1092D9138093E8
:10525000D8130D2F1C2FC0E0D0E09091D81380916F
:10526000D913981781F0CE15DF056CF4219687E1EC
:105270009FE00E949721F80181938F01EECF86EF86
:1052800006C0C90108C0CE15DF0519F085EF9FEFF4
:1052900002C080E090E0DF91CF911F910F91FF90CD
:1052A000EF900895CF93DF93EC014EE050E0BC0106
:1052B0008BE390E00E94BC282881398138832983C0
:1052C0002A813B813A832B832C813D813C832D8332
:1052D0002E813F813E832F83288539853887298712
:1052E0002A853B853A872B872C853D853C872D87F2
:1052F000DF91CF9108954F925F926F927F928F923C
:105300009F92AF92BF92CF92DF92EF92FF920F9354
:105310001F93CF93DF93CDB7DEB7E6970FB6F89420
:10532000DEBF0FBECDBF8C01CE0101960E94522977
:105330000E94E2346F8B788F898F9A8F69817A818E
:10534000072E000C880B990B0E94CE8E6F87788BEE
:10535000898B9A8B6B817C81072E000C880B990BB3
:105360000E94CE8E2B013C016D817E81072E000CA8
:10537000880B990B0E94CE8E6B8B7C8B8D8B9E8BBA
:105380009B01AC010E94098F6B017C01A30192017A
:10539000C301B2010E94098FA70196010E94FE88F5
:1053A0000E94408A9B01AC016F85788989899A891E
:1053B00090580E9499890E946A896BA37CA38DA34F
:1053C0009EA32F85388949895A89CA01B9010E944B
:1053D000098FA70196010E94FE880E94408A9B01C6
:1053E000AC01C301B2010E9499890E946A896FA32E
:1053F00078A789A79AA78091551490915614A091E7
:105400005714B09158142F89388D498D5A8D281B07
:10541000390B4A0B5B0BCA01B9010E94CC8E20E00C
:1054200030E04AE754E40E9499896B017C01698568
:105430007A85072E000C880B990B0E94CE8E209146
:1054400061143091621440916314509164140E946D
:10545000FD8820E030E043E053E40E949989A701F1
:1054600096010E94098F6B8F7C8F8D8F9E8F6B852D
:105470007C85072E000C880B990B0E94CE8E209104
:105480005D1430915E1440915F14509160140E943D
:10549000FD8820E030E043E053E40E949989A701B1
:1054A00096010E94098F4B015C016D857E85072E58
:1054B000000C880B990B0E94CE8E209159143091CC
:1054C0005A1440915B1450915C140E94FD8820E0B6
:1054D00030E043E053E40E949989A70196010E94BD
:1054E000098F6B017C012091491430914A1440913D
:1054F0004B1450914C140E94FE886F8F78A389A39F
:105500009AA320914514309146144091471450912C
:1055100048146B8D7C8D8D8D9E8D0E94FE886BA7AF
:105520007CA78DA79EA720914114309142144091F1
:10553000431450914414C501B4010E94FE886FA722
:1055400078AB89AB9AAB20913D1430913E144091D9
:105550003F1450914014C701B6010E94FE886BAB06
:105560007CAB8DAB9EAB2091511430915214409185
:105570005314509154146B8D7C8D8D8D9E8D0E9493
:10558000FE882FE832EC45E75FE30E94098F6B014C
:105590007C012DEE3EE245E652E46FA178A589A597
:1055A0009AA50E94098F20E137ED43E25DE30E9456
:1055B000098F9B01AC01C701B6010E94FE886B01F7
:1055C0007C0120914D1430914E1440914F14509114
:1055D0005014C501B4010E94FE882FE832EC45E763
:1055E0005FE30E94098F4B015C012DEE3EE245E630
:1055F00052E46BA17CA18DA19EA10E94098F20E1A4
:1056000037ED43E25DE30E94098F9B01AC01C501C8
:10561000B4010E94FE882F89388D498D5A8D2093C0
:105620005514309356144093571450935814C09205
:105630005114D0925214E0925314F0925414609387
:105640004D1470934E1480934F14909350142F8DDB
:1056500038A149A15AA12093491430934A14409388
:105660004B1450934C142BA53CA54DA55EA520933F
:1056700045143093461440934714509348142FA573
:1056800038A949A95AA92093411430934214409350
:105690004314509344142BA93CA94DA95EA920930F
:1056A0003D1430933E1440933F1450934014E5E270
:1056B000F4E1C082D182E282F382648375838683BF
:1056C00097838F8D98A1A9A1BAA180879187A2877E
:1056D000B3872F85388949895A8924873587468732
:1056E0005787408A518A628A738A8B899C89AD89DF
:1056F000BE89848B958BA68BB78B88E1D8010190EE
:105700000D928A95E1F7C801E6960FB6F894DEBFD0
:105710000FBECDBFDF91CF911F910F91FF90EF9002
:10572000DF90CF90BF90AF909F908F907F906F90C1
:105730005F904F90089580E890E10E943B26892B6E
:1057400009F451C080E890E10E941A26893449F199
:1057500034F4843421F1853441F581E027C0863565
:10576000E1F0873501F1823501F58DED9DE09F93E4
:105770008F9381E19FE09F938F930E947A2068EE40
:1057800073E080E090E00E949528E0E0F0E0199559
:105790000F900F900F900F9008C085E007C084E035
:1057A00005C083E003C082E001C080E0282F30E024
:1057B0002630310514F025E030E03093120F2093AD
:1057C000110F1F928F938CE89AE09F938F9381E142
:1057D0009FE09F938F930E94A4200F900F900F90B3
:1057E0000F900F900F900895CF93DF93EC018A8173
:1057F0009B81DC01ED91FC910480F581E02D6A85AF
:1058000019958A85813439F4EA81FB81EA58FF4F82
:105810008081846080831A861B861C861D861E8676
:105820001F86188A80E0DF91CF91089581E069306A
:1058300009F080E00895FC01828508952F923F923F
:105840004F925F926F927F928F929F92AF92BF9290
:10585000CF92DF92EF92FF920F931F93CF93DF933C
:10586000CDB7DEB766970FB6F894DEBF0FBECDBFDB
:105870007C01162F6A01FA0180819181A281B38196
:105880008130F3E09F07F1E0AF07B105E1F060F48C
:105890008115E1E09E07AE07B10569F181309140C5
:1058A000A140B10581F067C1833021E0920720E17A
:1058B000A207B10509F46BC083309340A041B10544
:1058C00009F465C058C180916E14811154C1412FF3
:1058D00061E1C7010E948933412F60E1C7010E9445
:1058E0008933412F64E0C7010E94DD3381E080935A
:1058F0006E1481EB58C1462F61E1C7010E948933C4
:10590000412F60E1C7010E94893310926E14D701C4
:105910001A968C911A9787701770880F880F880FC6
:10592000182B1296CD90DC901397112309F423C104
:105930005601B6E5AB0EB11CE12CF12CF5018191BD
:1059400091915F010097D9F0DC01ED91FC91008409
:10595000F185E02D1995811312C0BBE2EB0EF11C0D
:10596000EE0CFF1CF601EE0DFF1D80819181DC0124
:10597000ED91FC910480F581E02D1995FCC0BFEFFD
:10598000EB1AFB0AE0E1EE16F104C1F6F4C0412F78
:1059900064E1C7010E948933412F60E1C7010E9481
:1059A000893364E170E080E090E00E94A834D70180
:1059B0001A968C911A97F60151808770482E12968C
:1059C000ED90FC9013971B8A88E08C8B8CE38D8B79
:1059D000FAEFEF16FFEFFF0609F4CBC051FA55249A
:1059E00050F8D7011696CD90DC901797CE014396CC
:1059F00017969C938E9316971A965C929E012F5F32
:105A00003F4F42E150E060E0C7010E94D832F70109
:105A1000D782C6828111ADC089849A846B847C84CC
:105A2000FD81FE8B2E80670126E5C20ED11C56013A
:105A3000312CD5018D919C91009789F1DC01ED917C
:105A4000FC910084F185E02D1995811128C0F501A4
:105A500080819181DC01ED91FC910088F189E02D3C
:105A6000622D19958823D9F0F50180819181DC019F
:105A7000ED91FC910484F585E02DA301B401199505
:105A800081117BC0F50180819181DC01ED91FC9158
:105A90000684F785E02D6E89199581116EC03394C7
:105AA000B2E0AB0EB11CE0E13E12C3CFB12CD60187
:105AB0008D919C91009791F1DC01ED91FC91008416
:105AC000F185E02D1995811129C0F6018081918120
:105AD000DC01ED91FC910088F189E02D622D199592
