:100000000C9498070C94C9070C94C9070C94C90761
:100010000C94C9070C94C9070C94C9070C94C90720
:100020000C94C9070C94C9070C94C9070C94C90710
:100030000C946D7F0C94C9070C94C9070C94C907E4
:100040000C94C9070C94D5190C94C9070C94C907D2
:100050000C94C9070C94C9070C94C9070C94A430DC
:100060000C94C9070C9432290C9408290C94C907E4
:100070000C94C9070C94C9070C94C9070C94C907C0
:100080000C94A7190C94C9070C94C9070C94C907C0
:100090000C94D3280C94A9280C94C9070C94031A27
:1000A0000C94C9070C94C9070C9479190C94C907CE
:1000B0000C94C9070C94C9070C94C9070C944B19EC
:1000C0000C94C9070C94C9070C94C9070C94C90770
:1000D0000C94C9070C94C9070C94C9070C94C90760
:1000E0000C94C907C73BC73BC73BFC3B413EA33E03
:1000F000C73BC73BFC3B413EEB2FEE2FDD2FE12FF3
:10010000E52F2530F22FF62FFC2F003004300A3077
:100110000E301230253018301C3020300C94F9305D
:100120000C94C4120C9460130C9495010C94A322AB
:100130000C943B280C9467120C940C2D0C94B01763
:100140000C94FC3B0C94EC120C9427270C940A7B27
:100150000C940E300C94351B0C9410180C947624CF
:100160000C94AA270C946A120C94F1170C94F62F95
:100170000C942C210C943C120C94EE2F0C94EB2F2D
:100180000C94F87C0C94EE170C9412300C94AA1773
:100190000C9452800C94F22F0C940A300C94DB26B1
:1001A0000C9406270C946E120C9405210C94E52FE8
:1001B0000C9448130C94C73B0C9419270C9463219E
:1001C0000C94FB170C9463270C94AE170C94E12F3E
:1001D0000C94B7170C94A33E0C9418300C94272160
:1001E0000C9413120C941C300C9487250C94413EF3
:1001F0000C9425300C9420300C946D120C94DD2F4F
:100200000C9477230C94FC2F0C94F4170C94ED179A
:100210000C94D3230C94AC170C9400300C94043041
:100220000C94012800002200250028002B002E003D
:100230003100340002010000050108010B0100003B
:100240002100240027002A002D0030003300010186
:100250000000040107010A01050505050705080856
:100260000808020202020A0A080804040404010140
:100270000101010101010303030303030303040755
:1002800007070C0C0C0C0C0C0C0C020202020606EC
:100290000606060606060B0B0B0B0B0B0B0B0102DF
:1002A0001020200808102040102040800201020188
:1002B0000804020101020408102040808040201040
:1002C0000804020180040201804020100804020199
:1002D0000804020101020408102040800102040801
:1002E0001020408000000A0B02090C0D0E080703C5
:1002F00004010000000000000000000000000000F9
:1003000000000000000000000000000000000000ED
:1003100012111000000000000000000000000000AA
:100320000000000000000000000089E0482EAA2420
:10033000AA94BA2CEE24EA94FE2CCC24CA94DC2C89
:1003400055245394992493948091190E882309F489
:10035000E3C58091F30D8F5F8093F30DD0911C0E58
:100360000FB6F8940F928091F30D81508093F30DA6
:100370008091F30D8111DEC18091D40D882309F4A1
:10038000D9C12091EF0D3091F00DE0E0F0E08091C7
:10039000EA0D882309F48FC0D9011696ED91FC91DE
:1003A0001797048915894685578580899189DA01CF
:1003B00015969C938E93149780899189DC011396EE
:1003C0005C934E931297AF01445F5F4FD801119633
:1003D0006D917C9112976417750721F412969C9386
:1003E0008E931197158A148AD8018C9181508C9321
:1003F000AF014E5F5F4F02851385648175818681F1
:100400009781DB0115969C938E9314978681978133
:10041000DC0113967C936E931297D80111966D911F
:100420007C9112976417750721F412969C938E9312
:10043000119713861286D8018C9181508C93A689CE
:100440008091180E8A1710F4A093180E4A9ED001BE
:1004500011248D010C50124FD80111968D919C9151
:10046000129795838483DC0114966D917C91159786
:100470007783668314966D917C911597DB011396B3
:100480005C934E931297DC0115965C934E931497F0
:1004900013870287D8018C918F5F8C93A091E80D10
:1004A000B091E90D968956968C91981708F46FCF04
:1004B0009092E70D6CCFEF2BE1F0E091E00DF09121
:1004C000E10D8081811105C0D092DF0DC092DE0D5B
:1004D00010C0E091E00DF091E10D0580F681E02D76
:1004E0000680F781E02D828193819093DF0D8093C8
:1004F000DE0D3091D30D332309F417C18091F30D34
:10050000811101C18091E40D9091E50D01969093C8
:10051000E50D8093E40D009789F54091E00D509131
:10052000E10D6091E20D7091E30D7093E10D609328
:10053000E00D5093E30D4093E20D2091E60D2F5F07
:100540002093E60DE091E00DF091E10D2081211165
:1005500005C0D092DF0DC092DE0D10C0E091E00D1D
:10056000F091E10D0580F681E02D0680F781E02D08
:10057000428153815093DF0D4093DE0D4091DE0D9B
:100580005091DF0D20E08417950708F4ADC0E0918D
:10059000E00DF091E10D4081411105C0D092DF0DD9
:1005A000C092DE0DA1C0E091E00DF091E10D05805B
:1005B000F681E02D0680F781E02D4281538184177A
:1005C000950728F45093DF0D4093DE0D8DC0BF01D9
:1005D0006E5F7F4F628473840481158146815781E9
:1005E000D80115965C934E93149746815781DA0192
:1005F00013961C930E931297D30111960D911C9193
:1006000012970617170721F412965C934E931197D1
:1006100013861286D3014C9141504C93248835881F
:100620002114310429F14685578500891189DA01A1
:1006300015961C930E93149700891189D80113966F
:100640005C934E931297D10111966D907C90129706
:10065000AF01445F5F4F6416750621F412961C9338
:100660000E931197158A148AD1014C9141504C93E5
:10067000A6894091180E4A1710F4A093180E4A9EAE
:10068000D0011124AD014C50524F3A01DA011196BC
:100690004D915C91129755834483DA0114960D9124
:1006A0001C9115971783068314960D911C9115972D
:1006B000D80113967C936E931297DA0115967C936A
:1006C0006E93149773866286D3014C914F5F4C935F
:1006D000A091E80DB091E90D568956964C915417AA
:1006E00008F455CF21E053CFE091E80DF091E90DEA
:1006F000E6894E9EF0011124EC50F24F8081823049
:1007000040F021E006C08091D30D8F5F8093D30D20
:1007100020E08091E70D811101C021119092E70D39
:10072000315009F0EBCE1092D30D8091E70D81117D
:100730000E94707F0F900FBEDD2309F405CE0FB627
:10074000F8940F92E091210EF091220E068117810C
:10075000E801EA85FB858C819D812E813F81DC014A
:1007600015963C932E9314970E80DF81C02D9B83AA
:100770008A83C8010296218132812817390711F432
:10078000D283C183E8011B861A86808181508083D1
:100790008091D40D81508093D40D8091190E815099
:1007A0008093190E0F900FBE2F89388D21153105BA
:1007B00009F4E4C19091F30D9F5F9093F30DC9018B
:1007C0000E94BD830FB6F8940F928091F30D815073
:1007D0008093F30D8091F30D8111CEC18091D40DE2
:1007E000882309F4C9C16091EF0D7091F00DE0E02C
:1007F000F0E08091EA0D882309F47FC0DB011696B2
:10080000ED91FC911797C489D58926853785808914
:100810009189D90115969C938E931497808991891B
:10082000DC0113963C932E9312979F01245F3F4F58
:1008300049815A814217530711F49A838983158A93
:10084000148A8881815088839F012E5F3F4FC28523
:10085000D3854481558186819781DA0115969C93D1
:100860008E93149786819781DC0113965C934E9347
:10087000129749815A814217530711F49A83898349
:1008800013861286888181508883A6898091180EEC
:100890008A1710F4A093180E4A9ED0011124ED017E
:1008A000CC50D24F89819A8195838483DC01149640
:1008B0004D915C9115975783468314964D915C91A9
:1008C0001597DA0113963C932E931297DC01159637
:1008D0003C932E931497D387C28788818F5F888338
:1008E000A091E80DB091E90D968956968C919817D4
:1008F00008F47FCF9092E70D7CCFEF2BE1F0E091F1
:10090000E00DF091E10D8081811105C0F092DF0DC5
:10091000E092DE0D10C0E091E00DF091E10D058058
:10092000F681E02D0680F781E02D828193819093FE
:10093000DF0D8093DE0D8090D30D882009F417C160
:100940008091F30D811101C18091E40D9091E50D2D
:1009500001969093E50D8093E40D009789F5209121
:10096000E00D3091E10D4091E20D5091E30D509377
:10097000E10D4093E00D3093E30D2093E20D2091C3
:10098000E60D2F5F2093E60DE091E00DF091E10D73
:100990002081211105C0F092DF0DE092DE0D10C024
:1009A000E091E00DF091E10D0580F681E02D0680EB
:1009B000F781E02D228133813093DF0D2093DE0D0E
:1009C0002091DE0D3091DF0DD0E08217930708F4FF
:1009D000ADC0E091E00DF091E10D2081211105C045
:1009E000F092DF0DE092DE0DA1C0E091E00DF091FC
:1009F000E10D0580F681E02D0680F781E02D228152
:100A000033818217930728F43093DF0D2093DE0D96
:100A10008DC0AF014E5F5F4F628473842481358146
:100A200066817781D90115967C936E9314976681C0
:100A30007781DB0113963C932E931297D301119685
:100A40002D913C9112972417350721F412967C932F
:100A50006E93119713861286D3012C9121502C93FB
:100A6000248835882114310429F126853785608949
:100A70007189D90115967C936E9314976089718959
:100A8000DB0113963C932E931297D10111966D9032
:100A90007C9012979F01245F3F4F6216730621F4EA
:100AA00012967C936E931197158A148AD1012C911A
:100AB00021502C93A6892091180E2A1710F4A09388
:100AC000180E4A9ED00111249D012C50324F39013D
:100AD000D90111962D913C91129735832483D90128
:100AE00014966D917C9115977783668314966D911A
:100AF0007C911597DB0113965C934E931297D90165
:100B000015965C934E93149773866286D3012C914D
:100B10002F5F2C93A091E80DB091E90D3689569680
:100B20002C91321708F455CFD1E053CFE091E80D66
:100B3000F091E90DE6894E9EF0011124EC50F24F40
:100B40008081823040F0D1E006C08091D30D8F5F6C
:100B50008093D30DD0E08091E70D811101C0D111B8
:100B60009092E70D8A948110EBCE1092D30D809174
:100B7000E70D81110E94707F0F900FBE01151105C6
:100B800009F4E2CB8091F30D8F5F8093F30DC801E0
:100B90000E94BD830FB6F8940F928091F30D81509F
:100BA0008093F30D8091F30D8111B3C18091D40D29
:100BB000882309F4AEC12091EF0D3091F00DE0E0F3
:100BC000F0E08091EA0D882309F47DC0E901EE810F
:100BD000FF81C489D5894685578580899189DA0145
:100BE00015969C938E93149780899189DC011396B6
:100BF0005C934E931297AF01445F5F4F69817A8196
:100C00006417750711F49A838983158A148A888179
:100C100081508883AF014E5F5F4FC285D385648169
:100C2000758186819781DB0115969C938E9314972D
:100C300086819781DC0113967C936E93129769816C
:100C40007A816417750711F49A8389831386128653
:100C5000888181508883A6898091180E8A1710F4A4
:100C6000A093180E4A9ED0011124ED01CC50D24F12
:100C700089819A8195838483DC0114966D917C919E
:100C800015977783668314966D917C911597DB0198
:100C900013965C934E931297DC0115965C934E93DA
:100CA0001497D387C28788818F5F8883A091E80DCE
:100CB000B091E90D968956968C91981708F481CFDA
:100CC0005092E70D7ECFEF2BE1F0E091E00DF09137
:100CD000E10D8081811105C0B092DF0DA092DE0D83
:100CE00010C0E091E00DF091E10D0580F681E02D5E
:100CF0000680F781E02D828193819093DF0D8093B0
:100D0000DE0D3091D30D332309F4FEC08091F30D35
:100D10008111E8C08091E40D9091E50D01969093CA
:100D2000E50D8093E40D009789F54091E00D509119
:100D3000E10D6091E20D7091E30D7093E10D609310
:100D4000E00D5093E30D4093E20D2091E60D2F5FEF
:100D50002093E60DE091E00DF091E10D208121114D
:100D600005C0B092DF0DA092DE0D10C0E091E00D45
:100D7000F091E10D0580F681E02D0680F781E02DF0
:100D8000428153815093DF0D4093DE0D4091DE0D83
:100D90005091DF0D20E08417950708F494C0E0918E
:100DA000E00DF091E10D4081411105C0B092DF0DE1
:100DB000A092DE0D88C0E091E00DF091E10D05807C
:100DC000F681E02D0680F781E02D42815381841762
:100DD000950728F45093DF0D4093DE0D74C0BF01DA
:100DE0006E5F7F4FC285D38504811581468157810F
:100DF000D80115965C934E93149746815781DA017A
:100E000013961C930E93129709811A8106171707E0
:100E100011F45A83498313861286488141504883CE
:100E2000A489B5891097F9F04685578500891189FD
:100E3000EA011D830C8300891189E8015B834A83E1
:100E400011966D907C901297AF01445F5F4F6416CE
:100E5000750621F412961C930E931197158A148A25
:100E60004C9141504C93A6894091180E4A1710F4AA
:100E7000A093180E4A9ED0011124AC50B24F119687
:100E80004D915C91129755834483EA010C811D8139
:100E9000178306830C811D81E8017B836A83EA0145
:100EA0007D836C83B387A2874C914F5F4C93A09155
:100EB000E80DB091E90D568956964C91541708F4F7
:100EC0006ECF21E06CCFE091E80DF091E90DE6895D
:100ED0004E9EF0011124EC50F24F8081823040F0A0
:100EE00021E006C08091D30D8F5F8093D30D20E069
:100EF0008091E70D811101C021119092E70D3150D1
:100F000009F004CF1092D30D8091E70D81110E945A
:100F1000707F0F900FBE18CA8091F40D823010F0D0
:100F20000E94707F0E94F1290E94CC2709CA0A7B87
:100F300011241FBECFEFD1E2DEBFCDBF00E00CBF5A
:100F40001DE0A0E0B2E0E8E9FFE001E00BBF02C075
:100F500007900D92A23BB107D9F723E1A2EBBDE0C8
:100F600001C01D92A737B207E1F717E0C8E9D7E043
:100F700000E006C021970109802FFE010E94208316
:100F8000C739D10780E00807A9F70E94B0460C9442
:100F9000CA870C9400004F925F926F927F928F925B
:100FA0009F92AF92BF92CF92DF92EF92FF920F93F8
:100FB0001F93CF93DF9364E670E080E090E00E949F
:100FC0005E300E9498306B017C01C7E5DEE084E072
:100FD00090E09093580E8093570E80E090E1AEE041
:100FE000B0E08093590E90935A0EA0935B0EB0938D
:100FF0005C0E40E050E16EE070E08AEB9FE00E9402
:101000006F1081ED92E09F938F93DF93CF930E94B7
:10101000E22C8CEE92E09F938F93DF93CF930E940C
:10102000E22C87E093E09F938F93DF93CF930E940E
:10103000E22C82E293E09F938F93DF93CF930E9401
:10104000E22C83E493E09F938F93DF93CF930E94EE
:101050006E2C8BE793E09F938F93DF93CF930E9447
:10106000B82C85EB93E09F938F93DF93CF930E94EF
:101070008F0F8DEE93E09F938F93DF93CF930E941A
:10108000650FEDB7FEB7B0960FB6F894FEBF0FBE72
:10109000EDBF88E294E09F938F938BE394E09F935E
:1010A0008F93DF93CF930E94E22C1F9284E68F935D
:1010B0008AE694E09F938F93DF93CF930E94E22C74
:1010C00082E994E09F938F93DF93CF930E94B82C93
:1010D00085EB94E09F938F93DF93CF930E94E22C54
:1010E0008FED94E09F938F93DF93CF930E94E22C38
:1010F000249A0E948729CFB7F8944DB75EB7485E0F
:101100005F4F0FB6F8945EBF0FBE4DBF8091D00DFC
:10111000811124C0EDE8F2E08491E3EDF2E09491D6
:10112000E82FF0E0EE0FFF1FE25CFD4FA591B491B8
:10113000EC91E92321F461E085E30E94BC2F85E373
:101140000E94992C8CB580618CBD8CB580648CBD5F
:1011500084E30E94992C83E30E94992C8091D00D06
:101160008F5F8093D00DCFBF209A289A8091010184
:101170008F7B8093010168E188E80E94892960E201
:1011800088E70E94892960E088E70E948929C1E0F8
:10119000D0E0209709F4A4C488E60E94AC292196E7
:1011A00080FFF7CF61EC88ED0E94892960E680ED31
:1011B0000E94892964E088EE0E94892988EE0E94B5
:1011C000AC2982FFFBCF0E943E2C60E288EC0E949B
:1011D000892961E080E80E94892981E095E09F9358
:1011E0008F9387E59EE09F938F930E94E22C0F9050
:1011F0000F900F900F9068EC70E080E090E00E94FC
:101200005E3049EA51E160E084EB91E10E943C12DA
:101210008AE295E09F938F93C7E5DEE0DF93CF935B
:101220000E94E22C8AE495E09F938F93DF93CF9303
:101230000E94E22C8EE695E09F938F93DF93CF93ED
:101240000E94B82C81E995E09F938F93DF93CF9311
:101250000E94B82C64E670E080E090E00E945E306E
:101260004DB75EB7405F5F4F0FB6F8945EBF0FBEDD
:101270004DBF8091581390915913892B09F0B7C332
:101280008091F30D8F5F8093F30D8FE190E00E94CA
:101290002883EC010FB6F8940F928091F30D8150E2
:1012A0008093F30D8091F30D8111E6C18091D40DEF
:1012B000882309F4E1C12091EF0D3091F00DE0E0B9
:1012C000F0E009E011E08091EA0D882309F490C074
:1012D000D9011696ED91FC911797A488B58846859B
:1012E000578580899189DA0115969C938E9314977E
:1012F00080899189DC0113965C934E931297AF011C
:10130000445F5F4FD50111966D917C9112976417E0
:10131000750721F412969C938E931197158A148A5F
:10132000D5018C9181508C93AF014E5F5F4FA284A9
:10133000B3846481758186819781DB0115969C93C6
:101340008E93149786819781DC0113967C936E931C
:101350001297D50111966D917C91129764177507BC
:1013600021F412969C938E93119713861286D501C1
:101370008C9181508C93A6898091180E8A1710F455
:10138000A093180E0A9FD0011124CD018C50924FCA
:101390005C01DC0111968D919C9112979583848359
:1013A000DC0114966D917C91159777836683149672
:1013B0006D917C911597DB0113965C934E93129778
:1013C000DC0115965C934E931497B386A286D501E3
:1013D0008C918F5F8C93A091E80DB091E90D968967
:1013E00056968C91981708F46ECF1093E70D6BCF3B
:1013F000EF2BD1F0E091E00DF091E10D80818111B2
:1014000003C08FEF9FEF0CC0E091E00DF091E10D74
:101410000580F681E02D0680F781E02D82819381A1
:101420009093DF0D8093DE0D3091D30D332309F4BB
:101430001EC189E0782E66246394AA24AA94BA2C4B
:101440008091F30D811101C18091E40D9091E50D22
:1014500001969093E50D8093E40D009789F54091F6
:10146000E00D5091E10D6091E20D7091E30D7093EC
:10147000E10D6093E00D5093E30D4093E20D209158
:10148000E60D2F5F2093E60DE091E00DF091E10D68
:101490002081211105C0B092DF0DA092DE0D10C099
:1014A000E091E00DF091E10D0580F681E02D0680E0
:1014B000F781E02D428153815093DF0D4093DE0D83
:1014C0004091DE0D5091DF0D20E08417950708F460
:1014D000ADC0E091E00DF091E10D4081411105C0FA
:1014E000B092DF0DA092DE0DA1C0E091E00DF09171
:1014F000E10D0580F681E02D0680F781E02D428127
:1015000053818417950728F45093DF0D4093DE0D27
:101510008DC0BF016E5F7F4F8284938404811581EB
:1015200046815781D80115965C934E931497468156
:101530005781DA0113961C930E931297D4011196DA
:101540000D911C9112970617170721F412965C93C0
:101550004E93119713861286D4014C9141504C93AF
:10156000448855884114510429F1468557850089DE
:101570001189DA0115961C930E931497008911892D
:10158000D80113965C934E931297D20111968D90C9
:101590009C901297AF01445F5F4F8416950621F42B
:1015A00012961C930E931197158A148AD2014C91AE
:1015B00041504C93A6894091180E4A1710F4A093FD
:1015C000180E7A9ED0011124AD014C50524F4A01A1
:1015D000DA0111964D915C91129755834483DA019B
:1015E00014960D911C9115971783068314960D91EF
:1015F0001C911597D80113967C936E931297DA017C
:1016000015967C936E93149793868286D4014C91A1
:101610004F5F4C93A091E80DB091E90D5689569615
:101620004C91541708F455CF21E053CFE091E80DC9
:10163000F091E90DE6897E9EF0011124EC50F24F05
:101640008081823040F021E006C08091D30D8F5F11
:101650008093D30D20E08091E70D811101C021110D
:101660006092E70D315009F0EBCE1092D30D8091CE
:10167000E70D81110E94707F0F900FBE209769F4D3
:10168000279A2F9ABFEFE0E7F2E0B150E040F04038
:10169000E1F700C000001F9AF5CFD983C88381E02D
:1016A0008B8F1C8E0FB6F8940F92288139819B8DF9
:1016B0004C8D949FC0011124B901680F791F7B8361
:1016C0006A831A8E3D832C83841B9109820F931F9A
:1016D0009F838E838FEF8D8F8E8FCE010B969A878F
:1016E00089872FEF3FEF3C872B879E878D87988BCD
:1016F0008F87188609969B8B8A8B3D8B2C8B9F8BB3
:101700008E8B998F888F198A0F900FBE1B821A8239
:10171000198218821E820FB6F8940F929A8D8B8DC3
:10172000981708F057C11A8D4C8D41117AC08881E5
:101730009981892B09F08CC0EA81FB81309711F4E3
:1017400080E06CC082A1815082A3268991A12917D3
:10175000B9F38111F5CF9F012E5F3F4F62857385ED
:101760004481558186819781DA0115969C938E93E9
:10177000149786819781DC0113965C934E931297A0
:10178000DB0111964D915C9112974217530721F49A
:1017900012969C938E93119713861286DB018C917F
:1017A00081508C9381A1868B682F70E044E050E0DB
:1017B000461B570B558744879091180E981710F4C5
:1017C0008093180E89E0869FD001879FB00D112469
:1017D000BD016C50724FDB0111968D919C91129757
:1017E00095838483DC0114964D915C911597578302
:1017F000468314964D915C911597DA0113963C93AC
:101800002E931297DC0115963C932E9314977387B1
:101810006287FB0180818F5F808381E01B821A8257
:1018200018C050E060E070E08C819D810E945A8475
:101830002C8D8C819D81820F911D9D838C832A81AB
:101840003B818217930720F0888199819D838C8347
:1018500080E01F5F1A8F9989992309F4B8C0EE8937
:10186000FF890680F781E02DCF010C966489758988
:101870004685578520893189DA0115963C932E9348
:10188000149720893189D90113965C934E9312974E
:10189000DB0111964D915C9112974817590721F47D
:1018A00012963C932E931197158A148ADB012C9182
:1018B00021502C932091F30D211158C09F012E5FD0
:1018C0003F4F628573854481558186819781DA0116
:1018D00015969C938E93149786819781DC011396BD
:1018E0005C934E931297DB0111964D915C91129788
:1018F0004217530721F412969C938E9311971386E7
:101900001286DB018C9181508C93A6898091180EF0
:101910008A1710F4A093180E49E0A49FD001112457
:10192000BD016C50724FDB0111968D919C91129705
:1019300095838483DC0114964D915C9115975783B0
:10194000468314964D915C911597DA0113963C935A
:101950002E931297DC0115963C932E931497738760
:101960006287DB018C918F5F8C9324C04091EB0DDB
:101970005091EC0D57874687DA0114962D913C91D2
:101980001597318B208B14962D913C911597D90189
:1019900013969C938E931297DA0115969C938E93CF
:1019A00014978AEE9DE0958B848B8091EA0D8F5F72
:1019B0008093EA0DA091E80DB091E90D96895696B5
:1019C0008C91891738F481E08093E70D01C0811173
:1019D0000E94707F0F900FBED0935913C09358137D
:1019E00040E050E060E070E0CE010E94F56300E06E
:1019F00010E021E040E055E067EB75E085E39BE116
:101A00000E94D574C82F06E513E121E040E054E0C0
:101A100064EC75E08CE09DE20E94D574C8238FE0F1
:101A20000E94988090935513809354138FE00E94E6
:101A300098809093D20D8093D10DC1110BC081ED90
:101A400095E09F938F9387E59EE09F938F930E94ED
:101A50006E2C0AC08AEF95E09F938F9387E59EE0F6
:101A60009F938F930E94E22C0F900F900F900F90F6
:101A70008DE196E09F938F93C7E5DEE0DF93CF93F0
:101A80000E94E22C0E949830DC01CB018C199D0948
:101A9000AE09BF09BF93AF939F938F9389E496E0FC
:101AA0009F938F93DF93CF930E94E22C4DB75EB745
:101AB000445F5F4F0FB6F8945EBF0FBE4DBFDF911E
:101AC000CF911F910F91FF90EF90DF90CF90BF903B
:101AD000AF909F908F907F906F905F904F90089500
:101AE00085E796E09F938F9387E59EE09F938F9382
:101AF0000E946E2C7CCB8F929F92AF92BF92CF921E
:101B0000DF92EF920F931F931F921F921F930F93D9
:101B10004A015A01C12CD12C32E0E32E022F26E0DB
:101B200040E80E944A2A0F900F900F900F901F914B
:101B30000F91EF90DF90CF90BF90AF909F908F90DC
:101B40000895AF92BF92CF92DF92EF92FF920F93E0
:101B50001F93CF93DF9300D01F92CDB7DEB77C01E8
:101B6000690158011C821B821A8219828E010F5F43
:101B70001F4F9E012D5F3F4F0E949D11811109C093
:101B800049815A816B817C8185019601C7010E9440
:101B9000D6100F900F900F900F90DF91CF911F9163
:101BA0000F91FF90EF90DF90CF90BF90AF9008958E
:101BB0008F929F92AF92BF92CF92DF92EF920F934C
:101BC000C42ED12C1F921F921F921F92812C912CF8
:101BD000A12CB12CE12C062F21E043E2FC0162850F
:101BE000828193810E944A2A0F900F900F900F904C
:101BF0000F91EF90DF90CF90BF90AF909F908F901C
:101C000008958F929F92AF92BF92CF92DF92EF9200
:101C10000F93C62ED12C1F921F925F934F9324E0F7
:101C2000822E912C34E0A32EB12CE12C00E020E098
:101C300043EAFC016285828193810E944A2A0F90C7
:101C40000F900F900F900F91EF90DF90CF90BF907B
:101C5000AF909F908F9008958F929F92AF92BF9276
:101C6000CF92DF92EF920F93C42ED12C1F921F922E
:101C70001F921F92812C912CA12CB12CE12C062FAC
:101C800023E043E2FC016285828193810E944A2A1B
:101C90000F900F900F900F900F91EF90DF90CF90DB
:101CA000BF90AF909F908F900895E091BA0FF09100
:101CB000BB0F0190F081E02D682F8AEB9FE0199413
:101CC0008F929F92AF92BF920F931F93CF93DF9308
:101CD000CDB7DEB7A1970FB6F894DEBF0FBECDBF6C
:101CE00019A2423008F44AE08E010F5D1F4F842E86
:101CF000912CA12CB12CA50194010E94A887E62F5C
:101D0000B901CA0101501109EA3014F4E05D01C0C3
:101D1000E95CD801EC93232B242B252B61F7B80128
:101D20008AEB9FE00E949428A1960FB6F894DEBF3C
:101D30000FBECDBFDF91CF911F910F91BF90AF909C
:101D40009F908F900895BC018AEB9FE00C9494289B
:101D5000AF92BF92CF92DF92EF92FF920F931F93B9
:101D6000CF93DF938C01EB01F8018081882309F484
:101D70009EC0853209F092C058018FEFA81AB80AA8
:101D8000F8018181882309F492C0853219F40E94F8
:101D9000550E89C0833731F48E010E5F1F4F888145
:101DA000998178C0843611F0893651F48E010E5F26
:101DB0001F4FC880D9800D2C000CEE08FF0832C0E0
:101DC000883731F0883591F48CE996E00E94A30EB3
:101DD0008E010E5F1F4F68817981072E000C880BE2
:101DE000990B40E10E94600EE8015DC0823631F03F
:101DF000823479F48FE996E00E94A30E8E010E5F83
:101E00001F4F68817981072E000C880B990B42E0E7
:101E1000E9CF8C36C9F48E010C5F1F4FC880D98082
:101E2000EA80FB80F7FC04C04AE0C701B601DACFC4
:101E30008DE20E94550E66277727CB016C197D092C
:101E40008E099F094AE0CECF833639F48E010E5FAA
:101E50001F4F88810E94550EC7CF843769F48E01C9
:101E60000E5F1F4F88819981019719F48AE098E0ED
:101E700011C082EA96E00EC0843579F48E010E5FBF
:101E80001F4F88819981019719F484EA96E002C076
:101E900089EA96E00E94A30EA7CF8501F801808110
:101EA0000E94550E580185010F5F1F4F5DCFDF91D6
:101EB000CF911F910F91FF90EF90DF90CF90BF9047
:101EC000AF9008954AE00C94600ECF93DF93CDB7A6
:101ED000DEB78091570E9091580E0597ECF060E0B8
:101EE00070E08FEA96E00E94A80E0E9439300E94AE
:101EF000620F85EB96E00E94A30E0E9498300E942C
:101F0000620F87EB96E00E94A30EBE01665F7F4FD3
:101F1000888599850E94A80EDF91CF910895CF936F
:101F2000DF93CDB7DEB78091570E9091580E04978E
:101F3000ECF060E070E08BEB96E00E94A80E0E944F
:101F400039300E94620F85EB96E00E94A30E0E943A
:101F500098300E94620F87EB96E00E94A30EBE01AC
:101F6000665F7F4F888599850E94A80EDF91CF918B
:101F70000895CF92DF92EF92FF920F931F93CF932A
:101F8000DF93EB012FEF3FEF30930102209300022C
:101F9000181619060CF098C08A30910599F08D300A
:101FA000910509F07BC081EC96E09F938F9387E5C4
:101FB0009EE09F938F930E94650F0F900F900F905C
:101FC0000F9082C08091B3129091B412888399834C
:101FD00021E030E030930102209300021092B4120D
:101FE0001092B31227E33EE03F932F939F938F937A
:101FF0001F9281E08F9387EE96E09F938F9387E502
:102000009EE09F938F930E948F0F8DB79EB70A9685
:102010000FB6F8949EBF0FBE8DBF07E31EE088E1A8
:10202000E82E87E0F82E97E5C92E9EE0D92EC8014C
:1020300087539E402881398182179307E4F4F80181
:1020400021918F01422F022E000C550B5F932F938D
:102050005F932F939F938F93FF92EF92DF92CF9294
:102060000E94650F8DB79EB70A960FB6F8949EBF73
:102070000FBE8DBFDCCF85E197E09F938F9387E5FF
:102080009EE09F938F930E94650F80910002909134
:1020900001020F900F900F900F9018C02091B31273
:1020A0003091B4122F3131057CF4A9014F5F5F4F9D
:1020B0005093B4124093B312F901E95CF14F80835D
:1020C000FA01E95CF14F10828FEF9FEFDF91CF9122
:1020D0001F910F91FF90EF90DF90CF900895CF92D6
:1020E000DF92EF92FF920F931F93CF93DF93EC0158
:1020F0006A017B01E889F98982E080834115514EAC
:1021000061057105B1F060E079E08DE390E0A70131
:1021100096010E94A88789019A010150110921099D
:1021200031093695279517950795980101151041A6
:10213000A8F0E889F989108260E874E88EE190E0FF
:10214000A70196010E94A887DA01C9010197A10998
:10215000B109B695A795979587959C01EC85FD8566
:102160003083EE85FF852083188EEC89FD8986E01B
:102170008083EA89FB89808180618083EA89FB8989
:10218000808188608083EA89FB8980818068808380
:10219000EA89FB8980818F7D8083DF91CF911F91B8
:1021A0000F91FF90EF90DF90CF9008952F923F9284
:1021B0004F925F926F927F928F929F92AF92BF9257
:1021C000CF92DF92EF92FF920F931F93CF93DF9303
:1021D00000D01F92CDB7DEB73C017C836B832A0110
:1021E0007901F901A080B180FB01F181F983F90146
:1021F00011821082FB01828181FD02C060E101C079
:1022000060E288EE0E94A115AA829201EB81FC8116
:10221000408160E0C3010E94E818382EF6E08F1379
:1022200016C088EF0E9460168295817091E0892720
:10223000EB81FC81928180FB91F9928391FD02C038
:1022400060E101C060E288EE0E94A115DECF81113D
:102250005CC088EC0E94601682FF55C080E30E943B
:102260006016282E90E0A816B90608F42A80F70117
:1022700080819181822C912C9501281B390BC901F9
:1022800037FF02C080E090E06401881599050CF4E6
:102290006C0180E591E00E94F6300E94852988E07B
:1022A0000E94EF30A60160E070E0C8010E946384E4
:1022B000C114D10421F0B601C8010E9467290C0D98
:1022C0001D1D0E9487290E94EE3064E088EC0E9468
:1022D000A115F70180819181880E991E91828082DB
:1022E000F9812F1620F08A149B0408F48ECF88EF12
:1022F0000E94601682958170EB81FC81928180FB47
:1023000091F9928302C080EF382E832D0F900F90A9
:102310000F900F90DF91CF911F910F91FF90EF9051
:10232000DF90CF90BF90AF909F908F907F906F90F5
:102330005F904F903F902F9008958F929F92BF9201
:10234000CF92DF92EF92FF920F931F93CF93DF9381
:102350001F92CDB7DEB74C01B62E690149830E94AA
:1023600048137C014981009709F44BC0DC01ED91D1
:10237000FC911197309709F446C013969C9180E028
:10238000891731F02081241729F033968F5FF8CF19
:10239000E0E0F0E0D601ED93FC933097B1F12281BB
:1023A0002695269530E02031310514F02FE030E0FD
:1023B00081E090E0A0E0B0E004C0880F991FAA1F60
:1023C000BB1F2A95D2F70197F801918380836B2D6B
:1023D00080EE0E94A11588ED0E946016682FD7013B
:1023E00014968C91882339F0F401EA58FF4F8081CC
:1023F0008260682B01C0697F88ED0E94A11580E092
:1024000005C086ED03C087ED01C08BED0F90DF9115
:10241000CF911F910F91FF90EF90DF90CF90BF90E1
:102420009F908F900895DC01FC01ED57FF4F808154
:102430008823D1F017968C911797861741F01A963A
:102440008C911A97861315C021E030E002C020E07D
:1024500030E0F901EE0FFF1F2E0F3F1FFD01E20FCD
:10246000F31F80859185089518968D919C911997F9
:10247000089580E090E00895DC0117968C911797FD
:10248000811106C018968D919C911997892B71F036
:102490001A968C911A97811118C01B968D919C9158
:1024A0001C97892B91F421E030E002C020E030E05D
:1024B000F901EE0FFF1F2E0F3F1FFD01E20FF31F6B
:1024C00067835187408781E0089580E00895FC018B
:1024D00084A10895FC0186810895089580E00895FF
:1024E00080E0089580E090E008950895DF92EF92F3
:1024F000FF920F931F93CF93DF93EC01E62EF12C05
:1025000085E0689FB0011124FE01E60FF71F80856A
:10251000182F177086FF21C001E085E0D82E8FEFBD
:10252000800F8F3008F001E0FE01D09EE00DF11D1C
:10253000112480858695869586958770811305C0C0
:10254000602FCE010E947612EACF0F5F003161F753
:102550008D81811302C011501D8385E08E9DF00195
:102560008F9DF00D1124EC0FFD1F108681E08187F7
:1025700012862296D783C683DF91CF911F910F9148
:10258000FF90EF90DF900895FC016134C1F43F9615
:102590009C01265A3F4F61E0AC014E5F5F4FDF0167
:1025A00012971C9211966C93108213974D935C9323
:1025B0003596E217F30799F7FC01158208953D96C9
:1025C00021E03081361303C0622F0C9476122F5F06
:1025D00035962031B1F70895CF93DF93FC01862F14
:1025E000807809F051C0283008F04FC0442321F012
:1025F0009581973009F449C0EF012D96A0E0B0E035
:1026000011969881911103C0662331F021C025965F
:10261000AF30B105A9F739C085E08A9FE0018B9FF3
:10262000D00D1124CE0FDF1F442331F081E48887C1
:1026300085818F5F858302C081E0888725E02A9F9E
:10264000C0012B9F900D1124E80FF91F80851DC03C
:102650006770660F660F660F442341F060648581E2
:102660008F5F85838770687F682B03C02770687BC6
:10267000622B25E02A9FC0012B9F900D1124E80FAB
:10268000F91F6087862F01C080E0DF91CF91089508
:10269000611102C006960895FC013D9621E030814B
:1026A000361307C035E0239F800D911D1124069637
:1026B00008952F5F3596203191F780E090E00895DE
:1026C0002F923F924F925F926F927F928F929F9242
:1026D000AF92BF92CF92DF92EF92FF920F931F9330
:1026E000CF93DF93CDB7DEB7C458D1090FB6F894B6
:1026F000DEBF0FBECDBFDC0114960D911C91159766
:102700001696FC90F110D2C1B22E942EA62E3C014A
:10271000D801ED91FC910190F081E02D60E0C801BD
:1027200019952C01009719F476EDF72ECAC1FC011A
:10273000C080D180C114D10409F4BBC11301F5E6F6
:102740002F0E311CDC0111963C922E921496BC92F5
:102750009E0126593F4F48E050E060E0F30184813C
:1027600095810E941A2CE82E811193C1AB96EFAC93
:10277000AB97D201CD92DC92D801ED91FC91028011
:10278000F381E02D292D40E06A2DC8011995F30150
:102790008683882309F490C1E2969FADE297EA59B7
:1027A000FF4F9083682FD30114968D919C911597BC
:1027B0000E94EA2BD82ED801ED91FC91D2011496FB
:1027C0001C92882361F00480F581E02DD3011696D8
:1027D0006C91C8011995F3011682FD2C72C101900C
:1027E000F081E02DD30116966C91C80119950097E0
:1027F00009F49ACF4E2D433108F042E1FC01B48236
:1028000041113BC0E4968EAD9FADE497F301EA57CA
:10281000FF4F91838083E6968EAD9FADE69732970A
:1028200091838083EC96FFADEC97C058DF4FF8831F
:10283000C058D040910141E0D30116966C91169793
:1028400014968D919C9115970E943580E82E8111E8
:1028500023C170E02E01B1E44B0E511CF3013296FE
:10286000CF57DF4FF983E883C158D040C20140966B
:10287000EE969FAF8EAFEE978EC050E09E01265928
:102880003F4FD30116966C91169714968D919C919B
:1028900015970E941A2CE82E8111FEC0B3CF86E84E
:1028A00092E0F20191838083CF57DF4FA881B981F5
:1028B000C158D040B383A28315861786168610A20E
:1028C00011A212A210A6EE968EAD9FADEE97968342
:1028D000858390878783848182878187EE96AEADDA
:1028E000BFADEE97B487A387F301368184819581CC
:1028F000C258DF4F99838883CE57D0408E010F5F37
:102900001F4F272F49E050E0632FCD57DF4F38830B
:10291000C358D040CC57DF4F7883C458D0400E9472
:102920007B0DCD57DF4F3881C358D040CC57DF4F98
:102930007881C458D040811127C0AB80BC805F92A1
:102940004F921F930F9350E4852E912CC12CD12CC4
:1029500062E0E62E072F26E040E8632FC258DF4FE3
:1029600088819981CE57D040CC57DF4F7883C458A7
:10297000D0400E944A2A0F900F900F900F90CC5792
:10298000DF4F7881C458D04081110DC0F301868D8E
:10299000823058F47F5FC058DF4FF881C058D04074
:1029A0007F137DCF02C0E82E77C0D3015E964C9195
:1029B0005E97423008F483C0910116966C91169789
:1029C00014968D919C9115970E9435801F921F92AD
:1029D0001F921F92812C912CA12CB12CC12CD12C97
:1029E000E12CF301048D29E040E06681848195812A
:1029F0000E944A2AE82E0F900F900F900F9081119D
:102A00004BC010E0F301858D1817B0F5812F90E0D1
:102A10009C01220F331F820F931F860D971DFC010F
:102A2000E458FF4F2081222329F13297808187705B
:102A3000C82ED12C1F921F921F921F92812C912C75
:102A4000A12CB12CE12C00E02AE041E2D301169642
:102A50006C91169714968D919C9115970E944A2A15
:102A6000E82E0F900F900F900F90882319F0B5E08B
:102A70008B1312C01F5FC6CF0190F081E02D068836
:102A8000F789E02DC301199581E0D30194968C93C9
:102A900018C0F201D182C082D301ED91FC91048073
:102AA000F581E02DC3011995FE2C0BC039EDF32EF5
:102AB00008C027EDF22E05C094EDF92E02C081ED7D
:102AC000F82E8F2DCC57DF4F0FB6F894DEBF0FBE18
:102AD000CDBFDF91CF911F910F91FF90EF90DF90CD
:102AE000CF90BF90AF909F908F907F906F905F90AE
:102AF0004F903F902F9008950F931F93CF93DF93A4
:102B0000C82FD62F8A0180E591E00E94F6300E94FE
:102B100085298C2F82600E94EF30CD2FD0E0209746
:102B200021F0BE01C8010E946729C00FD11F0E9479
:102B300087290E94EE30CE01DF91CF911F910F9136
:102B400008951F93CF93DF9300D0CDB7DEB7182F32
:102B500080E591E06B830E94F6300E948529126027
:102B600019836B816A8362E070E0CE0101960E9456
:102B700067290E9487290E94EE300F900F900F90D6
:102B8000DF91CF911F9108959F92AF92BF92CF9204
:102B9000DF92EF92FF920F931F93CF93DF937C010D
:102BA000C42F122F992493946C01C60ED11CC60E0B
:102BB000D11C86E5C80ED11CA42EB12CABE2AA0E06
:102BC000B11CAA0CBB1CAE0CBF1CF601808191810C
:102BD000DC01ED91FC910280F381E02D202F412F4B
:102BE0006C2F1995803EC9F4C1110BC061E088EECD
:102BF0000E94A11566E670E080E090E00E945E30E1
:102C000016C0F50180819181DC01ED91FC91028477
:102C1000F385E02D612F19950AC08D3031F49FEFB7
:102C2000990D933008F040C016C081113DC0F601E7
:102C300080819181DC01ED91FC910190F081E02D8A
:102C4000202F412F6C2F1995D82F8D3061F48FEFE5
:102C5000890D833050F464E670E080E090E00E94DB
:102C60005E309394B2CF8823F1F0C1110BC061E0C4
:102C700088EE0E94A11566E670E080E090E00E9478
:102C80005E3011C0EC2FF0E0BB96EE0FFF1FEE0D93
:102C9000FF1D80819181DC01ED91FC910284F3851F
:102CA000E02D612F19958D2FDF91CF911F910F91FD
:102CB000FF90EF90DF90CF90BF90AF909F900895DE
:102CC0001F93CF93DF931F92CDB7DEB7182F80E508
:102CD00091E00E94F6300E948529812F0E94EF30FA
:102CE00080E00E94EF3089830E9487290E94EE30A5
:102CF00089810F90DF91CF911F9108952F923F927C
:102D00004F925F926F927F928F929F92AF92BF92FB
:102D1000CF92DF92EF92FF920F931F93CF93DF93A7
:102D2000CDB7DEB766970FB6F894DEBF0FBECDBF46
:102D30001B8A38E03C8B3CE33D8B8A3F3FEF930797
:102D400011F486EDEEC0122F442E562E7C01DC01CC
:102D50001696CD90DC901797CE01439617969C93CC
:102D60008E9316971A962C939E012F5F3F4F42E148
:102D700050E060E0C7010E941A2CF701D782C6829A
:102D80008111CFC089849A846B847C843D813E8B81
:102D90002E80670186E5C80ED11C5601312CD50165
:102DA0008D919C91009789F1DC01ED91FC9100845B
:102DB000F185E02D1995811128C0F501808191815F
:102DC000DC01ED91FC910088F189E02D622D1995CF
:102DD0008823D9F0F50180819181DC01ED91FC918E
:102DE0000484F585E02DA301B4011995811182C0F9
:102DF000F50180819181DC01ED91FC910684F785DC
:102E0000E02D6E891995811175C03394B2E0AB0E37
:102E1000B11CE0E13E12C3CFB12CD6018D919C9143
:102E2000009799F1DC01ED91FC910084F185E02D92
:102E3000199581112AC0F60180819181DC01ED9103
:102E4000FC910088F189E02D622D1995882309F401
:102E50005CC0F60180819181DC01ED91FC910484DC
:102E6000F585E02DA301B401199581110EC0F6017D
:102E700080819181DC01ED91FC910684F785E02D44
:102E80006E891995882309F440C0B394B2E0CB0E43
:102E9000D11CE0E1BE12C1CFD70116968D919C9155
:102EA0001797892B09F11A961C93242D40E0652D64
:102EB000C7010E94EC12D82E8823C1F0682FC701E9
:102EC0000E944813009709F43CCFFC0114836D2D38
:102ED000C7010E94EA2B182F882351F06D2DC701DE
:102EE0000E94C412812F1DC087ED1BC084ED19C044
:102EF00080E017C0012F242D452D632DC7010E94AE
:102F0000C415813D09F481CF0CC0012F242D452D1E
:102F10006B2DC7010E94C415982F977F913D09F42E
:102F2000B4CF66960FB6F894DEBF0FBECDBFDF916B
:102F3000CF911F910F91FF90EF90DF90CF90BF90B6
:102F4000AF909F908F907F906F905F904F903F9049
:102F50002F90089581E0089580E0089580E008951D
:102F6000089580E0089580E0089580E0089580E06D
:102F7000089580E0089585ED8093BC008091BC00A9
:102F800084FDFCCF10922A13089540910413262F3C
:102F900030E0240F311D21323105DCF420912A1359
:102FA0002430C9F4FC0180E090E0861758F4309199
:102FB00004132191DC01AE51BD4EA30FB11D2C9322
:102FC0000196F3CF80910413680F6093041380E09F
:102FD000089581E0089582E0089508958FEF9FEFAE
:102FE00008958FEF9FEF08958091E11290E0919501
:102FF000819591090895CF93DF931F921F92CDB7CA
:10300000DEB7CB01642F49835A830E94C5174981DB
:10301000842F5A81952F0F900F90DF91CF910895B3
:10302000CF93DF931F92CDB7DEB7698361E0CE0106
:1030300001960E94C51781E090E00F90DF91CF913B
:103040000895CF92DF92EF92FF920F931F93CF9349
:10305000DF936C018B017A01EC01C05BDC4E88814F
:1030600087FF04C0FB011182108224C08CE08C9D7C
:1030700090018D9D300D11248881A901480F511DAB
:1030800087FD5A958091A71190E04817590794F44D
:103090008881A901480F511D87FD5A95CA01FA017F
:1030A000EE0FFF1F8E0F9F1FFC01E95EFE4E808119
:1030B00086FD19C088818F5F88838CE08C9D90018C
:1030C0008D9D300D11248881A901480F511D87FD68
:1030D0005A958091A71190E048175907BCF4888150
:1030E0008C3044F113C08881280F311D87FD3A953B
:1030F000F901EE0FFF1F2E0F3F1FF901E95EFE4E93
:10310000808160E08F730E94BC2FD4CFF801808152
:103110009181049680349C4918F480E49CE904C0B1
:10312000F801808191810496F701918380838FEF6C
:10313000888345C0F801408151818881B901680FB9
:10314000711D87FD7A95CB01FB01EE0FFF1F8E0FDE
:103150009F1FFC01E95EFE4E81819281840F951FC5
:10316000F701918380838881A901480F511D87FD54
:103170005A95CA01FA01EE0FFF1F8E0F9F1FFC0127
:10318000E95EFE4E808186FF1AC08881280F311DBE
:1031900087FD3A95F901EE0FFF1F2E0F3F1FF90132
:1031A000E95EFE4E808161E08F73DF91CF911F91C8
:1031B0000F91FF90EF90DF90CF900C94BC2FDF9198
:1031C000CF911F910F91FF90EF90DF90CF900895D6
:1031D0008F929F92AF92BF92CF92DF92EF92FF9227
:1031E0000F931F93CF93DF93862E942E59010E9445
:1031F00098306B017C0128E8C20E23E1D21EE11C4D
:10320000F11C00E010E0D0E0C0E098280E94983067
:10321000DC01CB018C199D09AE09BF09B7FF2DC098
:10322000692D80EF0E94A1150E949830DC01CB012E
:103230008C199D09AE09BF09B7FF09C088EC0E942F
:10324000601687FFF1CF60E888EC0E94A11588EF37
:103250000E946016C82FCF70C43019F0CE3051F0E4
:103260000CC00F5F1F4FA114B10481F20A151B059A
:1032700069F603C0DF5FD33049F68C2FDF91CF9121
:103280001F910F91FF90EF90DF90CF90BF90AF9084
:103290009F908F9008951F920F920FB60F92112456
:1032A0000BB60F922F933F934F935F936F937F9340
:1032B0008F939F93AF93BF93EF93FF9348E251E0B7
:1032C00064E271E080E090E00E942118FF91EF91AC
:1032D000BF91AF919F918F917F916F915F914F912E
:1032E0003F912F910F900BBE0F900FBE0F901F902C
:1032F00018951F920F920FB60F9211240BB60F92D2
:103300002F933F934F935F936F937F938F939F93ED
:10331000AF93BF93EF93FF9348EA50E064EA70E005
:1033200083E090E00E942118FF91EF91BF91AF914F
:103330009F918F917F916F915F914F913F912F91CD
:103340000F900BBE0F900FBE0F901F9018951F92FD
:103350000F920FB60F9211240BB60F922F933F933B
:103360004F935F936F937F938F939F93AF93BF938D
:10337000EF93FF9348E950E064E970E082E090E069
:103380000E942118FF91EF91BF91AF919F918F9172
:103390007F916F915F914F913F912F910F900BBE55
:1033A0000F900FBE0F901F9018951F920F920FB69F
:1033B0000F9211240BB60F922F933F934F935F936D
:1033C0006F937F938F939F93AF93BF93EF93FF93ED
:1033D00048E850E064E870E081E090E00E94211845
:1033E000FF91EF91BF91AF919F918F917F916F91DD
:1033F0005F914F913F912F910F900BBE0F900FBE99
:103400000F901F9018951F920F920FB60F921124D4
:103410000BB60F922F933F934F935F936F937F93CE
:103420008F939F93AF93BF93EF93FF938091B900D6
:10343000887F803609F49CC068F5883209F45BC047
:1034400090F4803109F454C038F4882309F4F6C0AC
:10345000883009F44DC0F6C0883109F44CC0803280
:1034600009F45DC0EFC0803409F468C048F48033CB
:1034700009F455C0883309F0E5C080932913D8C0FA
:10348000803509F44FC0883509F45DC0883409F0EF
:10349000D9C0D6C0883909F4C7C0A8F4883709F460
:1034A00067C038F4883609F463C0803709F460C017
:1034B000C9C0883809F4B8C0803909F45FC08038C1
:1034C00009F0C0C05BC0803B09F486C038F4803A84
:1034D00009F466C0883A09F47FC0B4C0803C09F49E
:1034E000A7C0883C09F4A4C0883B09F48AC0AAC0DC
:1034F00080914F1310C090914E1380914D139817E7
:1035000070F5E0914E1381E08E0F80934E13F0E042
:10351000E35DFC4E80818093BB0085EC86C0809388
:1035200029138EC0E0914E1381E08E0F80934E13CD
:103530008091BB00F0E0E35DFC4E808390914E13E0
:1035400080914D136EC0E0914E1381E08E0F8093F9
:103550004E138091BB00F0E0E35DFC4E80838091D0
:103560002C1381116DC081E080932B1384EA61C01C
:1035700083E080932A1310922813CFCF80912813D1
:10358000803208F051C0E091281381E08E0F8093C3
:1035900028138091BB00F0E0E85FFC4E8083BDCF34
:1035A00085EC8093BC0010922A13809128138032FE
:1035B00030F4E0912813F0E0E85FFC4E1082609157
:1035C000281370E0E0910613F091071388E093E16F
:1035D00019951092281336C084E080932A13109214
:1035E000051310920413E0910213F091031319953F
:1035F00080910413811105C081E08093041310921F
:10360000E212E091051381E08E0F80930513F0E044
:10361000EE51FD4E80818093BB0090910513809107
:103620000413981708F479CF85E88093BC000AC08A
:1036300085EC8093BC0010922A1304C010922913C9
:103640000E94BB17FF91EF91BF91AF919F918F9116
:103650007F916F915F914F913F912F910F900BBE92
:103660000F900FBE0F901F901895CF93DF93CDB79B
:10367000DEB7A9970FB6F894DEBF0FBECDBF45E009
:1036800050E060E070E080915813909159130E94CF
:103690009055813009F0C5C388E297E09F938F93DE
:1036A00087E59EE09F938F930E94E22C8AE20E941E
:1036B000992C80E090E00E94668040E052EC61E04E
:1036C00070E08DE59EE00E946F108FEF9FEF9A8370
:1036D00089830E945C808EE497E00E9485800F9031
:1036E0000F900F900F908DE59EE00E942727049782
:1036F000D4F38DE59EE00E942727892BE9F18DE523
:103700009EE00E940627BE016F5F7F4F0E94B90FA7
:10371000019779F789819A8197FDEBCF65E577E08D
:1037200087E39EE00E946A84892B41F080E090E06C
:103730000E946680CC24C394D12C21C080E090E00C
:103740000E94668083E08F9380E28F9388E892E006
:103750009F938F9388E597E09F938F9387E59EE0F3
:103760009F938F930E946E2C0FB6F894DEBF0FBE0E
:10377000CDBF8FEF9FEF8AC0CC24CA94DC2C64E6C7
:1037800070E080E090E00E94CA290E945C8080E2A4
:10379000E7E3FEE0DF011D928A95E9F78DE59EE003
:1037A0000E9427270297D4F3E12CF12C94E9A92E4B
:1037B00097E0B92E27E5822E2EE0922E30E2732E6E
:1037C0008DE59EE00E942727892B09F451C08DE5E5
:1037D0009EE00E940627BE016F5F7F4F0E94B90FD7
:1037E000019771F709811A8117FDEACF68E877E040
:1037F00087E39EE00E946A84892B01F5BFEFEB1AF4
:10380000FB0A87E3C82E8EE0D82EDF92CF921F935B
:103810000F93FF92EF92BF92AF929F928F920E946E
:10382000650FF601272D11922A95E9F70FB6F89446
:10383000DEBF0FBECDBFC12CD12CC2CF87E39EE02F
:103840009F938F931F930F93FF92EF928CEB97E0D0
:103850009F938F9387E59EE09F938F930E94650FC0
:103860000FB6F894DEBF0FBECDBFCC24C394D12CCD
:1038700080E090E00E94668081E090E0CA94CD28CC
:1038800011F480E090E0919581959109892B09F0E0
:10389000C6C084EE97E09F938F9387E59EE09F9349
:1038A0008F930E94E22C8FEF9FEF9A83898380E2AF
:1038B000E7E3FEE0DF011D928A95E9F70E945C8054
:1038C00089E098E00E9485800F900F900F900F90F4
:1038D0008DE59EE00E9427270497D4F38DE59EE0B6
:1038E0000E942727892BE1F18DE59EE00E940627A3
:1038F000BE016F5F7F4F0E94B90F019779F78981F1
:103900009A8197FDEBCF65E577E087E39EE00E9423
:103910006A84892B39F080E090E00E94668001E0A3
:1039200010E020C080E090E00E94668084E08F93E9
:1039300082E28F9383E992E09F938F938CE098E0EB
:103940009F938F9387E59EE09F938F930E946E2CA9
:103950000FB6F894DEBF0FBECDBF0FEF1FEF0BC049
:1039600000E010E080E090E00E946680F1E00F2728
:103970001195019511090115110509F000C182E9A0
:1039800098E09F938F93E7E5CE2EEEE0DE2EDF9258
:10399000CF920E94E22C8FEF9FEF9A8389830E943F
:1039A0005C80F7E3EF2EFEE0FF2EA0E2BA2ED701F7
:1039B000EB2D1D92EA95E9F787E28F9380E18F93D3
:1039C00088EB98E09F938F9384EC98E09F938F937C
:1039D000FF92EF920E948484FF92EF9283E08F9394
:1039E00088E68F938EE992E09F938F9383ED98E022
:1039F0009F938F93DF92CF920E94650FC7010E9421
:103A00008580D7011D92BA94E9F780E090E00E948A
:103A100066800FB6F894DEBF0FBECDBF0DC08DE33C
:103A200098E09F938F9307E51EE01F930F930E94EA
:103A30006E2C80E698E0D9C18DE59EE00E94272794
:103A40000497D4F38DE59EE00E9427279F938F93E0
:103A500086E099E09F938F9387E59EE09F938F93F5
:103A60000E94650F0F900F900F900F900F900F9086
:103A7000EE24EA94FE2C8DE59EE00E942727892BF8
:103A800009F442C08DE59EE00E940627BE016F5FEB
:103A90007F4F0E94B90F6C0165E577E087E39EE0F8
:103AA0000E946A8421E0892B09F420E0E22EF12CA7
:103AB000CA94CD2801F789819A8197FDDCCF222312
:103AC00001F187E39EE09F938F9383E08F9381E8DA
:103AD0008F938EE992E09F938F9383E399E09F9376
:103AE0008F9387E59EE09F938F930E94650F80E000
:103AF00090E00E9466800FB6F894DEBF0FBECDBF87
:103B00000DC0E12CF12CB7CF01E010E0EA94EF28D2
:103B100011F400E010E0119501951109011511054E
:103B200009F016C18FEC99E09F938F9387E59EE093
:103B30009F938F930E94E22C8FEF9FEF9A8389834C
:103B400067E3E62E6EE0F62E80E2D7011D928A959D
:103B5000E9F70E945C801F9281E08F938DEF99E0DE
:103B60009F938F93FF92EF920E948484C7010E94DB
:103B700085800FB6F894DEBF0FBECDBF0DC086E6C0
:103B800099E09F938F9307E51EE01F930F930E9488
:103B90006E2C8CE899E029C18DE59EE00E942727D4
:103BA0000497D4F380E2E7E3FEE0DF011D928A95FB
:103BB000E9F78DE59EE00E942727892BD1F18DE55D
:103BC0009EE00E940627BE016F5F7F4F0E94B90FE3
:103BD000019779F789819A8197FDEBCF65E577E0C9
:103BE00087E39EE00E946A84892B29F080E090E0C0
:103BF0000E9466801EC080E090E00E94668084E0A3
:103C00008F9383E68F9386EB92E09F938F9389E067
:103C10009AE09F938F9387E59EE09F938F930E94F6
:103C20006E2C0FB6F894DEBF0FBECDBF0FEF1FEFA7
:103C30008CC080E090E00E94668080E2E7E3FEE0D6
:103C4000DF011D928A95E9F78DE59EE00E94272706
:103C5000892B31F18DE59EE00E940627BE016F5F42
:103C60007F4F0E94B90F019779F787E39EE09F93FA
:103C70008F9384E08F9382E78F9386EB92E09F93FC
:103C80008F938AE39AE09F938F9387E59EE09F93BB
:103C90008F930E94650F0FB6F894DEBF0FBECDBFA5
:103CA00080E2E7E3FEE0DF011D928A95E9F78DE50A
:103CB0009EE00E942727892B31F18DE59EE00E942E
:103CC0000627BE016F5F7F4F0E94B90F019779F7FA
:103CD00087E39EE09F938F9384E08F9383E88F9395
:103CE00086EB92E09F938F938BE79AE09F938F935D
:103CF00087E59EE09F938F930E94650F0FB6F8941F
:103D0000DEBF0FBECDBF80E2E7E3FEE0DF011D9224
:103D10008A95E9F78DE59EE00E9427278DE59EE0D4
:103D20000E940627BE016F5F7F4F0E94B90F019767
:103D300089F76CEB7AE087E39EE00E946A84892B26
:103D400049F380E090E00E946680012B71F041C051
:103D500082EC9AE09F938F9307E51EE01F930F93E9
:103D60000E946E2C8CEE9AE040C08FE29BE09F9305
:103D70008F9307E51EE01F930F930E94E22C85E6C8
:103D80009BE09F938F931F930F930E94E22C83E0FD
:103D900090E09093580E8093570E1F928F9385E872
:103DA0009BE09F938F931F930F930E94E22C80912F
:103DB0005813909159130FB6F894DEBF0FBECDBFC4
:103DC000009779F140E050E060E070E00E94F56318
:103DD00028C08BE99BE09F938F9307E51EE01F931C
:103DE0000F930E946E2C8BEB9BE09F938F931F93FE
:103DF0000F930E94E22C0FB6F894DEBF0FBECDBF2A
:103E000086E29CE09F938F9387E59EE09F938F933C
:103E10000E946E2C0F900F900F900F900E94F1292E
:103E2000FDCFE0915613F0915713309709F47CC001
:103E30008091E80D9091E90DE817F90709F474C035
:103E40000FB6F8940F9282859385855D9D4009F0A9
:103E500069C084899589BDE08A3E9B0709F462C0E8
:103E6000892B09F05FC09F012E5F3F4F84819581B0
:103E700046815781DC0115965C934E931497A68179
:103E8000B78113969C938E9312978091D60D909143
:103E9000D70D8217930721F4B093D70DA093D60DB9
:103EA000138612868091D50D81508093D50DA689F9
:103EB0008091180E8A1710F4A093180E89E0A89F1D
:103EC000D0011124BD016C50724FDB0111968D9110
:103ED0009C91129795838483DC0114964D915C919B
:103EE00015975783468314964D915C911597DA0187
:103EF00013963C932E931297DC0115963C932E93C8
:103F0000149773876287DB018C918F5F8C93A091EC
:103F1000E80DB091E90D968956968C91981710F09E
:103F20000E94707F0F900FBE81E1682E552453943C
:103F300090E5492E20E9322E30EA232E4EEFC42E92
:103F40004BE0D42E57E5A52E5EE0B52E0E942A72D6
:103F50004C018091000186FD0DC088EC0E94601626
:103F600085FF04C00E943E2C60E201C060E088EC46
:103F70000E94A11580916913813041F058F0823080
:103F800089F0833049F5772473940DC0B3E1B09381
:103F9000A81122C08091A811807F8031E9F0609241
:103FA000A8111AC0712C8091A811807F8031A9F4CA
:103FB0000E949830DC01CB0188539F4FAF4FBF4F19
:103FC00080935B1390935C13A0935D13B0935E1387
:103FD00080E28093A81101C0712C02E912E17801FE
:103FE000F701819191917F01009739F0DC01ED910A
:103FF000FC910680F781E02D1995B2EBEB16B2E14A
:10400000FB0671F78091A811803409F445C050F483
:10401000803229F18033C1F1813109F08CC01092D6
:10402000B2120AC0813509F45FC0803809F471C04A
:10403000803509F080C040C0F801819191918F01D5
:10404000009739F0DC01ED91FC910480F581E02DC1
:104050001995B2E1023B1B0779F782E11AC00E9471
:10406000983000915B1310915C1320915D13309197
:104070005E13DC01CB01801B910BA20BB30BB7FDD0
:104080005AC080E38093A81161E088EE0E94A115D8
:1040900080E48093A8114FC088EE0E94601680FDD6
:1040A0004AC088ED0E946016682F686088ED0E9403
:1040B000A1154092A8113FC088EC0E94601686FFAF
:1040C0003AC081E58093A8110E949830DC01CB01B1
:1040D0004496A11DB11D80935B1390935C13A09334
:1040E0005D13B0935E1327C00E94983000915B135C
:1040F00010915C1320915D1330915E13DC01CB01B4
:10410000801B910BA20BB30BB7FD15C080E8809309
:10411000A811272D40E060E08CE392E10E947E161A
:10412000882339F0823D39F080935A132092A811E8
:1041300002C03092A81189E0E0E6F3E1DE015F966B
:1041400001900D928A95E1F789E0FE017F96DE01EC
:10415000559601900D928A95E1F75B8A89E08A8BEA
:10416000E0915413F0915513309709F445C00FB600
:10417000F8940F92938D828D0F900FBE981331C0DB
:104180004AE050E0BE016F5F7F4F809154139091E1
:1041900055130E94905545E050E060E070E080913A
:1041A0005813909159130E949055813071F41F92C9
:1041B0001F92DF92CF92BF92AF920E94B82C0F90C5
:1041C0000F900F900F900F900F9080915813909137
:1041D0005913009731F040E050E060E070E00E9439
:1041E000F5634AE050E0BE01605F7F4F8091541359
:1041F000909155130E94F56399A688A666E070E039
:10420000CE0188960E943472A1CECF93DF93EC0149
:104210008A819B81DC01ED91FC910480F581E02D88
:104220006A8519958A85813439F4EA81FB81EA58D7
:10423000FF4F8081846080831A861B861C861D86C2
:104240001E861F86188A80E0DF91CF91089581E055
:10425000693009F080E00895FC0182850895CF93CC
:10426000DF93FC01EA0180819181892B19F580E0BF
:1042700027C028813981232BD1F3DB012D913C917B
:10428000D9019C91A381B0E0A81BB10920813181A3
:10429000A20FB31F9C938281815082838881998170
:1042A000019799838883DB018D919C9111970196E9
:1042B0008D939C9382818111DCCF8381828381E005
:1042C000DF91CF9108953F924F925F926F927F92CC
:1042D0008F929F92AF92BF92CF92DF92EF92FF9216
:1042E0000F931F93CF93DF9300D01F92CDB7DEB70C
:1042F0006C017C836B835A8349834C0180E1880E77
:10430000911C5601A7E0AA0EB11C11E084E0482ED2
:104310003601B2E16B0E711C93E0392E22E0522E71
:104320008B819C81892B09F4F8C0F60190A1923011
:1043300059F128F4992341F0913071F0F1CF933085
:1043400039F19430C1F1ECCF548285819681908708
:1043500087835286518610A3AE014D5F5F4FBE0129
:104360006F5F7F4FC5010E942F21882309F4D5C0BC
:10437000D6011596ED91FC911697808191968C93BC
:104380009197818192968C93F6017682658230A214
:10439000D60192968C919297843011F493961C9248
:1043A000F60181A18250848325813681308727835D
:1043B0008287818740A2D60192968C918430B1F099
:1043C000853009F440C0823009F068C0AE014D5F0D
:1043D0005F4FBE016F5F7F4FC5010E942F21882371
:1043E00009F49BC0F601858984A38FC0AE014D5F9F
:1043F0005F4FBE016F5F7F4FC5010E942F21882351
:1044000009F48BC0D60155968C915597833009F0ED
:104410007CC098968C919897811177C093961C9345
:10442000939752968C91529796968C939697539613
:104430008C91539797968C93979757968C91579703
:1044400095968C9362C0AE014D5F5F4FBE016F5F6A
:104450007F4FC5010E942F21882309F45EC0F60119
:1044600083A1882309F451C082819381009709F4C4
:104470004CC0DC01ED91FC910190F081E02D7401C4
:10448000D60195960C91959797962C91979796961D
:104490004C91969794966C91199537C0F60181A12D
:1044A0009585992319F0913031F02AC090E0029758
:1044B0009787868715872B813C8189819A81782F00
:1044C000692FD6011E964D915C911F97411551059C
:1044D00039F49A8389833C832B831D961C9210C0E8
:1044E00001962115310541F041505109F6015787D8
:1044F000468721503109E3CF79836A831C821B826E
:10450000F60186859785892B41F4D60116969C92F3
:104510008E92159790961C9203CF0F900F900F904C
:104520000F90DF91CF911F910F91FF90EF90DF904F
:10453000CF90BF90AF909F908F907F906F905F9043
:104540004F903F900895CF93DF93EC018C819D8134
:10455000DC01ED91FC910480F581E02D6E811995CF
:1045600081E08E8F1E821F8E18A219A21AA21CA291
:1045700080E0DF91CF910895CF92DF92EF92FF928A
:104580000F931F93CF938C01C62F7A01FA0180817C
:104590009181A281B3818130F3E09F07F1E0AF0701
:1045A000B105E1F060F48115E1E09E07AE07B105C9
:1045B00069F181309140A140B10581F08FC0833015
:1045C00021E0920720E1A207B10509F468C0833019
:1045D0009340A041B10509F462C080C080915F138F
:1045E00081117CC04C2F61E1C8010E94D80D4C2F75
:1045F00060E1C8010E94D80D4C2F64E0C8010E9400
:104600002C0E81E080935F1381EB69C0462F61E13E
:10461000C8010E94D80D4C2F60E1C8010E94D80D3E
:1046200010925F13D8011A968C911A978770C770F1
:10463000880F880F880FC82B1296ED90FC90139767
:10464000CC2309F44BC06701B6E5CB0ED11C00E0CA
:1046500010E0F601819191916F010097D1F0DC019A
:10466000ED91FC910084F185E02D19958C1311C01A
:10467000055D1F4F000F111FF701E00FF11F808133
:104680009181DC01ED91FC910480F581E02D19957B
:1046900025C00F5F1F4F00311105D9F61FC04C2FE9
:1046A00064E1C8010E94D80D4C2F60E1C8010E944E
:1046B000D80D64E170E080E090E00E945E30F80187
:1046C0006285D70111962C912695217067704C2F29
:1046D000828193810E947E1610925F1380E0CF91B9
:1046E0001F910F91FF90EF90DF90CF900895CF92A0
:1046F000DF92FF920F931F93CF93DF9300D01F920F
:10470000CDB7DEB78C01F62E19821A821B821C826D
:10471000462F61E10E94D80D4F2D60E1C8010E9433
:10472000D80D4F2D64E0C8010E942C0E83E0C82EE6
:10473000D12CAE014F5F5F4F6F2DC8010E94010E5B
:104740008823E1F04F2D64E1C8010E94D80D4F2D60
:1047500060E1C8010E94D80D64E170E080E090E063
:104760000E945E300F900F900F900F90DF91CF91CD
:104770001F910F91FF90DF90CF90089589819A81CA
:10478000AB81BC819D7F83309140A041B105D1F2C6
:1047900064E670E080E090E00E945E3081E0C81A3C
:1047A000D10839F6CFCFDF92EF92FF920F931F938C
:1047B000CF93DF93CDB7DEB72E970FB6F894DEBF59
:1047C0000FBECDBFFC012089211102C010E07FC0C7
:1047D0007C010E949830F701048515852685378570
:1047E000DC01CB01801B910BA20BB30BB7FDEECF0D
:1047F00081E090E09E878D878E010F5F1F4F9E01A5
:10480000235F3F4F41E06285828193810E94A10D29
:1048100081114FC001E082E0D82E89818D21C1F045
:1048200019861A861B861C86AE01475F5F4F602F74
:10483000C7010E94010E81110BC0AE01475F5F4F9F
:10484000602FC7010E94BC22813B89F1811131C0D8
:10485000DD0C0F5F083009F701E0F7018385801751
:1048600030F119861A861B861C86AE01475F5F4FA2
:10487000602FC7010E94010E811117C089859A859A
:10488000877091708130914081F48B859C85816027
:104890009C878B87AE01475F5F4F602FC7010E94E7
:1048A000BC22813B21F0811104C00F5FD6CF10E004
:1048B00001C0182F0E949830DC01CB018C599F4F0A
:1048C000AF4FBF4FF70184879587A687B787812FA2
:1048D0002E960FB6F894DEBF0FBECDBFDF91CF91FD
:1048E0001F910F91FF90EF90DF9008952F923F92CC
:1048F0004F925F926F927F928F929F92AF92BF92F0
:10490000CF92DF92EF92FF920F931F93CF93DF939B
:10491000CDB7DEB7C454D1090FB6F894DEBF0FBED1
:10492000CDBFDC019496BC912496BFAF2497BB23E6
:1049300009F4D2C07C010E949830F701878C90A0C6
:10494000A1A0B2A0DC01CB0188199909AA09BB0971
:10495000B7FDC2C00E949830D70193962C91DC011C
:10496000CB01820F911DA11DB11DF701878F90A36F
:10497000A1A3B2A3312CCE0101966C01282E90E4A4
:104980009C0D25969FAF259740E4442E512C37016E
:10499000A5E26A0E711C5701B3E8AB0EB11CF7011A
:1049A000858D381608F098C0832D90E0FC01EE0F3D
:1049B000FF1F8E0F9F1F8E0D9F1DFC01E458FF4FA0
:1049C000808190E0FC01EE0FFF1FDF01A80FB91FEF
:1049D000AE0DBF1DAA59BF4F2C9130E023963FAFBB
:1049E0002EAF23974601D6011D9225962FAD259710
:1049F0002A13FACF8E0F9F1F8E0D9F1DFC01EB59BE
:104A0000FF4F86019E012F5B3F4F4081D7011696D5
:104A10006C91169714968D919C9115970E94A10DFB
:104A200081115BC023968EAD9FAD23978134910594
:104A300020F023965FAE4EAE239722962FAD22979D
:104A4000B301C301F6013E2F3219321740F44191F0
:104A5000DC013D91CD014317B1F380E003C0249602
:104A60008FAD2497982D9219921738F4F4019191F3
:104A70004F01DB019D93BD01F5CF81112DC0D70101
:104A8000ED91FC91008CF18DE02D8601D5014C91CA
:104A9000B701C7011995D701ED91FC910288F389FF
:104AA000E02DD5018C91882311F0698101C060E06F
:104AB000C7011995009771F0DC01ED91FC9101900F
:104AC000F081E02D860122962FAD2297D5014C91E1
:104AD000B7011995339463CF80E0CC5BDF4F0FB6FD
:104AE000F894DEBF0FBECDBFDF91CF911F910F9124
:104AF000FF90EF90DF90CF90BF90AF909F908F90FE
:104B00007F906F905F904F903F902F9008953F92CD
:104B10004F925F926F927F928F929F92AF92BF92CD
:104B2000CF92DF92EF92FF920F931F93CF93DF9379
:104B3000CDB7DEB7E8970FB6F894DEBF0FBECDBF96
:104B4000DC011296ED90FC9013971A963C9131116E
:104B50000BC1822E342E962E3C01D701ED91FC9193
:104B60000190F081E02D60E0C70119958C0100975C
:104B700009F4FCC0FC01C080D180C114D10409F447
:104B8000F7C05301F4E0AF0EB11CDC011196BC92EA
:104B9000AE9214968C92FE0131962F019F0148E04F
:104BA00050E060E0D30112968D919C9113970E9482
:104BB0001A2CF80114828111E1C089808D8189301D
:104BC00009F0D8C0D701ED91FC910280F381E02D6E
:104BD000232D41E0692DC7011995F30182878823B0
:104BE00009F4CAC098859583682F828193810E94B9
:104BF000EA2B982E882391F0D801CD92DC92D70130
:104C0000ED91FC910480F581E02DD3011A966C9111
:104C1000C7011995F3011286192DB4C0482D4132F0
:104C200008F040E2D801CD92DC9241110BC0950111
:104C300042E0F3016285828193810E943580811177
:104C4000A0C00FC050E09201D3011A966C911A9740
:104C500012968D919C9113970E941A2C811191C0EC
:104C6000E6CF1F921F925F924F9288E0882E912C80
:104C700098E0A92EB12CC12CD12C29E2E22E00E023
:104C800026E040EAF3016285828193810E944A2AEC
:104C9000182F0F900F900F900F90811173C08B8180
:104CA000D3011B968C931B97820120E048E050E0D3
:104CB0001A966C911A9712968D919C9113970E9457
:104CC0007B0D81115EC04B815C8120E0F301628528
:104CD000828193810E947B0D811153C0498150E0F4
:104CE0008E010F5D1F4F20E0D3011A966C911A9729
:104CF00012968D919C9113970E947B0D811141C05A
:104D00001F921F921F921F92812C912CA12CB12CCB
:104D1000E12C0E8129E040E0F301628582819381DC
:104D20000E944A2A182F0F900F900F900F90811118
:104D300029C001E0D3011B968C911B97801738F096
:104D4000402F68E0C3010E942C0E0F5FF3CF129634
:104D5000ED91FC911397EA58FF4F80818460808326
:104D600081E050968C930EC019ED0CC016ED0AC070
:104D700017ED08C011ED06C014ED04C0F801D18292
:104D8000C082182F812FE8960FB6F894DEBF0FBEB1
:104D9000CDBFDF91CF911F910F91FF90EF90DF90EA
:104DA000CF90BF90AF909F908F907F906F905F90CB
:104DB0004F903F900895CF92DF92EF92FF920F9322
:104DC0001F93CF93DF936C017A018B01C0E0D0E099
:104DD000CE15DF0589F0D8016D918D01D601ED91D9
:104DE000FC910190F081E02DC6011995892B11F4F9
:104DF0007E0102C02196ECCFC701DF91CF911F91B8
:104E00000F91FF90EF90DF90CF900895FC01918D6E
:104E1000828D981759F0828DDF01A80FB11D5D9624
:104E20008C91928D9F5F928F90E008958FEF9FEF0E
:104E30000895FC01918D828D981731F0828DE80FD5
:104E4000F11D858D90E008958FEF9FEF0895FC018F
:104E5000918D828D981B892F90E008958DE59EE0BD
:104E60000E94272721E0892B09F420E0822F089552
:104E70008AEB9FE00E94272721E0892B09F420E09C
:104E8000822F0895FC01848DDF01A80FB11DA35E60
:104E9000BE4F2C91848D90E001968F739927848F5B
:104EA000A689B7892C93A089B1898C9180648C9351
:104EB000938D848D981306C00288F389E02D80813C
:104EC0008F7D80830895EF92FF920F931F93CF936E
:104ED000DF93EC0181E0888F9B8D8C8D981305C04A
:104EE000E889F989808185FD24C0F62E0B8D10E0BC
:104EF0000F5F1F4F0F731127E02E8C8DE8120CC02F
:104F00000FB607FCFACFE889F989808185FFF5CFD4
:104F1000CE010E944227F1CF8B8DFE01E80FF11DDB
:104F2000E35EFE4FF0820B8FEA89FB89808180620D
:104F300007C0EE89FF896083E889F98980818064F0
:104F4000808381E090E0DF91CF911F910F91FF90DE
:104F5000EF900895CF93DF93EC01888D8823C9F0FB
:104F6000EA89FB89808185FD05C0A889B9898C9172
:104F700086FD0FC00FB607FCF5CF808185FFF2CF0D
:104F8000A889B9898C9185FFEDCFCE010E94422777
:104F9000E7CFDF91CF91089580E090E0892B21F059
:104FA0000E943827811121C080E090E0892B21F0F8
:104FB0000E942E2781111CC080E090E0892B41F0D7
:104FC00080E090E0892B21F00E940000811113C045
:104FD00080E090E0892BA1F080E090E0892B81F0C7
:104FE0000E94000081110AC008950E940000DCCFD9
:104FF0000E940000E1CF0E940000EACF0C94000064
:105000000895CF92DF92EF92FF920F931F93CF9369
:10501000DF937801EC0124966C012BE0C20ED11CC9
:10502000DE01F80131912D91321304C0AC15BD059C
:10503000C9F716C0DC0112968D919C9113970097C9
:1050400079F0B801DC01ED91FC910190F081E02D47
:105050001995F70181917F018993CC15DD05C9F779
:10506000DF91CF911F910F91FF90EF90DF90CF9044
:1050700008950E945584DB014C9111962C91119753
:105080002370E0E6F3E14083218311969C91119710
:105090009695969512968C911297382F3295330FDC
:1050A000330F307C932B8695869583709283838310
:1050B00015965C911597578313966C91139765839A
:1050C00012963C91129732953F70348314967C91DE
:1050D000149776831696AC91A0871F925F938F9357
:1050E0009F932F934F931F923F931F92AF931F92C3
:1050F0007F931F926F931F925F938F939F932F9332
:105100004F9387E49CE09F938F9387E59EE09F9366
:105110008F930E94650F8DB79EB748960FB6F8948F
:105120009EBF0FBE8DBF08956115710579F0FB011B
:1051300001900020E9F73197AF01461B570BDC01C6
:10514000ED91FC910280F381E02D199480E090E0D4
:1051500008951F920F920FB60F9211240BB60F9263
:105160002F933F934F935F936F937F938F939F936F
:10517000AF93BF93EF93FF938DE59EE00E9442278C
:10518000FF91EF91BF91AF919F918F917F916F911F
:105190005F914F913F912F910F900BBE0F900FBEDB
:1051A0000F901F9018951F920F920FB60F92112417
:1051B0000BB60F922F938F939F93EF93FF93E091F2
:1051C0006D0EF0916E0E8081E091730EF091740E71
:1051D00082FD11C090818091760E8F5F2091770EB5
:1051E000821751F0E091760EF0E0E35AF14F958F7F
:1051F0008093760E01C08081FF91EF919F918F91F6
:105200002F910F900BBE0F900FBE0F901F9018950F
:105210001F920F920FB60F9211240BB60F922F937D
:105220003F934F935F936F937F938F939F93AF932E
:10523000BF93EF93FF938AEB9FE00E944227FF9179
:10524000EF91BF91AF919F918F917F916F915F91FE
:105250004F913F912F910F900BBE0F900FBE0F906B
:105260001F9018951F920F920FB60F9211240BB634
:105270000F922F938F939F93EF93FF93E091CA0F19
:10528000F091CB0F8081E091D00FF091D10F82FD92
:1052900011C090818091D30F8F5F2091D40F82171E
:1052A00051F0E091D30FF0E0E654F04F958F8093EA
:1052B000D30F01C08081FF91EF919F918F912F912A
:1052C0000F900BBE0F900FBE0F901F901895FC0112
:1052D00020812EBDDC0131969C01260F371FE2177D
:1052E000F30741F051910DB407FEFDCF4EB55EBD01
:1052F0004D93F5CF61507109FC01E60FF71F0DB416
:1053000007FEFDCF8EB5808308952C9808952C9AC2
:1053100008951F93CF93DF9300D0CDB7DEB7182F3A
:1053200080E591E06B830E94F6300E94852912602F
:1053300019836B816A8362E070E0CE0101960E945E
:1053400067290E9487290E94EE300F900F900F90DE
:10535000DF91CF911F9108951F93CF93DF931F92F9
:10536000CDB7DEB7182F80E591E00E94F6300E949D
:105370008529812F0E94EF3080E00E94EF308983E1
:105380000E9487290E94EE3089810F90DF91CF9192
:105390001F910895CF92DF92EF92FF92CF93DF9308
:1053A0001F921F92CDB7DEB76B017C010E942A725B
:1053B0009A8389832EE32C9DC0012D9D900D11248D
:1053C00068EE73E00E940C83CE0101960E94347255
:1053D0000F900F90DF91CF91FF90EF90DF90CF90E3
:1053E00008958AEB9FE00E942727892B09F451C07A
:1053F0008AEB9FE00E940627893449F134F4843413
:1054000021F1853441F581E027C08635E1F087350B
:1054100001F1823501F587ED9CE09F938F9387E53D
:105420009EE09F938F930E94B82C68EE73E080E01B
:1054300090E00E94CA29E0E0F0E019950F900F90EB
:105440000F900F9008C085E007C084E005C083E09E
:1054500003C082E001C080E0282F30E02630310513
:1054600014F025E030E03093580E2093570E1F9231
:105470008F9385E89BE09F938F9387E59EE09F93B2
:105480008F930E94E22C0F900F900F900F900F902F
:105490000F9008952F923F924F925F926F927F925A
:1054A0008F929F92AF92BF92CF92DF92EF92FF9234
:1054B0000F931F93CF93DF93CDB7DEB767970FB6E8
:1054C000F894DEBF0FBECDBF3C01542E422E302ECD
:1054D0002E2CEDA4FEA4188A1F861E861D868E0122
:1054E000035F1F4F9E01215F3F4F40E00E949D11CF
:1054F000811157C159824A823B822C82DE82CD8241
:10550000B886AF82AE014F5F5F4F68E080E20E94D5
:105510007C152D853E8540E060E1C3010E94E818BE
:10552000182F8111FAC0452C441C4424441CE1145A
:10553000F10409F4E3C0CF84D888442009F455C0AD
:10554000D60112968C911297826012968C93650107
:1055500055245394C114D10409F443C09C868B860E
:105560004D855E856F85788987019E01255F3F4F58
:10557000C3010E94D610182F863079F42F84388802
:1055800088EF0E94601685FB882780F98525F10148
:10559000928180FB91F99283DDCF8111BEC02FA54E
:1055A00038A921153105A1F0D901ED91FC91119790
:1055B0000190F081E02DC5018C199D099A8789879A
:1055C0006B857C859E01275F3F4FA701CD01199513
:1055D0008B859C85C81AD90A8815990508F0BACF19
:1055E0008DC0112309F48FC098C0F60182818160BB
:1055F00082832D853E853A8B298B21808FEF820D0A
:10560000803408F088C00E9498309B01AC01285774
:105610003C4E4F4F5F4F2B8B3C8B4D8B5E8BD6019F
:1056200012968C9180FD02C060E401C060E888EEB3
:105630000E94A115312C8114910409F44DC054012C
:105640002814390408F45101AF8AA7016A2D80E1BA
:105650000E947C156A2D88E30E94A115F6016081E5
:10566000606280EF0E94A11588EC0E94601687FF9F
:10567000FBCF60E888EC0E94A11588EF0E946016BD
:10568000182F1F70412C512C00E0112371F00E9443
:105690009830DC01CB012B893C894D895E89821BC6
:1056A000930BA40BB50BB7FD05C08A189B08EA0C39
:1056B000FB1CC1CF163099F11E3009F46AC01430BA
:1056C00059F4FFEF4F1A5F0A29893A8921153105EC
:1056D000F1F142165306D9F588EF0E94601685FB5A
:1056E000882780F9D60112969C91129780FB90F939
:1056F00012969C93112309F450C00FC02D853E854E
:10570000411003C04CC02D853E8560EA40E0C301D6
:105710000E94E81846C08AED44C0812F42C088EF3D
:105720000E94601685FB882780F931E08327D60127
:1057300012969C91129780FB90F912969C9390FD83
:1057400002C060E401C060E888EE0E94A11560E03C
:1057500088E30E94A115F701608180E10E94A115F4
:105760006F8988E30E94A115D6016C91606280EF79
:105770000E94A11588EC0E94601687FFFBCF60E8AD
:1057800088EC0E94A11588EF0E946016182F1F70E8
:105790007CCF0F5F0330D9F69FCF2D853E8560E823
:1057A000B5CF67960FB6F894DEBF0FBECDBFDF91C1
:1057B000CF911F910F91FF90EF90DF90CF90BF900E
:1057C000AF909F908F907F906F905F904F903F90A1
:1057D0002F9008958F929F92AF92BF92CF92DF92B7
:1057E000EF920F93CF931F921F921F921F92812CC3
:1057F000912CA12CB12CC12CD12CE12C062F25E011
:1058000040E060E00E944A2AC82F6CE271E080E02C
:1058100090E00E945E300F900F900F900F908C2FB1
:10582000CF910F91EF90DF90CF90BF90AF909F906E
:105830008F9008958F929F92AF92BF92CF92DF92F6
:10584000EF920F931F921F923F932F934A015A0199
:10585000C12CD12CEE24E39400E026E040E80E9425
:105860004A2A0F900F900F900F900F91EF90DF90BA
:10587000CF90BF90AF909F908F90089588EF0E9437
:10588000AC29807C8034A1F018F4882301F10895BC
:10589000803819F0803CB9F0089588ED0E94AC2959
:1058A00081FD0BC069EC88ED0E94892982E00CC063
:1058B00088ED0E94AC2981FDF5CF6BEC88ED0E944C
:1058C000892983E001C081E080936913089561ED27
:1058D00088ED0E948929109269130895CF93DF9370
:1058E000CDB7DEB78091570E9091580E1816190655
:1058F000ECF460E070E085E09DE00E94A80E0E945C
:1059000039300E94620F85EB96E00E94A30E0E9440
:1059100098300E94620F87EB96E00E94A30EBE01B2
:10592000665F7F4F888599850E94A80EDF91CF9191
:10593000089590E0FC01E256FD4F2491FC01E85AE5
:10594000FD4F8491882399F090E0880F991FFC0106
:10595000E25CFD4FA591B491FC01EC5DFD4F85919A
:1059600094918FB7F894EC91E22BEC938FBF08954C
:10597000CF93DF93CDB7DEB78091570E9091580E3D
:105980000297ECF060E070E08BE09DE00E94A80ED2
:105990000E9439300E94620F85EB96E00E94A30EB0
:1059A0000E9498300E94620F87EB96E00E94A30E3F
:1059B000BE01665F7F4F888599850E94A80EDF91A2
:1059C000CF910895CF93DF93CDB7DEB78091570E77
:1059D0009091580E0397ECF060E070E081E19DE05B
:1059E0000E94A80E0E9439300E94620F85EB96E05B
:1059F0000E94A30E0E9498300E94620F87EB96E0EF
:105A00000E94A30EBE01665F7F4F888599850E9424
:105A1000A80EDF91CF910895CF93DF93CDB7DEB776
:105A200065970FB6F894DEBF0FBECDBF45E050E0DE
:105A300060E070E080915813909159130E94905546
:105A40008130D1F48AE19DE09F938F9387E59EE0BA
:105A50009F938F930E94650F8091581390915913D3
:105A60000F900F900F900F90009731F040E050E0B2
:105A700060E070E00E94F5630FB6F8940F92E09139
:105A8000E80DF091E90DCF0102966285738544819E
:105A9000558126813781DA0115963C932E93149710
:105AA00026813781D90113965C934E931297DB01BF
:105AB00011964D915C9112974817590721F412964F
:105AC0003C932E93119713861286DB012C91215063
:105AD0002C93048915890115110529F1268537852F
