:100000000C94AF070C94E0070C94E0070C94E00705
:100010000C94E0070C94E0070C94E0070C94E007C4
:100020000C94E0070C94E0070C94E0070C94E007B4
:100030000C9431820C94E0070C94E0070C94E007D8
:100040000C94E0070C94E3260C94E0070C94E00772
:100050000C94E0070C94E0070C94E0070C94C83073
:100060000C94E0070C94C31D0C94991D0C94E007AC
:100070000C94E0070C94E0070C94E0070C94E00764
:100080000C94B5260C94E0070C94E0070C94E00760
:100090000C94641D0C943A1D0C94E0070C944B2EA8
:1000A0000C94E0070C94E0070C9487260C94E0076E
:1000B0000C94E0070C94E0070C94E0070C946A1091
:1000C0000C94E0070C94E0070C94E0070C94E00714
:1000D0000C94E0070C94E0070C94E0070C94E00704
:1000E0000C94E0076F406F406F40A440E9424B43DF
:1000F0006F406F40A440E942AC2FAF2F9E2FA22F3C
:10010000A62FE62FB32FB72FBD2FC12FC52FCB2F73
:10011000CF2FD32FE62FD92FDD2FE12F084AD73B42
:100120003BCE016E84BCBFFDC12F3D6C74319ABDC6
:1001300056833DDA3D00C77F11BED9E4BB4C3E91EA
:100140006BAAAABE000000803F000C94DD2F0C9427
:100150006C240C94C12F0C948A110C943E130C94B3
:10016000EB830C948A2D0C94B32F0C94A22F0C9437
:100170007F2D0C9498100C94AF2F0C9462110C945A
:10018000F81B0C94C02D0C94AC2F0C94BD2F0C9428
:10019000FE110C943F1C0C9405110C94E62F0C944A
:1001A00008110C94B1100C947D2D0C94BC1B0C9474
:1001B000E12F0C94C12D0C94AC010C94DA100C942A
:1001C000961C0C94E9420C9412310C9497210C94D7
:1001D0000C110C94CF2F0C94CB2F0C94701B0C94FF
:1001E000D32F0C94832D0C94812D0C94D01C0C9443
:1001F0004F140C94C52F0C944B430C949C210C94DD
:100200007D790C94EC2D0C942A7A0C946D230C942B
:100210006F400C94D92F0C9445270C940B110C941F
:10022000D02D0C94A4400C949E2F0C9475210C940A
:10023000AE1B0C94E42D0C94A1350C94B72F0C94A8
:10024000C9230C949B1B0C941C2E0C94A62F0C946D
:10025000E61100000A0B02090C0D0E080703040149
:10026000000000000000000000000000000000008E
:10027000000000000000000000000000000012115B
:10028000100000000000000000000000000000005E
:1002900000000000000000000000220025002800EF
:1002A0002B002E003100340002010000050108017E
:1002B0000B0100002100240027002A002D0030003F
:1002C000330001010000040107010A0105050505CD
:1002D000070508080808020202020A0A08080404BE
:1002E00004040101010101010101030303030303EC
:1002F0000303040707070C0C0C0C0C0C0C0C02027B
:10030000020206060606060606060B0B0B0B0B0B77
:100310000B0B010210202008081020401020408004
:1003200002010201080402010102040810204080B9
:100330008040201008040201800402018040201047
:100340000804020108040201010204081020408090
:10035000010204081020408089E0482EAA24AA94B3
:10036000BA2CEE24EA94FE2CCC24CA94DC2C55241E
:100370005394992493948091A80E882309F4E3C59B
:100380008091820E8F5F8093820ED091AB0E0FB65C
:10039000F8940F928091820E81508093820E80910A
:1003A000820E8111DEC18091630E882309F4D9C1C8
:1003B00020917E0E30917F0EE0E0F0E08091790E8A
:1003C000882309F48FC0D9011696ED91FC911797F7
:1003D000048915894685578580899189DA011596A2
:1003E0009C938E93149780899189DC0113965C937A
:1003F0004E931297AF01445F5F4FD80111966D91F4
:100400007C9112976417750721F412969C938E9332
:100410001197158A148AD8018C9181508C93AF0161
:100420004E5F5F4F02851385648175818681978158
:10043000DB0115969C938E93149786819781DC013E
:1004400013967C936E931297D80111966D917C91BF
:1004500012976417750721F412969C938E93119747
:1004600013861286D8018C9181508C93A689809135
:10047000A70E8A1710F4A093A70E4A9ED00111244C
:100480008D010D57114FD80111968D919C911297A6
:1004900095838483DC0114966D917C911597778305
:1004A000668314966D917C911597DB0113965C938E
:1004B0004E931297DC0115965C934E931497138715
:1004C0000287D8018C918F5F8C93A091770EB091A9
:1004D000780E968956968C91981708F46FCF909263
:1004E000760E6CCFEF2BE1F0E0916F0EF091700E75
:1004F0008081811105C0D0926E0EC0926D0E10C029
:10050000E0916F0EF091700E0580F681E02D06806F
:10051000F781E02D8281938190936E0E80936D0E12
:100520003091620E332309F417C18091820E81113C
:1005300001C18091730E9091740E01969093740E88
:100540008093730E009789F540916F0E5091700E55
:100550006091710E7091720E7093700E60936F0EB9
:100560005093720E4093710E2091750E2F5F209361
:10057000750EE0916F0EF091700E2081211105C073
:10058000D0926E0EC0926D0E10C0E0916F0EF09181
:10059000700E0580F681E02D0680F781E02D428106
:1005A000538150936E0E40936D0E40916D0E50919D
:1005B0006E0E20E08417950708F4ADC0E0916F0E31
:1005C000F091700E4081411105C0D0926E0EC09224
:1005D0006D0EA1C0E0916F0EF091700E0580F68156
:1005E000E02D0680F781E02D428153818417950725
:1005F00028F450936E0E40936D0E8DC0BF016E5F58
:100600007F4F628473840481158146815781D801AC
:1006100015965C934E93149746815781DA01139691
:100620001C930E931297D30111960D911C91129762
:100630000617170721F412965C934E9311971386B1
:100640001286D3014C9141504C9324883588211453
:10065000310429F14685578500891189DA011596FB
:100660001C930E93149700891189D80113965C93FB
:100670004E931297D10111966D907C901297AF0115
:10068000445F5F4F6416750621F412961C930E9317
:100690001197158A148AD1014C9141504C93A68927
:1006A0004091A70E4A1710F4A093A70E4A9ED001BE
:1006B0001124AD014D57514F3A01DA0111964D9178
:1006C0005C91129755834483DA0114960D911C9125
:1006D00015971783068314960D911C911597D801D1
:1006E00013967C936E931297DA0115967C936E9312
:1006F000149773866286D3014C914F5F4C93A091FF
:10070000770EB091780E568956964C91541708F48E
:1007100055CF21E053CFE091770EF091780EE68926
:100720004E9EF0011124ED57F14F8081823040F050
:1007300021E006C08091620E8F5F8093620E20E000
:100740008091760E811101C021119092760E315068
:1007500009F0EBCE1092620E8091760E81110E940C
:1007600034820F900FBEDD2309F405CE0FB6F89446
:100770000F92E091B00EF091B10E06811781E80161
:10078000EA85FB858C819D812E813F81DC01159658
:100790003C932E9314970E80DF81C02D9B838A8318
:1007A000C8010296218132812817390711F4D283BA
:1007B000C183E8011B861A868081815080838091E5
:1007C000630E81508093630E8091A80E81508093B8
:1007D000A80E0F900FBE2F89388D2115310509F411
:1007E000E4C19091820E9F5F9093820EC9010E9496
:1007F0008C8B0FB6F8940F928091820E815080936B
:10080000820E8091820E8111CEC18091630E882369
:1008100009F4C9C160917E0E70917F0EE0E0F0E0B6
:100820008091790E882309F47FC0DB011696ED9143
:10083000FC911797C489D589268537858089918948
:10084000D90115969C938E93149780899189DC0128
:1008500013963C932E9312979F01245F3F4F49813B
:100860005A814217530711F49A838983158A148A8F
:100870008881815088839F012E5F3F4FC285D38539
:100880004481558186819781DA0115969C938E93D8
:10089000149786819781DC0113965C934E9312978F
:1008A00049815A814217530711F49A838983138629
:1008B0001286888181508883A6898091A70E8A1725
:1008C00010F4A093A70E4A9ED0011124ED01CD573C
:1008D000D14F89819A8195838483DC0114964D914F
:1008E0005C9115975783468314964D915C911597AB
:1008F000DA0113963C932E931297DC0115963C93E4
:100900002E931497D387C28788818F5F8883A091A5
:10091000770EB091780E968956968C91981708F4B8
:100920007FCF9092760E7CCFEF2BE1F0E0916F0EAF
:10093000F091700E8081811105C0F0926E0EE092F0
:100940006D0E10C0E0916F0EF091700E0580F68173
:10095000E02D0680F781E02D8281938190936E0EC9
:1009600080936D0E8090620E882009F417C18091EB
:10097000820E811101C18091730E9091740E0196C7
:100980009093740E8093730E009789F520916F0EEB
:100990003091700E4091710E5091720E5093700E06
:1009A00040936F0E3093720E2093710E2091750E4E
:1009B0002F5F2093750EE0916F0EF091700E2081E5
:1009C000211105C0F0926E0EE0926D0E10C0E09104
:1009D0006F0EF091700E0580F681E02D0680F78194
:1009E000E02D2281338130936E0E20936D0E209185
:1009F0006D0E30916E0ED0E08217930708F4ADC0F3
:100A0000E0916F0EF091700E2081211105C0F092DF
:100A10006E0EE0926D0EA1C0E0916F0EF091700E1F
:100A20000580F681E02D0680F781E02D228133815B
:100A30008217930728F430936E0E20936D0E8DC0AD
:100A4000AF014E5F5F4F628473842481358166817C
:100A50007781D90115967C936E931497668177817F
:100A6000DB0113963C932E931297D30111962D918F
:100A70003C9112972417350721F412967C936E93BC
:100A8000119713861286D3012C9121502C93248820
:100A900035882114310429F12685378560897189CB
:100AA000D90115967C936E93149760897189DB0147
:100AB00013963C932E931297D10111966D907C90D2
:100AC00012979F01245F3F4F6216730621F412961E
:100AD0007C936E931197158A148AD1012C91215021
:100AE0002C93A6892091A70E2A1710F4A093A70E85
:100AF0004A9ED00111249D012D57314F3901D90152
:100B000011962D913C91129735832483D901149627
:100B10006D917C9115977783668314966D917C9186
:100B20001597DB0113965C934E931297D901159696
:100B30005C934E93149773866286D3012C912F5F3A
:100B40002C93A091770EB091780E368956962C9101
:100B5000321708F455CFD1E053CFE091770EF091E2
:100B6000780EE6894E9EF0011124ED57F14F8081F9
:100B7000823040F0D1E006C08091620E8F5F80939A
:100B8000620ED0E08091760E811101C0D111909259
:100B9000760E8A948110EBCE1092620E8091760EC2
:100BA00081110E9434820F900FBE0115110509F4C6
:100BB000E2CB8091820E8F5F8093820EC8010E94EB
:100BC0008C8B0FB6F8940F928091820E8150809397
:100BD000820E8091820E8111B3C18091630E8823B1
:100BE00009F4AEC120917E0E30917F0EE0E0F0E07E
:100BF0008091790E882309F47DC0E901EE81FF819F
:100C0000C489D5894685578580899189DA011596E9
:100C10009C938E93149780899189DC0113965C9341
:100C20004E931297AF01445F5F4F69817A816417D9
:100C3000750711F49A838983158A148A88818150F3
:100C40008883AF014E5F5F4FC285D3856481758114
:100C500086819781DB0115969C938E9314978681EC
:100C60009781DC0113967C936E93129769817A8148
:100C70006417750711F49A83898313861286888115
:100C800081508883A6898091A70E8A1710F4A093BB
:100C9000A70E4A9ED0011124ED01CD57D14F898175
:100CA0009A8195838483DC0114966D917C911597CC
:100CB0007783668314966D917C911597DB0113966B
:100CC0005C934E931297DC0115965C934E931497A8
:100CD000D387C28788818F5F8883A091770EB09178
:100CE000780E968956968C91981708F481CF509279
:100CF000760E7ECFEF2BE1F0E0916F0EF091700E4B
:100D00008081811105C0B0926E0EA0926D0E10C050
:100D1000E0916F0EF091700E0580F681E02D068057
:100D2000F781E02D8281938190936E0E80936D0EFA
:100D30003091620E332309F4FEC08091820E81113E
:100D4000E8C08091730E9091740E01969093740E8A
:100D50008093730E009789F540916F0E5091700E3D
:100D60006091710E7091720E7093700E60936F0EA1
:100D70005093720E4093710E2091750E2F5F209349
:100D8000750EE0916F0EF091700E2081211105C05B
:100D9000B0926E0EA0926D0E10C0E0916F0EF091A9
:100DA000700E0580F681E02D0680F781E02D4281EE
:100DB000538150936E0E40936D0E40916D0E509185
:100DC0006E0E20E08417950708F494C0E0916F0E32
:100DD000F091700E4081411105C0B0926E0EA0924C
:100DE0006D0E88C0E0916F0EF091700E0580F68157
:100DF000E02D0680F781E02D42815381841795070D
:100E000028F450936E0E40936D0E74C0BF016E5F58
:100E10007F4FC285D3850481158146815781D801D2
:100E200015965C934E93149746815781DA01139679
:100E30001C930E93129709811A810617170711F454
:100E40005A83498313861286488141504883A48976
:100E5000B5891097F9F04685578500891189EA010F
:100E60001D830C8300891189E8015B834A831196F5
:100E70006D907C901297AF01445F5F4F64167506CA
:100E800021F412961C930E931197158A148A4C9193
:100E900041504C93A6894091A70E4A1710F4A09395
:100EA000A70E4A9ED0011124AD57B14F11964D9116
:100EB0005C91129755834483EA010C811D8117834D
:100EC00006830C811D81E8017B836A83EA017D83AF
:100ED0006C83B387A2874C914F5F4C93A091770EA0
:100EE000B091780E568956964C91541708F46ECFEF
:100EF00021E06CCFE091770EF091780EE6894E9E5E
:100F0000F0011124ED57F14F8081823040F021E053
:100F100006C08091620E8F5F8093620E20E0809108
:100F2000760E811101C021119092760E315009F098
:100F300004CF1092620E8091760E81110E9434824D
:100F40000F900FBE18CA8091830E823010F00E945D
:100F500034820E941C210E94611C09CAEB83112467
:100F60001FBECFEFD1E2DEBFCDBF00E00CBF1EE061
:100F7000A0E0B2E0E4E1F1E201E00BBF02C00790C3
:100F80000D92A033B107D9F724E1A0E3BEE001C080
:100F90001D92AE39B207E1F717E0CFEAD7E000E0E3
:100FA00006C021970109802FFE010E945389CE3A85
:100FB000D10780E00807A9F70E94584B0C9488904D
:100FC0000C9400002F923F924F925F926F927F920B
:100FD0008F929F92AF92BF92CF92DF92EF92FF9249
:100FE0000F931F93CF93DF93CDB7DEB7AB970FB6B9
:100FF000F894DEBF0FBECDBF64E670E080E090E005
:101000000E941F300E9459306FA378A789A79AA722
:1010100003E31FE084E090E09093340F8093330F5C
:1010200080E090E1AEE0B0E08093350F9093360F12
:10103000A093370FB093380F40E050E16EE070E0BE
:1010400082EA90E10E947B3480ED92E09F938F933F
:101050001F930F930E9456358BEE92E09F938F93D0
:101060001F930F930E94563586E093E09F938F93D2
:101070001F930F930E94563581E293E09F938F93C5
:101080001F930F930E94563582E493E09F938F93B2
:101090001F930F930E9401358AE793E09F938F93EC
:1010A0001F930F930E942C3584EB93E09F938F93B3
:1010B0001F930F930E94F4338CEE93E09F938F93D2
:1010C0001F930F930E94532D0FB6F894DEBF0FBEEF
:1010D000CDBF87E294E09F938F938AE394E09F9340
:1010E0008F931F930F930E94563583E08F9388EE62
:1010F0008F9386E694E09F938F931F930F930E94A4
:1011000056358EE894E09F938F931F930F930E9420
:1011100056350FB6F894DEBF0FBECDBF809190124A
:10112000803308F042C089E00E94E234809190123E
:10113000E82FF0E09F01220F331FE20FF31FE15071
:10114000FE4E9081907C9960908310929112109243
:1011500092126CE00E9433895CE0859FB0011124FB
:1011600040E050E09A01260F371FF901EE0FFF1FF4
:101170002E0F3F1FF901E150FE4E908196FD08C0F1
:101180004F5F5F4F4C30510569F790E00E94281087
:10119000E0919012F0E0CF01880F991FE80FF91F3E
:1011A000E150FE4E80818064808383EB94E09F93C6
:1011B0008F9303E31FE01F930F930E94563582ED38
:1011C00094E09F938F931F930F930E942C358AEF87
:1011D00094E09F938F931F930F930E94563584E35F
:1011E0000E94E23461E084E30E947D2F1092DC13C0
:1011F0001092DB131092551410927714109253141E
:1012000011E01093521410922D1461E084E10E94B9
:101210007D2F61E085E10E947D2F8091B9008E7F56
:101220008093B9008091B9008D7F8093B90088E4E4
:101230008093B80085E48093BC0041E050E0BE019B
:10124000665E7F4F85E790E00E943D1E41E050E0E2
:10125000BE01665E7F4F8CE690E00E943D1E198EB7
:101260001093541488E680937614109255141092BB
:1012700077146BE689E39FE00E941C2E0FB6F8946A
:10128000DEBF0FBECDBF019771F441E050E0BE015B
:10129000675E7F4F89E39FE00E94EC2D019719F470
:1012A00081E00E941E348E010F5F1F4FC8010E9413
:1012B000D31E2AE0222E312C1BA21CA21DA21EA28C
:1012C0001F8E18A219A21AA21B8E1C8E1D8E1E8E96
:1012D000C12CD12C760146015701260137010BA7FD
:1012E000012F8BA5902F0E94D31E69817A81072E32
:1012F000000C880B990B0E942C8F9B01AC01C30141
:10130000B2010E945C892B013C016B817C81072E1C
:10131000000C880B990B0E942C8F9B01AC01C5011E
:10132000B4010E945C894B015C016D817E81072EB6
:10133000000C880B990B0E942C8F9B01AC01C701FC
:10134000B6010E945C896B017C0169857A85072E54
:10135000000C880B990B0E942C8F9B01AC016B8DAC
:101360007C8D8D8D9E8D0E945C896B8F7C8F8D8F87
:101370009E8F6B857C85072E000C880B990B0E9435
:101380002C8F9B01AC016F8D78A189A19AA10E943D
:101390005C896F8F78A389A39AA36D857E85072EBC
:1013A000000C880B990B0E942C8F9B01AC016BA148
:1013B0007CA18DA19EA10E945C896BA37CA38DA3BF
:1013C0009EA364E670E080E090E00E941F3071E030
:1013D000271A310809F085CF20E030E040E251E4DF
:1013E000C301B2010E94F7896093400E7093410ED1
:1013F0008093420E9093430E20E030E040E251E4AF
:10140000C501B4010E94F78960933C0E70933D0EB4
:1014100080933E0E90933F0E20E030E040E251E496
:10142000C701B6010E94F7896093380E7093390E98
:1014300080933A0E90933B0E20E030E040E251E47E
:101440006B8D7C8D8D8D9E8D0E94F7896093020F30
:101450007093030F8093040F9093050F20E030E00A
:1014600040E251E46F8D78A189A19AA10E94F78989
:101470006093FE0E7093FF0E8093000F9093010F08
:1014800020E030E040E251E46BA17CA18DA19EA15F
:101490000E94F7896093FA0E7093FB0E8093FC0E06
:1014A0009093FD0E0E9459306093F60E7093F70EE4
:1014B0008093F80E9093F90E1092F20E1092F30EA4
:1014C0001092F40E1092F50E1092EE0E1092EF0E96
:1014D0001092F00E1092F10E1092EA0E1092EB0E96
:1014E0001092EC0E1092ED0E1092E60E1092E70E96
:1014F0001092E80E1092E90E1092E20E1092E30E96
:101500001092E40E1092E50E1092DE0E1092DF0E95
:101510001092E00E1092E10E8FE195E09F938F9371
:1015200003E31FE01F930F930E9456358EE395E06F
:101530009F938F931F930F930E9456351092450EE1
:101540001092440E0FB6F894DEBF0FBECDBF9CE0E4
:10155000D92E0091440E1091450E043011050CF067
:101560006CC07801EE0CFF1CF701EE5EFD4FC080F1
:10157000C701800F911FDC01AD56BD4E5D018C91FE
:10158000803308F04AC08C2D0E94E234F50180813E
:10159000E82FF0E09F01220F331FE20FF31FE1500D
:1015A000FE4E9C2D9F732081207CC22EC92AC082B2
:1015B000D50111961C92119712961C926D2D0E94C6
:1015C0003389BCE08B9FA001112420E030E0B901F9
:1015D000640F751FFB01EE0FFF1FE60FF71FE150B1
:1015E000FE4E908196FD08C02F5F3F4F2C30310595
:1015F00071F790E00E942810F701E00FF11FED56FF
:10160000FD4EE081F0E0CF01880F991FE80FF91F30
:10161000E150FE4E808180648083C701800F911F5E
:101620006AE570E08D569D4E0E94D60F0F5F1F4FEA
:101630001093450E0093440E8CCF86E695E09F9361
:101640008F9383E39FE09F938F930E94563564E6C8
:1016500070E080E090E00E941F300F900F900F909C
:101660000F908091180F9091190F892B09F0D8C312
:101670008091820E8F5F8093820E8FE190E00E94B6
:10168000F78A8C010FB6F8940F928091820E8150E8
:101690008093820E8091820E8111E8C18091630E49
:1016A000882309F4E3C140917E0E50917F0EE0E063
:1016B000F0E029E0F22EEE24E3948091790E882365
:1016C00009F490C0DA011696ED91FC911797C48841
:1016D000D5882685378580899189D90115969C936F
:1016E0008E93149780899189DC0113963C932E93F5
:1016F00012979F01245F3F4FD60111966D917C9107
:1017000012976217730721F412969C938E93119788
:10171000158A148AD6018C9181508C939F012E5F7B
:101720003F4FC284D3846481758186819781DB01B8
:1017300015969C938E93149786819781DC0113965E
:101740007C936E931297D60111966D917C911297AE
:101750006217730721F412969C938E931197138648
:101760001286D6018C9181508C93A6898091A70E08
:101770008A1710F4A093A70EFA9ED0011124BD0180
:101780006D57714F6B01DB0111968D919C911297F2
:1017900095838483DC0114966D917C9115977783F2
:1017A000668314966D917C911597DB0113963C939B
:1017B0002E931297DC0115963C932E931497D386A3
:1017C000C286D6018C918F5F8C93A091770EB091D9
:1017D000780E968956968C91981708F46ECFE09201
:1017E000760E6BCFEF2BD1F0E0916F0EF091700E73
:1017F0008081811103C08FEF9FEF0CC0E0916F0ECD
:10180000F091700E0580F681E02D0680F781E02DC5
:101810008281938190936E0E80936D0E3091620E53
:10182000332309F41EC189E0982E88248394EE2482
:10183000EA94FE2C8091820E811101C18091730E79
:101840009091740E01969093740E8093730E00978E
:1018500089F540916F0E5091700E6091710E7091EC
:10186000720E7093700E60936F0E5093720E4093D1
:10187000710E2091750E2F5F2093750EE0916F0E03
:10188000F091700E2081211105C0F0926E0EE09251
:101890006D0E10C0E0916F0EF091700E0580F68114
:1018A000E02D0680F781E02D4281538150936E0E2A
:1018B00040936D0E40916D0E50916E0E20E0841796
:1018C000950708F4ADC0E0916F0EF091700E408165
:1018D000411105C0F0926E0EE0926D0EA1C0E09134
:1018E0006F0EF091700E0580F681E02D0680F78175
:1018F000E02D428153818417950728F450936E0E92
:1019000040936D0E8DC0AF014E5F5F4FA284B384D4
:10191000C480D58066817781D60115967C936E93BD
:10192000149766817781DB011396DC92CE92129731
:10193000D5011196CD90DC901297C416D50621F4EE
:1019400012967C936E93119713861286D5016C9133
:1019500061506C93648875886114710429F16685FF
:101960007785C088D188DB011596DC92CE921497DA
:10197000C088D188D60113967C936E931297D301B9
:101980001196AD90BC901297BF01645F7F4FA61671
:10199000B70621F41296DC92CE921197158A148A1A
:1019A000D3016C9161506C93A6896091A70E6A1760
:1019B00010F4A093A70E9A9ED0011124BD016D577B
:1019C000714F5B01DB0111966D917C9112977583CC
:1019D0006483DB011496CD90DC901597D782C68284
:1019E0001496CD90DC901597D60113965C934E9388
:1019F0001297DB0115965C934E931497B386A286DB
:101A0000D5014C914F5F4C93A091770EB091780E19
:101A1000568956964C91541708F455CF21E053CF70
:101A2000E091770EF091780EE6899E9EF0011124E8
:101A3000ED57F14F8081823040F021E006C0809167
:101A4000620E8F5F8093620E20E08091760E81118E
:101A500001C021118092760E315009F0EBCE109228
:101A6000620E8091760E81110E9434820F900FBE1B
:101A70000115110569F4279A2F9ABFEFE0E7F2E00C
:101A8000B150E040F040E1F700C000001F9AF5CFF0
:101A9000D80111961C930E9381E05B968C935B9713
:101AA0005C961C925C970FB6F8940F92F801208117
:101AB0003181938D448D949FC0011124B901680F29
:101AC000791F73836283128E35832483841B91096B
:101AD000820F931F978386838FEF858F868FC80130
:101AE0000B96928781872FEF3FEF34872387968766
:101AF0008587908B878710860996938B828B358B91
:101B0000248B978B868B918F808F118A0F900FBEBD
:101B100013961C921E92129711961C921E92169664
:101B20001C920FB6F8940F92928D838D981708F03F
:101B30006AC1F28C448D41117EC080819181892BD4
:101B400009F09DC00280F381E02D309711F480E010
:101B50006CC082A1815082A3268991A12917B9F373
:101B60008111F5CF9F012E5F3F4F628573854481C0
:101B7000558186819781DA0115969C938E931497EF
:101B800086819781DC0113965C934E931297DB015B
:101B900011964D915C9112974217530721F41296BA
:101BA0009C938E93119713861286DB018C91815042
:101BB0008C9381A1868B682F70E044E050E0461B37
:101BC000570B558744879091A70E981710F4809370
:101BD000A70E89E0869FD001879FB00D1124BD011B
:101BE0006D57714FDB0111968D919C9112979583E2
:101BF0008483DC0114964D915C911597578346833D
:101C000014964D915C911597DA0113963C932E939F
:101C10001297DC0115963C932E9314977387628775
:101C2000FB0180818F5F808381E0D80113961C9235
:101C30001E92129725C050E060E070E0F8018481A8
:101C400095810E94298CD8015C962C915C97149602
:101C50008D919C911597820F911D15969C938E9353
:101C6000149712962D913C9113978217930738F091
:101C70008D919C91119715969C938E93149780E06B
:101C8000F394F801F28E9189992309F4B9C006887A
:101C9000F789E02D0680F781E02DCF010C9664894D
:101CA00075894685578520893189DA0115963C93D7
:101CB0002E93149720893189D90113965C934E9302
:101CC0001297DB0111964D915C91129748175907B5
:101CD00021F412963C932E931197158A148ADB01F6
:101CE0002C9121502C932091820E211158C09F01DC
:101CF0002E5F3F4F62857385448155818681978130
:101D0000DA0115969C938E93149786819781DC0156
:101D100013965C934E931297DB0111964D915C9153
:101D200012974217530721F412969C938E931197A2
:101D300013861286DB018C9181508C93A689809149
:101D4000A70E8A1710F4A093A70E49E0A49FD00114
:101D50001124BD016D57714FDB0111968D919C913E
:101D6000129795838483DC0114964D915C911597AD
:101D70005783468314964D915C911597DA0113961B
:101D80003C932E931297DC0115963C932E93149757
:101D900073876287DB018C918F5F8C9324C04091A5
:101DA0007A0E50917B0E57874687DA0114962D9153
:101DB0003C911597318B208B14962D913C91159762
:101DC000D90113969C938E931297DA0115969C93E2
:101DD0008E93149789E79EE0958B848B8091790E82
:101DE0008F5F8093790EA091770EB091780E9689CF
:101DF00056968C91891738F481E08093760E01C055
:101E000081110E9434820F900FBE1093190F00931E
:101E1000180F40E050E060E070E0C8010E949D684B
:101E2000CE0101960E94FC1E89859A85AB85BC85F2
:101E30008093480E9093490EA0934A0EB0934B0E98
:101E400000E010E021E040E055E068E875E085E45E
:101E500097E20E94347AF82E06E11FE021E040E08C
:101E600054E065E975E082E191E30E94347AF8225A
:101E70008FE00E94BF869093470E8093460E8FE0BE
:101E80000E94BF869093150F8093140FF1100BC022
:101E900082EA95E09F938F9383E39FE09F938F93D4
:101EA0000E9401350AC08BEC95E09F938F9383E3EA
:101EB0009FE09F938F930E9456350F900F900F9045
:101EC0000F908EEE95E09F938F9303E31FE01F9397
:101ED0000F930E9456350E945930DC01CB012FA18F
:101EE00038A549A55AA5821B930BA40BB50BBF932C
:101EF000AF939F938F938AE196E09F938F931F9365
:101F00000F930E9456350FB6F894DEBF0FBECDBFBB
:101F1000AB960FB6F894DEBF0FBECDBFDF91CF9169
:101F20001F910F91FF90EF90DF90CF90BF90AF90F7
:101F30009F908F907F906F905F904F903F902F90E9
:101F40000895FC019081903380F5818128E830E08C
:101F5000281B310987FD3395220F331F220F331FB2
:101F6000621773077CF0828128E532E0281B310973
:101F700087FD3395220F331F220F331F621773071C
:101F80000CF49B0122503109220F331F4FB7F894F4
:101F9000892F90E0FC01EE0FFF1F8E0F9F1FFC01A9
:101FA000E150FE4E328321834FBF0895CF92DF92DE
:101FB000EF92FF92CF93DF93EC01603282E07807DB
:101FC0000CF03DC077FD06C0653B71052CF064EB5D
:101FD00070E002C060E070E0898128E830E06901CB
:101FE000C81AD10887FDD394CC0CDD1CCC0CDD1CA9
:101FF0000D2C000CEE08FF088A8128E532E0281B32
:10200000310987FD3395220F331F220F331FC9017A
:10201000330FAA0BBB0B9C01AD012C193D094E09D6
:102020005F09DB010E944F9024EB30E040E050E07C
:102030000E942590C20ED31EE41EF51EB601CE01ED
:10204000DF91CF91FF90EF90DF90CF900C94A10F94
:102050008130910581F41092800082E080938100AC
:102060001092850010928400B19A80916F00826076
:1020700080936F0008958230910569F4109290006A
:1020800082E080939100109295001092940088BB9A
:102090008093710008958330910569F41092A00037
:1020A00082E08093A1001092A5001092A40089BB49
:1020B000809372000895892B61F41092200182E0D0
:1020C0008093210110922501109224018ABB8093F4
:1020D000730008951F920F920FB60F9211240BB642
:1020E0000F922F933F934F935F936F937F938F93B1
:1020F0009F93AF93BF93EF93FF9348E251E064E265
:1021000071E080E090E00E94C025FF91EF91BF91C7
:10211000AF919F918F917F916F915F914F913F917F
:102120002F910F900BBE0F900FBE0F901F90189520
:10213000CF93DF93EC018C819D81DC01ED91FC91CB
:102140000480F581E02D6E81199581E08E8F1E82CD
:102150001F8E18A219A21AA21CA280E0DF91CF91B3
:102160000895DC01FC01ED57FF4F80818823D1F0F9
:1021700017968C911797861741F01A968C911A979B
:10218000861315C021E030E002C020E030E0F90104
:10219000EE0FFF1F2E0F3F1FFD01E20FF31F808583
:1021A0009185089518968D919C911997089580E0D6
:1021B00090E00895DC0117968C911797811106C065
:1021C00018968D919C911997892B71F01A968C9184
:1021D0001A97811118C01B968D919C911C97892B81
:1021E00091F421E030E002C020E030E0F901EE0F90
:1021F000FF1F2E0F3F1FFD01E20FF31F6783518763
:10220000408781E0089580E00895FC0184A108954D
:10221000FC0186810895089580E0089580E0089586
:1022200080E090E008950895DF92EF92FF920F937F
:102230001F93CF93DF93EC01E62EF12C85E0689F8E
:10224000B0011124FE01E60FF71F8085182F1770CB
:1022500086FF21C001E085E0D82E8FEF800F8F3000
:1022600008F001E0FE01D09EE00DF11D11248085F3
:102270008695869586958770811305C0602FCE015F
:102280000E941411EACF0F5F003161F78D81811335
:1022900002C011501D8385E08E9DF0018F9DF00DD1
:1022A0001124EC0FFD1F108681E081871286229693
:1022B000D783C683DF91CF911F910F91FF90EF904D
:1022C000DF900895FC016134C1F43F969C01265AC9
:1022D0003F4F61E0AC014E5F5F4FDF0112971C92F0
:1022E00011966C93108213974D935C933596E21779
:1022F000F30799F7FC01158208953D9621E030819E
:10230000361303C0622F0C9414112F5F35962031C1
:10231000B1F70895CF93DF93FC01862F807809F001
:1023200051C0283008F04FC0442321F095819730E8
:1023300009F449C0EF012D96A0E0B0E01196988114
:10234000911103C0662331F021C02596AF30B1054D
:10235000A9F739C085E08A9FE0018B9FD00D112439
:10236000CE0FDF1F442331F081E4888785818F5FA2
:10237000858302C081E0888725E02A9FC0012B9FCA
:10238000900D1124E80FF91F80851DC06770660F3E
:10239000660F660F442341F0606485818F5F8583FB
:1023A0008770687F682B03C02770687B622B25E0ED
:1023B0002A9FC0012B9F900D1124E80FF91F608701
:1023C000862F01C080E0DF91CF910895611102C096
:1023D00006960895FC013D9621E03081361307C032
:1023E00035E0239F800D911D1124069608952F5FDF
:1023F0003596203191F780E090E008953F924F921A
:102400005F926F927F928F929F92AF92BF92CF9284
:10241000DF92EF92FF920F931F93CF93DF9300D041
:102420001F92CDB7DEB76C017C836B835A834983DF
:102430004C0180E1880E911C5601A7E0AA0EB11C48
:1024400011E084E0482E3601B2E16B0E711C93E07E
:10245000392E22E0522E8B819C81892B09F4F8C001
:10246000F60190A1923059F128F4992341F091306E
:1024700071F0F1CF933039F19430C1F1ECCF548247
:1024800085819681908787835286518610A3AE01FD
:102490004D5F5F4FBE016F5F7F4FC5010E941127E7
:1024A000882309F4D5C0D6011596ED91FC911697B5
:1024B000808191968C939197818192968C93F6016D
:1024C0007682658230A2D60192968C919297843062
:1024D00011F493961C92F60181A182508483258188
:1024E0003681308727838287818740A2D6019296E2
:1024F0008C918430B1F0853009F440C0823009F00D
:1025000068C0AE014D5F5F4FBE016F5F7F4FC50179
:102510000E941127882309F49BC0F601858984A3B2
:102520008FC0AE014D5F5F4FBE016F5F7F4FC50132
:102530000E941127882309F48BC0D60155968C91EF
:102540005597833009F07CC098968C9198978111AB
:1025500077C093961C93939752968C915297969628
:102560008C93969753968C91539797968C939797B5
:1025700057968C91579795968C9362C0AE014D5F9C
:102580005F4FBE016F5F7F4FC5010E9411278823F7
:1025900009F45EC0F60183A1882309F451C0828149
:1025A0009381009709F44CC0DC01ED91FC910190FE
:1025B000F081E02D7401D60195960C919597979630
:1025C0002C91979796964C91969794966C91199515
:1025D00037C0F60181A19585992319F0913031F02A
:1025E0002AC090E002979787868715872B813C81C8
:1025F00089819A81782F692FD6011E964D915C9121
:102600001F974115510539F49A8389833C832B83A5
:102610001D961C9210C001962115310541F04150C4
:102620005109F6015787468721503109E3CF798355
:102630006A831C821B82F60186859785892B41F46B
:10264000D60116969C928E92159790961C9203CF67
:102650000F900F900F900F90DF91CF911F910F91DE
:10266000FF90EF90DF90CF90BF90AF909F908F90B2
:102670007F906F905F904F903F9008952F923F9280
:102680004F925F926F927F928F929F92AF92BF9282
:10269000CF92DF92EF92FF920F931F93CF93DF932E
:1026A000CDB7DEB7C454D1090FB6F894DEBF0FBE64
:1026B000CDBFDC019496BC912496BFAF2497BB2379
:1026C00009F4D2C07C010E945930F701878C90A098
:1026D000A1A0B2A0DC01CB0188199909AA09BB0904
:1026E000B7FDC2C00E945930D70193962C91DC01EE
:1026F000CB01820F911DA11DB11DF701878F90A302
:10270000A1A3B2A3312CCE0101966C01282E90E436
:102710009C0D25969FAF259740E4442E512C370100
:10272000A5E26A0E711C5701B3E8AB0EB11CF701AC
:10273000858D381608F098C0832D90E0FC01EE0FCF
:10274000FF1F8E0F9F1F8E0D9F1DFC01E458FF4F32
:10275000808190E0FC01EE0FFF1FDF01A80FB91F81
:10276000AE0DBF1DAA59BF4F2C9130E023963FAF4D
:102770002EAF23974601D6011D9225962FAD2597A2
:102780002A13FACF8E0F9F1F8E0D9F1DFC01EB5950
:10279000FF4F86019E012F5B3F4F4081D701169668
:1027A0006C91169714968D919C9115970E94BC1A66
:1027B00081115BC023968EAD9FAD23978134910527
:1027C00020F023965FAE4EAE239722962FAD229730
:1027D000B301C301F6013E2F3219321740F4419183
:1027E000DC013D91CD014317B1F380E003C0249695
:1027F0008FAD2497982D9219921738F4F401919186
:102800004F01DB019D93BD01F5CF81112DC0D70193
:10281000ED91FC91008CF18DE02D8601D5014C915C
:10282000B701C7011995D701ED91FC910288F38991
:10283000E02DD5018C91882311F0698101C060E001
:10284000C7011995009771F0DC01ED91FC910190A1
:10285000F081E02D860122962FAD2297D5014C9173
:10286000B7011995339463CF80E0CC5BDF4F0FB68F
:10287000F894DEBF0FBECDBFDF91CF911F910F91B6
:10288000FF90EF90DF90CF90BF90AF909F908F9090
:102890007F906F905F904F903F902F9008952F9270
:1028A0003F924F925F926F927F928F929F92AF92E0
:1028B000BF92CF92DF92EF92FF920F931F93CF932D
:1028C000DF93CDB7DEB7C458D1090FB6F894DEBF99
:1028D0000FBECDBFDC0114960D911C911597169675
:1028E000FC90F110D2C1B22E942EA62E3C01D8013C
:1028F000ED91FC910190F081E02D60E0C801199507
:102900002C01009719F476EDF72ECAC1FC01C080A6
:10291000D180C114D10409F4BBC11301F5E62F0E17
:10292000311CDC0111963C922E921496BC929E01B1
:1029300026593F4F48E050E060E0F30184819581E3
:102940000E94421AE82E811193C1AB96EFACAB976F
:10295000D201CD92DC92D801ED91FC910280F381FD
:10296000E02D292D40E06A2DC8011995F3018683D9
:10297000882309F490C1E2969FADE297EA59FF4F90
:102980009083682FD30114968D919C9115970E9486
:102990008C1AD82ED801ED91FC91D20114961C927C
:1029A000882361F00480F581E02DD30116966C91A7
:1029B000C8011995F3011682FD2C72C10190F081B6
:1029C000E02DD30116966C91C8011995009709F472
:1029D0009ACF4E2D433108F042E1FC01B4824111FF
:1029E0003BC0E4968EAD9FADE497F301EA57FF4FED
:1029F00091838083E6968EAD9FADE6973297918363
:102A00008083EC96FFADEC97C058DF4FF883C05839
:102A1000D040910141E0D30116966C91169714961F
:102A20008D919C9115970E94D985E82E811123C123
:102A300070E02E01B1E44B0E511CF3013296CF57DA
:102A4000DF4FF983E883C158D040C2014096EE962B
:102A50009FAF8EAFEE978EC050E09E0126593F4F3C
:102A6000D30116966C91169714968D919C9115979B
:102A70000E94421AE82E8111FEC0B3CF8EE192E08F
:102A8000F20191838083CF57DF4FA881B981C1586C
:102A9000D040B383A28315861786168610A211A292
:102AA00012A210A6EE968EAD9FADEE97968385830B
:102AB00090878783848182878187EE96AEADBFAD94
:102AC000EE97B487A387F301368184819581C2583C
:102AD000DF4F99838883CE57D0408E010F5F1F4F01
:102AE000272F49E050E0632FCD57DF4F3883C3587D
:102AF000D040CC57DF4F7883C458D0400E94661A2C
:102B0000CD57DF4F3881C358D040CC57DF4F788145
:102B1000C458D040811127C0AB80BC805F924F92D7
:102B20001F930F9350E4852E912CC12CD12C62E081
:102B3000E62E072F26E040E8632FC258DF4F88813A
:102B40009981CE57D040CC57DF4F7883C458D040BE
:102B50000E94A2180F900F900F900F90CC57DF4F4C
:102B60007881C458D04081110DC0F301868D823028
:102B700058F47F5FC058DF4FF881C058D0407F13B2
:102B80007DCF02C0E82E77C0D3015E964C915E9750
:102B9000423008F483C0910116966C9116971496F2
:102BA0008D919C9115970E94D9851F921F921F921B
:102BB0001F92812C912CA12CB12CC12CD12CE12C59
:102BC000F301048D29E040E06681848195810E94B3
:102BD000A218E82E0F900F900F900F9081114BC00C
:102BE00010E0F301858D1817B0F5812F90E09C015E
:102BF000220F331F820F931F860D971DFC01E4588F
:102C0000FF4F2081222329F1329780818770C82EBF
:102C1000D12C1F921F921F921F92812C912CA12CBC
:102C2000B12CE12C00E02AE041E2D30116966C9130
:102C3000169714968D919C9115970E94A218E82ED4
:102C40000F900F900F900F90882319F0B5E08B1321
:102C500012C01F5FC6CF0190F081E02D0688F78972
:102C6000E02DC301199581E0D30194968C9318C08F
:102C7000F201D182C082D301ED91FC910480F581F3
:102C8000E02DC3011995FE2C0BC039EDF32E08C0C1
:102C900027EDF22E05C094EDF92E02C081EDF82E3D
:102CA0008F2DCC57DF4F0FB6F894DEBF0FBECDBFD0
:102CB000DF91CF911F910F91FF90EF90DF90CF9018
:102CC000BF90AF909F908F907F906F905F904F904C
:102CD0003F902F9008950F931F93CF93DF93C82FAA
:102CE000D62F8A0180E591E00E949E352C988C2F8A
:102CF00082600E949735CD2FD0E0209721F0BE0151
:102D0000C8010E94F81DC00FD11F2C9A0E94963551
:102D1000CE01DF91CF911F910F9108951F93CF9313
:102D2000DF9300D0CDB7DEB7182F80E591E06B833D
:102D30000E949E352C98126019836B816A8362E031
:102D400070E0CE0101960E94F81D2C9A0E949635E3
:102D50000F900F900F90DF91CF911F9108951F93C7
:102D6000CF93DF931F92CDB7DEB7182F80E591E0A8
:102D70000E949E352C98812F0E94973580E00E94FA
:102D800097352C9A89830E94963589810F90DF911F
:102D9000CF911F9108959F92AF92BF92CF92DF92F1
:102DA000EF92FF920F931F93CF93DF937C01C42F79
:102DB000122F992493946C01C60ED11CC60ED11CFF
:102DC00086E5C80ED11CA42EB12CABE2AA0EB11C14
:102DD000AA0CBB1CAE0CBF1CF60180819181DC01EA
:102DE000ED91FC910280F381E02D202F412F6C2F7B
:102DF0001995803EC9F4C1110BC061E088EE0E94B4
:102E00008E1666E670E080E090E00E941F3016C0EB
:102E1000F50180819181DC01ED91FC910284F385C3
:102E2000E02D612F19950AC08D3031F49FEF990D77
:102E3000933008F040C016C081113DC0F60180817A
:102E40009181DC01ED91FC910190F081E02D202F2A
:102E5000412F6C2F1995D82F8D3061F48FEF890D8C
:102E6000833050F464E670E080E090E00E941F3010
:102E70009394B2CF8823F1F0C1110BC061E088EECA
:102E80000E948E1666E670E080E090E00E941F309F
:102E900011C0EC2FF0E0BB96EE0FFF1FEE0DFF1DF3
:102EA00080819181DC01ED91FC910284F385E02D1C
:102EB000612F19958D2FDF91CF911F910F91FF9069
:102EC000EF90DF90CF90BF90AF909F9008958F923A
:102ED0009F92BF92CF92DF92EF92FF920F931F9338
:102EE000CF93DF931F92CDB7DEB74C01B62E6901A9
:102EF00049830E94E6117C014981009709F44BC087
:102F0000DC01ED91FC911197309709F446C01396BE
:102F10009C9180E0891731F02081241729F03396A5
:102F20008F5FF8CFE0E0F0E0D601ED93FC933097AF
:102F3000B1F122812695269530E02031310514F03B
:102F40002FE030E081E090E0A0E0B0E004C0880F26
:102F5000991FAA1FBB1F2A95D2F70197F8019183E9
:102F600080836B2D80EE0E948E1688ED0E94AF1636
:102F7000682FD70114968C91882339F0F401EA5810
:102F8000FF4F80818260682B01C0697F88ED0E94BD
:102F90008E1680E005C086ED03C087ED01C08BED85
:102FA0000F90DF91CF911F910F91FF90EF90DF90E5
:102FB000CF90BF909F908F9008952F923F924F9205
:102FC0005F926F927F928F929F92AF92BF92CF92B9
:102FD000DF92EF92FF920F931F93CF93DF9300D076
:102FE0001F92CDB7DEB73C017C836B832A01790148
:102FF000F901A080B180FB01F181F983F90111820F
:103000001082FB01828181FD02C060E101C060E2AB
:1030100088EE0E948E16AA829201EB81FC8140818B
:1030200060E0C3010E946530382EF6E08F1316C0B1
:1030300088EF0E94AF168295817091E08927EB811D
:10304000FC81928180FB91F9928391FD02C060E145
:1030500001C060E288EE0E948E16DECF81115AC058
:1030600088EC0E94AF1682FF53C080E30E94AF1627
:10307000282E90E0A816B90608F42A80F70180816E
:103080009181822C912C9501281B390BC90137FFA6
:1030900002C080E090E06401881599050CF46C0191
:1030A00080E591E00E949E352C9888E00E9497353B
:1030B000A60160E070E0C8010E94328CC114D10406
:1030C00021F0B601C8010E94F81D0C0D1D1D2C9A9F
:1030D0000E94963564E088EC0E948E16F70180818C
:1030E0009181880E991E91828082F9812F1620F09D
:1030F0008A149B0408F490CF88EF0E94AF16829543
:103100008170EB81FC81928180FB91F9928302C0F6
:1031100080EF382E832D0F900F900F900F90DF913E
:10312000CF911F910F91FF90EF90DF90CF90BF90C4
:10313000AF909F908F907F906F905F904F903F9057
:103140002F9008952F923F924F925F926F927F92AD
:103150008F929F92AF92BF92CF92DF92EF92FF92A7
:103160000F931F93CF93DF93CDB7DEB767970FB65B
:10317000F894DEBF0FBECDBF3C01542E422E302E40
:103180002E2CEDA4FEA4188A1F861E861D868E0195
:10319000035F1F4F9E01215F3F4F40E00E94671772
:1031A000811157C159824A823B822C82DE82CD82B4
:1031B000B886AF82AE014F5F5F4F68E080E20E9449
:1031C0006B162D853E8540E060E1C3010E946530AD
:1031D000182F8111FAC0452C441C4424441CE114CE
:1031E000F10409F4E3C0CF84D888442009F455C021
:1031F000D60112968C911297826012968C9365017B
:1032000055245394C114D10409F443C09C868B8681
:103210004D855E856F85788987019E01255F3F4FCB
:10322000C3010E94DD17182F863079F42F84388867
:1032300088EF0E94AF1685FB882780F98525F1016C
:10324000928180FB91F99283DDCF8111BEC02FA5C1
:1032500038A921153105A1F0D901ED91FC91119703
:103260000190F081E02DC5018C199D099A8789870D
:103270006B857C859E01275F3F4FA701CD01199586
:103280008B859C85C81AD90A8815990508F0BACF8C
:103290008DC0112309F48FC098C0F601828181602E
:1032A00082832D853E853A8B298B21808FEF820D7D
:1032B000803408F088C00E9459309B01AC01285727
:1032C0003C4E4F4F5F4F2B8B3C8B4D8B5E8BD60113
:1032D00012968C9180FD02C060E401C060E888EE27
:1032E0000E948E16312C8114910409F44DC05401B2
:1032F0002814390408F45101AF8AA7016A2D80E12E
:103300000E946B166A2D88E30E948E16F60160817A
:10331000606280EF0E948E1688EC0E94AF1687FFD5
:10332000FBCF60E888EC0E948E1688EF0E94AF16F3
:10333000182F1F70412C512C00E0112371F00E94B6
:103340005930DC01CB012B893C894D895E89821B78
:10335000930BA40BB50BB7FD05C08A189B08EA0CAC
:10336000FB1CC1CF163099F11E3009F46AC014302D
:1033700059F4FFEF4F1A5F0A29893A89211531055F
:10338000F1F142165306D9F588EF0E94AF1685FB7E
:10339000882780F9D60112969C91129780FB90F9AC
:1033A00012969C93112309F450C00FC02D853E85C1
:1033B000411003C04CC02D853E8560EA40E0C3014A
:1033C0000E94653046C08AED44C0812F42C088EF1C
:1033D0000E94AF1685FB882780F931E08327D6014C
:1033E00012969C91129780FB90F912969C9390FDF7
:1033F00002C060E401C060E888EE0E948E1660E0C2
:1034000088E30E948E16F701608180E10E948E168B
:103410006F8988E30E948E16D6016C91606280EFFE
:103420000E948E1688EC0E94AF1687FFFBCF60E8E3
:1034300088EC0E948E1688EF0E94AF16182F1F701E
:103440007CCF0F5F0330D9F69FCF2D853E8560E896
:10345000B5CF67960FB6F894DEBF0FBECDBFDF9134
:10346000CF911F910F91FF90EF90DF90CF90BF9081
:10347000AF909F908F907F906F905F904F903F9014
:103480002F9008958F929F92AF92BF92CF92DF922A
:10349000EF920F931F921F923F932F934A015A016D
:1034A000C12CD12CEE24E39400E026E040E80E94F9
:1034B000A2180F900F900F900F900F91EF90DF9048
:1034C000CF90BF90AF909F908F9008958F929F92D2
:1034D000AF92BF92CF92DF92EF920F931F931F9202
:1034E0001F921F930F934A015A01C12CD12C32E035
:1034F000E32E022F26E040E80E94A2180F900F90C2
:103500000F900F901F910F91EF90DF90CF90BF9091
:10351000AF909F908F9008958F929F92AF92BF929D
:10352000CF92DF92EF920F93CF931F921F921F9231
:103530001F92812C912CA12CB12CC12CD12CE12CCF
:10354000062F25E040E060E00E94A218C82F6CE240
:1035500071E080E090E00E941F300F900F900F907C
:103560000F908C2FCF910F91EF90DF90CF90BF9065
:10357000AF909F908F900895AF92BF92CF92DF92BD
:10358000EF92FF920F931F93CF93DF9300D01F9280
:10359000CDB7DEB77C01690158011C821B821A82FB
:1035A00019828E010F5F1F4F9E012D5F3F4F0E94BA
:1035B0006717811109C049815A816B817C8185011E
:1035C0009601C7010E94DD170F900F900F900F908A
:1035D000DF91CF911F910F91FF90EF90DF90CF90EF
:1035E000BF90AF9008958F929F92AF92BF92CF926B
:1035F000DF92EF920F93C42ED12C1F921F921F9235
:103600001F92812C912CA12CB12CE12C062F21E0B2
:1036100043E2FC016285828193810E94A2180F908F
:103620000F900F900F900F91EF90DF90CF90BF9081
:10363000AF909F908F9008958F929F92AF92BF927C
:10364000CF92DF92EF920F93C62ED12C1F921F9232
:103650005F934F9324E0822E912C34E0A32EB12C63
:10366000E12C00E020E043EAFC0162858281938145
:103670000E94A2180F900F900F900F900F91EF9053
:10368000DF90CF90BF90AF909F908F9008958F92D2
:103690009F92AF92BF92CF92DF92EF920F93C42E80
:1036A000D12C1F921F921F921F92812C912CA12C22
:1036B000B12CE12C062F23E043E2FC0162858281DC
:1036C00093810E94A2180F900F900F900F900F916E
:1036D000EF90DF90CF90BF90AF909F908F90089524
:1036E000CF92DF92EF92FF920F931F93CF93DF93CE
:1036F0006C017A018B01C0E0D0E0CE15DF0589F0C6
:10370000D8016D918D01D601ED91FC910190F08170
:10371000E02DC6011995892B11F47E0102C0219676
:10372000ECCFC701DF91CF911F910F91FF90EF90E8
:10373000DF90CF900895FC01918D828D981759F0FC
:10374000828DDF01A80FB11D5D968C91928D9F5FD8
:10375000928F90E008958FEF9FEF0895FC01918D77
:10376000828D981731F0828DE80FF11D858D90E0E4
:1037700008958FEF9FEF0895FC01918D828D981B26
:10378000892F90E0089585E49FE00E94BC1B21E012
:10379000892B09F420E0822F089582EA90E10E94AB
:1037A000BC1B21E0892B09F420E0822F0895FC0145
:1037B000848DDF01A80FB11DA35EBE4F2C91848DB7
:1037C00090E001968F739927848FA689B7892C93EF
:1037D000A089B1898C9180648C93938D848D98138A
:1037E00006C00288F389E02D80818F7D8083089553
:1037F000EF92FF920F931F93CF93DF93EC0181E041
:10380000888F9B8D8C8D981305C0E889F9898081FC
:1038100085FD24C0F62E0B8D10E00F5F1F4F0F7338
:103820001127E02E8C8DE8120CC00FB607FCFACFE2
:10383000E889F989808185FFF5CFCE010E94D71BE9
:10384000F1CF8B8DFE01E80FF11DE35EFE4FF0829C
:103850000B8FEA89FB898081806207C0EE89FF892E
:103860006083E889F98980818064808381E090E0C9
:10387000DF91CF911F910F91FF90EF900895CF931B
:10388000DF93EC01888D8823C9F0EA89FB89808168
:1038900085FD05C0A889B9898C9186FD0FC00FB63A
:1038A00007FCF5CF808185FFF2CFA889B9898C917B
:1038B00085FFEDCFCE010E94D71BE7CFDF91CF91DF
:1038C000089580E090E0892B21F00E94CD1B8111AA
:1038D00021C080E090E0892B21F00E94C31B811160
:1038E0001CC080E090E0892B41F080E090E0892BC3
:1038F00021F00E940000811113C080E090E0892B2C
:10390000A1F080E090E0892B81F00E9400008111FD
:103910000AC008950E940000DCCF0E940000E1CFA1
:103920000E940000EACF0C9400000895CF92DF922D
:10393000EF92FF920F931F93CF93DF937801EC01E7
:1039400024966C012BE0C20ED11CDE01F8013191EE
:103950002D91321304C0AC15BD05C9F716C0DC01AA
:1039600012968D919C911397009779F0B801DC0124
:10397000ED91FC910190F081E02D1995F701819175
:103980007F018993CC15DD05C9F7DF91CF911F9198
:103990000F91FF90EF90DF90CF9008950E94248CBC
:1039A000DB013C9111968C911197482F4370E6E012
:1039B000FFE0308341838695869512969C911297FD
:1039C000292F2295220F220F207C822B292F26952A
:1039D000269523708283238315965C9115975783D0
:1039E00013966C911397658392959F7094831496A8
:1039F0007C91149776831696AC91A0871F925F9363
:103A00002F938F934F933F931F929F931F92AF9348
:103A10001F927F931F926F931F925F932F938F93A9
:103A20004F933F9383E596E09F938F9383E39FE0CB
:103A30009F938F930E94532D8DB79EB748960FB6D4
:103A4000F8949EBF0FBE8DBF08956115710579F082
:103A5000FB0101900020E9F73197AF01461B570B9E
:103A6000DC01ED91FC910280F381E02D199480E05E
:103A700090E008951F920F920FB60F9211240BB68B
:103A80000F922F933F934F935F936F937F938F93F7
:103A90009F93AF93BF93EF93FF9385E49FE00E94C2
:103AA000D71BFF91EF91BF91AF919F918F917F9124
:103AB0006F915F914F913F912F910F900BBE0F909F
:103AC0000FBE0F901F9018951F920F920FB60F9276
:103AD00011240BB60F922F938F939F93EF93FF9325
:103AE000E091550FF091560F8081E0915B0FF091BE
:103AF0005C0F82FD11C0908180915E0F8F5F2091DD
:103B00005F0F821751F0E0915E0FF0E0EB5BF04F3A
:103B1000958F80935E0F01C08081FF91EF919F91FF
:103B20008F912F910F900BBE0F900FBE0F901F9093
:103B300018951F920F920FB60F9211240BB60F9289
:103B40002F933F934F935F936F937F938F939F93A5
:103B5000AF93BF93EF93FF9382EA90E10E94D71B4C
:103B6000FF91EF91BF91AF919F918F917F916F9155
:103B70005F914F913F912F910F900BBE0F900FBE11
:103B80000F901F9018951F920F920FB60F9211244D
:103B90000BB60F922F938F939F93EF93FF93E09128
:103BA000B210F091B3108081E091B810F091B9108B
:103BB00082FD11C090818091BB108F5F2091BC105D
:103BC000821751F0E091BB10F0E0EE55FF4E958F5B
:103BD0008093BB1001C08081FF91EF919F918F91E5
:103BE0002F910F900BBE0F900FBE0F901F90189546
:103BF000FC0120812EBDDC0131969C01260F371F70
:103C0000E217F30741F051910DB407FEFDCF4EB519
:103C10005EBD4D93F5CF61507109FC01E60FF71FB2
:103C20000DB407FEFDCF8EB580830895CF92DF924D
:103C3000EF92FF92CF93DF931F921F92CDB7DEB723
:103C40006B017C010E94D2769A8389832EE32C9D9E
:103C5000C0012D9D900D112468EE73E00E943F89F4
:103C6000CE0101960E94DC760F900F90DF91CF91EC
:103C7000FF90EF90DF90CF900895EF92FF920F9317
:103C80001F93CF93DF93D62FC72F7A0191E09093A4
:103C9000541498E690937614109255141092771459
:103CA000682F89E39FE00E941C2E019709F068C0ED
:103CB00080E00E941E34282F30E02115310509F0E4
:103CC00061C0809153148111FCCF8E2D813208F098
:103CD00080E291E090935314909352142FEF20932D
:103CE000511410925014280F20934F1490932E14B7
:103CF00090912E14906D90932E1490912D149130DC
:103D000061F410922D1490912E149093BB00909119
:103D1000BC0093FDF8CF95EC01C095EE9093BC00EC
:103D2000909153149130E1F390915014981710F43E
:103D300080915014AFE2B4E12BEB33E1F9019E2FF7
:103D4000921B981718F49D919193F9CF1092DC1360
:103D50008093DB130D2F1C2FC0E0D0E09091DB137C
:103D60008091DC13981781F0CE15DF056CF4219655
:103D700089E39FE00E94D02DF80181938F01EECF5F
:103D800086EF06C0C90108C0CE15DF0519F085EF22
:103D90009FEF02C080E090E0DF91CF911F910F91E3
:103DA000FF90EF900895CF93DF93EC014EE050E049
:103DB000BC018BE390E00E943D1E2881398138834D
:103DC00029832A813B813A832B832C813D813C834B
:103DD0002D832E813F813E832F8328853985388727
:103DE00029872A853B853A872B872C853D853C870B
:103DF0002D87DF91CF9108954F925F926F927F92BE
:103E00008F929F92AF92BF92CF92DF92EF92FF92EA
:103E10000F931F93CF93DF93CDB7DEB7E6970FB61F
:103E2000F894DEBF0FBECDBF8C01CE0101960E947B
:103E3000D31E0E9459306F8B788F898F9A8F69813A
:103E40007A81072E000C880B990B0E942C8F6F87AC
:103E5000788B898B9A8B6B817C81072E000C880B69
:103E6000990B0E942C8F2B013C016D817E81072EC6
:103E7000000C880B990B0E942C8F6B8B7C8B8D8B8D
:103E80009E8B9B01AC010E94678F6B017C01A3019B
:103E90009201C301B2010E94678FA70196010E949F
:103EA0005C890E949E8A9B01AC016F857889898913
:103EB0009A8990580E94F7890E94C8896BA37CA3B5
:103EC0008DA39EA32F85388949895A89CA01B901D2
:103ED0000E94678FA70196010E945C890E949E8ABA
:103EE0009B01AC01C301B2010E94F7890E94C889FD
:103EF0006FA378A789A79AA78091F60E9091F70EE5
:103F0000A091F80EB091F90E2F89388D498D5A8DF8
:103F1000281B390B4A0B5B0BCA01B9010E942A8F7F
:103F200020E030E04AE754E40E94F7896B017C010D
:103F300069857A85072E000C880B990B0E942C8FBF
:103F40002091020F3091030F4091040F5091050F03
:103F50000E945B8920E030E043E053E40E94F7894F
:103F6000A70196010E94678F6B8F7C8F8D8F9E8F2C
:103F70006B857C85072E000C880B990B0E942C8F7B
:103F80002091FE0E3091FF0E4091000F5091010FD5
:103F90000E945B8920E030E043E053E40E94F7890F
:103FA000A70196010E94678F4B015C016D857E859C
:103FB000072E000C880B990B0E942C8F2091FA0E73
:103FC0003091FB0E4091FC0E5091FD0E0E945B89DA
:103FD00020E030E043E053E40E94F789A701960116
:103FE0000E94678F6B017C012091EA0E3091EB0EED
:103FF0004091EC0E5091ED0E0E945C896F8F78A37A
:1040000089A39AA32091E60E3091E70E4091E80E25
:104010005091E90E6B8D7C8D8D8D9E8D0E945C89FB
:104020006BA77CA78DA79EA72091E20E3091E30E8F
:104030004091E40E5091E50EC501B4010E945C89E7
:104040006FA778AB89AB9AAB2091DE0E3091DF0E73
:104050004091E00E5091E10EC701B6010E945C89CB
:104060006BAB7CAB8DAB9EAB2091F20E3091F30E1F
:104070004091F40E5091F50E6B8D7C8D8D8D9E8D43
:104080000E945C892FE832EC45E75FE30E94678F6E
:104090006B017C012DEE3EE245E652E46FA178A56E
:1040A00089A59AA50E94678F20E137ED43E25DE381
:1040B0000E94678F9B01AC01C701B6010E945C8919
:1040C0006B017C012091EE0E3091EF0E4091F00ECD
:1040D0005091F10EC501B4010E945C892FE832ECC9
:1040E00045E75FE30E94678F4B015C012DEE3EE2E6
:1040F00045E652E46BA17CA18DA19EA10E94678F31
:1041000020E137ED43E25DE30E94678F9B01AC0144
:10411000C501B4010E945C892F89388D498D5A8D63
:104120002093F60E3093F70E4093F80E5093F90E4D
:10413000C092F20ED092F30EE092F40EF092F50ED1
:104140006093EE0E7093EF0E8093F00E9093F10E4D
:104150002F8D38A149A15AA12093EA0E3093EB0E7E
:104160004093EC0E5093ED0E2BA53CA54DA55EA5FE
:104170002093E60E3093E70E4093E80E5093E90E3D
:104180002FA538A949A95AA92093E20E3093E30E2E
:104190004093E40E5093E50E2BA93CA94DA95EA9CE
:1041A0002093DE0E3093DF0E4093E00E5093E10E2D
:1041B000E6ECFEE0C082D182E282F3826483758302
:1041C000868397838F8D98A1A9A1BAA180879187B3
:1041D000A287B3872F85388949895A8924873587EB
:1041E00046875787408A518A628A738A8B899C895D
:1041F000AD89BE89848B958BA68BB78B88E1D8015E
:1042000001900D928A95E1F7C801E6960FB6F894F1
:10421000DEBF0FBECDBFDF91CF911F910F91FF90F9
:10422000EF90DF90CF90BF90AF909F908F907F9056
:104230006F905F904F90089582EA90E10E94BC1BBE
:10424000892B09F451C082EA90E10E949B1B8934BA
:1042500049F134F4843421F1853441F581E027C0FB
:104260008635E1F0873501F1823501F586E997E081
:104270009F938F9383E39FE09F938F930E942C35AE
:1042800068EE73E080E090E00E94161EE0E0F0E04F
:1042900019950F900F900F900F9008C085E007C000
:1042A00084E005C083E003C082E001C080E0282FE5
:1042B00030E02630310514F025E030E03093340F43
:1042C0002093330F1F928F9384EC97E09F938F93EB
:1042D00083E39FE09F938F930E9456350F900F903A
:1042E0000F900F900F900F900895CF93DF93EC01F4
:1042F0008A819B81DC01ED91FC910480F581E02DA8
:104300006A8519958A85813439F4EA81FB81EA58F6
:10431000FF4F8081846080831A861B861C861D86E1
:104320001E861F86188A80E0DF91CF91089581E074
:10433000693009F080E00895FC01828508952F928C
:104340003F924F925F926F927F928F929F92AF9225
:10435000BF92CF92DF92EF92FF920F931F93CF9372
:10436000DF93CDB7DEB766970FB6F894DEBF0FBE0A
:10437000CDBF7C01162F6A01FA0180819181A28153
:10438000B3818130F3E09F07F1E0AF07B105E1F0C1
:1043900060F48115E1E09E07AE07B10569F1813057
:1043A0009140A140B10581F067C1833021E09207BF
:1043B00020E1A207B10509F46BC083309340A0410E
:1043C000B10509F465C058C180910F0F811154C126
:1043D000412F61E1C7010E94F31A412F60E1C7013B
:1043E0000E94F31A412F64E0C7010E94471B81E03D
:1043F00080930F0F81EB58C1462F61E1C7010E94E6
:10440000F31A412F60E1C7010E94F31A10920F0FB7
:10441000D7011A968C911A9787701770880F880F9A
:10442000880F182B1296CD90DC901397112309F466
:1044300023C15601B6E5AB0EB11CE12CF12CF50100
:10444000819191915F010097D9F0DC01ED91FC9190
:104450000084F185E02D1995811312C0BBE2EB0EAB
:10446000F11CEE0CFF1CF601EE0DFF1D8081918109
:10447000DC01ED91FC910480F581E02D1995FCC0E3
:10448000BFEFEB1AFB0AE0E1EE16F104C1F6F4C04F
:10449000412F64E1C7010E94F31A412F60E1C70177
:1044A0000E94F31A64E170E080E090E00E941F3007
:1044B000D7011A968C911A97F60151808770482E71
:1044C0001296ED90FC9013971B8A88E08C8B8CE3FE
:1044D0008D8BFAEFEF16FFEFFF0609F4CBC051FA10
:1044E000552450F8D7011696CD90DC901797CE0141
:1044F000439617969C938E9316971A965C929E01FC
:104500002F5F3F4F42E150E060E0C7010E94421A36
:10451000F701D782C6828111ADC089849A846B84E9
:104520007C84FD81FE8B2E80670126E5C20ED11CA6
:104530005601312CD5018D919C91009789F1DC01B8
:10454000ED91FC910084F185E02D1995811128C031
:10455000F50180819181DC01ED91FC910088F18968
:10456000E02D622D19958823D9F0F5018081918184
:10457000DC01ED91FC910484F585E02DA301B401EB
:10458000199581117BC0F50180819181DC01ED914C
:10459000FC910684F785E02D6E89199581116EC016
:1045A0003394B2E0AB0EB11CE0E13E12C3CFB12CAC
:1045B000D6018D919C91009791F1DC01ED91FC91D8
:1045C0000084F185E02D1995811129C0F6018081C3
:1045D0009181DC01ED91FC910088F189E02D622D43
:1045E0001995882309F455C0F60180819181DC0179
:1045F000ED91FC910484F585E02DA301B40119959A
:1046000081110DC0F60180819181DC01ED91FC9159
:104610000684F785E02D6E8919958823D1F1B3942E
:10462000B2E0CB0ED11CE0E1BE12C2CFD70116968C
:104630008D919C911797892BE9F01A965C92212F06
:1046400040E0642DC7010E948A11182F882391F041
:10465000682FC7010E94E611009761F0FC015482A7
:10466000612FC7010E948C1A882321F0612FC70196
:104670000E94621110920F0F80E016C0052D212FAD
:10468000442D632DC7010E94CB16813D09F488CFCC
:10469000F1CF052D212F442D6B2DC7010E94CB1684
:1046A000877F813D39F7BBCF66960FB6F894DEBFA2
:1046B0000FBECDBFDF91CF911F910F91FF90EF9073
:1046C000DF90CF90BF90AF909F908F907F906F9032
:1046D0005F904F903F902F900895CF92DF92FF927E
:1046E0000F931F93CF93DF9300D01F92CDB7DEB708
:1046F0008C01F62E19821A821B821C82462F61E1E0
:104700000E94F31A4F2D60E1C8010E94F31A4F2D49
:1047100064E0C8010E94471B83E0C82ED12CAE0183
:104720004F5F5F4F6F2DC8010E941C1B8823E1F073
:104730004F2D64E1C8010E94F31A4F2D60E1C801BA
:104740000E94F31A64E170E080E090E00E941F3064
:104750000F900F900F900F90DF91CF911F910F91BD
:10476000FF90DF90CF90089589819A81AB81BC81C1
:104770009D7F83309140A041B105D1F264E670E0A5
:1047800080E090E00E941F3081E0C81AD10839F61D
:10479000CFCFDF92EF92FF920F931F93CF93DF93D0
:1047A000CDB7DEB72E970FB6F894DEBF0FBECDBFE4
:1047B000FC012089211102C010E07FC07C010E9411
:1047C0005930F7010485158526853785DC01CB0135
:1047D000801B910BA20BB30BB7FDEECF81E090E0F5
:1047E0009E878D878E010F5F1F4F9E01235F3F4F76
:1047F00041E06285828193810E94BC1A81114FC081
:1048000001E082E0D82E89818D21C1F019861A86B7
:104810001B861C86AE01475F5F4F602FC7010E9459
:104820001C1B81110BC0AE01475F5F4F602FC7019A
:104830000E949F21813B89F1811131C0DD0C0F5F06
:10484000083009F701E0F7018385801730F11986F8
:104850001A861B861C86AE01475F5F4F602FC7011B
:104860000E941C1B811117C089859A8587709170E1
:104870008130914081F48B859C8581609C878B87FA
:10488000AE01475F5F4F602FC7010E949F21813BB0
:1048900021F0811104C00F5FD6CF10E001C0182FA6
:1048A0000E945930DC01CB018C599F4FAF4FBF4F55
:1048B000F70184879587A687B787812F2E960FB635
:1048C000F894DEBF0FBECDBFDF91CF911F910F9146
:1048D000FF90EF90DF9008953F924F925F926F921A
:1048E0007F928F929F92AF92BF92CF92DF92EF9280
:1048F000FF920F931F93CF93DF93CDB7DEB7E89767
:104900000FB6F894DEBF0FBECDBFDC011296ED905E
:10491000FC9013971A963C9131110BC1822E342EC4
:10492000962E3C01D701ED91FC910190F081E02D94
:1049300060E0C70119958C01009709F4FCC0FC01E7
:10494000C080D180C114D10409F4F7C05301F4E050
:10495000AF0EB11CDC011196BC92AE9214968C92F3
:10496000FE0131962F019F0148E050E060E0D30145
:1049700012968D919C9113970E94421AF80114820D
:104980008111E1C089808D81893009F0D8C0D701BB
:10499000ED91FC910280F381E02D232D41E0692D02
:1049A000C7011995F3018287882309F4CAC0988545
:1049B0009583682F828193810E948C1A982E882378
:1049C00091F0D801CD92DC92D701ED91FC91048059
:1049D000F581E02DD3011A966C91C7011995F30169
:1049E0001286192DB4C0482D413208F040E2D8019A
:1049F000CD92DC9241110BC0950142E0F30162853A
:104A0000828193810E94D9858111A0C00FC050E09E
:104A10009201D3011A966C911A9712968D919C91DE
:104A200013970E94421A811191C0E6CF1F921F92E4
:104A30005F924F9288E0882E912C98E0A92EB12C9D
:104A4000C12CD12C29E2E22E00E026E040EAF3015D
:104A50006285828193810E94A218182F0F900F9077
:104A60000F900F90811173C08B81D3011B968C9393
:104A70001B97820120E048E050E01A966C911A974B
:104A800012968D919C9113970E94661A81115EC0B7
:104A90004B815C8120E0F3016285828193810E94D9
:104AA000661A811153C0498150E08E010F5D1F4F7E
:104AB00020E0D3011A966C911A9712968D919C91D1
:104AC00013970E94661A811141C01F921F921F9274
:104AD0001F92812C912CA12CB12CE12C0E8129E06C
:104AE00040E0F3016285828193810E94A218182F11
:104AF0000F900F900F900F90811129C001E0D3010A
:104B00001B968C911B97801738F0402F68E0C301EB
:104B10000E94471B0F5FF3CF1296ED91FC91139704
:104B2000EA58FF4F80818460808381E050968C93A7
:104B30000EC019ED0CC016ED0AC017ED08C011ED3E
:104B400006C014ED04C0F801D182C082182F812F55
:104B5000E8960FB6F894DEBF0FBECDBFDF91CF91C0
:104B60001F910F91FF90EF90DF90CF90BF90AF908B
:104B70009F908F907F906F905F904F903F9008959F
:104B8000CF92DF92EF92FF920F931F93CF93DF9319
:104B90006C018B017A01EC01C05FD04F888187FFE7
:104BA00004C0FB011182108224C08CE08C9D900116
:104BB0008D9D300D11248881A901480F511D87FD5D
:104BC0005A9580918F1290E04817590794F4888184
:104BD000A901480F511D87FD5A95CA01FA01EE0F30
:104BE000FF1F8E0F9F1FFC01E150FE4E808186FD4E
:104BF00019C088818F5F88838CE08C9D90018D9D8A
:104C0000300D11248881A901480F511D87FD5A9547
:104C100080918F1290E048175907BCF488818C303E
:104C200044F113C08881280F311D87FD3A95F901A1
:104C3000EE0FFF1F2E0F3F1FF901E150FE4E808146
:104C400060E08F730E947D2FD4CFF8018081918125
:104C5000049680349C4918F480E49CE904C0F8016F
:104C6000808191810496F701918380838FEF8883FF
:104C700045C0F801408151818881B901680F711DDB
:104C800087FD7A95CB01FB01EE0FFF1F8E0F9F1F53
:104C9000FC01E150FE4E81819281840F951FF70146
:104CA000918380838881A901480F511D87FD5A9502
:104CB000CA01FA01EE0FFF1F8E0F9F1FFC01E1508A
:104CC000FE4E808186FF1AC08881280F311D87FD26
:104CD0003A95F901EE0FFF1F2E0F3F1FF901E1502A
:104CE000FE4E808161E08F73DF91CF911F910F9114
:104CF000FF90EF90DF90CF900C947D2FDF91CF91BC
:104D00001F910F91FF90EF90DF90CF9008951F9229
:104D10000F920FB60F9211240BB60F922F933F9361
:104D20004F935F936F937F938F939F93AF93BF93B3
:104D3000EF93FF9348EA50E064EA70E083E090E08C
:104D40000E94C025FF91EF91BF91AF919F918F91EC
:104D50007F916F915F914F913F912F910F900BBE7B
:104D60000F900FBE0F901F9018951F920F920FB6C5
:104D70000F9211240BB60F922F933F934F935F9393
:104D80006F937F938F939F93AF93BF93EF93FF9313
:104D900048E950E064E970E082E090E00E94C025BC
:104DA000FF91EF91BF91AF919F918F917F916F9103
:104DB0005F914F913F912F910F900BBE0F900FBEBF
:104DC0000F901F9018951F920F920FB60F921124FB
:104DD0000BB60F922F933F934F935F936F937F93F5
:104DE0008F939F93AF93BF93EF93FF9348E850E067
:104DF00064E870E081E090E00E94C025FF91EF91AF
:104E0000BF91AF919F918F917F916F915F914F91E2
:104E10003F912F910F900BBE0F900FBE0F901F90E0
:104E20001895CF93DF93FC01EA0180819181892B52
:104E300019F580E027C028813981232BD1F3DB01CC
:104E40002D913C91D9019C91A381B0E0A81BB1099F
:104E500020813181A20FB31F9C9382818150828374
:104E600088819981019799838883DB018D919C9139
:104E7000119701968D939C9382818111DCCF838160
:104E8000828381E0DF91CF910895CF93DF93CDB7F7
:104E9000DEB7AA970FB6F894DEBF0FBECDBF45E0D0
:104EA00050E060E070E08091180F9091190F0E941F
:104EB000385A813009F027C38AED97E09F938F938A
:104EC00083E39FE09F938F930E9456358AE20E946E
:104ED000E23480E090E00E94038340E052EC61E025
:104EE00070E085E49FE00E947B348FEF9FEF9A8310
:104EF00089830E94F98280E098E00E94AC860F903E
:104F00000F900F900F9085E49FE00E94BC1B0497C8
:104F1000D4F385E49FE00E94BC1B892BE9F185E472
:104F20009FE00E949B1BBE016F5F7F4F0E94F68532
:104F3000019779F789819A8197FDEBCF60E677E059
:104F400088E794E10E94398C892B41F080E090E061
:104F50000E940383CC24C394D12C21C080E090E034
:104F60000E94038382E08F9383E28F9388E392E031
:104F70009F938F9387E098E09F938F9383E39FE0C5
:104F80009F938F930E9401350FB6F894DEBF0FBE3A
:104F9000CDBF8FEF9FEF89C0CC24CA94DC2C64E690
:104FA00070E080E090E00E94161E0E94F98280E28C
:104FB000E8E7F4E1DF011D928A95E9F785E49FE0D7
:104FC0000E94BC1B0297D4F300E010E043E4A42E3F
:104FD00048E0B42E53E3652E5FE0752E60E2962E16
:104FE00085E49FE00E94BC1B892B09F450C085E436
:104FF0009FE00E949B1BBE016F5F7F4F0E94F68562
:10500000019771F7E980FA80F7FCEACF67E378E06F
:1050100088E794E10E94398C892BF9F40F5F1F4FC8
:1050200038E7C32E34E1D32EDF92CF92FF92EF9276
:105030001F930F93BF92AF927F926F920E94532D56
:10504000F601292D11922A95E9F70FB6F894DEBFE3
:105050000FBECDBFC12CD12CC3CF88E794E19F9365
:105060008F93FF92EF921F930F938BE698E09F939D
:105070008F9383E39FE09F938F930E94532D0FB6EE
:10508000F894DEBF0FBECDBFCC24C394D12C80E0FA
:1050900090E00E94038381E090E0CA94CD2811F44F
:1050A00080E090E0919581959109892B09F075C078
:1050B00083E998E09F938F9383E39FE09F938F937F
:1050C0000E9456358FEF9FEF9A83898380E2E8E74D
:1050D000F4E1DF011D928A95E9F70E94F98288EBDD
:1050E00098E00E94AC860F900F900F900F9085E48F
:1050F0009FE00E94BC1B0497D4F385E49FE00E94CC
:10510000BC1B892BE1F185E49FE00E949B1BBE0143
:105110006F5F7F4F0E94F685019779F789819A81A9
:1051200097FDEBCF60E677E088E794E10E94398C49
:10513000892B39F080E090E00E94038301E010E0C9
:1051400020C080E090E00E94038383E08F9385E29B
:105150008F9383E492E09F938F938BEB98E09F93E0
:105160008F9383E39FE09F938F930E9401350FB647
:10517000F894DEBF0FBECDBF0FEF1FEF0BC000E0F6
:1051800010E080E090E00E940383F1E00F2711958A
:1051900001951109012B71F049C08BEE98E09F93A6
:1051A0008F9303E31FE01F930F930E9401358EE05E
:1051B00099E08DC180E499E09F938F9303E31FE012
:1051C0001F930F930E9456350E9422837C010F90FB
:1051D0000F900F900F90892B09F012C18FEC99E07E
:1051E0009F938F931F930F930E9456358FEF9FEFDE
:1051F0009A83898308E714E180E2D8011D928A9599
:10520000E9F70E94F9821F921F928DEF99E09F9318
:105210008F931F930F930E94538CC8010E94AC86FA
:105220000FB6F894DEBF0FBECDBF0DC086E699E085
:105230009F938F9303E31FE01F930F930E94013509
:105240008CE899E044C185E49FE00E94BC1B049770
:10525000D4F380E2E8E7F4E1DF011D928A95E9F7F3
:1052600085E49FE00E94BC1B892BD9F185E49FE077
:105270000E949B1BBE016F5F7F4F0E94F6850197C6
:1052800079F789819A8197FDEBCF60E677E088E72F
:1052900094E10E94398C892B29F080E090E00E94F3
:1052A00003831FC080E090E00E94038383E08F931C
:1052B00086E68F938EE492E09F938F9389E09AE045
:1052C0009F938F9383E39FE09F938F930E94013579
:1052D0000FB6F894DEBF0FBECDBFEE24EA94FE2CCD
:1052E0008CC080E090E00E94038380E2E8E7F4E174
:1052F000DF011D928A95E9F785E49FE00E94BC1BBF
:10530000892B31F185E49FE00E949B1BBE016F5FFA
:105310007F4F0E94F685019779F788E794E19F9384
:105320008F9383E08F9385E78F938EE492E09F9332
:105330008F9389E39AE09F938F9383E39FE09F93FA
:105340008F930E94532D0FB6F894DEBF0FBECDBFD2
:1053500080E2E8E7F4E1DF011D928A95E9F785E450
:105360009FE00E94BC1B892B31F185E49FE00E94E5
:105370009B1BBE016F5F7F4F0E94F685019779F7F7
:1053800088E794E19F938F9383E08F9386E88F93D0
:105390008EE492E09F938F9389E79AE09F938F9397
:1053A00083E39FE09F938F930E94532D0FB6F89451
:1053B000DEBF0FBECDBF80E2E8E7F4E1DF011D9262
:1053C0008A95E9F785E49FE00E94BC1B85E49FE095
:1053D0000E949B1BBE016F5F7F4F0E94F685019765
:1053E00089F769EB7AE088E794E10E94398C892B90
:1053F00049F380E090E00E940383EF2861F01EC033
:105400008FEB9AE09F938F931F930F930E94013528
:1054100089EE9AE05CC08CE29BE09F938F9303E35C
:105420001FE01F930F930E9456350E9422830F9016
:105430000F900F900F90892B71F03FC08FE59BE08C
:105440009F938F9303E31FE01F930F930E940135F7
:105450008FE79BE03CC082EC9BE09F938F931F9370
:105460000F930E94563580EF9BE09F938F931F937D
:105470000F930E94563583E090E09093340F809311
:10548000330F1F928F9384EC97E09F938F931F931A
:105490000F930E9456358091180F9091190F0FB6F7
:1054A000F894DEBF0FBECDBF009769F140E050E039
:1054B00060E070E00E949D6826C080E19CE09F93C0
:1054C0008F931F930F930E9401358AE39CE09F9373
:1054D0008F931F930F930E9456350FB6F894DEBF3B
:1054E0000FBECDBF8DE99CE09F938F9383E39FE038
:1054F0009F938F930E9401350F900F900F900F9004
:105500000E941C21FDCFE091160FF091170F3097EC
:1055100009F47CC08091770E9091780EE817F90716
:1055200009F474C00FB6F8940F928285938584565F
:105530009E4009F069C0848995893EE089379307C8
:1055400009F462C0892B09F05FC09F012E5F3F4FB5
:105550008481958146815781DC0115965C934E9339
:105560001497A681B78113969C938E93129780917E
:10557000650E9091660E8217930721F4B093660E24
:10558000A093650E138612868091640E81508093DD
:10559000640EA6898091A70E8A1710F4A093A70E17
:1055A00089E0A89FD0011124BD016D57714FDB0127
:1055B00011968D919C91129795838483DC011496AA
:1055C0004D915C9115975783468314964D915C914C
:1055D0001597DA0113963C932E931297DC011596DA
:1055E0003C932E93149773876287DB018C918F5FB6
:1055F0008C93A091770EB091780E968956968C91E7
:10560000981710F00E9434820F900FBE45E050E0D2
:1056100060E070E08091180F9091190F0E94385A45
:105620008130D1F48DE79CE09F938F9383E39FE0DB
:105630009F938F930E94532D8091180F9091190F73
:105640000F900F900F900F90009731F040E050E0D6
:1056500060E070E00E949D6888248A9483E0982E20
:10566000A12CB12C0E94D2761C01CE0101960E9481
:10567000FC1E8091140F9091150F009709F4CDC076
:105680004AE050E0BE01675E7F4F0E94385A88238F
:1056900009F4C3C0EE8CFF8CC8A0D9A02BA130E0C8
:1056A000A4E1B0E00E9479902FEF30E040E050E0BC
:1056B0000E94259029013A01BAE04B1A510861086D
:1056C00071089701ACE3B0E00E947990A5019401C4
:1056D0000E942590DA01C901CC96A11DB11DE42DCF
:1056E000E80FEAA7E09300029601ACE3B0E00E9465
:1056F0007990A50194010E942590022F040D0E5C63
:1057000000930102D70124EC3FEF4FEF5FEF0E94BF
:105710004490A50194010E942590122F140D115858
:1057200010930202D60124EC3FEF4FEF5FEF0E948F
:105730004490A50194010E942590DA01C90188587E
:105740009F4FAF4FBF4F480E409203028CA1803451
:1057500041F460ED77E080E992E10E94A10F1092A0
:10576000320F8EA1803441F460E070E080E992E174
:105770000E94A10F1092320F8CA1803449F468E28C
:1057800074E080E992E10E94A10FF1E0F093320F02
:105790008091320F8823F9F02DA1822F90E0A0E0B4
:1057A000B0E09C01AD012F5F310941095109A8EA20
:1057B000B3E00E94449021E03FEF4FEF5FEF0E9483
:1057C0002590CA01B901685D7B4F8F4F9F4F80E9DB
:1057D00092E10E94A10F2AA5622F70E083E992E175
:1057E0000E94D60F602F70E086E992E10E94D60FEA
:1057F000612F70E089E992E10E94D60F642D70E07C
:105800008CE992E10E94D60FE6ECFEE0AAE1BFE04F
:1058100088E101900D928A95E1F739A628A66EE3FA
:1058200070E0CE0188960E94DC761CCFE091A21039
:10583000F091A3100190F081E02D682F82EA90E1B1
:105840001994BC0182EA90E10C94251D8F929F92DD
:10585000AF92BF920F931F93CF93DF93CDB7DEB775
:10586000A1970FB6F894DEBF0FBECDBF19A242308C
:1058700008F44AE08E010F5D1F4F842E912CA12C5D
:10588000B12CA50194010E945790E62FB901CA01DD
:1058900001501109EA3014F4E05D01C0E95CD8015F
:1058A000EC93232B242B252B61F7B80182EA90E19E
:1058B0000E94251DA1960FB6F894DEBF0FBECDBF86
:1058C000DF91CF911F910F91BF90AF909F908F90DC
:1058D0000895CF92DF92EF92FF92CF93DF936B0107
:1058E0007C014115510581F4E091A210F091A310C3
:1058F0000190F081E02D82EA90E1DF91CF91FF905D
:10590000EF90DF90CF9019944A305105D1F497FF72
:1059100017C08DE20E94162CEC0166277727CB0179
:105920006C197D098E099F094AE00E94262C8C0F74
:105930009D1FDF91CF91FF90EF90DF90CF90089562
:105940004AE0C701B601DF91CF91FF90EF90DF9061
:10595000CF900C94262CEF92FF920F931F93CF932E
:10596000DF938C01EB01F8018081882309F491C059
:10597000853209F085C078018FEFE81AF80AF8013E
:105980008181882309F485C0853219F40E94162C80
:105990007CC0833731F48E010E5F1F4F888199815F
:1059A0006BC0843611F0893679F48E010E5F1F4F7B
:1059B00068817981072E000C880B990B4AE050E032
:1059C0000E94692CE80161C0883731F0883579F48C
:1059D0008EEB9CE00E94212C8E010E5F1F4F688190
:1059E0007981072E000C880B990B40E112C082369A
:1059F00031F0823489F481EC9CE00E94212C8E01EC
:105A00000E5F1F4F68817981072E000C880B990B60
:105A100042E00E94262CD6CF8C3641F48E010C5FDA
:105A20001F4F688179818A819B81C8CF833639F481
:105A30008E010E5F1F4F88810E94162CC3CF8437C2
:105A400069F48E010E5F1F4F88819981019719F4C7
:105A500089EB98E011C084EC9CE00EC0843579F4A9
:105A60008E010E5F1F4F88819981019719F486EC92
:105A70009CE002C08BEC9CE00E94212CA3CF87010C
:105A8000F80180810E94162C780187010F5F1F4F5B
:105A90006ACFDF91CF911F910F91FF90EF90089502
:105AA0004AE00C94262CCF93DF93CDB7DEB78091DC
:105AB000330F9091340F0597ECF060E070E081EDCA
:105AC0009CE00E94AB2C0E94FA2F0E94502D87ED83
:105AD0009CE00E94212C0E9459300E94502D89ED9B
